:100000000C942D050C9455050C9455050C94550530
:100010000C9455050C9455050C9455050C945505F8
:100020000C9455050C9455050C94FE110C9470120B
:100030000C9455050C9455050C9455050C945505D8
:100040000C9455050C9455050C9455050C945505C8
:100050000C9455050C9455050C9455050C94DD181D
:100060000C9455050C9455050C9455050C945505A8
:100070000C9455050C9455050C9455050C94550598
:100080000C9430170C9455050C9455050C9455059B
:100090000C9455050C9455050C9455050C94550578
:1000A0000C9455050C9455050C945505BB0D040E88
:1000B000620E8C0E370F370F370F370F370FB60E14
:1000C000B60EB60EB60EB60EB60E370F370F370F8A
:1000D000370FF80EF80EF80EF80EF80EF80EF0F8CE
:1000E0009C8E8783878E9CF8F00000FEFF0303033D
:1000F0000303070EFCF80000FEFF030303030307DE
:100100000EFCF80000FFFF00000000000000FFFFF1
:100110000000FEFF8383838383C7EE7C380000F8F2
:10012000FC0E07030303070EFCF800003F7FE0C04E
:100130008080C0E07F3FFFFF01010101010101FF5D
:10014000FF0000FFFF0C0C0C0C1C3E77E3C100000D
:100150007FFFC0C0C0C0C0E0703F1F00001F3F70E5
:10016000E0C0C0C0E0703F1F00007FFFC1C1C1C13F
:10017000C1E3773E1C00001F3F70E0C0C0C0E070CC
:100180003F1F000000000001FFFF01000000D5F04C
:100190008D14A1C881CFD9F1AF2000470047616D10
:1001A00065204F766572210052656164790062793D
:1001B0002040696E615F616E6900504F4954544F31
:1001C00000436C6561722100000000000000000027
:1001D000000000000000000000000000000000001F
:1001E000000000000000000000000000000000000F
:1001F00000000000000000000000000000000000FF
:1002000000000000000000000000000000000000EE
:1002100000000000000003030000000000000000D8
:1002200000000000000003030000000000000000C8
:1002300000000000000000000100000000000000BD
:1002400000020000020000020000000000000000A8
:100250000000000000000303000000000000000098
:100260000000000000000303000004040404040470
:10027000040404040404040404000000000000005A
:10028000000000000000000000000000000000006E
:10029000000000000000000004040404040404043E
:1002A0000404040404040000000000000000000036
:1002B0000000000000000004010000000000000039
:1002C000000000000000000000000000000000002E
:1002D000000000000000000000000000000000001E
:1002E000000000000000000000000000000000000E
:1002F00000000000000000000000000000000000FE
:10030000000000000000000000000A000000000BD8
:10031000000000000C0000000000000014000000BD
:10032000001500000000160000000000140000008E
:10033000001500000000160001000000140000007D
:1003400000150000000016030A000200000004006F
:100350000000000000000000040404040404040081
:1003600000000000000000000B000000000204007C
:100370000000000000000000040404040404040061
:100380000000140015000000000000000000000044
:100390000000140015000000000000000000000034
:1003A0000000140015000000000000000001000023
:1003B0000000140015000000000000000000000014
:1003C0000000140015000003000000000000000001
:1003D0000000000000000000000202020200030012
:1003E000000000000000000000000000000000000D
:1003F00000000000000000000000000000000000FD
:1004000000000000000000000000000000000400E8
:1004100000000000000000000000000000000000DC
:1004200000000000000000040000000004040000C0
:1004300004000004040000040100000000000000AB
:1004400000000000000004040000000000000000A4
:100450000000000000000003000000000000000099
:100460000000000000000004000000000000000088
:100470000000000000000400000000000000000078
:100480000000000000040000000000000000000068
:100490000000000004000000000000000000000058
:1004A0000000000400000000000000000000000048
:1004B0000000040000000000000000000000000137
:1004C0000004000000000000080B0002020201000E
:1004D00009040000010202000005240010010524A7
:1004E0000101010424020605240600010705810319
:1004F00010004009040100020A0000000705020282
:100500004000000705830240000004030904417213
:100510006475696E6F204C4C430041726475696E5E
:100520006F204C656F6E6172646F001201000200F3
:100530000000404123368000010102030112010046
:1005400002EF020140412336800001010203010055
:10055000000000003E5B4F5B3E3E6B4F6B3E1C3E1F
:100560007C3E1C183C7E3C181C577D571C1C5E7F33
:100570005E1C00183C1800FFE7C3E7FF00182418B2
:1005800000FFE7DBE7FF30483A060E2629792926E7
:10059000407F050507407F05253F5A3CE73C5A7FD1
:1005A0003E1C1C08081C1C3E7F14227F22145F5F27
:1005B000005F5F06097F017F006689956A60606061
:1005C000606094A2FFA29408047E040810207E209C
:1005D0001008082A1C08081C2A08081E10101010F1
:1005E0000C1E0C1E0C30383E3830060E3E0E060037
:1005F0000000000000005F00000007000700147FFB
:10060000147F14242A7F2A12231308646236495661
:1006100020500008070300001C2241000041221C5A
:10062000002A1C7F1C2A08083E0808008070300041
:100630000808080808000060600020100804023E56
:100640005149453E00427F40007249494946214197
:10065000494D331814127F1027454545393C4A4906
:100660004931412111090736494949364649492945
:100670001E00001400000040340000000814224155
:100680001414141414004122140802015909063EDE
:10069000415D594E7C1211127C7F494949363E41D9
:1006A0004141227F4141413E7F494949417F0909FA
:1006B00009013E414151737F0808087F00417F4195
:1006C000002040413F017F081422417F40404040CC
:1006D0007F021C027F7F0408107F3E4141413E7F24
:1006E000090909063E4151215E7F0919294626491B
:1006F00049493203017F01033F4040403F1F2040F2
:10070000201F3F4038403F631408146303047804FB
:10071000036159494D43007F4141410204081020C3
:10072000004141417F04020102044040404040003A
:100730000307080020545478407F28444438384444
:10074000444428384444287F385454541800087EC0
:10075000090218A4A49C787F0804047800447D4012
:10076000002040403D007F1028440000417F4000B1
:100770007C047804787C080404783844444438FCC9
:100780001824241818242418FC7C0804040848544D
:1007900054542404043F44243C4040207C1C20400A
:1007A000201C3C4030403C44281028444C90909001
:1007B0007C4464544C44000836410000007700003B
:1007C000004136080002010204023C2623263C1E9A
:1007D000A1A161123A4040207A385454555921550C
:1007E000557941215454784121555478402054552D
:1007F00079400C1E5272123955555559395454547A
:100800005939555454580000457C410002457D42F9
:100810000001457C40F0292429F0F0282528F07CAF
:10082000545545002054547C547C0A097F49324970
:100830004949323248484832324A4848303A4141C0
:10084000217A3A42402078009DA0A07D394444445A
:10085000393D4040403D3C24FF2424487E494366C6
:100860002B2FFC2F2BFF0929F620C0887E0903209F
:10087000545479410000447D413048484A32384060
:1008800040227A007A0A0A727D0D19317D262929C3
:100890002F28262929292630484D402038080808C5
:1008A0000808080808382F10C8ACBA2F102834FAE6
:1008B00000007B000008142A142222142A14089530
:1008C00000220095AA005500AAAA55AA55AA000020
:1008D00000FF00101010FF00141414FF001010FF90
:1008E00000FF1010F010F0141414FC001414F700A2
:1008F000FF0000FF00FF1414F404FC141417101F71
:1009000010101F101F1414141F00101010F00000FE
:1009100000001F101010101F10101010F010000019
:1009200000FF101010101010101010FF1000000029
:10093000FF140000FF00FF00001F10170000FC0460
:10094000F414141710171414F404F40000FF00F743
:1009500014141414141414F700F7141414171410A6
:10096000101F101F141414F4141010F010F00000D5
:100970001F101F0000001F14000000FC140000F0F6
:1009800010F01010FF10FF141414FF141010101F9B
:1009900000000000F010FFFFFFFFFFF0F0F0F0F0AC
:1009A000FFFFFF0000000000FFFF0F0F0F0F0F38C9
:1009B000444438447C2A2A3E147E02020606027E03
:1009C000027E0263554941633844443C04407E2022
:1009D0001E2006027E020299A5E7A5991C2A492A33
:1009E0001C4C7201724C304A4D4D303048784830C2
:1009F000BC625A463D3E494949007E0101017E2ABA
:100A00002A2A2A2A44445F444440514A44404044EC
:100A10004A51400000FF0103E080FF000008086B1E
:100A20006B083612362436060F090F060000181818
:100A30000000001010003040FF0101001F01011EE6
:100A400000191D1712003C3C3C3C00000000000156
:100A500002040810204080007F1C11241FBECFEF2D
:100A6000DAE0DEBFCDBF27E0AAE3B2E001C01D920D
:100A7000AD37B207E1F712E0A0E0B1E0E2EAFDE352
:100A800002C005900D92AA33B107D9F715E0CDE267
:100A9000D5E004C02197FE010E941D1DCC32D10774
:100AA000C9F70E9427190C94CF1E0C940000CF9216
:100AB000DF92EF92FF920F931F93CF93DF936C011E
:100AC0007A018B01C0E0D0E0CE15DF0589F0D801B6
:100AD0006D918D01D601ED91FC910190F081E02D99
:100AE000C6010995892B11F47E0102C02196ECCF35
:100AF000C701DF91CF911F910F91FF90EF90DF9091
:100B0000CF9008950895EF92FF920F931F93CF9384
:100B1000DF93FC0133A1828D831710F138133DC0A0
:100B200020E050E0BF016E5E7F4F2317B9F0DB017C
:100B300040E0CF01820F911D820F911D4B9643170C
:100B400059F0ED90FD90EC01088119810E151F05FB
:100B500009F051E04F5FF3CF2F5FE7CF5523E9F066
:100B6000968581E0982796873785A089B18980E0AE
:100B700012962C911297821780F4FD01E80FF11D57
:100B8000E80FF11D0480F581E02D309721F02585D7
:100B9000231301C092878F5FEBCFDF91CF911F911D
:100BA0000F91FF90EF900895FC0193A1DF01529601
:100BB00080E0891741F019962D913C911A972D9359
:100BC0003D938F5FF6CF828F13A20895DC01939639
:100BD0008C919397FD017B9690E0981739F02191C5
:100BE00031912617370761F09F5FF7CFFD01E90FBD
:100BF000F11DE90FF11D748F638F9F5F93969C9396
:100C00000895DC0193968C919397FD017B9690E07B
:100C1000981739F0219131912617370761F09F5FBE
:100C2000F7CFFD01E90FF11DE90FF11D748F638FFF
:100C30009F5F93969C930895FC0113821282158204
:100C4000148288E090E09783868391878087089557
:100C5000FC01228133812150310929F03383228321
:100C600085E090E0089584E690E09383828381E0BC
:100C700090E0089524E630E0FC0133832283089558
:100C80000895FC018585968521893289280F391FB1
:100C9000B90137FF04C066277727621B730B6930E1
:100CA00071051CF4368725870AC0C90123E0880F27
:100CB000991F2A95E1F70E94091D76876587228191
:100CC000338185859685820F931F93838283089550
:100CD0000895FC01138212821582148288E090E04C
:100CE000978386839187808715860895FC011382F8
:100CF00012821582148288E090E097838683918720
:100D000080870895FC01138212821582148288E084
:100D100090E0978386839187808708950F931F9330
:100D2000CF93DF93EC018B010E94CA0BF8018485FD
:100D3000813041F4EF89F88DEA57FF4F83E090E06E
:100D400091838083DF91CF911F910F9108950F932D
:100D50001F93CF93DF93EC018B010E94830BF8016B
:100D60008285882341F08F859889181619060CF41E
:100D70001D8A188A1F86F8018485813041F4EF8925
:100D8000F88DEA57FF4F83E090E091838083DF91F5
:100D9000CF911F910F9108950E94641EE4EEF6E03A
:100DA000178A168A8EE190E0918F808F81E0828F82
:100DB000138E8DE991E00C945D16DC0114962D9153
:100DC0003C91159784E0359527958A95E1F72F5F3B
:100DD0003F4FE4EEF6E012968D919C91139744E01C
:100DE000959587954A95E1F70196978B868B318F7C
:100DF000208F81E0828F138E8BE991E00C945D1639
:100E0000CF93DF930E947E16C4EED6E0198E188E23
:100E10001F8A1E8A8AEB91E00E945D1680E390E0B3
:100E20009F8B8E8B86E390E0998F888F8EEA91E07E
:100E3000DF91CF910C945D160F931F93CF938C018C
:100E40000E947E161092FD061092FC061092FB0680
:100E50001092FA06C0E0F8018281C81790F4F801F8
:100E6000EC0FF11DEC0FF11D84819581009739F095
:100E7000DC01ED91FC910280F381E02D0995CF5FBB
:100E8000EACFC0E0F8018381C817A0F4EC2FF0E0AE
:100E9000F296EE0FFF1FE00FF11F80819181009706
:100EA00039F0DC01ED91FC910280F381E02D099590
:100EB000CF5FE8CFCF911F910F910895CF93DF932C
:100EC000EC0188E00E948D1681110DC080E80E941F
:100ED0008D16882329F09A81992311F091509A83D5
:100EE00085E090E002C081E090E0DF91CF9108952D
:100EF00088E00E948D16811103C085E090E008957E
:100F000080E090E00895CF93DF93EC012885398548
:100F100084E0359527958A95E1F74E815F8194E0CD
:100F2000559547959A95E1F76C817D8134E07595EB
:100F300067953A95E1F78A819B8154E0959587956D
:100F40005A95E1F70E942F168C819D8164E095955A
:100F500087956A95E1F70196E4EEF6E02A813B81F8
:100F600074E0359527957A95E1F72F5F3F4F378BE2
:100F7000268B918F808F81E0828F138E8F85DF91FA
:100F8000CF910C949816FC012085318584E035952D
:100F900027958A95E1F74681578194E055954795C5
:100FA0009A95E1F76481758134E0759567953A9576
:100FB000E1F78281938154E0959587955A95E1F701
:100FC0000C942F16FC012085318584E035952795FA
:100FD0008A95E1F74681578194E0559547959A9512
:100FE000E1F76481758134E0759567953A95E1F78D
:100FF0008281938154E0959587955A95E1F70C94F9
:101000002F16CF92DF92EF92FF92CF93DF93EC01F6
:101010000E947E161092FD061092FC061092FB06AE
:101020001092FA0688EA91E00E945D1680E290E054
:101030009093FB068093FA061092FD061092FC0630
:10104000CA80DB800D2C000CEE08FF08F7FE0CC0F8
:101050008DE20E94981666277727CB016C197D09CF
:101060008E099F094AE003C04AE0C701B601DF913B
:10107000CF91FF90EF90DF90CF900C94A316AF929A
:10108000BF92DF92EF92FF920F931F93CF93DF9364
:10109000FC0122856481758182819381222309F478
:1010A0004BC0EF0140855185E4E055954795EA95A1
:1010B000E1F7D42E2E813F81F4E035952795FA95FE
:1010C000E1F78B01A4E015950795AA95E1F77C015E
:1010D000B4E0F594E794BA95E1F75701A20EB11C7C
:1010E000EA14FB044CF44D2DB801C7010E9404160C
:1010F0008FEFE81AF80AF4CF8C819D8144E0959532
:1011000087954A95E1F701962A813B8154E0359510
:1011100027955A95E1F72F5F3F4F3093FB062093B9
:10112000FA069093FD068093FC061092FE0681E07D
:101130008093FF068D851BC024E0759567952A95E1
:10114000E1F76F5F7F4F34E0959587953A95E1F72A
:1011500001969093FB068093FA067093FD066093C8
:10116000FC0681E08093FE061092FF068585DF91E4
:10117000CF911F910F91FF90EF90DF90BF90AF90B4
:101180000C9498163F924F925F926F927F928F923B
:101190009F92AF92BF92CF92DF92EF92FF920F9306
:1011A0001F93CF93DF93CDB7DEB78C016DB67EB6BC
:1011B000DC0113968C91EDB7FEB722E0829FE01917
:1011C000F10911240FB6F894FEBF0FBEEDBF8DB725
:1011D0009EB701966C01580196E8A90EB11C85E0F6
:1011E00090E0D5018D939C9388E00E948D16882312
:1011F00079F0F801EC57FF4F0190F081E02D8589DF
:10120000811106C08CED9FEF908B878781E0858BE5
:1012100084E00E948D16882309F472C0F80183814E
:10122000EC59FF4FA0E0A81731F021913191232B09
:1012300029F0AF5FF8CFFF24FA9401C0FA2E85E1C0
:1012400090E00E94371DFC01D801AC57BF4F8D9133
:101250009C91DC0114962D913C91159712964D911D
:101260005C91139761E06287407F5F705383428394
:10127000207F3F703583248320E430E0378326834A
:10128000318720871386148616861586108A17865E
:10129000128A118A2EE531E03183208322E030E08A
:1012A000348B238BAF2DB0E0D296AA0FBB1FA00FBB
:1012B000B11FED93FC93DC0156966C9156971296F4
:1012C0002D913C9113971D964D915C911E9766232D
:1012D00059F016968D919C911797280F391F3383DB
:1012E0002283CA01089606C0205431093383228321
:1012F000CA010897968785878CED9FEF908B87872B
:101300000E94431886FF10C0F801EC57FF4F019070
:10131000F081E02D8585968501969687858781E009
:10132000868BFF24F39401C0F12C0E94431885FFA3
:101330000DC0F801EC57FF4F0190F081E02D85853D
:101340009685019796878587168A0AC0F11008C08E
:10135000F801EC57FF4F0190F081E02D16861586BD
:10136000F12CF8018281F81690F4F801EF0DF11DCF
:10137000EF0DF11D84819581009739F0DC01ED912D
:10138000FC910084F185E02D0995F394EACFF12CCE
:10139000F8018381F816A0F4EF2DF0E0F296EE0F3D
:1013A000FF1FE00FF11F80819181009739F0DC0170
:1013B000ED91FC910084F185E02D0995F394E8CF3F
:1013C000512CD80113968C91581608F084C07801DE
:1013D000E50CF11CE50CF11CF4E6EF0EF11CD70155
:1013E0008D919C91009709F474C0DC01ED91FC9102
:1013F0000480F581E02D0995F70160817181A601D6
:10140000C8010E941510382E811115C0D7018D9189
:101410009C91DC01ED91FC910680F781E02D09950E
:10142000F70160817181A601C8010E941510382E54
:10143000811122C041C04601412CD7018D919C9160
:10144000DC01ED91FC91D4016D917C910484F585D2
:10145000E02D0995F401819191914F01DC01ED910D
:10146000FC91D7016D917C910484F585E02D09955F
:1014700043944310E2CFCACF4601412CF70180814B
:101480009181DC01ED91FC91D4016D917C910684F8
:10149000F785E02D0995F401819191914F01DC01CF
:1014A000ED91FC91D7016D917C910684F785E02D3B
:1014B000099543944310E2CFF70180819181DC01CB
:1014C0001B962C91222329F00E94CC1DF70111823A
:1014D0001082539476CFF12CF8018281F81690F4A3
:1014E000F801EF0DF11DEF0DF11D8481958100973D
:1014F00039F0DC01ED91FC910284F385E02D099532
:10150000F394EACFF12CF8018381F816A0F4EF2DC3
:10151000F0E0F296EE0FFF1FE00FF11F8081918146
:10152000009739F0DC01ED91FC910284F385E02D08
:101530000995F394E8CF512C7801F4E8EF0EF11CF3
:1015400084E0C82ED12CD80113968C91581640F502
:10155000C801850D911D850D911D4C0124E6820E5B
:10156000911CD4018D919C910097C1F0F70160818D
:1015700071818617970791F0DC01ED91FC9100884D
:10158000F189E02D0995882349F0D401ED91FC9172
:101590008485823019F4F501D182C0825394D3CF6F
:1015A000F501808191810FB6F8947EBE0FBE6DBEAD
:1015B000DF91CF911F910F91FF90EF90DF90CF902F
:1015C000BF90AF909F908F907F906F905F904F9063
:1015D0003F900895FC012281349680E0821731F01B
:1015E00041915191452B19F08F5FF8CF8FEF0895FE
:1015F000FC018585968521893289280F391FB9011B
:1016000037FF04C066277727621B730B69307105AB
:101610001CF4368725870AC0C90123E0880F991F6B
:101620002A95E1F70E94091D76876587228133811B
:1016300085859685820F931F9383828308950895ED
:101640000895EF92FF920F931F93CF93DF93DB01E7
:1016500012960D911C911397EC01EA81FB8114966F
:101660000D90BC91A02DEB0128853985EC014C81B2
:101670005D81E884F9848E819F81EB016E817F8199
:10168000600F711F8E0F9F1F681779070CF4CB0135
:10169000BF01E017F1070CF4B801861B970B181671
:1016A0001906B4F4BA016E0D7F1DCD01820F931F90
:1016B000681779070CF4CB019A014A175B070CF401
:1016C0009D01FC01E21BF30B81E01E161F060CF0CE
:1016D00080E0DF91CF911F910F91FF90EF900895DF
:1016E000089508950895089508950895FC011382BA
:1016F00012821582148288E090E097838683918716
:101700008087089508950F931F93CF93DF93EC0183
:101710008B01E881F9810088F189E02D0995882302
:10172000C1F0F80182858823A1F02F853889F8015E
:1017300084819581121613062CF428853985821B25
:10174000930B05C0F80120853185820F931F9D837F
:101750008C83DF91CF911F910F9108950C94830B8F
:101760000F931F93CF93DF93EC018B010E94830BA8
:10177000F8018285882349F08F8598891816190603
:1017800014F481E08B87188A1F86DF91CF911F9117
:101790000F9108950F931F93CF93DF93EC018B016B
:1017A000E881F9810088F189E02D09958823C1F04D
:1017B000F80182858823A1F02D853E85F80182817C
:1017C0009381121613062CF42E813F81821B930BFA
:1017D00005C0F80126813781820F931F9B838A837E
:1017E000DF91CF911F910F9108950F931F93CF9386
:1017F000DF93EC018B010E94CA0BF80182858823DC
:1018000039F08D859E859195819591099E878D876B
:10181000DF91CF911F910F9108950F931F93CF9355
:10182000DF93EC018B010E94CA0BF80182858823AB
:1018300011F01E861D86DF91CF911F910F910895A3
:10184000FC018785908923893489280F391FB901C4
:1018500037FF04C066277727621B730B613471055D
:101860001CF4308B27870AC0C90126E0880F991F16
:101870002A95E1F70E94091D708B678724813581C5
:1018800087859089820F931F958384830895FC0137
:101890008585968521893289280F391FB90137FF3F
:1018A00004C066277727621B730B613271051CF435
:1018B000368725870AC0C90125E0880F991F2A9518
:1018C000E1F70E94091D768765872281338185852E
:1018D0009685820F931F93838283089508952F9294
:1018E0003F924F925F926F927F928F929F92AF92B0
:1018F000BF92CF92DF92EF92FF920F931F93CF93FD
:10190000DF93CDB7DEB72C970FB6F894DEBF0FBECE
:10191000CDBF9C878B87F12CAB85BC8512968C91B3
:10192000F816A0F40B851C850F0D111D0F0D111D50
:10193000D80114968D919C911597009729F00E94DB
:10194000CC1DF80115821482F394E6CFF12CEB85BF
:10195000FC852380F214A8F48B859C858F0D911D46
:101960008F0D911D8C010C591F4FF80180819181C1
:10197000009729F00E94CC1DD8011D921C92F3946F
:10198000E6CF8EE090E00E94371D8C01BB24B3941B
:10199000DC011A96BC921A9713961C921E9212970B
:1019A00015961C921E921497612C58E0752E17966E
:1019B0007C926E92169760E2C62ED12C1996DC921C
:1019C000CE9218971B961C921B971C961C921C97E4
:1019D0007CECE72E71E0F72EED92FC928B859C85D6
:1019E0000E94EA0AEB85FC85E80FF11DE80FF11D66
:1019F000158304838EE090E00E94371D8C01FC016A
:101A0000B28613821282812CA4E09A2E958284825F
:101A10007782668280E890E09187808713861486BB
:101A2000F182E0828B859C850E94EA0AEB85FC8529
:101A3000E80FF11DE80FF11D158304838EE090E09F
:101A40000E94371D8C01DC011A96BC921A971396DE
:101A50001C921E92129715961C921E92149717961E
:101A6000DC92CE92169719969C928E9218971B969E
:101A70001C921B971C961C921C97ED92FC928B85D6
:101A80009C850E94EA0AEB85FC85E80FF11DE80FB2
:101A9000F11D158304838EE090E00E94371D8C01B8
:101AA000FC01B28680EE97E093838283D582C48264
:101AB000D782C68280EE93E0918780871386148652
:101AC000F182E0828B859C850E94EA0AEB85FC8589
:101AD000E80FF11DE80FF11D1583048380913A0290
:101AE00090E4899F900111243C832B83C12CD12C3D
:101AF000B0E8EB2EF12C4B845C84A4E64A0E511C1A
:101B00002B853C852C573F4F38872F83560184E027
:101B1000AA0CBB1C8A95E1F7C60102969C0194E0D1
:101B2000220F331F9A95E1F73E832D838B819C8191
:101B30008C0D9D1D9C01220F331F3A83298300E0E9
:101B400010E0612C712C3324339450E4852E912CB9
:101B5000E981FA81E60DF71DE853FE4F4491842F89
:101B600090E0FC013197E931F10508F080C1EA5AB3
:101B7000FF4F0C941D1DF201A0E0A21531F08191E0
:101B80009191892B21F0AF5FF8CF2FEF01C02A2F61
:101B900089E190E02A870E94371DFC013286C80146
:101BA00034E0880F991F3A95E1F793838283B582D9
:101BB000A4829782868291868086138614861686F2
:101BC0001586108A1786128A118A84E791E091831C
:101BD0008083158A368AAB85BC85B08FA78BAF8191
:101BE000B885ED93FC932A85A22FB0E0D296AA0F78
:101BF000BB1F2B853C85A20FB31FED93FC9382E0A6
:101C000090E0948B838B33C187E190E00E94371D75
:101C1000DC011A963C921A97C801029624E0880FBC
:101C2000991F2A95E1F713969C938E9312972D8115
:101C30003E8115963C932E93149717969C928E9204
:101C4000169719969C928E9218971B961C921B972A
:101C500050961C921E921F9752961C921E9251975C
:101C60008AE891E011969C938E9355961C92559715
:101C700056963C925697E0E1F0E01E96FC93EE9368
:101C80001D9782E01C968C931C9722E030E05496BE
:101C90003C932E935397F20120E0221531F081916D
:101CA0009191892B19F02F5FF8CF2FEFE22FF0E001
:101CB000F296EE0FFF1F2B853C85E20FF31FB183D9
:101CC000A083D5C08EE090E00E94371D9C01DC010E
:101CD0001A963C921A97C801F4E0880F991FFA955A
:101CE000E1F713969C938E9312971596BC92AE9241
:101CF00014971796FC92EE9216971996FC92EE9214
:101D000018971B961C921B97E0EAF1E01196FC9342
:101D1000EE931C963C929BC08EE090E00E94371D93
:101D20009C01DC011A963C921A97C801E4E0880FE6
:101D3000991FEA95E1F713969C938E931297159647
:101D4000BC92AE9214971796FC92EE921697199643
:101D5000FC92EE9218971B961C921B971C961C9255
:101D60001C97ECECF1E0ED93FC9371C084E290E001
:101D700049870E94371D9C01DC011A963C921A97F4
:101D8000C80174E0880F991F7A95E1F713969C9328
:101D90008E9312971596BC92AE9214971796FC925A
:101DA000EE9216971996FC92EE9218971B961C923B
:101DB0001B971C961C921C97E6EBF1E01196FC9386
:101DC000EE931E963C921E975A961C925A979396A3
:101DD0001C9293971D961C921D978B859C855196FE
:101DE0009C938E93509749854A5D1F964C9331C0C2
:101DF0008EE090E049870E94371D9C01DC011A9615
:101E00003C921A97C80164E0880F991F6A95E1F720
:101E100013969C938E9312971596BC92AE9214973C
:101E20001796FC92EE9216971996FC92EE921897DE
:101E30001B961C921B971C961C921C97E2EEF1E0DD
:101E40001196FC93EE934985445E1D964C938B85C9
:101E50009C852A8739870E94EA0AEB85FC85E80F72
:101E6000F11DE80FF11D2A85398535832483FFEFA5
:101E70006F1A7F0A085F1F4F20E16216710409F094
:101E800067CE38E0C30ED11C80E4C816D10409F037
:101E90003DCE2C960FB6F894DEBF0FBECDBFDF91BE
:101EA000CF911F910F91FF90EF90DF90CF90BF9057
:101EB000AF909F908F907F906F905F904F903F90EA
:101EC0002F900895CF92DF92EF92FF921F93CF93BE
:101ED000DF93FC014085518584E0559547958A95AF
:101EE000E1F7142F8681978124E0959587952A95AF
:101EF000E1F7E480F58034E0F594E7943A95E1F772
:101F0000C281D38144E0D595C7954A95E1F76E012A
:101F1000C80ED11CCC15DD053CF4412FB701CE0114
:101F20000E9404162196F6CFDF91CF911F91FF906A
:101F3000EF90DF90CF9008950E947E16E4EEF6E0D9
:101F4000118E108E178A168A81EC91E00C945D1622
:101F500088E00E948D16882341F080913A028F5FBD
:101F600080933A0282E090E0089585E090E0089541
:101F7000FC012085318584E0359527958A95E1F728
:101F80004681578194E0559547959A95E1F764818C
:101F9000758134E0759567953A95E1F78281938173
:101FA00054E0959587955A95E1F70C942F16FC010E
:101FB0002085318584E0359527958A95E1F746811E
:101FC000578194E0559547959A95E1F7648175811D
:101FD00034E0759567953A95E1F78281938154E0F5
:101FE000959587955A95E1F70C942F16FC0120855D
:101FF000318584E0359527958A95E1F746815781AB
:1020000094E0559547959A95E1F76481758134E0A0
:10201000759567953A95E1F78281938154E095959E
:1020200087955A95E1F70C942F16AF92BF92CF92F5
:10203000DF92EF92FF920F931F93CF93DF937C0178
:102040006B015A0100E010E0F7018281081728F5C2
:10205000E701C00FD11DC00FD11D8C819D8100975C
:10206000D1F0C816D906B9F0DC01ED91FC910088D9
:10207000F189E02DB6010995882369F0A114B10416
:1020800049F08C819D81F501E10FF11DE10FF11DFA
:10209000918380831F5F0F5FD7CF812FDF91CF9117
:1020A0001F910F91FF90EF90DF90CF90BF90AF9076
:1020B0000895089580914A0281110DC082E08093B5
:1020C000460284E08093470210924902109248022F
:1020D00081E080934A0286E492E00895CF93DF93F3
:1020E0001F92CDB7DEB76983DC01ED91FC910280D0
:1020F000F381E02D41E050E0BE016F5F7F4F099515
:102100000F90DF91CF91089583E08093E900809153
:10211000F200882319F08AE38093E8000895FC0117
:102120008485958597FD0BC09FB7F89482E08093D6
:10213000E9008091F2009FBF90E0019608959FB75B
:10214000F89482E08093E9008091F2009FBF90E0D4
:1021500008954091430250914402209141023091F0
:10216000420242175307B4F49091E8009570E1F3EE
:102170009091E80092FD19C08093F1008091430294
:102180009091440201968F739927892B19F48EEF51
:102190008093E800809143029091440201969093CD
:1021A00044028093430281E0089580E00895DF9225
:1021B000EF92FF920F931F93CF93DF93D82E8A0154
:1021C0007B01E40EF51EEB01CE15DF0571F0D7FEA5
:1021D00003C0FE01849101C088810E94A91021964C
:1021E0008111F2CF8FEF9FEF01C0C801DF91CF9136
:1021F0001F910F91FF90EF90DF9008950F931F9321
:10220000CF93DF931F92CDB7DEB782E0898342E49C
:1022100050E068EC74E080E80E94D7100E945A10E9
:10222000DC0112960D911C9113970115110569F0AF
:10223000D801ED91FC910280F381E02DBE016F5F2A
:102240007F4FC801099597FF07C089810F90DF91E3
:10225000CF911F910F910895F80100851185E5CF69
:102260008F929F92AF92BF92CF92DF92EF92FF92A6
:102270000F931F93CF93DF935C016B018A018091D1
:102280000F01882309F45EC080915402882309F469
:1022900059C080913F0280FF05C08091E0008260BC
:1022A0008093E000E8018AEFF82E93E0E92E2FE317
:1022B000822E3AE3932E209709F43DC08FB7F8940D
:1022C000E092E9009091E80095FF06C09091F2003D
:1022D000282D291B922F01C090E08FBF91110AC0B9
:1022E000FA94FF2079F161E070E080E090E00E94D4
:1022F000A318E1CF292F30E0C217D3070CF49C2F8D
:102300008FB7F894E092E9002091E80025FF11C012
:10231000292F30E0C21BD30BF601915020F04191E0
:102320004093F100FACFC20ED31E9091E80095FFC2
:1023300013C08FBFC0CF5D9884E68093450210160E
:10234000110644F081E090E0F5019383828380E000
:1023500090E005C0C80103C09092E800EACFDF9189
:10236000CF911F910F91FF90EF90DF90CF90BF9092
:10237000AF909F908F9008950F931F93CF93DF930B
:102380001F92CDB7DEB78C01FC018485958597FF40
:102390000EC0CE0101960E940617019719F42981FB
:1023A00030E002C02FEF3FEFF80135872487F801B6
:1023B000848595850F90DF91CF911F910F9108959E
:1023C000CF93DF931F92CDB7DEB7FC01848595854F
:1023D00097FD05C02FEF3FEF358724870BC0CE0157
:1023E00001960E940617019719F4898190E002C0B6
:1023F0008FEF9FEF0F90DF91CF9108951F920F9273
:102400000FB60F9211248F939F938091E1009091CA
:10241000E100937F9093E10083FF0FC01092E900E9
:1024200091E09093EB001092EC0092E39093ED001A
:102430001092540298E09093F00082FF20C093E045
:102440009093E9009091F200992319F09AE3909308
:10245000E80090914502992339F0909145029150FE
:1024600090934502992389F190915302992339F071
:1024700090915302915090935302992341F184FF1C
:1024800010C08091E2008E7E81608093E200809196
:10249000E1008F7E8093E10080913F028E7E80611B
:1024A00011C080FF16C08091E2008E7E8061809313
:1024B000E2008091E1008E7E8093E10080913F02F6
:1024C0008E7E816080933F0204C05D9ACDCF289AB2
:1024D000D6CF9F918F910F900FBE0F901F901895A0
:1024E0001F920F920FB60F921124CF92DF92EF92AC
:1024F000FF920F931F932F933F934F935F936F938D
:102500007F938F939F93AF93BF93EF93FF93CF935B
:10251000DF93CDB7DEB76C97DEBFCDBF1092E90079
:102520008091E80083FFFAC168E0CE0145960E94E1
:10253000961882EF8093E8008D8987FF05C09091FF
:10254000E80090FFFCCF03C09EEF9093E800982F27
:10255000907609F0C6C09E892F89188D91110CC004
:10256000803829F480913E028093F10002C01092DD
:10257000F1001092F10047C1422F50E0512B9130F1
:1025800051F4811140C14130510509F03CC18091A5
:102590003E028D7F0BC0933061F4811134C1413014
:1025A000510509F030C180913E02826080933E0265
:1025B0002AC1953041F48091E80080FFFCCF20686B
:1025C0002093E30020C1963009F05FC0EB8CFC8CB7
:1025D0001092E9001092440210924302123091F5D9
:1025E00010924202109241020E94FE1099E0BE0138
:1025F0006F5F7F4FDB01E92F1D92EA95E9F7998321
:102600001A8391E09E8390EA98879AEF99872091A8
:10261000430230914402275F3F4F3C832B838D83DD
:102620001092E9001092440210924302F09242028A
:10263000E092410249E050E080E00E94D7100E9401
:10264000FE10E1C0F0924202E09241020E945A1054
:10265000DC011296ED90FC901397E114F10409F45B
:10266000C0C0D701ED91FC910480F581E02DBE0141
:102670006B5E7F4FC7010995009719F00CF0C3C03E
:10268000C6C0F701E084F184E8CF973009F4BFC0F9
:10269000983021F481E08093F100B5C0993009F0C1
:1026A000B2C0837009F0B3C0E5EFF1E081E021E052
:1026B00036E39081992361F08093E9002093EB0049
:1026C00091919093EC003093ED008F5F873089F704
:1026D0008EE78093EA001092EA008F89809354027B
:1026E00092C08B8D9C8D1092E90010924402109242
:1026F00043029093420280934102898D811156C01A
:102700008E899D89913A59F4813209F080C047E061
:1027100050E068E071E080E00E94D71074C0913210
:1027200009F075C0833289F4888D90E0982F88274E
:102730002F89822BA0E0B0E08093040190930501E3
:10274000A0930601B09307015EC0803269F48091C6
:10275000E80082FFFCCF67E088E091E00E949618D5
:102760008BEF8093E80006C0823209F04CC08F895D
:1027700080930F0180913D02882319F0EEEFFAE07B
:1027800002C0E0E0F8E08091080190910901A09179
:102790000A01B0910B01803B9440A105B10509F0FD
:1027A00088C080910F0180FFA0C083C00E945A1092
:1027B000DC0112960D911C9113970115110539F149
:1027C000D801ED91FC910190F081E02DBE016B5E8E
:1027D0007F4FC8010995811116C0F8010085118548
:1027E000ECCF1130C1F0133091F48F89882309F4B4
:1027F00055C08230E9F440E860E18AE195E00E944A
:10280000FE1B882321F08EEF8093E80087C081E2D1
:102810008093EB0083C08B8D9C8D089711F41093EF
:10282000400280914002811136C06BE275E038C0F1
:10283000813029F440E86BE08EE095E0E0CF833012
:1028400031F70E945A10DC011296ED90FC9013971C
:102850008E010F5F1F4F6801E114F10479F0D70179
:10286000ED91FC910680F781E02DB801C701099533
:10287000080F111DF701E084F184EECFD8011C92FE
:10288000F60101900020E9F73197BF016C197D092D
:1028900040E0C601B4CF6DE375E002C06AE075E0C8
:1028A0006115710509F4B3CFFB01449150E080E854
:1028B00033CF0FB6F894A89580916000886180931B
:1028C0006000109260000FBEA895EE3F2AE0F2076C
:1028D00039F08091FE0A9091FF0A9183808393CF13
:1028E0001092FF0A1092FE0A8ECFEE3F8AE0F807A0
:1028F00031F0808191819093FF0A8093FE0A87E7EF
:1029000097E7918380839BE088E10FB6F894A895C0
:10291000809360000FBE9093600075CF6C960FB6E9
:10292000F894DEBF0FBECDBFDF91CF91FF91EF9145
:10293000BF91AF919F918F917F916F915F914F91D7
:102940003F912F911F910F91FF90EF90DF90CF90CB
:102950000F900FBE0F901F9018958091520208950E
:102960009C01240F311D1216130674F58038910551
:102970005CF5FC0197FF02C0E0E0F0E02138310592
:1029800014F020E830E02E1BAB014770552781E0A2
:1029900001C0880F4A95EAF777FF02C0695F7F4F51
:1029A00093E0759567959A95E1F77695762F66276A
:1029B00077956795E60FF71FEB5AFD4F215020F0F2
:1029C0009081982B9193FACF089580910207E0911E
:1029D0000507F0910607882349F0CF0102969093EE
:1029E000060780930507859194910895CF0102967B
:1029F0009093060780930507808191810895EFE405
:102A0000FAE090E1969FD001A0781124A80F67709A
:102A1000E60FF11D8491AB5ABD4F442321F0EC9198
:102A2000E82BEC930895E82FE0958C918E238C93FE
:102A300008952F923F924F925F926F927F928F9262
:102A40009F92AF92BF92CF92DF92EF92FF920F933D
:102A50001F93CF93DF93CDB7DEB727970FB6F894C8
:102A6000DEBF0FBECDBFFC016A3069F4248D808DBE
:102A7000918D38E0239F800D911D1124918F808FBF
:102A8000178A168AA6C06D3009F4A3C09F838E836F
:102A9000348C238D2983328D3A83608C718CE68847
:102AA000F78880E8E816F104C4F0AE81BF815C9637
:102AB0002C915C97422F50E056968D919C915797A0
:102AC000B6E02B9F800D911D1124EE81FF81978B25
:102AD000868B258D211167C07CC0F0E46F167104D0
:102AE00024F7C70125E0329E800D911D1124181690
:102AF0001906DCF6432C512CC30138E0339E800DBF
:102B0000911D11241816190684F685E0689F80012E
:102B10001124015B1A4F20E0F8012490253009F4BC
:102B2000212C430158E020FC02C0398101C03A81C8
:102B300031110BC0F9818A81F81307C026945150D6
:102B4000840C951C5111EFCF25C067018C2D8E1977
:102B50008315A0F754018A2D88198315B8F490E8DD
:102B6000C916D10478F4A0E4AA16B10458F4432F8E
:102B7000B501C6012C833B835D830E94FF145D81F8
:102B80003B812C81BFEFAB1ABB0AE5CFEFEFCE1A2A
:102B9000DE0ADCCF2F5FE40CF51C0F5F1F4F2630E1
:102BA00009F0BACF82CF6AEF64039001659F300DC0
:102BB000112420583F4F281739075CF4AE81BF819C
:102BC000ED91FC9111970190F081E02D6AE0CD012B
:102BD000099581E090E027960FB6F894DEBF0FBE0E
:102BE000CDBFDF91CF911F910F91FF90EF90DF90BC
:102BF000CF90BF90AF909F908F907F906F905F909D
:102C00004F903F902F900895EF92FF920F931F9354
:102C1000CF93DF937C018B01040F111DEB0177FF34
:102C200010C0C0E0D0E00DC0C217D3078CF480E81C
:102C3000E816F10428F441E0BE01C7010E94FF1428
:102C400021969801013411057CF320E430E0ECCFAB
:102C5000DF91CF911F910F91FF90EF900895EF9228
:102C6000FF920F931F93CF93DF93EC018B01E42E20
:102C7000F22E6034710510F40E94B014B8016F0D8B
:102C8000711D615071096034710520F44E2DCE0123
:102C90000E94B0144F2DB801CE010E940416CE013F
:102CA0008E0D911D4F2DB8010197DF91CF911F918E
:102CB0000F91FF90EF900C9404160F931F93CF93F6
:102CC000DF938C01C0E0D0E0F801EC0FFD1F6491B0
:102CD000662371F0E091E406F091E5060190F08141
:102CE000E02D84EE96E00995892B11F02196ECCF2A
:102CF000CE01DF91CF911F910F91089520E085E5DE
:102D000092E0B22FB111BFEFFC010024B193B19357
:102D1000B193B1930394D1F708952091EE0628233F
:102D200029F49091ED06982381E009F480E008955C
:102D3000E091E406F091E5060190F081E02D682F26
:102D400084EE96E009948F929F92AF92BF920F9378
:102D50001F93CF93DF93CDB7DEB7A1970FB6F8944B
:102D6000DEBF0FBECDBF19A2423008F44AE08E018B
:102D70000F5D1F4F842E912CA12CB12CA501940125
:102D80000E949E1EE62FB901CA0101501109EA30C6
:102D900014F4E05D01C0E95CD801EC93232B242BF3
:102DA000252B61F70115110571F0F8010190002044
:102DB000E9F73197AF01401B510BB80184EE96E063
:102DC0000E94570502C080E090E0A1960FB6F894EB
:102DD000DEBF0FBECDBFDF91CF911F910F91BF908E
:102DE000AF909F908F900895809155028EBDE6E53B
:102DF000F2E081910DB407FEFDCF8EBD86E0E53592
:102E0000F807B9F70DB407FEFDCF0895FC018091D6
:102E10005402811103C08FEF9FEF08959FB7F8947C
:102E200082E08093E9002091F20030E01216130650
:102E300014F421E030E02115310559F0289884E69A
:102E4000809353028091F10080838091F200882367
:102E500019F09FBFC90108958BE68093E800F9CF70
:102E60001F920F920FB60F921124CF92DF92EF9222
:102E7000FF920F931F932F933F934F935F936F9303
:102E80007F938F939F93AF93BF93CF93DF93EF93F2
:102E9000FF9380910C0790910D07A0910E07B091C0
:102EA0000F07892B8A2B8B2B89F180910B078111BE
:102EB0000BC098B180E4892788B980910A078823DC
:102EC00019F088B1805888B980910C0790910D074E
:102ED000A0910E07B0910F07181619061A061B06C7
:102EE0000CF0B1C080910C0790910D07A0910E07D6
:102EF000B0910F070197A109B10980930C07909336
:102F00000D07A0930E07B0930F079DC00E94E51414
:102F1000811520E8920761F4809171008D7F809384
:102F200071001092910046984798109209078BC043
:102F300021E020930907813020E8920751F4809125
:102F400007079091080790930607809305070E9452
:102F5000E51497FD05C020910407222309F43FC022
:102F60002091030721113BC021E020930A07EC01C7
:102F7000DF77209769F481E080930B0746983FE95B
:102F8000C32E3FE0D32EE12CF12CCAEFD0E014C0C9
:102F90008E0120E030E060E472E48FE090E0A9016F
:102FA00098010E947F1E69017A0181E0C81AD10848
:102FB000E108F10810920B07E0916E07F0916F079E
:102FC0000995811103C081E080930B0780910A0766
:102FD0008823B9F180910B07811133C003C010928F
:102FE0000A07C5CF46992DC0479A0E94E51400975D
:102FF00071F09C01DE010E94C01EDC01CB0129E0C2
:10300000B595A795979587952A95D1F703C08FEF2A
:103010009FEFDC01109290002AE020939100D09263
:103020009900C092980080930C0790930D07A0938D
:103030000E07B0930F07809171008260809371003A
:1030400002C04798D2CFFF91EF91DF91CF91BF910E
:10305000AF919F918F917F916F915F914F913F9130
:103060002F911F910F91FF90EF90DF90CF900F90D5
:103070000FBE0F901F9018952D9A0895BC0180E007
:1030800090E00C94A3188FB12CB193B130E020954F
:10309000309520743327A90123E0559547952A954B
:1030A000E1F7292F30E020953095207133273595B1
:1030B000279535952795242B8095807F822B089521
:1030C00083B7817F83BF83B7816083BF889583B7D0
:1030D0008E7F83BF08958EBD00000DB407FEFDCF27
:1030E00008953FB7F8948091750790917607A09165
:1030F0007707B091780726B5A89B05C02F3F19F038
:103100000196A11DB11D3FBFBA2FA92F982F882767
:10311000820F911DA11DB11DBC01CD0142E0660FC2
:10312000771F881F991F4A95D1F70895615030F095
:103130002091F100FC0120830196F8CF289884E6C5
:103140008093530208958F929F92AF92BF92CF9235
:10315000DF92EF92FF926B017C010E9471184B018C
:103160005C01C114D104E104F104F1F00E94711872
:10317000DC01CB0188199909AA09BB09883E934053
:10318000A105B10570F321E0C21AD108E108F108E8
:1031900088EE880E83E0981EA11CB11CC114D104D6
:1031A000E104F10419F7DDCFFF90EF90DF90CF90AD
:1031B000BF90AF909F908F9008951F920F920FB67F
:1031C0000F9211242F933F938F939F93AF93BF93AD
:1031D0008091700790917107A0917207B091730769
:1031E0003091740723E0230F2D3720F40196A11DA1
:1031F000B11D05C026E8230F0296A11DB11D209325
:1032000074078093700790937107A0937207B0932F
:1032100073078091750790917607A0917707B09119
:1032200078070196A11DB11D8093750790937607CD
:10323000A0937707B0937807BF91AF919F918F913B
:103240003F912F910F900FBE0F901F90189578947B
:1032500084B5826084BD84B5816084BD85B582609B
:1032600085BD85B5816085BD80916E00816080934C
:103270006E001092810080918100826080938100B5
:1032800080918100816080938100809180008160C5
:103290008093800080919100826080939100809162
:1032A0009100816080939100809190008160809373
:1032B00090008091C10084608093C1008091C10022
:1032C00082608093C1008091C10081608093C100C1
:1032D0008091C30081608093C3008091C0008260B0
:1032E0008093C0008091C20081608093C200809171
:1032F0007A00846080937A0080917A008260809363
:103300007A0080917A00816080937A0080917A00BF
:10331000806880937A001092540210923E021092BC
:103320003F028091D70081608093D70080EA80932C
:10333000D80089B5806189BD89B5826089BD09B42D
:1033400000FEFDCF61E070E080E090E00E94A318F5
:103350008091D8008F7C80618093D8008091E000BC
:10336000807F8093E0008091E1008E7E8093E10079
:103370008DE08093E200559A209AEEEFFFE7859169
:1033800094918B3F9C4D19F481E080933D0281EC38
:1033900080937C0085B1806F85B9249884B1866E56
:1033A00084B95E9A5F988AB1806D8AB9769A6E9870
:1033B00081B3806F81BB899880B38D7080BB80E5BD
:1033C0008CBD81E08DBD85E090E00E943E185F9A43
:1033D00085E090E00E943E185E985C98CEE8D1E0CF
:1033E0001C2F135FFE0184910E946B1821961C1301
:1033F000F9CF5C9A81E88093640081E08093650056
:10340000C0E0D4E080E00E946B182197D9F70E94B9
:10341000431887FF1FC05C9885EA0E946B185C9A6E
:103420002E982F982D98809164008062809364007C
:103430000E946018FDCF2D980E944318847884382C
:1034400071F00E9443188471843131F188EC90E06E
:103450000E943E180E94431882FDEDCF3AC00E94A0
:103460003C1888EC90E00E943E182F9882E090E093
:103470000E94691E8F3F29F06FEF82E090E00E946A
:10348000711E84EF91E00E943E182F9A0E9443180B
:1034900084788438D9F3D5CF0E943C1888EC90E02A
:1034A0000E943E182E9882E090E00E94691E8823B8
:1034B00029F060E082E090E00E94711E84EF91E0CC
:1034C0000E943E182E9A0E94431884718431D9F3C9
:1034D000BDCF0E943C1882E090E00E94691E8823C4
:1034E00031F03E9A3F9A81E08093520204C01092DC
:1034F00052023E983F982E98CEEEDFEF08E010E0A3
:103500000E94431886FF04C02E9A2F9A2D9A8BC0D2
:10351000CC3F2FEFD20719F42E9A2F9805C0C8314F
:10352000D10511F42F9A2D980E947E16C03F4FEFBF
:10353000D40784F40E94F4168BE190E00E943E18B8
:10354000C03F5FEFD50709F059C08AEF90E00E94B5
:103550003E1854C09E01D7FF04C0222733272C1BDE
:103560003D0B27703327CE01D7FD079653E0959585
:1035700087955A95E1F7D7FF05C00197D801A21B9F
:10358000B30B9D017C01F694FE2CEE24F794E79496
:1035900060E070E04801821A930AF701E058FF4F9B
:1035A0005F018F3FFFEF9F0744F40196685A7F4FFA
:1035B0007501603B710589F7BDCFD701A751BD4F9C
:1035C00040E050E08F3FEFEF9E0709F4FCC0FA01A6
:1035D000E60FF71FE252FF4FE4916D01CA18DB08B6
:1035E000CE0CDF1CF0E02F01022E01C0440C0A9427
:1035F000EAF7F601708047284082E5C02196C9317C
:10360000D10509F07DCF8CEB92E00E943E180E941C
:103610003C18E091E806F091E9060190F081E02D78
:1036200088EE96E0099582E390E00E943E180E94A1
:1036300043188111F8CF80E18093EF0689E596E089
:103640000E946F0C84E690E0909358068093570692
:1036500010923A0281EE96E090933C0280933B02F6
:10366000C0E0D0E09924939405E516E022E0E22E34
:1036700021E0F22E30E0C32E31E0D32E5C012FB7D3
:10368000F8948091700790917107A0917207B091A2
:1036900073072FBF4091F4065091F5066091F6062E
:1036A0007091F7062091F806222341F02091F00650
:1036B000821B8093F9061092F8067FC08417950745
:1036C000A607B70738F4481B423008F476C00E94BA
:1036D000601873C09092F8068093F0069093F106FC
:1036E000A093F206B093F3062091EF06820F911D8E
:1036F000A11DB11D8093F4069093F506A093F606E4
:10370000B093F7068091EB069091EC0601969093AA
:10371000EC068093EB068091ED068093EE060E9406
:1037200043188093ED0680913B0290913C02DC01AE
:10373000ED91FC910280F381E02D09953C0180918F
:103740003B0290913C02DC01ED91FC910480F581FB
:10375000E02D09950E94F416B2E06B167104F9F0A1
:103760008CF46114710401F16A94672831F589E5DC
:1037700096E00E946F0C89E596E090933C0280935E
:103780003B021BC023E06216710499F044E064160A
:10379000710499F4D0923C02C0923B020EC0109387
:1037A0003C0200933B0209C0B0923C02A0923B0253
:1037B00004C0F0923C02E0923B02209709F45FCFF4
:1037C0000E9400005CCF2115310581F0FA01E60F5F
:1037D000F71FE252FF4FE491F0E0082C02C0F5958C
:1037E000E7950A94E2F7DC90ED29EC934F5F5F4F89
:1037F00011964835510509F0E5CED7CECF92DF922C
:10380000EF92FF920F931F93CF93DF931F92CDB749
:10381000DEB7182F062FE42E862F880F8E5F998330
:103820000E94A91083E00E94A910F12EC12E998157
:10383000D92E8C2D8F19801798F4F601E7FE02C05F
:10384000849101C080810E94A910182F80E00E94FD
:10385000A9108123FFEFCF1ADF0A8111EACF01C03F
:1038600081E00F90DF91CF911F910F91FF90EF902A
:10387000DF90CF9008950F931F93CF93DF938C0128
:1038800081E090E00E94691E80FF31C08AE090E0F4
:103890000E94691E9FEF980F9E3F48F522E330E09B
:1038A000D80157963C932E93569728E330E05996CB
:1038B0003C932E935897CBE0D0E0D801ED91FC914A
:1038C0000190F081E02D682FC8010995CE010E947A
:1038D000691E2196C131D10581F70E94F41688EE48
:1038E00093E0DF91CF911F910F910C943E18DF91DF
:1038F000CF911F910F91089504970C943B1C109247
:1039000013071092120788EE93E0A0E0B0E08093D6
:10391000140790931507A0931607B09317078FEF1E
:1039200091E090931107809310072FEF3FEF3093B2
:103930001D0720931C071092E7061092E6061092CE
:10394000ED061092EE0680E18093EF063093EC06D0
:103950002093EB061092F4061092F5061092F606EC
:103960001092F7061092F80629E132E03093E5064E
:103970002093E40623E232E03093E9062093E80640
:103980001092FB061092FA061092FD061092FC06A9
:1039900091E09093FE061092FF069093000710921C
:1039A00001072DEA34E130936F0720936E0720E082
:1039B00030E830936D0720936C0746983E9A4798FD
:1039C0003F9A23E332E03093E2062093E1062FE0B2
:1039D00032E030935A062093590690E390935B06A9
:1039E00080935C06EDE5F6E01192119286E0ED3BE6
:1039F000F807D1F7EDEBF6E01192119286E0ED3D7C
:103A0000F807D1F789E292E0909356068093550625
:103A1000089597FB072E16F4009407D077FD09D080
:103A20000E94231D07FC05D03EF4909581959F4F81
:103A30000895709561957F4F0895EE0FFF1F0590D3
:103A4000F491E02D0994AA1BBB1B51E107C0AA1FEA
:103A5000BB1FA617B70710F0A61BB70B881F991F2F
:103A60005A95A9F780959095BC01CD010895CF9303
:103A7000DF938230910510F482E090E0E0917B07C3
:103A8000F0917C0720E030E0C0E0D0E0309711F109
:103A90004081518148175907C0F04817590761F410
:103AA00082819381209719F09B838A832BC0909306
:103AB0007C0780937B0726C02115310519F042173A
:103AC000530718F49A01BE01DF01EF010280F38170
:103AD000E02DDCCF2115310509F1281B390B2430ED
:103AE000310590F412968D919C9113976115710593
:103AF00021F0FB019383828304C090937C07809321
:103B00007B07FD01329644C0FD01E20FF31F819354
:103B10009193225031092D933C933AC0209179071B
:103B200030917A07232B41F4209112013091130137
:103B300030937A0720937907209110013091110179
:103B40002115310541F42DB73EB740911401509134
:103B50001501241B350BE0917907F0917A07E217E4
:103B6000F307A0F42E1B3F0B2817390778F0AC01A0
:103B70004E5F5F4F2417350748F04E0F5F1F50937D
:103B80007A07409379078193919302C0E0E0F0E0D7
:103B9000CF01DF91CF9108950F931F93CF93DF93C0
:103BA000009709F48CC0FC013297138212820091B5
:103BB0007B0710917C070115110581F4208131816B
:103BC000820F931F2091790730917A0728173907C0
:103BD00079F5F0937A07E093790771C0D80140E056
:103BE00050E0AE17BF0750F412962D913C911397F9
:103BF000AD012115310509F1D901F3CF9D01DA019C
:103C00003383228360817181860F971F8217930708
:103C100069F4EC0128813981260F371F2E5F3F4F51
:103C2000318320838A819B8193838283452B29F46E
:103C3000F0937C07E0937B0742C01396FC93EE93CE
:103C40001297ED01499159919E01240F351FE217FA
:103C5000F30771F480819181840F951F029611966C
:103C60009C938E938281938113969C938E9312974B
:103C7000E0E0F0E0D80112968D919C9113970097A7
:103C800019F0F8018C01F6CF8D919C9198012E5F6F
:103C90003F4F820F931F2091790730917A072817A1
:103CA000390769F4309729F410927C0710927B074A
:103CB00002C01382128210937A0700937907DF9172
:103CC000CF911F910F91089581E090E0F8940C94AA
:103CD000CF1EF999FECF92BD81BDF89A992780B584
:103CE0000895262FF999FECF1FBA92BD81BD20BD40
:103CF0000FB6F894FA9AF99A0FBE01960895052E18
:103D000097FB1EF400940E94961E57FD07D00E9458
:103D10009E1E07FC03D04EF40C94961E50954095C1
:103D2000309521953F4F4F4F5F4F08959095809567
:103D3000709561957F4F8F4F9F4F0895A1E21A2E86
:103D4000AA1BBB1BFD010DC0AA1FBB1FEE1FFF1F3F
:103D5000A217B307E407F50720F0A21BB30BE40B8F
:103D6000F50B661F771F881F991F1A9469F76095D6
:103D70007095809590959B01AC01BD01CF01089590
:103D8000A29FB001B39FC001A39F700D811D11249C
:103D9000911DB29F700D811D1124911D0895F894FD
:023DA000FFCF53
:103DA2001E012801FFFFFFFF00E1000000000000EC
:103DB20000007D07800001000000000000004006B6
:103DC2007807CE0600000000200BA80F9C0F000011
:103DD2000000760BB80F730B720B750B740B710B23
:103DE200700B210B000000006E0CF60F470C200C2C
:103DF200750B740BCA0B830B210B00000000820BA6
:103E0200D70F470C200C750B740B0D0CB00B210B4C
:103E1200000000006806C3074106200C750B740BF6
:103E22008E06A706210B000000001F0B620FF80A86
:103E3200200C750B740BF50BAE0B210B0000000070
:103E42008206DD06730B720B750B740B710B700B14
:103E5200210B000000001C068307730B720BD405B4
:103E620083050106E605210B000000006906E20752
:103E7200730B720B750B740B710B700B210B000023
:103E8200000076063F08730B720B750B740B710BF7
:103E9200700B210B00C18081000000000000006E49
:103EA2001030118F10E011BC118410000000006F5F
:103EB2000CC2081C0700000000191557053B1CFC2A
:103EC200FF00007C1C000000003A062806010800E2
:0A3ED20000000082055E07000700F3
:00000001FF
