:100000000C946D040C9495040C9495040C94950434
:100010000C9495040C9495040C9495040C949504FC
:100020000C9495040C9495040C94A2100C94141147
:100030000C9495040C9495040C9495040C949504DC
:100040000C9495040C9495040C9495040C949504CC
:100050000C9495040C9495040C9495040C948A17B4
:100060000C9495040C9495040C9495040C949504AC
:100070000C9495040C9495040C9495040C9495049C
:100080000C94DD150C9495040C9495040C94950433
:100090000C9495040C9495040C9495040C9495047C
:1000A0000C9495040C9495040C949504570DA00D94
:1000B000FD0D270ED20ED20ED20ED20ED20E510E42
:1000C000510E510E510E510E510ED20ED20ED20EB5
:1000D000D20E930E930E930E930E930E930E436CCB
:1000E00065617221000A00020000000400000000A7
:1000F00000000000000404040404040400000000E4
:1001000000000000000B00000000020400000000DE
:1001100000000000000404040404040400000000C3
:10012000001515151500000000000000000000007B
:1001300000150000000000000000000000000000AA
:100140000015000000000000000001000000000099
:100150000015001414000000000000000000000062
:100160000015001403000000000000000000000063
:100170000000000000000202020200030000000074
:10018000000000000000000000000000000000006F
:10019000000000000000000000000000000000005F
:1001A000000000000000000000000004000000004B
:1001B000000000000000000000000000000000003F
:1001C000000000000400000000040400000400001F
:1001D0000404000004010000000000000000000012
:1001E0000000000404000000000000000000000007
:1001F00000000000030000000000000000000000FC
:1002000000000000040000000000000000000000EA
:1002100000000004000000000000000000000000DA
:1002200000000400000000000000000000000000CA
:1002300000040000000000000000000000000000BA
:1002400004000000000000000000000000000004A6
:100250000000000000000000000000000100040099
:100260000000000000470047616D65204F76657211
:10027000210052656164790062792040696E615F96
:10028000616E6900504F4954544F00F0F89C8E87BE
:1002900083878E9CF8F00000FEFF0303030303072F
:1002A0000EFCF80000FEFF0303030303070EFCF837
:1002B0000000FFFF00000000000000FFFF0000FE44
:1002C000FF8383838383C7EE7C380000F8FC0E072E
:1002D000030303070EFCF800003F7FE0C08080C0EE
:1002E000E07F3FFFFF01010101010101FFFF00006D
:1002F000FFFF0C0C0C0C1C3E77E3C100007FFFC01D
:10030000C0C0C0C0E0703F1F00001F3F70E0C0C011
:10031000C0E0703F1F00007FFFC1C1C1C1C1E377D2
:100320003E1C00001F3F70E0C0C0C0E0703F1F00D7
:100330000000000001FFFF01000000D5F08D14A1B6
:10034000C881CFD9F1AF2000080B000202020100E2
:100350000904000001020200000524001001052428
:10036000010101042402060524060001070581039A
:1003700010004009040100020A0000000705020203
:100380004000000705830240000004030904417295
:100390006475696E6F204C4C430041726475696EE0
:1003A0006F204C656F6E6172646F00120100020075
:1003B00000004041233680000101020301120100C8
:1003C00002EF0201404123368000010102030100D7
:1003D000000000003E5B4F5B3E3E6B4F6B3E1C3EA1
:1003E0007C3E1C183C7E3C181C577D571C1C5E7FB5
:1003F0005E1C00183C1800FFE7C3E7FF0018241834
:1004000000FFE7DBE7FF30483A060E262979292668
:10041000407F050507407F05253F5A3CE73C5A7F52
:100420003E1C1C08081C1C3E7F14227F22145F5FA8
:10043000005F5F06097F017F006689956A606060E2
:10044000606094A2FFA29408047E040810207E201D
:100450001008082A1C08081C2A08081E1010101072
:100460000C1E0C1E0C30383E3830060E3E0E0600B8
:100470000000000000005F00000007000700147F7C
:10048000147F14242A7F2A122313086462364956E3
:1004900020500008070300001C2241000041221CDC
:1004A000002A1C7F1C2A08083E08080080703000C3
:1004B0000808080808000060600020100804023ED8
:1004C0005149453E00427F40007249494946214119
:1004D000494D331814127F1027454545393C4A4988
:1004E00049314121110907364949493646494929C7
:1004F0001E000014000000403400000008142241D7
:100500001414141414004122140802015909063E5F
:10051000415D594E7C1211127C7F494949363E415A
:100520004141227F4141413E7F494949417F09097B
:1005300009013E414151737F0808087F00417F4116
:10054000002040413F017F081422417F404040404D
:100550007F021C027F7F0408107F3E4141413E7FA5
:10056000090909063E4151215E7F0919294626499C
:1005700049493203017F01033F4040403F1F204073
:10058000201F3F4038403F6314081463030478047D
:10059000036159494D43007F414141020408102045
:1005A000004141417F0402010204404040404000BC
:1005B0000307080020545478407F284444383844C6
:1005C000444428384444287F385454541800087E42
:1005D000090218A4A49C787F0804047800447D4094
:1005E000002040403D007F1028440000417F400033
:1005F0007C047804787C080404783844444438FC4B
:100600001824241818242418FC7C080404084854CE
:1006100054542404043F44243C4040207C1C20408B
:10062000201C3C4030403C44281028444C90909082
:100630007C4464544C4400083641000000770000BC
:10064000004136080002010204023C2623263C1E1B
:10065000A1A161123A4040207A385454555921558D
:1006600055794121545478412155547840205455AE
:1006700079400C1E527212395555555939545454FB
:100680005939555454580000457C410002457D427B
:100690000001457C40F0292429F0F0282528F07C31
:1006A000545545002054547C547C0A097F493249F2
:1006B0004949323248484832324A4848303A414142
:1006C000217A3A42402078009DA0A07D39444444DC
:1006D000393D4040403D3C24FF2424487E49436648
:1006E0002B2FFC2F2BFF0929F620C0887E09032021
:1006F000545479410000447D413048484A323840E2
:1007000040227A007A0A0A727D0D19317D26292944
:100710002F28262929292630484D40203808080846
:100720000808080808382F10C8ACBA2F102834FA67
:1007300000007B000008142A142222142A140895B1
:1007400000220095AA005500AAAA55AA55AA0000A1
:1007500000FF00101010FF00141414FF001010FF11
:1007600000FF1010F010F0141414FC001414F70023
:10077000FF0000FF00FF1414F404FC141417101FF2
:1007800010101F101F1414141F00101010F0000080
:1007900000001F101010101F10101010F01000009B
:1007A00000FF101010101010101010FF10000000AB
:1007B000FF140000FF00FF00001F10170000FC04E2
:1007C000F414141710171414F404F40000FF00F7C5
:1007D00014141414141414F700F714141417141028
:1007E000101F101F141414F4141010F010F0000057
:1007F0001F101F0000001F14000000FC140000F078
:1008000010F01010FF10FF141414FF141010101F1C
:1008100000000000F010FFFFFFFFFFF0F0F0F0F02D
:10082000FFFFFF0000000000FFFF0F0F0F0F0F384A
:10083000444438447C2A2A3E147E02020606027E84
:10084000027E0263554941633844443C04407E20A3
:100850001E2006027E020299A5E7A5991C2A492AB4
:100860001C4C7201724C304A4D4D30304878483043
:10087000BC625A463D3E494949007E0101017E2A3B
:100880002A2A2A2A44445F444440514A444040446E
:100890004A51400000FF0103E080FF000008086BA0
:1008A0006B083612362436060F090F06000018189A
:1008B0000000001010003040FF0101001F01011E68
:1008C00000191D1712003C3C3C3C000000000001D8
:1008D00002040810204080002C1B11241FBECFEF03
:1008E000DAE0DEBFCDBF27E0AEE0B2E001C01D928E
:1008F000A135B207E1F712E0A0E0B1E0ECEFFAE3D6
:1009000002C005900D92AE30B107D9F714E0CDE6E4
:10091000D4E004C02197FE010E94CA1BCC36D10747
:10092000C9F70E94D4170C947C1D0C940000CF9240
:10093000DF92EF92FF920F931F93CF93DF936C019F
:100940007A018B01C0E0D0E0CE15DF0589F0D80137
:100950006D918D01D601ED91FC910190F081E02D1A
:10096000C6010995892B11F47E0102C02196ECCFB6
:10097000C701DF91CF911F910F91FF90EF90DF9012
:10098000CF9008950895EF92FF920F931F93CF9306
:10099000DF93FC0133A1828D831710F138133DC022
:1009A00020E050E0BF016E5E7F4F2317B9F0DB01FE
:1009B00040E0CF01820F911D820F911D4B9643178E
:1009C00059F0ED90FD90EC01088119810E151F057D
:1009D00009F051E04F5FF3CF2F5FE7CF5523E9F0E8
:1009E000968581E0982796873785A089B18980E030
:1009F00012962C911297821780F4FD01E80FF11DD9
:100A0000E80FF11D0480F581E02D309721F0258558
:100A1000231301C092878F5FEBCFDF91CF911F919E
:100A20000F91FF90EF900895FC0193A1DF01529682
:100A300080E0891741F019962D913C911A972D93DA
:100A40003D938F5FF6CF828F13A20895DC019396BA
:100A50008C919397FD017B9690E0981739F0219146
:100A600031912617370761F09F5FF7CFFD01E90F3E
:100A7000F11DE90FF11D748F638F9F5F93969C9317
:100A80000895DC0193968C919397FD017B9690E0FD
:100A9000981739F0219131912617370761F09F5F40
:100AA000F7CFFD01E90FF11DE90FF11D748F638F81
:100AB0009F5F93969C930895FC0113821282158286
:100AC000148288E090E097838683918780870895D9
:100AD000FC01228133812150310929F033832283A3
:100AE00085E090E0089584E690E09383828381E03E
:100AF00090E0089524E630E0FC01338322830895DA
:100B000008950895FC01138212821582148288E0F0
:100B100090E0978386839187808715860895FC01EE
:100B2000138212821582148288E090E09783868374
:100B3000918780870895FC011382128215821482A6
:100B400088E090E097838683918780870895FC01F1
:100B50002281349680E0821731F041915191452BEA
:100B600019F08F5FF8CF8FEF0895AF92BF92CF92B9
:100B7000DF92EF92FF920F931F93CF93DF937C014D
:100B80006B015A0100E010E0F7018281081728F597
:100B9000E701C00FD11DC00FD11D8C819D81009731
:100BA000D1F0C816D906B9F0DC01ED91FC910088AE
:100BB000F189E02DB6010995882369F0A114B104EB
:100BC00049F08C819D81F501E10FF11DE10FF11DCF
:100BD000918380831F5F0F5FD7CF812FDF91CF91EC
:100BE0001F910F91FF90EF90DF90CF90BF90AF904B
:100BF000089508950895EF92FF920F931F93CF9356
:100C0000DF93DB0112960D911C911397EC01EA81A1
:100C1000FB8114960D90BC91A02DEB0128853985A0
:100C2000EC014C815D81E884F9848E819F81EB0128
:100C30006E817F81600F711F8E0F9F1F681779076C
:100C40000CF4CB01BF01E017F1070CF4B801861BCF
:100C5000970B18161906B4F4BA016E0D7F1DCD015D
:100C6000820F931F681779070CF4CB019A014A177A
:100C70005B070CF49D01FC01E21BF30B81E01E16E7
:100C80001F060CF080E0DF91CF911F910F91FF9034
:100C9000EF9008950895089508950895089508958A
:100CA000FC01138212821582148288E090E09783FF
:100CB000868391878087089508950F931F93CF931C
:100CC000DF93EC018B01E881F9810088F189E02D47
:100CD00009958823C1F0F80182858823A1F02F852A
:100CE0003889F80184819581121613062CF4288521
:100CF0003985821B930B05C0F80120853185820F51
:100D0000931F9D838C83DF91CF911F910F91089545
:100D10000F931F93CF93DF93EC018B010E945D062D
:100D2000F8018285882341F08F8598891816190665
:100D30000CF41D8A188A1F86F8018485813041F4DD
:100D4000EF89F88DEA57FF4F83E090E0918380832D
:100D5000DF91CF911F910F9108950C945D060F9331
:100D60001F93CF93DF93EC018B010E945D06F80186
:100D70008285882349F08F8598891816190614F4FE
:100D800081E08B87188A1F86DF91CF911F910F9189
:100D900008950F931F93CF93DF93EC018B01E881AC
:100DA000F9810088F189E02D09958823C1F0F801C7
:100DB00082858823A1F02D853E85F801828193816B
:100DC000121613062CF42E813F81821B930B05C053
:100DD000F80126813781820F931F9B838A83DF91DD
:100DE000CF911F910F9108950F931F93CF93DF938E
:100DF000EC018B010E94C906F8018485813041F421
:100E0000EF89F88DEA57FF4F83E090E0918380836C
:100E1000DF91CF911F910F9108950F931F93CF935F
:100E2000DF93EC018B010E94C906F80182858823BB
:100E300039F08D859E859195819591099E878D8745
:100E4000DF91CF911F910F910895CF93DF93EC0124
:100E50000E94C9061E861D86DF91CF910895FC0170
:100E60008785908923893489280F391FB90137FF75
:100E700004C066277727621B730B613471051CF46D
:100E8000308B27870AC0C90126E0880F991F2A9551
:100E9000E1F70E94B61B708B6787248135818785B7
:100EA0009089820F931F958384830895FC01858523
:100EB000968521893289280F391FB90137FF04C06F
:100EC00066277727621B730B693071051CF4368720
:100ED00025870AC0C90123E0880F991F2A95E1F7E9
:100EE0000E94B61B7687658722813381858596852A
:100EF000820F931F93838283089508950E94111D8A
:100F0000DC0114962D913C91159784E03595279539
:100F10008A95E1F72F5F3F4FE8EBF6E012968D914F
:100F20009C91139744E0959587954A95E1F7019632
:100F3000978B868B318F208F81E0828F138E85E691
:100F400092E00C940115CF93DF930E943115C8EB0A
:100F5000D6E01F8A1E8A198E188E84E892E00E94BD
:100F6000011580E390E09F8B8E8B86E390E0998F54
:100F7000888F88E792E0DF91CF910C9401150E9451
:100F80003115E8EBF6E0178A168A118E108E87E687
:100F900092E00C9401150F931F93CF938C010E9444
:100FA0003115C0E0F8018281C81790F4F801EC0F08
:100FB000F11DEC0FF11D84819581009739F0DC0162
:100FC000ED91FC910280F381E02D0995CF5FEACF8E
:100FD000C0E0F8018381C817A0F4EC2FF0E0F2968E
:100FE000EE0FFF1FE00FF11F80819181009739F014
:100FF000DC01ED91FC910280F381E02D0995CF5F3A
:10100000E8CFCF911F910F9108950E943115E8EB21
:10101000F6E0178A168A118E108E8EED90E00C94F1
:101020000115CF93DF93EC0188E00E943A158111FE
:101030000DC080E80E943A15882329F09A819923EF
:1010400011F091509A8385E090E002C081E090E039
:10105000DF91CF91089588E00E943A15811103C075
:1010600085E090E0089580E090E0089588E00E9497
:101070003A15882341F080910E028F5F80930E0213
:1010800082E090E0089585E090E00895CF93DF93AB
:10109000EC012885398584E0359527958A95E1F717
:1010A0004E815F8194E0559547959A95E1F76C8163
:1010B0007D8134E0759567953A95E1F78A819B814A
:1010C00054E0959587955A95E1F70E94D3148C8149
:1010D0009D8164E0959587956A95E1F70196E8EB27
:1010E000F6E02A813B8174E0359527957A95E1F702
:1010F0002F5F3F4F378B268B918F808F81E0828FC0
:10110000138E8F85DF91CF910C944515FC012085BE
:10111000318584E0359527958A95E1F74681578199
:1011200094E0559547959A95E1F76481758134E08F
:10113000759567953A95E1F78281938154E095958D
:1011400087955A95E1F70C94D314FC0120853185DD
:1011500084E0359527958A95E1F74681578194E09B
:10116000559547959A95E1F76481758134E07595B9
:1011700067953A95E1F78281938154E0959587953B
:101180005A95E1F70C94D314FC012085318584E055
:10119000359527958A95E1F74681578194E05595D5
:1011A00047959A95E1F76481758134E07595679567
:1011B0003A95E1F78281938154E0959587955A9508
:1011C000E1F70C94D314FC012085318584E035953A
:1011D00027958A95E1F74681578194E05595479583
:1011E0009A95E1F76481758134E0759567953A9534
:1011F000E1F78281938154E0959587955A95E1F7BF
:101200000C94D314FC012085318584E03595279515
:101210008A95E1F74681578194E0559547959A95CF
:10122000E1F76481758134E0759567953A95E1F74A
:101230008281938154E0959587955A95E1F70C94B6
:10124000D314CF92DF92EF92FF92CF93DF93EC0112
:101250000E9431151092CF061092CE061092D10640
:101260001092D00682E792E00E94011580E290E0A1
:101270009093CF068093CE061092D1061092D0069E
:10128000CA80DB800D2C000CEE08FF08F7FE0CC0B6
:101290008DE20E94451566277727CB016C197D09E1
:1012A0008E099F094AE003C04AE0C701B601DF91F9
:1012B000CF91FF90EF90DF90CF900C945015AF92AC
:1012C000BF92DF92EF92FF920F931F93CF93DF9322
:1012D000FC0122856481758182819381222309F436
:1012E0004BC0EF0140855185E4E055954795EA955F
:1012F000E1F7D42E2E813F81F4E035952795FA95BC
:10130000E1F78B01A4E015950795AA95E1F77C011B
:10131000B4E0F594E794BA95E1F75701A20EB11C39
:10132000EA14FB044CF44D2DB801C7010E94A81427
:101330008FEFE81AF80AF4CF8C819D8144E09595EF
:1013400087954A95E1F701962A813B8154E03595CE
:1013500027955A95E1F72F5F3F4F3093CF062093A3
:10136000CE069093D1068093D0061092D20681E0EB
:101370008093D3068D851BC024E0759567952A95CB
:10138000E1F76F5F7F4F34E0959587953A95E1F7E8
:1013900001969093CF068093CE067093D10660930A
:1013A000D00681E08093D2061092D3068585DF9126
:1013B000CF911F910F91FF90EF90DF90BF90AF9072
:1013C0000C944515CF92DF92EF92FF921F93CF932B
:1013D000DF93FC014085518584E0559547958A95BA
:1013E000E1F7142F8681978124E0959587952A95BA
:1013F000E1F7E480F58034E0F594E7943A95E1F77D
:10140000C281D38144E0D595C7954A95E1F76E0135
:10141000C80ED11CCC15DD053CF4412FB701CE011F
:101420000E94A8142196F6CFDF91CF911F91FF90D3
:10143000EF90DF90CF9008953F924F925F926F921E
:101440007F928F929F92AF92BF92CF92DF92EF9254
:10145000FF920F931F93CF93DF93CDB7DEB78C012D
:101460006DB67EB6DC0113968C91EDB7FEB722E027
:10147000829FE019F10911240FB6F894FEBF0FBE48
:10148000EDBF8DB79EB701966C01480196E8890EB5
:10149000911C85E090E0D4018D939C9388E00E949C
:1014A0003A15882379F0F801EC57FF4F0190F0814D
:1014B000E02D8589811106C08CED9FEF908B878789
:1014C00081E0858B84E00E943A15882309F46EC080
:1014D000F8018381EC59FF4FA0E0A81731F021916A
:1014E0003191232B29F0AF5FF8CFFF24FA9401C08C
:1014F000FA2E85E190E00E94E41BFC01D801AC5774
:10150000BF4F8D919C91DC0114962D913C911597C4
:1015100012964D915C91139761E06287407F5F70F6
:1015200053834283207F3F703583248320E430E05F
:10153000378326833187208713861486168615867F
:10154000108A1786128A118A22EA31E031832083B9
:1015500022E030E0348B238BAF2DB0E0D296AA0F7F
:10156000BB1FA00FB11FED93FC93DC0156964C916D
:10157000569712962D913C911397442359F0169645
:101580008D919C911797280F391F3383228380E117
:1015900090E006C0205431093383228380EF9FEF0F
:1015A000968785878CED9FEF908B87870E94F0163A
:1015B00086FF10C0F801EC57FF4F0190F081E02D3D
:1015C0008585968501969687858781E0868BFF24A1
:1015D000F39401C0F12C0E94F01685FF0DC0F801B4
:1015E000EC57FF4F0190F081E02D8585968501979E
:1015F00096878587168A0AC0F11008C0F801EC5753
:10160000FF4F0190F081E02D16861586F12CF80130
:101610008281F81690F4F801EF0DF11DEF0DF11D28
:1016200084819581009739F0DC01ED91FC91008473
:10163000F185E02D0995F394EACFF12CF80183812F
:10164000F816A0F4EF2DF0E0F296EE0FFF1FE00F7A
:10165000F11F80819181009739F0DC01ED91FC91BF
:101660000084F185E02D0995F394E8CF512CD80141
:1016700013968C91581608F084C07801E50CF11C83
:10168000E50CF11CF4E6EF0EF11CD7018D919C9155
:10169000009709F474C0DC01ED91FC910480F581A0
:1016A000E02D0995F70160817181A601C8010E94B2
:1016B000B505382E811115C0D7018D919C91DC01A3
:1016C000ED91FC910680F781E02D0995F70160818D
:1016D0007181A601C8010E94B505382E811122C072
:1016E00041C05601412CD7018D919C91DC01ED91B7
:1016F000FC91D5016D917C910484F585E02D0995CF
:10170000F501819191915F01DC01ED91FC91D7018F
:101710006D917C910484F585E02D099543944310E7
:10172000E2CFCACF5601412CF70180819181DC01C3
:10173000ED91FC91D5016D917C910684F785E02DAA
:101740000995F501819191915F01DC01ED91FC9189
:10175000D7016D917C910684F785E02D099543941E
:101760004310E2CFF70180819181DC011B962C911F
:10177000222329F00E94791CF701118210825394D0
:1017800076CFF12CF8018281F81690F4F801EF0D74
:10179000F11DEF0DF11D84819581009739F0DC0179
:1017A000ED91FC910284F385E02D0995F394EACF45
:1017B000F12CF8018381F816A0F4EF2DF0E0F296F9
:1017C000EE0FFF1FE00FF11F80819181009739F02C
:1017D000DC01ED91FC910284F385E02D0995F394F1
:1017E000E8CFD4018D919C910FB6F8947EBE0FBEC8
:1017F0006DBEDF91CF911F910F91FF90EF90DF9021
:10180000CF90BF90AF909F908F907F906F905F90A0
:101810004F903F9008952F923F924F925F926F9218
:101820007F928F929F92AF92BF92CF92DF92EF9270
:10183000FF920F931F93CF93DF93CDB7DEB72C9713
:101840000FB6F894DEBF0FBECDBF9C878B87F12CFF
:10185000AB85BC8512968C91F816A0F40B851C857F
:101860000F0D111D0F0D111DD80114968D919C9116
:101870001597009729F00E94791CF80115821482AF
:10188000F394E6CFF12CEB85FC852380F214A8F4C9
:101890008B859C858F0D911D8F0D911D8C010C5991
:1018A0001F4FF80180819181009729F00E94791CD7
:1018B000D8011D921C92F394E6CF8EE090E00E9436
:1018C000E41B8C01BB24B394DC011A96BC921A97DA
:1018D00013961C921E92129715961C921E921497A4
:1018E000612C58E0752E17967C926E92169760E2E6
:1018F000C62ED12C1996DC92CE9218971B961C926C
:101900001B971C961C921C9776E7E72E71E0F72E2A
:10191000ED92FC928B859C850E94A705EB85FC854A
:10192000E80FF11DE80FF11D158304838EE090E0B0
:101930000E94E41B8C01FC01B28613821282812C6E
:10194000A4E09A2E958284827782668280E890E075
:101950009187808713861486F182E0828B859C852F
:101960000E94A705EB85FC85E80FF11DE80FF11D2E
:10197000158304838EE090E00E94E41B8C01DC015F
:101980001A96BC921A9713961C921E92129715964D
:101990001C921E9214971796DC92CE921697199667
:1019A0009C928E9218971B961C921B971C961C92C9
:1019B0001C97ED92FC928B859C850E94A705EB8578
:1019C000FC85E80FF11DE80FF11D158304838EE0FF
:1019D00090E00E94E41B8C01FC01B28680EE97E04F
:1019E00093838283D582C482D782C68280EE93E0BD
:1019F0009187808713861486F182E0828B859C858F
:101A00000E94A705EB85FC85E80FF11DE80FF11D8D
:101A10001583048380910E0290E4899F9001112424
:101A20003C832B83C12CD12CB0E8EB2EF12C4B84C2
:101A30005C84A4E64A0E511C2B853C852C573F4FF5
:101A400038872F83560184E0AA0CBB1C8A95E1F7E6
:101A5000C60102969C0194E0220F331F9A95E1F78C
:101A60003E832D838B819C818C0D9D1D9C01220FBB
:101A7000331F3A83298300E010E0612C712C33245A
:101A8000339450E4852E912CE981FA81E60DF71DFF
:101A9000EB51FF4F4491842F90E0FC013197E931E5
:101AA000F10508F07FC1EA5AFF4F0C94CA1BF201FE
:101AB000A0E0A21531F081919191892B21F0AF5FC7
:101AC000F8CF2FEF01C02A2F89E190E02A870E94EA
:101AD000E41BFC013286C80134E0880F991F3A9557
:101AE000E1F793838283B582A4829782868291866E
:101AF00080861386148616861586108A1786128AA3
:101B0000118A8EE191E091838083158A368AAB85B4
:101B1000BC85B08FA78BAF81B885ED93FC932A85E8
:101B2000A22FB0E0D296AA0FBB1F2B853C85A20F37
:101B3000B31FED93FC9382E090E0948B838B32C1D2
:101B400087E190E00E94E41BDC011A963C921A9710
:101B5000C801029624E0880F991F2A95E1F7139691
:101B60009C938E9312972D813E8115963C932E93D4
:101B7000149717969C928E92169719969C928E9215
:101B800018971B961C921B971C961C921C9750969C
:101B90001C921E921F9752961C921E92519784E39C
:101BA00091E011969C938E9355961C92559756965C
:101BB0003C925697E0E1F0E01E96FC93EE931D9761
:101BC00022E030E054963C932E935397F20120E0AC
:101BD000221531F081919191892B19F02F5FF8CF67
:101BE0002FEFE22FF0E0F296EE0FFF1F2B853C85E2
:101BF000E20FF31FB183A083D5C08EE090E00E9476
:101C0000E41B9C01DC011A963C921A97C801F4E08F
:101C1000880F991FFA95E1F713969C938E9312976C
:101C20001596BC92AE9214971796FC92EE92169768
:101C30001996FC92EE9218971B961C921B97EAE459
:101C4000F1E01196FC93EE931C963C929BC08EE0C3
:101C500090E00E94E41B9C01DC011A963C921A97CA
:101C6000C801E4E0880F991FEA95E1F713969C9369
:101C70008E9312971596BC92AE9214971796FC927B
:101C8000EE9216971996FC92EE9218971B961C925C
:101C90001B971C961C921C97E6E7F1E0ED93FC93D2
:101CA00071C084E290E049870E94E41B9C01DC0142
:101CB0001A963C921A97C80174E0880F991F7A957A
:101CC000E1F713969C938E9312971596BC92AE9261
:101CD00014971796FC92EE9216971996FC92EE9234
:101CE00018971B961C921B971C961C921C97E0E65B
:101CF000F1E01196FC93EE931E963C921E975A9635
:101D00001C925A9793961C9293971D961C921D971E
:101D10008B859C8551969C938E93509749854A5DFF
:101D20001F964C9331C08EE090E049870E94E41BDF
:101D30009C01DC011A963C921A97C80164E0880F56
:101D4000991F6A95E1F713969C938E9312971596B7
:101D5000BC92AE9214971796FC92EE921697199633
:101D6000FC92EE9218971B961C921B971C961C9245
:101D70001C97ECE8F1E01196FC93EE934985445EE4
:101D80001D964C938B859C852A8739870E94A705D1
:101D9000EB85FC85E80FF11DE80FF11D2A853985DB
:101DA00035832483FFEF6F1A7F0A085F1F4F20E1FE
:101DB0006216710409F068CE38E0C30ED11C80E4CD
:101DC000C816D10409F03ECE2C960FB6F894DEBFAB
:101DD0000FBECDBFDF91CF911F910F91FF90EF907C
:101DE000DF90CF90BF90AF909F908F907F906F903B
:101DF0005F904F903F902F900895089580911E021C
:101E000081110DC082E080931A0284E080931B024E
:101E100010921D0210921C0281E080931E028AE142
:101E200092E00895CF93DF931F92CDB7DEB7698319
:101E3000DC01ED91FC910280F381E02D41E050E066
:101E4000BE016F5F7F4F09950F90DF91CF9108958D
:101E500083E08093E9008091F200882319F08AE3FF
:101E60008093E8000895FC018485958597FD0BC05B
:101E70009FB7F89482E08093E9008091F2009FBFC1
:101E800090E0019608959FB7F89482E08093E9006E
:101E90008091F2009FBF90E0089540911702509109
:101EA0001802209115023091160242175307B4F41C
:101EB0009091E8009570E1F39091E80092FD19C0CF
:101EC0008093F100809117029091180201968F7310
:101ED0009927892B19F48EEF8093E80080911702DF
:101EE000909118020196909318028093170281E056
:101EF000089580E00895DF92EF92FF920F931F9371
:101F0000CF93DF93D82E8A017B01E40EF51EEB01FF
:101F1000CE15DF0571F0D7FE03C0FE01849101C02C
:101F200088810E944D0F21968111F2CF8FEF9FEF94
:101F300001C0C801DF91CF911F910F91FF90EF90E9
:101F4000DF9008950F931F93CF93DF931F92CDB728
:101F5000DEB782E0898342E450E068E473E080E821
:101F60000E947B0F0E94FE0EDC0112960D911C91C7
:101F700013970115110569F0D801ED91FC910280CC
:101F8000F381E02DBE016F5F7F4FC801099597FF78
:101F900007C089810F90DF91CF911F910F91089514
:101FA000F80100851185E5CF8F929F92AF92BF9285
:101FB000CF92DF92EF92FF920F931F93CF93DF9315
:101FC0005C016B018A0180910F01882309F45EC0D6
:101FD00080912802882309F459C08091130280FF60
:101FE00005C08091E00082608093E000E8018AEF04
:101FF000F82E93E0E92E2FE3822E3AE3932E2097DA
:1020000009F43DC08FB7F894E092E9009091E800A0
:1020100095FF06C09091F200282D291B922F01C038
:1020200090E08FBF91110AC0FA94FF2079F161E02E
:1020300070E080E090E00E945017E1CF292F30E05F
:10204000C217D3070CF49C2F8FB7F894E092E900E5
:102050002091E80025FF11C0292F30E0C21BD30BCF
:10206000F601915020F041914093F100FACFC20E59
:10207000D31E9091E80095FF13C08FBFC0CF5D982D
:1020800084E6809319021016110644F081E090E076
:10209000F5019383828380E090E005C0C80103C00E
:1020A0009092E800EACFDF91CF911F910F91FF90BE
:1020B000EF90DF90CF90BF90AF909F908F9008955A
:1020C000CF93DF931F92CDB7DEB7FC018485958552
:1020D00097FD05C02FEF3FEF358724870BC0CE015A
:1020E00001960E94B315019719F4898190E002C00E
:1020F0008FEF9FEF0F90DF91CF9108950F931F9374
:10210000CF93DF931F92CDB7DEB78C01FC0184859E
:10211000958597FF0EC0CE0101960E94B3150197D9
:1021200019F4298130E002C02FEF3FEFF801358725
:102130002487F801848595850F90DF91CF911F91B9
:102140000F9108951F920F920FB60F9211248F9343
:102150009F938091E1009091E100937F9093E10043
:1021600083FF0FC01092E90091E09093EB00109272
:10217000EC0092E39093ED001092280298E0909387
:10218000F00082FF20C093E09093E9009091F2006C
:10219000992319F09AE39093E800909119029923FA
:1021A00039F090911902915090931902992389F175
:1021B00090912702992339F09091270291509093A2
:1021C0002702992341F184FF10C08091E2008E7EA6
:1021D00081608093E2008091E1008F7E8093E10036
:1021E000809113028E7E806111C080FF16C08091A5
:1021F000E2008E7E80618093E2008091E1008E7E1D
:102200008093E100809113028E7E8160809313029F
:1022100004C05D9ACDCF289AD6CF9F918F910F9011
:102220000FBE0F901F9018951F920F920FB60F922E
:102230001124CF92DF92EF92FF920F931F932F936F
:102240003F934F935F936F937F938F939F93AF933E
:10225000BF93EF93FF93CF93DF93CDB7DEB76C9728
:10226000DEBFCDBF1092E9008091E80083FFFAC184
:1022700068E0CE0145960E94431782EF8093E80004
:102280008D8987FF05C09091E80090FFFCCF03C0C7
:102290009EEF9093E800982F907609F0C6C09E8933
:1022A0002F89188D91110CC0803829F48091120269
:1022B0008093F10002C01092F1001092F10047C12A
:1022C000422F50E0512B913051F4811140C14130E7
:1022D000510509F03CC1809112028D7F0BC09330F3
:1022E00061F4811134C14130510509F030C1809150
:1022F00012028260809312022AC1953041F48091CB
:10230000E80080FFFCCF20682093E30020C19630D6
:1023100009F05FC0EB8CFC8C1092E900109218025F
:1023200010921702123091F51092160210921502B7
:102330000E94A20F99E0BE016F5F7F4FDB01E92F82
:102340001D92EA95E9F799831A8391E09E8390EABA
:1023500098879AEF99872091170230911802275F8A
:102360003F4F3C832B838D831092E900109218021B
:1023700010921702F0921602E092150249E050E026
:1023800080E00E947B0F0E94A20FE1C0F092160233
:10239000E09215020E94FE0EDC011296ED90FC9078
:1023A0001397E114F10409F4C0C0D701ED91FC9139
:1023B0000480F581E02DBE016B5E7F4FC70109955A
:1023C000009719F00CF0C3C0C6C0F701E084F18497
:1023D000E8CF973009F4BFC0983021F481E08093B2
:1023E000F100B5C0993009F0B2C0837009F0B3C0F4
:1023F000E9ECF1E081E021E036E39081992361F09E
:102400008093E9002093EB0091919093EC0030933E
:10241000ED008F5F873089F78EE78093EA00109296
:10242000EA008F898093280292C08B8D9C8D109238
:10243000E9001092180210921702909316028093EE
:102440001502898D811156C08E899D89913A59F462
:10245000813209F080C047E050E068E071E080E040
:102460000E947B0F74C0913209F075C0833289F4E9
:10247000888D90E0982F88272F89822BA0E0B0E0EC
:102480008093040190930501A0930601B093070186
:102490005EC0803269F48091E80082FFFCCF67E083
:1024A00088E091E00E9443178BEF8093E80006C01C
:1024B000823209F04CC08F8980930F018091110204
:1024C000882319F0EEEFFAE002C0E0E0F8E0809136
:1024D000080190910901A0910A01B0910B01803B84
:1024E0009440A105B10509F088C080910F0180FFDB
:1024F000A0C083C00E94FE0EDC0112960D911C91BB
:1025000013970115110539F1D801ED91FC91019056
:10251000F081E02DBE016B5E7F4FC80109958111EE
:1025200016C0F80100851185ECCF1130C1F01330D1
:1025300091F48F89882309F455C08230E9F440E88A
:1025400060E18AE993E00E94AB1A882321F08EEFC4
:102550008093E80087C081E28093EB0083C08B8D7D
:102560009C8D089711F4109314028091140281112C
:1025700036C06BEA73E038C0813029F440E86BE084
:102580008EE893E0E0CF833031F70E94FE0EDC014D
:102590001296ED90FC9013978E010F5F1F4F68010C
:1025A000E114F10479F0D701ED91FC910680F781F7
:1025B000E02DB801C7010995080F111DF701E0844E
:1025C000F184EECFD8011C92F60101900020E9F7CA
:1025D0003197BF016C197D0940E0C601B4CF6DEBA6
:1025E00073E002C06AE873E06115710509F4B3CFC6
:1025F000FB01449150E080E833CF0FB6F894A895E2
:1026000080916000886180936000109260000FBE2E
:10261000A895EE3F2AE0F20739F08091FE0A9091EA
:10262000FF0A9183808393CF1092FF0A1092FE0AD3
:102630008ECFEE3F8AE0F80731F080819181909350
:10264000FF0A8093FE0A87E797E7918380839BE0E8
:1026500088E10FB6F894A895809360000FBE909320
:10266000600075CF6C960FB6F894DEBF0FBECDBF7D
:10267000DF91CF91FF91EF91BF91AF919F918F919A
:102680007F916F915F914F913F912F911F910F918A
:10269000FF90EF90DF90CF900F900FBE0F901F90A4
:1026A00018958091260208959C01240F311D121661
:1026B000130674F5803891055CF5FC0197FF02C0A4
:1026C000E0E0F0E02138310514F020E830E02E1B86
:1026D000AB014770552781E001C0880F4A95EAF7A2
:1026E00077FF02C0695F7F4F93E0759567959A9574
:1026F000E1F77695762F662777956795E60FF71FB2
:10270000E75DFD4F215020F09081982B9193FACFF7
:1027100008958091D606E091D906F091DA068823D3
:1027200049F0CF0102969093DA068093D9068591FD
:1027300094910895CF0102969093DA068093D9067A
:10274000808191810895EFECF8E090E1969FD001AF
:10275000A0781124A80F6770E60FF11D8491A75D82
:10276000BD4F442321F0EC91E82BEC930895E82F22
:10277000E0958C918E238C9308952F923F924F92E7
:102780005F926F927F928F929F92AF92BF92CF9201
:10279000DF92EF92FF920F931F93CF93DF93CDB70A
:1027A000DEB727970FB6F894DEBF0FBECDBFFC0192
:1027B0006A3069F4248D808D918D38E0239F800DDF
:1027C000911D1124918F808F178A168AA6C06D30B3
:1027D00009F4A3C09F838E83348C238D2983328D8B
:1027E0003A83608C718CE688F78880E8E816F104FB
:1027F000C4F0AE81BF815C962C915C97422F50E073
:1028000056968D919C915797B6E02B9F800D911D08
:102810001124EE81FF81978B868B258D211167C056
:102820007CC0F0E46F16710424F7C70125E0329EE6
:10283000800D911D112418161906DCF6432C512C1D
:10284000C30138E0339E800D911D1124181619061E
:1028500084F685E0689F8001112401531C4F20E01D
:10286000F8012490253009F4212C430158E020FC84
:1028700002C0398101C03A8131110BC0F9818A81CE
:10288000F81307C026945150840C951C5111EFCFBA
:1028900025C067018C2D8E198315A0F754018A2D50
:1028A00088198315B8F490E8C916D10478F4A0E427
:1028B000AA16B10458F4432FB501C6012C833B83FB
:1028C0005D830E94A3135D813B812C81BFEFAB1A16
:1028D000BB0AE5CFEFEFCE1ADE0ADCCF2F5FE40CA8
:1028E000F51C0F5F1F4F263009F0BACF82CF6AEF79
:1028F00064039001659F300D112420583F4F281725
:1029000039075CF4AE81BF81ED91FC911197019084
:10291000F081E02D6AE0CD01099581E090E02796F5
:102920000FB6F894DEBF0FBECDBFDF91CF911F91E0
:102930000F91FF90EF90DF90CF90BF90AF909F905E
:102940008F907F906F905F904F903F902F90089561
:10295000EF92FF920F931F93CF93DF937C018B0134
:10296000040F111DEB0177FF10C0C0E0D0E00DC0D7
:10297000C217D3078CF480E8E816F10428F441E08C
:10298000BE01C7010E94A3132196980101341105CD
:102990007CF320E430E0ECCFDF91CF911F910F91D9
:1029A000FF90EF900895EF92FF920F931F93CF93B4
:1029B000DF93EC018B01E42EF22E6034710510F4EC
:1029C0000E945413B8016F0D711D6150710960347C
:1029D000710520F44E2DCE010E9454134F2DB801E5
:1029E000CE010E94A814CE018E0D911D4F2DB8016D
:1029F0000197DF91CF911F910F91FF90EF900C9471
:102A0000A8140F931F93CF93DF938C01C0E0D0E005
:102A1000F801EC0FFD1F6491662371F0E091B80698
:102A2000F091B9060190F081E02D88EB96E00995D0
:102A3000892B11F02196ECCFCE01DF91CF911F9120
:102A40000F91089520E089E292E0B22FB111BFEF1B
:102A5000FC010024B193B193B193B1930394D1F7E6
:102A600008950E942215E8EBF6E0118E108E178A69
:102A7000168A08952091C206282329F49091C10650
:102A8000982381E009F480E00895E091B806F09180
:102A9000B9060190F081E02D682F88EB96E009944B
:102AA0008F929F92AF92BF920F931F93CF93DF931A
:102AB000CDB7DEB7A1970FB6F894DEBF0FBECDBF7E
:102AC00019A2423008F44AE08E010F5D1F4F842E98
:102AD000912CA12CB12CA50194010E944B1DE62F35
:102AE000B901CA0101501109EA3014F4E05D01C0D6
:102AF000E95CD801EC93232B242B252B61F70115DE
:102B0000110571F0F80101900020E9F73197AF014C
:102B1000401B510BB80188EB96E00E94970402C05D
:102B200080E090E0A1960FB6F894DEBF0FBECDBF57
:102B3000DF91CF911F910F91BF90AF909F908F9099
:102B40000895809129028EBDEAE2F2E081910DB4F0
:102B500007FEFDCF8EBD86E0E932F807B9F70DB468
:102B600007FEFDCF0895FC0180912802811103C06A
:102B70008FEF9FEF08959FB7F89482E08093E9006C
:102B80002091F20030E01216130614F421E030E038
:102B90002115310559F0289884E680932702809109
:102BA000F10080838091F200882319F09FBFC90152
:102BB00008958BE68093E800F9CF1F920F920FB62D
:102BC0000F921124CF92DF92EF92FF920F931F93F7
:102BD0002F933F934F935F936F937F938F939F9325
:102BE000AF93BF93CF93DF93EF93FF938091E00672
:102BF0009091E106A091E206B091E306892B8A2B21
:102C00008B2B89F18091DF0681110BC098B180E494
:102C1000892788B98091DE06882319F088B1805809
:102C200088B98091E0069091E106A091E206B0910A
:102C3000E306181619061A061B060CF0B1C080919F
:102C4000E0069091E106A091E206B091E3060197BB
:102C5000A109B1098093E0069093E106A093E206F2
:102C6000B093E3069DC00E948913811520E8920766
:102C700061F4809171008D7F8093710010929100BA
:102C8000469847981092DD068BC021E02093DD0620
:102C9000813020E8920751F48091DB069091DC06A8
:102CA0009093DA068093D9060E94891397FD05C098
:102CB0002091D806222309F43FC02091D706211184
:102CC0003BC021E02093DE06EC01DF77209769F41A
:102CD00081E08093DF0646983FE9C32E3FE0D32E84
:102CE000E12CF12CCAEFD0E014C08E0120E030E0DE
:102CF00060E472E48FE090E0A90198010E942C1D2D
:102D000069017A0181E0C81AD108E108F10810923E
:102D1000DF06E0914207F09143070995811103C056
:102D200081E08093DF068091DE068823B9F18091EF
:102D3000DF06811133C003C01092DE06C5CF46996D
:102D40002DC0479A0E948913009771F09C01DE0103
:102D50000E946D1DDC01CB0129E0B595A7959795E3
:102D600087952A95D1F703C08FEF9FEFDC01109272
:102D700090002AE020939100D0929900C092980090
:102D80008093E0069093E106A093E206B093E306F9
:102D90008091710082608093710002C04798D2CF09
:102DA000FF91EF91DF91CF91BF91AF919F918F9163
:102DB0007F916F915F914F913F912F911F910F9153
:102DC000FF90EF90DF90CF900F900FBE0F901F906D
:102DD00018952D9A0895BC0180E090E00C9450174E
:102DE0008FB12CB193B130E020953095207433270A
:102DF000A90123E0559547952A95E1F7292F30E061
:102E00002095309520713327359527953595279551
:102E1000242B8095807F822B089583B7817F83BF89
:102E200083B7816083BF889583B78E7F83BF089502
:102E30008EBD00000DB407FEFDCF08953FB7F89496
:102E40008091490790914A07A0914B07B0914C0798
:102E500026B5A89B05C02F3F19F00196A11DB11DF5
:102E60003FBFBA2FA92F982F8827820F911DA11D30
:102E7000B11DBC01CD0142E0660F771F881F991F6D
:102E80004A95D1F70895615030F02091F100FC018E
:102E900020830196F8CF289884E68093270208952E
:102EA0008F929F92AF92BF92CF92DF92EF92FF925A
:102EB0006B017C010E941E174B015C01C114D104FF
:102EC000E104F104F1F00E941E17DC01CB01881926
:102ED0009909AA09BB09883E9340A105B10570F381
:102EE00021E0C21AD108E108F10888EE880E83E0DB
:102EF000981EA11CB11CC114D104E104F10419F7FE
:102F0000DDCFFF90EF90DF90CF90BF90AF909F907C
:102F10008F9008951F920F920FB60F9211242F9346
:102F20003F938F939F93AF93BF938091440790916A
:102F30004507A0914607B09147073091480723E025
:102F4000230F2D3720F40196A11DB11D05C026E8E1
:102F5000230F0296A11DB11D2093480780934407BB
:102F600090934507A0934607B09347078091490780
:102F700090914A07A0914B07B0914C070196A11D73
:102F8000B11D8093490790934A07A0934B07B093D4
:102F90004C07BF91AF919F918F913F912F910F90CF
:102FA0000FBE0F901F901895789484B5826084BDF1
:102FB00084B5816084BD85B5826085BD85B581603D
:102FC00085BD80916E00816080936E0010928100BB
:102FD0008091810082608093810080918100816076
:102FE0008093810080918000816080938000809137
:102FF0009100826080939100809191008160809324
:103000009100809190008160809390008091C10038
:1030100084608093C1008091C10082608093C10070
:103020008091C10081608093C1008091C300816064
:103030008093C3008091C00082608093C000809123
:10304000C20081608093C20080917A008460809386
:103050007A0080917A00826080937A0080917A0071
:10306000816080937A0080917A00806880937A00F2
:103070001092280210921202109213028091D7002F
:1030800081608093D70080EA8093D80089B5806101
:1030900089BD89B5826089BD09B400FEFDCF61E0BC
:1030A00070E080E090E00E9450178091D8008F7C03
:1030B00080618093D8008091E000807F8093E00061
:1030C0008091E1008E7E8093E1008DE08093E200AC
:1030D000559A209AEEEFFFE7859194918B3F9C4D96
:1030E00019F481E08093110281EC80937C0085B11A
:1030F000806F85B9249884B1866E84B95E9A5F9892
:103100008AB1806D8AB9769A6E9881B3806F81BBDF
:10311000899880B38D7080BB80E58CBD81E08DBDCA
:1031200085E090E00E94EB165F9A85E090E00E94B7
:10313000EB165E985C98CBE3D3E01C2F135FFE0187
:1031400084910E94181721961C13F9CF5C9A81E88C
:103150008093640081E080936500C0E0D4E080E06B
:103160000E9418172197D9F70E94F01687FF1FC0F9
:103170005C9885EA0E9418175C9A2E982F982D98D3
:10318000809164008062809364000E940D17FDCFDF
:103190002D980E94F0168478843871F00E94F01601
:1031A0008471843131F188EC90E00E94EB160E942A
:1031B000F01682FDEDCF3AC00E94E91688EC90E04F
:1031C0000E94EB162F9882E090E00E94161D8F3F20
:1031D00029F06FEF82E090E00E941E1D84EF91E0E5
:1031E0000E94EB162F9A0E94F01684788438D9F347
:1031F000D5CF0E94E91688EC90E00E94EB162E983D
:1032000082E090E00E94161D882329F060E082E0B1
:1032100090E00E941E1D84EF91E00E94EB162E9A12
:103220000E94F01684718431D9F3BDCF0E94E91653
:1032300082E090E00E94161D882331F03E9A3F9A6A
:1032400081E08093260204C0109226023E983F98A7
:103250002E98CEEEDFEF08E010E00E94F01686FF19
:1032600004C02E9A2F9A2D9A8BC0CC3F2FEFD207F5
:1032700019F42E9A2F9805C0C831D10511F42F9A50
:103280002D980E942215C03F4FEFD40784F40E946E
:10329000A1158BE190E00E94EB16C03F5FEFD507D0
:1032A00009F059C08AEF90E00E94EB1654C09E01CD
:1032B000D7FF04C0222733272C1B3D0B2770332751
:1032C000CE01D7FD079653E0959587955A95E1F77E
:1032D000D7FF05C00197D801A21BB30B9D017C014C
:1032E000F694FE2CEE24F794E79460E070E0480139
:1032F000821A930AF701E058FF4F5F018F3FFFEFFB
:103300009F0744F40196685A7F4F7501603B710531
:1033100089F7BDCFD701A354BD4F40E050E08F3FA8
:10332000EFEF9E0709F4FCC0FA01E60FF71FE5571F
:10333000FD4FE4916D01CA18DB08CE0CDF1CF0E0F4
:103340002F01022E01C0440C0A94EAF7F6017080A6
:1033500047284082E5C02196C931D10509F07DCFCB
:103360008CEB92E00E94EB160E94E916E091BC06FD
:10337000F091BD060190F081E02D8CEB96E009956F
:1033800082E390E00E94EB160E94F0168111F8CFC4
:1033900080E18093C3068DE296E00E940B0C84E6E8
:1033A00090E090932C0680932B0610920E0285EBF2
:1033B00096E09093100280930F02C0E0D0E0992431
:1033C000939409E216E022E0E22E21E0F22E30E0B2
:1033D000C32E31E0D32E5C012FB7F89480914407BF
:1033E00090914507A0914607B09147072FBF4091A4
:1033F000C8065091C9066091CA067091CB0620910B
:10340000CC06222341F02091C406821B8093CD0676
:103410001092CC067FC084179507A607B70738F42B
:10342000481B423008F476C00E940D1773C090927A
:10343000CC068093C4069093C506A093C606B093AD
:10344000C7062091C306820F911DA11DB11D809357
:10345000C8069093C906A093CA06B093CB06809184
:10346000BF069091C00601969093C0068093BF0658
:103470008091C1068093C2060E94F0168093C10617
:1034800080910F0290911002DC01ED91FC9102807D
:10349000F381E02D09953C0180910F02909110027B
:1034A000DC01ED91FC910480F581E02D09950E94ED
:1034B000A115B2E06B167104F9F08CF4611471047B
:1034C00001F16A94672831F58DE296E00E940B0CB9
:1034D0008DE296E09093100280930F021BC023E0D0
:1034E0006216710499F044E06416710499F4D09264
:1034F0001002C0920F020EC01093100200930F0230
:1035000009C0B0921002A0920F0204C0F092100203
:10351000E0920F02209709F45FCF0E9400005CCF79
:103520002115310581F0FA01E60FF71FE557FD4F30
:10353000E491F0E0082C02C0F595E7950A94E2F7D3
:10354000DC90ED29EC934F5F5F4F119648355105A4
:1035500009F0E5CED7CECF92DF92EF92FF920F9394
:103560001F93CF93DF931F92CDB7DEB7182F062F8F
:10357000E42E862F880F8E5F99830E944D0F83E083
:103580000E944D0FF12EC12E9981D92E8C2D8F19AD
:10359000801798F4F601E7FE02C0849101C0808193
:1035A0000E944D0F182F80E00E944D0F8123FFEFE6
:1035B000CF1ADF0A8111EACF01C081E00F90DF91BD
:1035C000CF911F910F91FF90EF90DF90CF900895D2
:1035D0000F931F93CF93DF938C0181E090E00E94C3
:1035E000161D80FF31C08AE090E00E94161D9FEFFB
:1035F000980F9E3F48F522E330E0D80157963C9360
:103600002E93569728E330E059963C932E93589783
:10361000CBE0D0E0D801ED91FC910190F081E02D5C
:10362000682FC8010995CE010E94161D2196C1314F
:10363000D10581F70E94A11588EE93E0DF91CF912B
:103640001F910F910C94EB16DF91CF911F910F9169
:10365000089504970C94E81A1092E7061092E60673
:1036600088EE93E0A0E0B0E08093E8069093E9064E
:10367000A093EA06B093EB0683ED91E09093E50604
:103680008093E4062FEF3FEF3093F1062093F0068E
:103690001092BB061092BA061092C1061092C20692
:1036A00080E18093C3063093C0062093BF0610923A
:1036B000C8061092C9061092CA061092CB06109244
:1036C000CC062DEE31E03093B9062093B80627EFF3
:1036D00031E03093BD062093BC061092CF061092C5
:1036E000CE061092D1061092D00691E09093D206A9
:1036F0001092D3069093D4061092D50621E533E1BB
:10370000309343072093420720E030E8309341078D
:103710002093400746983E9A47983F9A27E032E028
:103720003093B6062093B50623EE31E030932E0693
:1037300020932D0690E390932F0680933006E1E3CB
:10374000F6E01192119286E0E139F807D1F7E1E94C
:10375000F6E01192119286E0E13BF807D1F78DEF88
:1037600091E090932A0680932906089597FB072EEF
:1037700016F4009407D077FD09D00E94D01B07FCF7
:1037800005D03EF4909581959F4F08957095619571
:103790007F4F0895EE0FFF1F0590F491E02D0994DF
:1037A000AA1BBB1B51E107C0AA1FBB1FA617B70767
:1037B00010F0A61BB70B881F991F5A95A9F7809583
:1037C0009095BC01CD010895CF93DF938230910590
:1037D00010F482E090E0E0914F07F091500720E074
:1037E00030E0C0E0D0E0309711F1408151814817BE
:1037F0005907C0F04817590761F4828193812097D7
:1038000019F09B838A832BC09093500780934F07B6
:1038100026C02115310519F04217530718F49A01F3
:10382000BE01DF01EF010280F381E02DDCCF211525
:10383000310509F1281B390B2430310590F412961B
:103840008D919C9113976115710521F0FB01938374
:10385000828304C09093500780934F07FD013296F6
:1038600044C0FD01E20FF31F81939193225031096F
:103870002D933C933AC020914D0730914E07232B56
:1038800041F4209112013091130130934E0720939F
:103890004D0720911001309111012115310541F49E
:1038A0002DB73EB74091140150911501241B350BE3
:1038B000E0914D07F0914E07E217F307A0F42E1B9D
:1038C0003F0B2817390778F0AC014E5F5F4F241784
:1038D000350748F04E0F5F1F50934E0740934D073A
:1038E0008193919302C0E0E0F0E0CF01DF91CF91AE
:1038F00008950F931F93CF93DF93009709F48CC023
:10390000FC0132971382128200914F0710915007E9
:103910000115110581F420813181820F931F2091BF
:103920004D0730914E072817390779F5F0934E0768
:10393000E0934D0771C0D80140E050E0AE17BF07DB
:1039400050F412962D913C911397AD01211531053C
:1039500009F1D901F3CF9D01DA013383228360811C
:103960007181860F971F8217930769F4EC012881F4
:103970003981260F371F2E5F3F4F318320838A8185
:103980009B8193838283452B29F4F0935007E09326
:103990004F0742C01396FC93EE931297ED014991A5
:1039A00059919E01240F351FE217F30771F48081AE
:1039B0009181840F951F029611969C938E9382811C
:1039C000938113969C938E931297E0E0F0E0D801D8
:1039D00012968D919C911397009719F0F8018C0124
:1039E000F6CF8D919C9198012E5F3F4F820F931FD0
:1039F00020914D0730914E072817390769F4309709
:103A000029F41092500710924F0702C013821282BD
:103A100010934E0700934D07DF91CF911F910F91A7
:103A2000089581E090E0F8940C947C1DF999FECF04
:103A300092BD81BDF89A992780B50895262FF999EE
:103A4000FECF1FBA92BD81BD20BD0FB6F894FA9A81
:103A5000F99A0FBE01960895052E97FB1EF4009467
:103A60000E94431D57FD07D00E944B1D07FC03D049
:103A70004EF40C94431D50954095309521953F4F41
:103A80004F4F5F4F089590958095709561957F4F4A
:103A90008F4F9F4F0895A1E21A2EAA1BBB1BFD0159
:103AA0000DC0AA1FBB1FEE1FFF1FA217B307E4071D
:103AB000F50720F0A21BB30BE40BF50B661F771F75
:103AC000881F991F1A9469F7609570958095909555
:103AD0009B01AC01BD01CF010895A29FB001B39F2E
:103AE000C001A39F700D811D1124911DB29F700D07
:0C3AF000811D1124911D0895F894FFCF52
:103AFC00B801C201FFFFFFFF00E100000000000061
:103B0C00000051078000010000000000000081054A
:103B1C00860856072F074F064E06F4068806FB0547
:103B2C0000000000F905E20956072F074F064E0664
:103B3C000D07AD06FB05000000009B0580074D0638
:103B4C004C064F064E064B064A06FB0500000000CD
:103B5C005C0546084D064C061405C30441052605B4
:103B6C00FB05000000008205A5084D064C064F061B
:103B7C004E064B064A06FB05000000008F055F0948
:103B8C004D064C064F064E064B064A06FB0500003A
:103B9C0000005C06E30856072F074F064E06250764
:103BAC00AF06FB050000000080052B08BF070000D6
:103BBC000000FA053608050800C1808100000000ED
:103BCC00000000120FD40F330F60107E10280F006E
:103BDC000000000B0C1C0ACB0700000000BD139763
:103BEC0004E81AFCFF0000291B000000007A05689D
:0E3BFC0005210900000000C2041108A3070003
:00000001FF
