:100000000C94FA050C9422060C9422060C942206F9
:100010000C9422060C9422060C9422060C942206C0
:100020000C9422060C9422060C94D00E0C94420FD1
:100030000C9422060C9422060C9422060C942206A0
:100040000C9422060C9422060C9422060C94220690
:100050000C9422060C9422060C9422060C94AE19E1
:100060000C9422060C9422060C9422060C94220670
:100070000C9422060C9422060C9422060C94220660
:100080000C9476150C9422060C9422060C942206ED
:100090000C9422060C9422060C9422060C94220640
:1000A0000C9422060C9422060C942206490B920B07
:1000B000EF0B1C0CCA0CCA0CCA0CCA0CCA0C490C9B
:1000C000490C490C490C490C490CCA0CCA0CCA0C05
:1000D000CA0C8B0C8B0C8B0C8B0C8B0C8B0CF0F8D8
:1000E0009C8E8783878E9CF8F00000FEFF0303033D
:1000F0000303070EFCF80000FEFF030303030307DE
:100100000EFCF80000FFFF00000000000000FFFFF1
:100110000000FEFF8383838383C7EE7C380000F8F2
:10012000FC0E07030303070EFCF800003F7FE0C04E
:100130008080C0E07F3FFFFF01010101010101FF5D
:10014000FF0000FFFF0C0C0C0C1C3E77E3C100000D
:100150007FFFC0C0C0C0C0E0703F1F00001F3F70E5
:10016000E0C0C0C0E0703F1F00007FFFC1C1C1C13F
:10017000C1E3773E1C00001F3F70E0C0C0C0E070CC
:100180003F1F000000000001FFFF01000000D5F04C
:100190008D14A1C881CFD9F1AF2000436C65617285
:1001A000210000000000000000000000000000002E
:1001B0000000000000000000000000000D00000032
:1001C000000B000000000000000000000000000024
:1001D000000000000000000000000004000000001B
:1001E000000000000000000000010000000000000E
:1001F00000171704000000000000000004000000C9
:1002000000001504000000000000000000000000D5
:1002100016160C040400000000000004000000009A
:1002200016030A020000020404000000000000009F
:1002300000000404040404040400000000000000A2
:1002400000000B0002000004040000000000000099
:100250000000040404040404000000000000000086
:1002600000000C000002000400000000000000007C
:100270000000040404040404000000000000000066
:10028000000000000000000100000000000000006D
:10029000000000000000000000000000000000005E
:1002A000000300000000000000000000000000004B
:1002B000000000000000000000000000000000003E
:1002C000000000000000000000000000000000002E
:1002D000000000000000000000000000000000001E
:1002E000000000000000000000000000000000000E
:1002F00003030000000000000000000000000000F8
:1003000003030000000000000000000000000000E7
:1003100000000100040A0B0C0D0E0F101112130047
:1003200000000000000000000000000000000000CD
:1003300000000000000000000000000000000000BD
:1003400000000000000000000000000000000000AD
:10035000000000000000000000000000000000009D
:10036000000000000000000000000000000000008D
:100370000303000000000000000000000000000077
:100380000303000000000000000000000000000067
:100390000000010000000000000000020000020058
:1003A000000200000000000000000000000000004B
:1003B000000000000000000000000000000000003D
:1003C00003000000040404040404040404040404FA
:1003D0000404040000000000000000000000000011
:1003E000000000000000000000000000000000000D
:1003F00000000404040404040004000400040004D5
:1004000000000000000000000000000000000000EC
:1004100000040100000000000000000000000000D7
:1004200000000000000000000000000000000000CC
:1004300000000000000000000000000000000000BC
:1004400000000000000000000000000000000000AC
:10045000000000000000000000000000000000009C
:10046000000000000000000000000000000000008C
:10047000000000000A001400000B001500000C0032
:10048000160000000000140000000015000000002D
:10049000160001000000140000000015000000001C
:1004A00016030A0002000000040000000000000023
:1004B0000000040404040404000000000000000024
:1004C00000000B000000000204000000000000001B
:1004D0000000040404040404000000000000000004
:1004E00000000000000000000000000014001500E3
:1004F00000000000000000000000000014001500D3
:1005000000000000000000010000000014001500C1
:1005100000000000000000000000000014001500B2
:1005200000030000000000000000000000000000C8
:1005300000000002020202000300000000000000B0
:1005400000000000000000000000000000000000AB
:10055000000000000000000000000000000000009B
:100560000000000000000000040000000000000087
:10057000000000000000000000000000000000007B
:100580000004000000000404000004000004040053
:100590000004010000000000000000000000000056
:1005A0000404000000000000000000000000000043
:1005B0000003000000000000000000000000000038
:1005C0000004000000000000000000000000000027
:1005D0000400000000000000000000000000000413
:1005E0000000000000000000000000000000040007
:1005F00000000000000000000000000000040000F7
:1006000000000000000000000000000004000000E6
:1006100000000000000000000001000400000000D5
:100620000000080B000202020100090400000102A0
:100630000200000524001001052401010104240228
:100640000605240600010705810310004009040186
:1006500000020A00000007050202400000070583AF
:10066000024000000403090441726475696E6F2042
:100670004C4C430041726475696E6F204C656F6E1F
:100680006172646F001201000200000040412336D5
:100690008000010102030112010002EF020140414A
:1006A00023368000010102030100000000003E5BD0
:1006B0004F5B3E3E6B4F6B3E1C3E7C3E1C183C7EAF
:1006C0003C181C577D571C1C5E7F5E1C00183C1894
:1006D00000FFE7C3E7FF0018241800FFE7DBE7FF90
:1006E00030483A060E2629792926407F050507401D
:1006F0007F05253F5A3CE73C5A7F3E1C1C08081CDE
:100700001C3E7F14227F22145F5F005F5F06097F1B
:10071000017F006689956A606060606094A2FFA2B4
:100720009408047E040810207E201008082A1C0863
:10073000081C2A08081E101010100C1E0C1E0C306D
:10074000383E3830060E3E0E060000000000000065
:100750005F00000007000700147F147F14242A7F25
:100760002A122313086462364956205000080703F2
:1007700000001C2241000041221C002A1C7F1C2A70
:1007800008083E08080080703000080808080800C3
:100790000060600020100804023E5149453E0042BE
:1007A0007F400072494949462141494D331814128E
:1007B0007F1027454545393C4A49493141211109B6
:1007C000073649494936464949291E0000140000A8
:1007D00000403400000008142241141414141400C2
:1007E0004122140802015909063E415D594E7C120E
:1007F00011127C7F494949363E414141227F4141A6
:10080000413E7F494949417F090909013E41415122
:10081000737F0808087F00417F41002040413F016D
:100820007F081422417F404040407F021C027F7FAE
:100830000408107F3E4141413E7F090909063E41BF
:1008400051215E7F09192946264949493203017F12
:1008500001033F4040403F1F2040201F3F403840A1
:100860003F631408146303047804036159494D433A
:10087000007F4141410204081020004141417F04B2
:100880000201020440404040400003070800205499
:100890005478407F284444383844444428384444F9
:1008A000287F385454541800087E090218A4A49CC8
:1008B000787F0804047800447D40002040403D00DB
:1008C0007F1028440000417F40007C047804787C3D
:1008D000080404783844444438FC182424181824A4
:1008E0002418FC7C08040408485454542404043F8D
:1008F00044243C4040207C1C2040201C3C40304094
:100900003C44281028444C9090907C4464544C44BF
:100910000008364100000077000000413608000260
:10092000010204023C2623263C1EA1A161123A408A
:1009300040207A3854545559215555794121545401
:100940007841215554784020545579400C1E5272FC
:1009500012395555555939545454593955545458D8
:100960000000457C410002457D420001457C40F08D
:10097000292429F0F0282528F07C545545002054DE
:10098000547C547C0A097F493249494932324848EB
:100990004832324A4848303A4141217A3A4240206E
:1009A00078009DA0A07D39444444393D4040403DFD
:1009B0003C24FF2424487E4943662B2FFC2F2BFF29
:1009C0000929F620C0887E0903205454794100008B
:1009D000447D413048484A32384040227A007A0A01
:1009E0000A727D0D19317D2629292F2826292929CA
:1009F0002630484D402038080808080808080838FC
:100A00002F10C8ACBA2F102834FA00007B00000861
:100A1000142A142222142A14089500220095AA00F0
:100A20005500AAAA55AA55AA000000FF00101010F0
:100A3000FF00141414FF001010FF00FF1010F0103E
:100A4000F0141414FC001414F700FF0000FF00FF62
:100A50001414F404FC141417101F10101F101F148A
:100A600014141F00101010F0000000001F101010D0
:100A7000101F10101010F010000000FF10101010C8
:100A80001010101010FF10000000FF140000FF00F5
:100A9000FF00001F10170000FC04F41414171017B7
:100AA0001414F404F40000FF00F7141414141414C4
:100AB00014F700F7141414171410101F101F141437
:100AC00014F4141010F010F000001F101F000000AC
:100AD0001F14000000FC140000F010F01010FF10B4
:100AE000FF141414FF141010101F00000000F01069
:100AF000FFFFFFFFFFF0F0F0F0F0FFFFFF0000004E
:100B00000000FFFF0F0F0F0F0F38444438447C2ABA
:100B10002A3E147E02020606027E027E02635549C8
:100B200041633844443C04407E201E2006027E027D
:100B30000299A5E7A5991C2A492A1C4C7201724CFE
:100B4000304A4D4D303048784830BC625A463D3EC0
:100B5000494949007E0101017E2A2A2A2A2A444461
:100B60005F444440514A444040444A51400000FFE1
:100B70000103E080FF000008086B6B083612362482
:100B800036060F090F0600001818000000101000AC
:100B90003040FF0101001F01011E00191D17120046
:100BA0003C3C3C3C000000000001020408102040D6
:100BB00080470047616D65204F7665722100526560
:100BC0006164790017049704270575052006E0067F
:100BD000B8072D082D094D0A62792040696E615FC2
:100BE000616E6900535441474500504F4954544F7A
:100BF0000000581D11241FBECFEFDAE0DEBFCDBFCD
:100C000027E0A8EFB1E001C01D92AB30B207E1F7D9
:100C100011E0A0E0B1E0E6E5FFE302C005900D922F
:100C2000A83FB107D9F715E0CAEFD5E004C0219776
:100C3000FE010E94F71DC93FD107C9F70E94F819AC
:100C40000C94A91F0C940000FC012281349680E0D2
:100C5000821731F041915191452B19F08F5FF8CFF8
:100C60008FEF0895AF92BF92CF92DF92EF92FF92F3
:100C70000F931F93CF93DF937C016B015A0100E028
:100C800010E0F7018281081728F5E701C00FD11D98
:100C9000C00FD11D8C819D810097D1F0C816D90657
:100CA000B9F0DC01ED91FC910088F189E02DB601ED
:100CB0000995882369F0A114B10449F08C819D81C4
:100CC000F501E10FF11DE10FF11D918380831F5F9D
:100CD0000F5FD7CF812FDF91CF911F910F91FF90A1
:100CE000EF90DF90CF90BF90AF900895FC01858585
:100CF000968521893289280F391FB90137FF04C031
:100D000066277727621B730B693071051CF43687E1
:100D100025870AC0C90123E0880F991F2A95E1F7AA
:100D20000E94E31D768765872281338185859685BC
:100D3000820F931F93838283089508950895EF92FD
:100D4000FF920F931F93CF93DF93DB0112960D91C8
:100D50001C911397EC01EA81FB8114960D90BC91D4
:100D6000A02DEB0128853985EC014C815D81E8845B
:100D7000F9848E819F81EB016E817F81600F711FED
:100D80008E0F9F1F681779070CF4CB01BF01E01786
:100D9000F1070CF4B801861B970B18161906B4F46A
:100DA000BA016E0D7F1DCD01820F931F6817790761
:100DB0000CF4CB019A014A175B070CF49D01FC016E
:100DC000E21BF30B81E01E161F060CF080E0DF91A2
:100DD000CF911F910F91FF90EF900895089508957E
:100DE0000895089508950895FC01138212821582D2
:100DF000148288E090E097838683918780870895A6
:100E00000F931F93CF93DF93EC018B01E881F9815E
:100E10000088F189E02D09958823C1F0F8018285C9
:100E20008823A1F02F853889F801848195811216D5
:100E300013062CF428853985821B930B05C0F80115
:100E400020853185820F931F9D838C83DF91CF9105
:100E50001F910F9108950C9400070F931F93CF9348
:100E6000DF93EC018B01E881F9810088F189E02DA5
:100E700009958823C1F0F80182858823A1F02D858A
:100E80003E85F80182819381121613062CF42E817F
:100E90003F81821B930B05C0F80126813781820FA9
:100EA000931F9B838A83DF91CF911F910F910895A8
:100EB0000F931F93CF93DF93EC018B010E942D07BB
:100EC000F8018285882339F08D859E8591958195DD
:100ED00091099E878D87DF91CF911F910F91089582
:100EE000FC018785908923893489280F391FB9012E
:100EF00037FF04C066277727621B730B61347105C7
:100F00001CF4308B27870AC0C90126E0880F991F7F
:100F10002A95E1F70E94E31D708B67872481358154
:100F200087859089820F931F958384830895FC01A0
:100F30008585968521893289280F391FB90137FFA8
:100F400004C066277727621B730B613271051CF49E
:100F5000368725870AC0C90125E0880F991F2A9581
:100F6000E1F70E94E31D76876587228133818585BD
:100F70009685820F931F93838283089508950F931C
:100F80001F93CF938C010E94161410929E0610920C
:100F90009D0610929C0610929B06C0E0F80182818B
:100FA000C81790F4F801EC0FF11DEC0FF11D8481CE
:100FB0009581009739F0DC01ED91FC910280F3817D
:100FC000E02D0995CF5FEACFC0E0F8018381C81713
:100FD000A0F4EC2FF0E0B296EE0FFF1FE00FF11F30
:100FE00080819181009739F0DC01ED91FC910280C4
:100FF000F381E02D0995CF5FE8CFCF911F910F913D
:10100000089588E00E942514882341F08091F8011A
:101010008F5F8093F80182E090E0089585E090E092
:1010200008952F923F924F925F926F927F928F928C
:101030009F92AF92BF92CF92DF92EF92FF920F9367
:101040001F93CF93DF93CDB7DEB72A970FB6F894EF
:10105000DEBF0FBECDBF8C017C0186E5E80EF11C22
:1010600085E090E0D7018D939C9388E00E94251441
:10107000882379F0F801EC5AFF4F0190F081E02DC0
:101080008589811106C08CED9FEF908B878781E069
:10109000858B0E94DD1586FF10C0F801EC5AFF4FCA
:1010A0000190F081E02D858596850196968785874C
:1010B00081E0868BDD24D39401C0D12C0E94DD1504
:1010C00085FF0DC0F801EC5AFF4F0190F081E02D33
:1010D00085859685019796878587168A0AC0D110DF
:1010E00008C0F801EC5AFF4F0190F081E02D168600
:1010F0001586D12CF8018281D81690F4F801ED0DF7
:10110000F11DED0DF11D84819581009739F0DC0111
:10111000ED91FC910084F185E02D0995D394EACFFF
:10112000D12CF8018381D816A0F4ED2DF0E0B29611
:10113000EE0FFF1FE00FF11F80819181009739F0C2
:10114000DC01ED91FC910084F185E02D0995D394AB
:10115000E8CFB12CD80113968C91B81608F08CC04A
:101160006801CB0CD11CCB0CD11CF4E4CF0ED11CEC
:10117000D6018D919C91009709F47CC0DC01ED9122
:10118000FC910480F581E02D0995F6016081718163
:10119000AE014F5F5F4FC8010E943206782E811169
:1011A00017C0D6018D919C91DC01ED91FC910680D8
:1011B000F781E02D0995F60160817181AE014F5FE5
:1011C0005F4FC8010E943206782E811124C045C0AD
:1011D000CE0101964C01A12CD6018D919C91DC0190
:1011E000ED91FC91D4016D917C910484F585E02D05
:1011F0000995F401819191914F01DC01ED91FC91F0
:10120000D6016D917C910484F585E02D0995A39418
:10121000A710E2CFC6CFFE0131964F01A12CD60117
:101220008D919C91DC01ED91FC91D4016D917C91AB
:101230000684F785E02D0995F401819191914F0184
:10124000DC01ED91FC91D6016D917C910684F785CE
:10125000E02D0995A394A710E2CFF601808191813A
:10126000DC011B962C91222329F00E94A61EF60178
:1012700011821082B3946ECFD12CF8018281D816DE
:1012800090F4F801ED0DF11DED0DF11D84819581B6
:10129000009739F0DC01ED91FC910284F385E02D9B
:1012A0000995D394EACFD12CF8018381D816A0F404
:1012B000ED2DF0E0B296EE0FFF1FE00FF11F8081E1
:1012C0009181009739F0DC01ED91FC910284F38566
:1012D000E02D0995D394E8CFB12CC8018C5A9F4FCB
:1012E0009A87898788E1C82E86E0D82E98EC292E27
:1012F000312C2BE0422E22E0522E812C30E8932E0E
:10130000D80113968C91B81608F054C038016B0CB4
:10131000711C6B0C711C94E4690E711CD3018D91CE
:101320009C91009709F444C0E985FA856081718138
:1013300086179707E9F1DC01ED91FC910088F189AE
:10134000E02D09958823A1F1D301ED91FC918485CD
:10135000823071F584E090E0F70191838083809181
:1013600071008D7F8093710010921502D09214024B
:10137000C0921302D0921202C0921102A0E1B3E017
:10138000B0931906A093180630921B0620921A06F5
:1013900050921D0640921C06E0E9F1E0F0931F0612
:1013A000E0931E0690922106809220060E94C814A7
:1013B000B394A6CFF701808191812A960FB6F89455
:1013C000DEBF0FBECDBFDF91CF911F910F91FF9078
:1013D000EF90DF90CF90BF90AF909F908F907F90D5
:1013E0006F905F904F903F902F9008952F923F9273
:1013F0004F925F926F927F928F929F92AF92BF9225
:10140000CF92DF92EF92FF920F931F93CF93DF93D0
:10141000CDB7DEB72C970FB6F894DEBF0FBECDBFA9
:101420009C878B87F12CAB85BC8512968C91F81626
:10143000A0F40B851C850F0D111D0F0D111DD8017A
:1014400014968D919C911597009729F00E94A61EE5
:10145000F80115821482F394E6CFF12CEB85FC851C
:101460002380F214A8F48B859C858F0D911D8F0D20
:10147000911D8C010C5B1F4FF801808191810097B9
:1014800029F00E94A61ED8011D921C92F394E6CF6B
:101490008EE090E00E94111E8C01BB24B394DC010D
:1014A0001A96BC921A9713961C921E921297159632
:1014B0001C921E921497612C58E0752E17967C9200
:1014C0006E92169760E2C62ED12C1996DC92CE92BF
:1014D00018971B961C921B971C961C921C977AE8D7
:1014E000E72E71E0F72E1196FC92EE921D961C925B
:1014F0008B859C850E942406EB85FC85E80FF11DF9
:10150000E80FF11D158304838EE090E00E94111E08
:101510008C01FC01B28613821282812CA4E09A2EE7
:10152000958284827782668280E890E091878087C6
:1015300013861486F182E08215868B859C850E9435
:101540002406EB85FC85E80FF11DE80FF11D1583DE
:1015500004838EE090E00E94111E8C01DC011A963B
:10156000BC921A9713961C921E92129715961C9273
:101570001E9214971796DC92CE92169719969C920B
:101580008E9218971B961C921B971C961C921C9768
:101590001196FC92EE921D961C928B859C850E9462
:1015A0002406EB85FC85E80FF11DE80FF11D15837E
:1015B00004838EE090E00E94111E8C01FC01B28633
:1015C00080EE97E093838283D582C482D782C682DD
:1015D00080EE93E09187808713861486F182E08203
:1015E00015868B859C850E942406EB85FC85E80F7B
:1015F000F11DE80FF11D158304838091F80190E43B
:10160000899F900111243C832B83C12CD12C00E8AD
:1016100010E04B845C84A4E44A0E511C2B853C856D
:101620002C5A3F4F38872F83560184E0AA0CBB1CED
:101630008A95E1F7C60102969C0194E0220F331FC0
:101640009A95E1F73E832D838B819C818C0D9D1DA6
:101650009C01220F331F3A832983E12CF12C812C2A
:10166000912C3324339450E4652E712CE981FA8156
:10167000E80DF91DEE55FE4F4491842F90E0FC01DA
:101680003197E931F10508F085C1EA5AFF4F0C9412
:10169000F71DF201A0E0A21531F081919191892B03
:1016A00021F0AF5FF8CF2FEF01C02A2F89E190E042
:1016B0002A870E94111EFC013286C70134E0880F80
:1016C000991F3A95E1F793838283B582A48277824A
:1016D0006682718660861386148616861586108A41
:1016E0001786128A118A82E391E091838083158A9A
:1016F000368AAB85BC85B08FA78BAF81B885ED935B
:10170000FC932A85A22FB0E09296AA0FBB1F2B85CF
:101710003C85A20FB31FED93FC9382E090E0948B85
:10172000838B38C187E190E00E94111EDC011A967C
:101730003C921A97C70124E0880F991F2A95E1F778
:1017400013969C938E9312972D813E8115963C9310
:101750002E93149717961C930E93169719967C92B6
:101760006E9218971B961C921B9750961C921E9275
:101770001F9752961C921E92519788E491E0119601
:101780009C938E9355961C92559756963C925697DD
:10179000E0E1F0E01E96FC93EE931D9782E01C962C
:1017A0008C931C9722E030E054963C932E935397F1
:1017B000F20120E0221531F081919191892B19F0ED
:1017C0002F5FF8CF2FEFE22FF0E0B296EE0FFF1F62
:1017D0002B853C85E20FF31FB183A083DBC08EE035
:1017E00090E00E94111E9C01DC011A963C921A970F
:1017F000C701F4E0880F991FFA95E1F713969C93BF
:101800008E9312971596BC92AE92149717961C93CE
:101810000E93169719961C930E9318971B961C926D
:101820001B971D961C921D97EEE5F1E01196FC9317
:10183000EE931C963C929EC08EE090E00E94111E9A
:101840009C01DC011A963C921A97C701E4E0880FCC
:10185000991FEA95E1F713969C938E93129715962C
:10186000BC92AE92149717961C930E9316971996E6
:101870001C930E9318971B961C921B971C961C92F8
:101880001C97EAE8F1E01196FC93EE931D961C92EA
:1018900071C084E290E049870E94111E9C01DC0126
:1018A0001A963C921A97C70174E0880F991F7A958F
:1018B000E1F713969C938E9312971596BC92AE9275
:1018C000149717961C930E93169719961C930E93C4
:1018D00018971B961C921B971C961C921C971D9682
:1018E0001C921D97E4E7F1E01196FC93EE931E968F
:1018F0003C921E975A961C925A9793961C929397D5
:101900008B859C8551969C938E93509749854A5D13
:101910001F964C9331C08EE090E049870E94111EC3
:101920009C01DC011A963C921A97C70164E0880F6B
:10193000991F6A95E1F713969C938E9312971596CB
:10194000BC92AE92149717961C930E931697199605
:101950001C930E9318971B961C921B971C961C9217
:101960001C97E0EAF1E01196FC93EE934985445E02
:101970001D964C938B859C852A8739870E94240667
:10198000EB85FC85E80FF11DE80FF11D2A853985EF
:1019900035832483FFEF8F1A9F0A28E0E20EF11CA3
:1019A00030E18316910409F061CE88E0C80ED11CA5
:1019B00090E4C916D10409F037CE2C960FB6F894EE
:1019C000DEBF0FBECDBFDF91CF911F910F91FF9072
:1019D000EF90DF90CF90BF90AF909F908F907F90CF
:1019E0006F905F904F903F902F900895CF92DF922D
:1019F000EF92FF921F93CF93DF93FC0140855185B7
:101A000084E0559547958A95E1F7142F8681978153
:101A100024E0959587952A95E1F7E480F58034E0F8
:101A2000F594E7943A95E1F7C281D38144E0D595E6
:101A3000C7954A95E1F76E01C80ED11CCC15DD059E
:101A40003CF4412FB701CE010E949C132196F6CFA2
:101A5000DF91CF911F91FF90EF90DF90CF9008958D
:101A60000E941614E5E8F6E0118E108E178A168A89
:101A70008BE991E00C94F513FC012085318584E01D
:101A8000359527958A95E1F74681578194E05595DC
:101A900047959A95E1F76481758134E0759567956E
:101AA0003A95E1F78281938154E0959587955A950F
:101AB000E1F70C94C713FC012085318584E035954E
:101AC00027958A95E1F74681578194E0559547958A
:101AD0009A95E1F76481758134E0759567953A953B
:101AE000E1F78281938154E0959587955A95E1F7C6
:101AF0000C94C713FC01EA5AFF4F83E090E09183F6
:101B00008083E1E7F0E080818D7F80831092150271
:101B1000E8E1F6E0F0931402E0931302F09312026E
:101B2000E09311028BE092E09183808388EC90E057
:101B30009383828323E932E03583248397838683EA
:101B400080E193E09187808780E991E093878287A5
:101B50000C94C81408958091080281110DC082E090
:101B60008093040284E08093050210920702109291
:101B7000060281E08093080284E092E00895CF930A
:101B8000DF931F92CDB7DEB76983DC01ED91FC9145
:101B90000280F381E02D41E050E0BE016F5F7F4F96
:101BA00009950F90DF91CF91089583E08093E9002C
:101BB0008091F200882319F08AE38093E800089569
:101BC000FC018485958597FD0BC09FB7F89482E052
:101BD0008093E9008091F2009FBF90E00196089504
:101BE0009FB7F89482E08093E9008091F2009FBF54
:101BF00090E0089540910102509102022091FF016E
:101C00003091000242175307B4F49091E8009570A8
:101C1000E1F39091E80092FD19C08093F10080916A
:101C200001029091020201968F739927892B19F472
:101C30008EEF8093E800809101029091020201965C
:101C4000909302028093010281E0089580E008955C
:101C5000DF92EF92FF920F931F93CF93DF93D82ED3
:101C60008A017B01E40EF51EEB01CE15DF0571F054
:101C7000D7FE03C0FE01849101C088810E94FA0D45
:101C800021968111F2CF8FEF9FEF01C0C801DF9144
:101C9000CF911F910F91FF90EF90DF9008950F93D8
:101CA0001F93CF93DF931F92CDB7DEB782E0898376
:101CB00042E450E062E276E080E80E94280E0E9452
:101CC000AB0DDC0112960D911C91139701151105B6
:101CD00069F0D801ED91FC910280F381E02DBE0105
:101CE0006F5F7F4FC801099597FF07C089810F90EB
:101CF000DF91CF911F910F910895F8010085118513
:101D0000E5CF615030F02091F100FC012083019675
:101D1000F8CF289884E6809316020895CF93DF9336
:101D20001F92CDB7DEB7FC018485958597FD05C070
:101D30002FEF3FEF358724870BC0CE0101960E941D
:101D40009E14019719F4898190E002C08FEF9FEFF4
:101D50000F90DF91CF9108950F931F93CF93DF934F
:101D60001F92CDB7DEB78C01FC018485958597FF66
:101D70000EC0CE0101960E949E14019719F429818C
:101D800030E002C02FEF3FEFF80135872487F801DC
:101D9000848595850F90DF91CF911F910F910895C4
:101DA0001F920F920FB60F9211248F939F938091E1
:101DB000E1009091E100937F9093E10083FF0FC0D9
:101DC0001092E90091E09093EB001092EC0092E306
:101DD0009093ED001092170298E09093F00082FF2C
:101DE00020C093E09093E9009091F200992319F0BC
:101DF0009AE39093E80090910302992339F090912F
:101E00000302915090930302992389F19091160255
:101E1000992339F0909116029150909316029923CC
:101E200041F184FF10C08091E2008E7E816080933A
:101E3000E2008091E1008F7E8093E1008091FD01BE
:101E40008E7E806111C080FF16C08091E2008E7E80
:101E500080618093E2008091E1008E7E8093E100BA
:101E60008091FD018E7E81608093FD0104C05D9AAA
:101E7000CDCF289AD6CF9F918F910F900FBE0F9004
:101E80001F9018951F920F920FB60F921124CF92A8
:101E9000DF92EF92FF920F931F932F933F934F93F5
:101EA0005F936F937F938F939F93AF93BF93EF93C2
:101EB000FF93CF93DF93CDB7DEB76C97DEBFCDBF77
:101EC0001092E9008091E80083FFFAC168E0CE013A
:101ED00045960E94810E82EF8093E8008D8987FFEE
:101EE00005C09091E80090FFFCCF03C09EEF909357
:101EF000E800982F907609F0C6C09E892F89188D2A
:101F000091110CC0803829F48091FC018093F1007C
:101F100002C01092F1001092F10047C1422F50E030
:101F2000512B913051F4811140C14130510509F0DC
:101F30003CC18091FC018D7F0BC0933061F4811115
:101F400034C14130510509F030C18091FC018260FB
:101F50008093FC012AC1953041F48091E80080FF14
:101F6000FCCF20682093E30020C1963009F05FC0C9
:101F7000EB8CFC8C1092E90010920202109201028C
:101F8000123091F5109200021092FF010E944F0E44
:101F900099E0BE016F5F7F4FDB01E92F1D92EA954B
:101FA000E9F799831A8391E09E8390EA98879AEFE4
:101FB00099872091010230910202275F3F4F3C83B5
:101FC0002B838D831092E90010920202109201027D
:101FD000F0920002E092FF0149E050E080E00E94B0
:101FE000280E0E944F0EE1C0F0920002E092FF0125
:101FF0000E94AB0DDC011296ED90FC901397E1145A
:10200000F10409F4C0C0D701ED91FC910480F58181
:10201000E02DBE016B5E7F4FC7010995009719F057
:102020000CF0C3C0C6C0F701E084F184E8CF97305C
:1020300009F4BFC0983021F481E08093F100B5C06D
:10204000993009F0B2C0837009F0B3C0E3EBF1E05E
:1020500081E021E036E39081992361F08093E900EB
:102060002093EB0091919093EC003093ED008F5F03
:10207000873089F78EE78093EA001092EA008F8913
:102080008093170292C08B8D9C8D1092E900109264
:10209000020210920102909300028093FF01898D49
:1020A000811156C08E899D89913A59F4813209F087
:1020B00080C047E050E068E071E080E00E94280EB8
:1020C00074C0913209F075C0833289F4888D90E034
:1020D000982F88272F89822BA0E0B0E080930401FD
:1020E00090930501A0930601B09307015EC0803272
:1020F00069F48091E80082FFFCCF67E088E091E01E
:102100000E94810E8BEF8093E80006C0823209F0B6
:102110004CC08F8980930F018091FB01882319F0B7
:10212000EEEFFAE002C0E0E0F8E080910801909163
:102130000901A0910A01B0910B01803B9440A105D7
:10214000B10509F088C080910F0180FFA0C083C055
:102150000E94AB0DDC0112960D911C911397011595
:10216000110539F1D801ED91FC910190F081E02D3C
:10217000BE016B5E7F4FC8010995811116C0F80141
:1021800000851185ECCF1130C1F0133091F48F89A7
:10219000882309F455C08230E9F440E860E184E71F
:1021A00096E00E94D71C882321F08EEF8093E800F0
:1021B00087C081E28093EB0083C08B8D9C8D089754
:1021C00011F41093FE018091FE01811136C065E883
:1021D00076E038C0813029F440E86BE088E696E08C
:1021E000E0CF833031F70E94AB0DDC011296ED9009
:1021F000FC9013978E010F5F1F4F6801E114F104EB
:1022000079F0D701ED91FC910680F781E02DB801BE
:10221000C7010995080F111DF701E084F184EECF85
:10222000D8011C92F60101900020E9F73197BF0117
:102230006C197D0940E0C601B4CF67E976E002C0C1
:1022400064E676E06115710509F4B3CFFB014491B2
:1022500050E080E833CF0FB6F894A89580916000E5
:10226000886180936000109260000FBEA895EE3FD9
:102270002AE0F20739F08091FE0A9091FF0A9183DB
:10228000808393CF1092FF0A1092FE0A8ECFEE3F0A
:102290008AE0F80731F0808191819093FF0A809362
:1022A000FE0A87E797E7918380839BE088E10FB67A
:1022B000F894A895809360000FBE9093600075CF4E
:1022C0006C960FB6F894DEBF0FBECDBFDF91CF91F5
:1022D000FF91EF91BF91AF919F918F917F916F91FE
:1022E0005F914F913F912F911F910F91FF90EF9030
:1022F000DF90CF900F900FBE0F901F9018958F9288
:102300009F92AF92BF92CF92DF92EF92FF926B01BA
:102310007C010E9489194B015C01C114D104E104C4
:10232000F104F1F00E948919DC01CB0188199909A7
:10233000AA09BB09883E9340A105B10570F321E0CD
:10234000C21AD108E108F10888EE880E83E0981ED1
:10235000A11CB11CC114D104E104F10419F7DDCFB3
:10236000FF90EF90DF90CF90BF90AF909F908F90B5
:1023700008958F929F92AF92BF92CF92DF92EF9289
:10238000FF920F931F93CF93DF935C016B018A0140
:1023900080910F01882309F45EC080911702882381
:1023A00009F459C08091FD0180FF05C08091E000D3
:1023B00082608093E000E8018AEFF82E93E0E92E36
:1023C0002FE3822E3AE3932E209709F43DC08FB776
:1023D000F894E092E9009091E80095FF06C0909192
:1023E000F200282D291B922F01C090E08FBF911180
:1023F0000AC0FA94FF2079F161E070E080E090E09B
:102400000E947F11E1CF292F30E0C217D3070CF4CF
:102410009C2F8FB7F894E092E9002091E80025FF07
:1024200011C0292F30E0C21BD30BF601915020F0D0
:1024300041914093F100FACFC20ED31E9091E80073
:1024400095FF13C08FBFC0CF5D9884E680930302D1
:102450001016110644F081E090E0F5019383828329
:1024600080E090E005C0C80103C09092E800EACF88
:10247000DF91CF911F910F91FF90EF90DF90CF9060
:10248000BF90AF909F908F90089580911002089513
:102490009C01240F311D1216130674F58038910526
:1024A0005CF5FC0197FF02C0E0E0F0E02138310567
:1024B00014F020E830E02E1BAB014770552781E077
:1024C00001C0880F4A95EAF777FF02C0695F7F4F26
:1024D00093E0759567959A95E1F77695762F66273F
:1024E00077956795E60FF71FE85EFD4F215020F0C6
:1024F0009081982B9193FACF089580911502E091E5
:102500001302F0911402882349F0CF0102969093B0
:10251000140280931302859194910895CF0102963D
:102520009093140280931302808191810895E9EAC7
:10253000FBE090E1969FD001A0781124A80F67706E
:10254000E60FF11D8491A85EBD4F442321F0EC916C
:10255000E82BEC930895E82FE0958C918E238C93D3
:1025600008952F923F924F925F926F927F928F9237
:102570009F92AF92BF92CF92DF92EF92FF920F9312
:102580001F93CF93DF93CDB7DEB727970FB6F8949D
:10259000DEBF0FBECDBFFC016A3069F4248D808D93
:1025A000918D38E0239F800D911D1124918F808F94
:1025B000178A168AA6C06D3009F4A3C09F838E8344
:1025C000348C238D2983328D3A83608C718CE6881C
:1025D000F78880E8E816F104C4F0AE81BF815C960C
:1025E0002C915C97422F50E056968D919C91579775
:1025F000B6E02B9F800D911D1124EE81FF81978BFA
:10260000868B258D211167C07CC0F0E46F167104A4
:1026100024F7C70125E0329E800D911D1124181664
:102620001906DCF6432C512CC30138E0339E800D93
:10263000911D11241816190684F685E0689F800103
:1026400011240755194F20E0F8012490253009F492
:10265000212C430158E020FC02C0398101C03A819D
:1026600031110BC0F9818A81F81307C026945150AB
:10267000840C951C5111EFCF25C067018C2D8E194C
:102680008315A0F754018A2D88198315B8F490E8B2
:10269000C916D10478F4A0E4AA16B10458F4432F63
:1026A000B501C6012C833B835D830E9497125D8137
:1026B0003B812C81BFEFAB1ABB0AE5CFEFEFCE1AFF
:1026C000DE0ADCCF2F5FE40CF51C0F5F1F4F2630B6
:1026D00009F0BACF82CF6AEF64039001659F300D95
:1026E000112420583F4F281739075CF4AE81BF8171
:1026F000ED91FC9111970190F081E02D6AE0CD0100
:10270000099581E090E027960FB6F894DEBF0FBEE2
:10271000CDBFDF91CF911F910F91FF90EF90DF9090
:10272000CF90BF90AF909F908F907F906F905F9071
:102730004F903F902F900895EF92FF920F931F9329
:10274000CF93DF937C018B01040F111DEB0177FF09
:1027500010C0C0E0D0E00DC0C217D3078CF480E8F1
:10276000E816F10428F441E0BE01C7010E94971267
:1027700021969801013411057CF320E430E0ECCF80
:10278000DF91CF911F910F91FF90EF900895EF92FD
:10279000FF920F931F93CF93DF93EC018B01E42EF5
:1027A000F22E6034710510F40E944812B8016F0DCA
:1027B000711D615071096034710520F44E2DCE01F8
:1027C0000E9448124F2DB801CE010E949C13CE01E9
:1027D0008E0D911D4F2DB8010197DF91CF911F9163
:1027E0000F91FF90EF900C949C130F931F93CF9336
:1027F000DF938C01C0E0D0E0F801EC0FFD1F649185
:10280000662371F0E0918506F09186060190F081D3
:10281000E02D85E896E00995892B11F02196ECCF03
:10282000CE01DF91CF911F910F91089520E088E1B3
:1028300092E0B22FB111BFEFFC010024B193B1932C
:10284000B193B1930394D1F7089520918F06282373
:1028500029F490918E06982381E009F480E0089590
:10286000E0918506F09186060190F081E02D682FB9
:1028700085E896E009948F929F92AF92BF920F9352
:102880001F93CF93DF93CDB7DEB7A1970FB6F89420
:10289000DEBF0FBECDBF19A2423008F44AE08E0160
:1028A0000F5D1F4F842E912CA12CB12CA5019401FA
:1028B0000E94781FE62FB901CA0101501109EA30C0
:1028C00014F4E05D01C0E95CD801EC93232B242BC8
:1028D000252B61F70115110571F0F8010190002019
:1028E000E9F73197AF01401B510BB80185E896E03D
:1028F0000E940B1602C080E090E0A1960FB6F894FB
:10290000DEBF0FBECDBFDF91CF911F910F91BF9062
:10291000AF909F908F900895809118028EBDE9E14D
:10292000F2E081910DB407FEFDCF8EBD86E0E83167
:10293000F807B9F70DB407FEFDCF0895FC018091AB
:102940001702811103C08FEF9FEF08959FB7F8948E
:1029500082E08093E9002091F20030E01216130625
:1029600014F421E030E02115310559F0289884E66F
:10297000809316028091F10080838091F200882379
:1029800019F09FBFC90108958BE68093E800F9CF45
:10299000CF92DF92EF92FF920F931F93CF93DF932B
:1029A0000E947D12811520E8920761F480917100E8
:1029B0008D7F8093710010929100469847981092F5
:1029C000A5068BC021E02093A506813020E8920760
:1029D00051F480911102909112029093140280930D
:1029E00013020E947D1297FD05C02091A4062223A8
:1029F00009F43FC02091A30621113BC021E02093A0
:102A0000A606EC01DF77209769F481E08093A706A2
:102A100046983FE9C32E3FE0D32EE12CF12CCAEFBC
:102A2000D0E014C08E0120E030E060E472E48FE07A
:102A300090E0A90198010E94591F69017A0181E083
:102A4000C81AD108E108F1081092A706E091FC0627
:102A5000F091FD060995811103C081E08093A706DE
:102A60008091A6068823B9F18091A706811133C011
:102A700003C01092A606C5CF46992DC0479A0E9462
:102A80007D12009771F09C01DE010E949A1FDC010B
:102A9000CB0129E0B595A795979587952A95D1F70C
:102AA00003C08FEF9FEFDC01109290002AE020938B
:102AB0009100D0929900C09298008093A8069093BC
:102AC000A906A093AA06B093AB068091710082601C
:102AD0008093710002C04798D2CFDF91CF911F91B0
:102AE0000F91FF90EF90DF90CF9008951F920F927B
:102AF0000FB60F9211242F933F934F935F936F93D1
:102B00007F938F939F93AF93BF93EF93FF938091A6
:102B1000A8069091A906A091AA06B091AB06892BB0
:102B20008A2B8B2B81F18091A70681110BC098B164
:102B300080E4892788B98091A606882319F088B196
:102B4000805888B98091A8069091A906A091AA06FC
:102B5000B091AB06181619061A061B06B4F480913C
:102B6000A8069091A906A091AA06B091AB0601977C
:102B7000A109B1098093A8069093A906A093AA067B
:102B8000B093AB0602C00E94C814FF91EF91BF91B1
:102B9000AF919F918F917F916F915F914F913F91F5
:102BA0002F910F900FBE0F901F9018952D9A08959A
:102BB000BC0180E090E00C947F118FB12CB193B1F7
:102BC00030E02095309520743327A90123E05595F6
:102BD00047952A95E1F7292F30E02095309520710F
:102BE00033273595279535952795242B8095807F1C
:102BF000822B089583B7817F83BF83B7816083BFB2
:102C0000889583B78E7F83BF08958EBD00000DB475
:102C100007FEFDCF0895CF92DF92EF92FF920F93C0
:102C20001F93CF93DF936C017A018B01C0E0D0E05A
:102C3000CE15DF0589F0D8016D918D01D601ED919A
:102C4000FC910190F081E02DC6010995892B11F4CA
:102C50007E0102C02196ECCFC701DF91CF911F9179
:102C60000F91FF90EF90DF90CF9008952091F801A1
:102C7000FC0122830895FC0193A1DF01529680E0BC
:102C8000891741F019962D913C911A972D933D93F8
:102C90008F5FF6CF828F13A20895DC0193968C91FB
:102CA0009397FD017B9690E0981739F0219131912F
:102CB0002617370761F09F5FF7CFFD01E90FF11D80
:102CC000E90FF11D748F638F9F5F93969C93089516
:102CD000DC0193968C919397FD017B9690E0981779
:102CE00039F0219131912617370761F09F5FF7CFB7
:102CF000FD01E90FF11DE90FF11D748F638F9F5FD7
:102D000093969C930895FC0113821282158214827B
:102D100088E090E097838683918780870895FC01FF
:102D2000228133812150310929F03383228385E0C8
:102D300090E0089584E690E09383828381E090E0C0
:102D4000089524E630E0FC0133832283089508953A
:102D5000FC018585968521893289280F391FB901A3
:102D600037FF04C066277727621B730B6930710534
:102D70001CF4368725870AC0C90123E0880F991FF4
:102D80002A95E1F70E94E31D7687658722813381CA
:102D900085859685820F931F938382830895089576
:102DA000FC01138212821582148288E090E09783DE
:102DB00086839187808715860895FC01138212828D
:102DC0001582148288E090E09783868391878087BC
:102DD0000895FC01138212821582148288E090E02B
:102DE000978386839187808708950E943E1FE5E838
:102DF000F6E0178A168A8EE190E0918F808F81E04D
:102E0000828F138E83EB9BE00C94F513DC011496F8
:102E10002D913C91159784E0359527958A95E1F79A
:102E20002F5F3F4FE5E8F6E012968D919C91139746
:102E300044E0959587954A95E1F70196978B868BA7
:102E4000318F208F81E0828F138E81EB9BE00C9479
:102E5000F5130F931F93CF93DF938C010E941614E9
:102E6000C5E8D6E0198E188E1F8A1E8A8AEE9BE06E
:102E70000E94F51320E230E03F8B2E8B398F288F94
:102E800084EE9BE00E94F513F8018281805D0E9430
:102E9000301480E390E09F8B8E8B86E390E0998FD7
:102EA000888F88ED9BE0DF91CF911F910F910C945B
:102EB000F513CF93DF93EC0188E00E94251488235B
:102EC00031F08A818093F80181E090E016C080E8BB
:102ED0000E942514882329F08A81882311F08150CB
:102EE0008A8380E10E942514882329F08A81893011
:102EF00010F48F5F8A8385E090E0DF91CF91089591
:102F000088E00E942514811103C085E090E00895B7
:102F100080E090E00895EF92FF920F931F93CF937C
:102F2000DF93DC0193965C9193975A962C91251729
:102F300028F152136AC040E070E07C01B2E1EB0E70
:102F4000F11C4517C1F0F70160E09C01240F311D11
:102F5000240F311D255E3F4F651759F0C191D19166
:102F6000D9010D911C910C171D0709F071E06F5FDD
:102F7000F3CF4F5FE6CF772309F447C0FC01C68546
:102F800081E0C827C687D78500891189ED2FEE0F0C
:102F9000FF0BEC59F44F25913491809171008D7F96
:102FA000809371001092150288E196E090931402CC
:102FB00080931302909312028093110230931906AA
:102FC0002093180684E690E090931B0680931A06DF
:102FD00080E090E890931D0680931C060E94C81420
:102FE00080E0F8019281891780F4F801E80FF11D63
:102FF000E80FF11D0480F581E02D309721F09585D3
:103000009D1301C0C2878F5FECCFDF91CF911F91DD
:103010000F91FF90EF900895CF93DF93EC012885F7
:10302000398584E0359527958A95E1F74E815F8152
:1030300094E0559547959A95E1F76C817D8134E050
:10304000759567953A95E1F78A819B8154E095954E
:1030500087955A95E1F70E94C7138C819D8164E0A2
:10306000959587956A95E1F70196E5E8F6E02A815E
:103070003B8174E0359527957A95E1F72F5F3F4FB7
:10308000378B268B918F808F81E0828F138E8F8577
:10309000DF91CF910C943014FC012085318584E0C0
:1030A000359527958A95E1F74681578194E05595A6
:1030B00047959A95E1F76481758134E07595679538
:1030C0003A95E1F78281938154E0959587955A95D9
:1030D000E1F70C94C713FC012085318584E0359518
:1030E00027958A95E1F74681578194E05595479554
:1030F0009A95E1F76481758134E0759567953A9505
:10310000E1F78281938154E0959587955A95E1F78F
:103110000C94C713CF92DF92EF92FF92CF93DF937D
:10312000EC010E94161410929E0610929D061092B9
:103130009C0610929B068EEB9BE00E94F51380E2AA
:1031400090E090939C0680939B0610929E061092AE
:103150009D06CA80DB800D2C000CEE08FF08F7FEF0
:103160000CC08DE20E94301466277727CB016C19C2
:103170007D098E099F094AE003C04AE0C701B601F4
:10318000DF91CF91FF90EF90DF90CF900C943B14A4
:103190000F931F93CF93DF93EC018B010E940007E5
:1031A000F8018285882341F08F85988918161906C1
:1031B0000CF41D8A188A1F86F8018485813041F439
:1031C0008F89988DDF91CF911F910F910C947A0D7B
:1031D000DF91CF911F910F9108950F931F93CF937C
:1031E000DF93EC018B010E942D07F801848581306B
:1031F00041F48F89988DDF91CF911F910F910C949D
:103200007A0DDF91CF911F910F910895AF92BF92E8
:10321000DF92EF92FF920F931F93CF93DF93FC0106
:1032200022856481758182819381222309F44BC0B8
:10323000EF0140855185E4E055954795EA95E1F722
:10324000D42E2E813F81F4E035952795FA95E1F74C
:103250008B01A4E015950795AA95E1F77C01B4E0F0
:10326000F594E794BA95E1F75701A20EB11CEA1460
:10327000FB044CF44D2DB801C7010E949C138FEF45
:10328000E81AF80AF4CF8C819D8144E095958795E2
:103290004A95E1F701962A813B8154E035952795BF
:1032A0005A95E1F72F5F3F4F30939C0620939B0682
:1032B00090939E0680939D0610929F0681E08093D6
:1032C000A0068D851BC024E0759567952A95E1F7CA
:1032D0006F5F7F4F34E0959587953A95E1F70196BA
:1032E00090939C0680939B0670939E0660939D0628
:1032F00081E080939F061092A0068585DF91CF9193
:103300001F910F91FF90EF90DF90BF90AF900C94C2
:1033100030143FB7F8948091030790910407A0916F
:103320000507B091060726B5A89B05C02F3F19F0E9
:103330000196A11DB11D3FBFBA2FA92F982F882735
:10334000820F911DA11DB11DBC01CD0142E0660F90
:10335000771F881F991F4A95D1F708951F920F92E2
:103360000FB60F9211242F933F938F939F93AF9398
:10337000BF938091FE069091FF06A0910007B09147
:1033800001073091020723E0230F2D3720F4019627
:10339000A11DB11D05C026E8230F0296A11DB11D78
:1033A000209302078093FE069093FF06A0930007E8
:1033B000B09301078091030790910407A09105073E
:1033C000B09106070196A11DB11D8093030790934C
:1033D0000407A0930507B0930607BF91AF919F9193
:1033E0008F913F912F910F900FBE0F901F901895C6
:1033F000789484B5826084BD84B5816084BD85B5D0
:10340000826085BD85B5816085BD80916E008160DB
:1034100080936E0010928100809181008260809381
:103420008100809181008160809381008091800083
:1034300081608093800080919100826080939100F0
:1034400080919100816080939100809190008160D3
:10345000809390008091C10084608093C10080912E
:10346000C10082608093C1008091C100816080931F
:10347000C1008091C30081608093C3008091C0002F
:1034800082608093C0008091C20081608093C200FE
:1034900080917A00846080937A0080917A008260C3
:1034A00080937A0080917A00816080937A00809185
:1034B0007A00806880937A00109217021092FC01C3
:1034C0001092FD018091D70081608093D70080EA3F
:1034D0008093D80089B5806189BD89B5826089BD36
:1034E00009B400FEFDCF61E070E080E090E00E9452
:1034F0007F118091D8008F7C80618093D80080916B
:10350000E000807F8093E0008091E1008E7E8093D8
:10351000E1008DE08093E200559A209AEEEFFFE7FC
:10352000859194918B3F9C4D19F481E08093FB0130
:1035300081EC80937C0085B1806F85B9249884B13B
:10354000866E84B95E9A5F988AB1806D8AB9769AE0
:103550006E9881B3806F81BB899880B38D7080BB7A
:1035600080E58CBD81E08DBD85E090E00E94D8159E
:103570005F9A85E090E00E94D8155E985C98CEE84E
:10358000D1E01C2F135FFE0184910E940516219645
:103590001C13F9CF5C9A81E88093640081E08093EA
:1035A0006500C0E0D4E080E00E9405162197D9F7BD
:1035B0000E94DD1587FF1FC05C9885EA0E940516F2
:1035C0005C9A2E982F982D98809164008062809349
:1035D00064000E94FA15FDCF2D980E94DD158478B5
:1035E000843871F00E94DD158471843131F188ECEA
:1035F00090E00E94D8150E94DD1582FDEDCF3AC003
:103600000E94D61588EC90E00E94D8152F9882E091
:1036100090E00E94431F8F3F29F06FEF82E090E01F
:103620000E944B1F84EF91E00E94D8152F9A0E94B0
:10363000DD1584788438D9F3D5CF0E94D61588EC6F
:1036400090E00E94D8152E9882E090E00E94431FDF
:10365000882329F060E082E090E00E944B1F84EF15
:1036600091E00E94D8152E9A0E94DD158471843154
:10367000D9F3BDCF0E94D61582E090E00E94431F8F
:10368000882331F03E9A3F9A81E08093100204C073
:10369000109210023E983F982E98CEEEDFEF08E091
:1036A00010E00E94DD1586FF04C02E9A2F9A2D9AF5
:1036B0008BC0CC3F2FEFD20719F42E9A2F9805C05C
:1036C000C831D10511F42F9A2D980E941614C03FCD
:1036D0004FEFD40784F40E948C148BE190E00E9499
:1036E000D815C03F5FEFD50709F059C08AEF90E0C9
:1036F0000E94D81554C09E01D7FF04C0222733274B
:103700002C1B3D0B27703327CE01D7FD079653E0C6
:10371000959587955A95E1F7D7FF05C00197D80190
:10372000A21BB30B9D017C01F694FE2CEE24F794B2
:10373000E79460E070E04801821A930AF701E058CC
:10374000FF4F5F018F3FFFEF9F0744F40196685AD8
:103750007F4F7501603B710589F7BDCFD701A45537
:10376000BD4F40E050E08F3FEFEF9E0709F404C1EA
:10377000FA01E60FF71FE252FF4FE4916D01CA18FC
:10378000DB08CE0CDF1CF0E02F01022E01C0440C40
:103790000A94EAF7F601708047284082EDC021962E
:1037A000C931D10509F07DCF8CEB92E00E94D8158C
:1037B0000E94D615E0918906F0918A060190F08169
:1037C000E02D89E896E0099582E390E00E94D81503
:1037D0000E94DD158111F8CF80E1809390068091E1
:1037E000F801809384068AE296E00E94F60984E656
:1037F00090E090932906809328061092F80182E8C1
:1038000096E09093FA018093F901C0E0D0E099240A
:10381000939406E216E022E0E22E21E0F22E30E060
:10382000C32E31E0D32E5C012FB7F8948091FE06B1
:103830009091FF06A0910007B09101072FBF409122
:103840009506509196066091970670919806209182
:103850009906222341F020919106821B80939A06BB
:103860001092990683C084179507A607B70738F406
:10387000481B423008F47AC00E94FA1577C0909233
:1038800099068093910690939206A0939306B09325
:10389000940620919006820F911DA11DB11D809369
:1038A000950690939606A0939706B09398068091FC
:1038B0008C0690918D06019690938D0680938C06D0
:1038C00080918E0680938F060E94DD1580938E0670
:1038D0008091F9019091FA01DC01ED91FC91028057
:1038E000F381E02D09953C018091F9019091FA0155
:1038F000DC01ED91FC910480F581E02D09950E9499
:103900008C14B2E06B167104F9F08CF4611471043C
:1039100001F16A94672851F58AE296E00E94F6095F
:103920008AE296E09093FA018093F9011FC023E0A8
:1039300062167104B9F044E064167104B9F4D092CF
:10394000FA01C092F90112C01093FA010093F90133
:103950000DC08091F80180938406B092FA01A09284
:10396000F90104C0F092FA01E092F901209709F4FC
:103970005BCF0E94000058CF2115310581F0FA017C
:10398000E60FF71FE252FF4FE491F0E0082C02C06F
:10399000F595E7950A94E2F7DC90ED29EC934F5FFB
:1039A0005F4F11964835510509F0DDCECFCECF924D
:1039B000DF92EF92FF920F931F93CF93DF931F92AB
:1039C000CDB7DEB7182F062FE42E862F880F8E5F17
:1039D00099830E94FA0D83E00E94FA0DF12EC12E08
:1039E0009981D92E8C2D8F19801798F4F601E7FE56
:1039F00002C0849101C080810E94FA0D182F80E0DE
:103A00000E94FA0D8123FFEFCF1ADF0A8111EACF5E
:103A100001C081E00F90DF91CF911F910F91FF9036
:103A2000EF90DF90CF9008950F931F93CF93DF9384
:103A30008C0181E090E00E94431F80FF31C08AE04A
:103A400090E00E94431F9FEF980F9E3F48F522E3AE
:103A500030E0D80157963C932E93569728E330E0F8
:103A600059963C932E935897CBE0D0E0D801ED9136
:103A7000FC910190F081E02D682FC8010995CE01DD
:103A80000E94431F2196C131D10581F70E948C14F9
:103A900088EE93E0DF91CF911F910F910C94D81590
:103AA000DF91CF911F910F91089504970C94141DED
:103AB0001092AF061092AE0688EE93E0A0E0B0E060
:103AC0008093B0069093B106A093B206B093B3066C
:103AD0008DEB91E09093AD068093AC068FEF9FEF56
:103AE0009093B9068093B8061092880610928706C4
:103AF00010928E0610928F0620E1209390069093EC
:103B00008D0680938C061092950610929606109260
:103B10009706109298061092990687ED91E090937F
:103B200086068093850681EE91E090938A068093C5
:103B3000890610929C0610929B0610929E06109287
:103B40009D0681E080939F061092A0068093A106B7
:103B50001092A20685E492E19093FD068093FC0604
:103B600080E090E8909325068093240646983E9A3C
:103B700047983F9A81EF91E0909383068093820665
:103B80008DEC91E090932B0680932A0680E280933F
:103B90002C0688E080932D06EEE2F6E01192119259
:103BA00086E0EE36F807D1F7EEE6F6E011921192D4
:103BB00086E0EE37F807D1F787EE91E0909327067D
:103BC00080932606089597FB072E16F4009407D0DD
:103BD00077FD09D00E94FD1D07FC05D03EF49095AD
:103BE00081959F4F0895709561957F4F0895EE0FD1
:103BF000FF1F0590F491E02D0994AA1BBB1B51E116
:103C000007C0AA1FBB1FA617B70710F0A61BB70B4C
:103C1000881F991F5A95A9F780959095BC01CD01F1
:103C20000895CF93DF938230910510F482E090E005
:103C3000E0910907F0910A0720E030E0C0E0D0E011
:103C4000309711F14081518148175907C0F048174A
:103C5000590761F482819381209719F09B838A83AD
:103C60002BC090930A078093090726C021153105C0
:103C700019F04217530718F49A01BE01DF01EF0152
:103C80000280F381E02DDCCF2115310509F1281BDD
:103C9000390B2430310590F412968D919C91139735
:103CA0006115710521F0FB019383828304C0909319
:103CB0000A0780930907FD01329644C0FD01E20F17
:103CC000F31F81939193225031092D933C933AC075
:103CD0002091070730910807232B41F4209112010E
:103CE00030911301309308072093070720911001AA
:103CF000309111012115310541F42DB73EB74091A6
:103D0000140150911501241B350BE0910707F09128
:103D10000807E217F307A0F42E1B3F0B28173907FB
:103D200078F0AC014E5F5F4F2417350748F04E0F17
:103D30005F1F50930807409307078193919302C038
:103D4000E0E0F0E0CF01DF91CF9108950F931F9352
:103D5000CF93DF93009709F48CC0FC013297138254
:103D600012820091090710910A070115110581F4CB
:103D700020813181820F931F20910707309108071E
:103D80002817390779F5F0930807E093070771C002
:103D9000D80140E050E0AE17BF0750F412962D91C5
:103DA0003C911397AD012115310509F1D901F3CFEC
:103DB0009D01DA013383228360817181860F971F11
:103DC0008217930769F4EC0128813981260F371F88
:103DD0002E5F3F4F318320838A819B81938382832F
:103DE000452B29F4F0930A07E093090742C0139684
:103DF000FC93EE931297ED01499159919E01240F86
:103E0000351FE217F30771F480819181840F951FAC
:103E1000029611969C938E938281938113969C9324
:103E20008E931297E0E0F0E0D80112968D919C916C
:103E30001397009719F0F8018C01F6CF8D919C91A2
:103E400098012E5F3F4F820F931F209107073091FB
:103E500008072817390769F4309729F410920A07E0
:103E60001092090702C01382128210930807009370
:103E70000707DF91CF911F910F91089581E090E0A6
:103E8000F8940C94A91FF999FECF92BD81BDF89AC0
:103E9000992780B50895262FF999FECF1FBA92BDB4
:103EA00081BD20BD0FB6F894FA9AF99A0FBE01961B
:103EB0000895052E97FB1EF400940E94701F57FD75
:103EC00007D00E94781F07FC03D04EF40C94701F9B
:103ED00050954095309521953F4F4F4F5F4F089536
:103EE00090958095709561957F4F8F4F9F4F089566
:103EF000A1E21A2EAA1BBB1BFD010DC0AA1FBB1FEE
:103F0000EE1FFF1FA217B307E407F50720F0A21B5F
:103F1000B30BE40BF50B661F771F881F991F1A94CC
:103F200069F760957095809590959B01AC01BD01F6
:103F3000CF010895A29FB001B39FC001A39F700D50
:103F4000811D1124911DB29F700D811D1124911DA1
:063F50000895F894FFCF74
:103F56001E012801FFFFFFFF00E100000000000036
:103F660000000B0780000100000000000000A716FB
:103F76008017F716000000009E060108300D0000AD
:103F86000000CF164C18A8167007F306F206ED18B7
:103F9600C8189F06000000009D06F60C76067007FE
:103FA600F306F20658072B079F0600000000E916E5
:103FB6000617F106F006F306F206EF06EE069F0672
:103FC6000000000083160C18F106F0063B168B174E
:103FD60068164D169F0600000000D0166B18F106F5
:103FE600F006F306F206EF06EE069F060000000056
:103FF600DD160619F106F006F306F206EF06EE06E2
:104006009F0600C1808100000000000000BF0DB9BE
:1040160011E00D8E0EAC0ED50D00000000F6091154
:1040260008BF0700000000B1120B16141DFCFF00AC
:1040360000551D00000000A1168F168A180000000A
:08404600003616591729170076
:00000001FF
