:100000000C944A040C9472040C9472040C947204C0
:100010000C9472040C9472040C9472040C94720488
:100020000C9472040C9472040C946D0D0C94DF0DFE
:100030000C9472040C9472040C9472040C94720468
:100040000C9472040C9472040C9472040C94720458
:100050000C9472040C9472040C9472040C94F013BB
:100060000C9472040C9472040C9472040C94720438
:100070000C9472040C9472040C9472040C94720428
:100080000C9443120C9472040C9472040C94720439
:100090000C9472040C9472040C9472040C94720408
:1000A0000C9472040C9472040C947204000000000E
:1000B000000000000000000000000000000202023A
:1000C000020003000000000000000000000000002B
:1000D0000000000000000000000000000000000020
:1000E0000000000000000000000000000000000010
:1000F00000000400000000000000000000000000FC
:1001000000000000000000000000000400000000EB
:1001100004040000040000040400000401000000C6
:1001200000000000000000000000040400000000C7
:1001300000000000000000000000000000000000BF
:1001400000000000000000000000000000000000AF
:10015000000000000000000000000000000000009F
:10016000000001000000000000000000000000008E
:10017000000000000000000000000000000000007F
:10018000000000000000000000000000000000006F
:10019000000000000000000000000000000000005F
:1001A000000000000000000000000000000000004F
:1001B000000000000000000000000000000000003F
:1001C000000000000000000000000000000000002F
:1001D000000000000000000000000000000000001F
:1001E000000000000000000000000000000000000F
:1001F00000000000000000000000000000000000FF
:1002000000000000000000000000000000000000EE
:1002100000000000000000000000000000000000DE
:1002200000000000000000000000000047414D45B4
:1002300000470062792040696E615F616E6900501D
:100240004F4954544F00F0F89C8E8783878E9CF85A
:10025000F00000FEFF0303030303070EFCF8000099
:10026000FEFF0303030303070EFCF80000FFFF007B
:10027000000000000000FFFF0000FEFF8383838377
:1002800083C7EE7C380000F8FC0E07030303070E5B
:10029000FCF800003F7FE0C08080C0E07F3FFFFFB0
:1002A00001010101010101FFFF0000FFFF0C0C0C27
:1002B0000C1C3E77E3C100007FFFC0C0C0C0C0E09F
:1002C000703F1F00001F3F70E0C0C0C0E0703F1FC4
:1002D00000007FFFC1C1C1C1C1E3773E1C00001F08
:1002E0003F70E0C0C0C0E0703F1F00000000000190
:1002F000FFFF01000000D5F08D14A1C881CFD9F116
:10030000AF2000080B0002020201000904000001F6
:10031000020200000524001001052401010104244B
:1003200002060524060001070581031000400904A8
:100330000100020A00000007050202400000070554
:1003400083024000000403090441726475696E6F02
:10035000204C4C430041726475696E6F204C656F90
:100360006E6172646F0012010002000000404123C0
:10037000368000010102030112010002EF02014078
:100380004123368000010102030100000000003E0D
:100390005B4F5B3E3E6B4F6B3E1C3E7C3E1C183CF5
:1003A0007E3C181C577D571C1C5E7F5E1C00183C51
:1003B0001800FFE7C3E7FF0018241800FFE7DBE79A
:1003C000FF30483A060E2629792926407F05050781
:1003D000407F05253F5A3CE73C5A7F3E1C1C0808DD
:1003E0001C1C3E7F14227F22145F5F005F5F0609A2
:1003F0007F017F006689956A606060606094A2FFFB
:10040000A29408047E040810207E201008082A1CEC
:1004100008081C2A08081E101010100C1E0C1E0CB8
:1004200030383E3830060E3E0E0600000000000058
:10043000005F00000007000700147F147F14242AC7
:100440007F2A122313086462364956205000080799
:100450000300001C2241000041221C002A1C7F1CBA
:100460002A08083E080800807030000808080808BC
:10047000000060600020100804023E5149453E0023
:10048000427F400072494949462141494D33181481
:10049000127F1027454545393C4A494931412111D0
:1004A00009073649494936464949291E00001400C2
:1004B00000004034000000081422411414141414E5
:1004C000004122140802015909063E415D594E7C43
:1004D0001211127C7F494949363E414141227F41F8
:1004E00041413E7F494949417F090909013E414156
:1004F00051737F0808087F00417F41002040413F41
:10050000017F081422417F404040407F021C027F4F
:100510007F0408107F3E4141413E7F090909063EA4
:100520004151215E7F091929462649494932030173
:100530007F01033F4040403F1F2040201F3F403885
:10054000403F631408146303047804036159494D60
:1005500043007F4141410204081020004141417F96
:10056000040201020440404040400003070800200C
:10057000545478407F28444438384444442838440C
:1005800044287F385454541800087E090218A4A443
:100590009C787F0804047800447D40002040403D62
:1005A000007F1028440000417F40007C04780478DC
:1005B0007C080404783844444438FC18242418186F
:1005C000242418FC7C0804040848545454240404CB
:1005D0003F44243C4040207C1C2040201C3C4030B8
:1005E000403C44281028444C9090907C4464544CE7
:1005F0004400083641000000770000004136080042
:1006000002010204023C2623263C1EA1A161123AEB
:100610004040207A38545455592155557941215438
:10062000547841215554784020545579400C1E523D
:1006300072123955555559395454545939555454E1
:10064000580000457C410002457D420001457C4048
:10065000F0292429F0F0282528F07C545545002065
:1006600054547C547C0A097F493249494932324802
:10067000484832324A4848303A4141217A3A424069
:100680002078009DA0A07D39444444393D4040403D
:100690003D3C24FF2424487E4943662B2FFC2F2B0E
:1006A000FF0929F620C0887E0903205454794100AF
:1006B00000447D413048484A32384040227A007A2E
:1006C0000A0A727D0D19317D2629292F282629290C
:1006D000292630484D40203808080808080808082E
:1006E000382F10C8ACBA2F102834FA00007B000055
:1006F00008142A142222142A14089500220095AA0C
:10070000005500AAAA55AA55AA000000FF00101023
:1007100010FF00141414FF001010FF00FF1010F061
:1007200010F0141414FC001414F700FF0000FF0074
:10073000FF1414F404FC141417101F10101F101FC2
:100740001414141F00101010F0000000001F1010EF
:1007500010101F10101010F010000000FF101010EB
:10076000101010101010FF10000000FF140000FF08
:1007700000FF00001F10170000FC04F414141710F1
:10078000171414F404F40000FF00F71414141414E4
:100790001414F700F7141414171410101F101F145A
:1007A0001414F4141010F010F000001F101F0000BB
:1007B000001F14000000FC140000F010F01010FFE7
:1007C00010FF141414FF141010101F00000000F08C
:1007D00010FFFFFFFFFFF0F0F0F0F0FFFFFF000061
:1007E000000000FFFF0F0F0F0F0F38444438447C08
:1007F0002A2A3E147E02020606027E027E0263550B
:100800004941633844443C04407E201E2006027E59
:10081000020299A5E7A5991C2A492A1C4C7201726B
:100820004C304A4D4D303048784830BC625A463DD5
:100830003E494949007E0101017E2A2A2A2A2A448A
:10084000445F444440514A444040444A51400000BF
:10085000FF0103E080FF000008086B6B08361236CA
:100860002436060F090F06000018180000001010AB
:10087000003040FF0101001F01011E00191D171269
:10088000003C3C3C3C000000000001020408102039
:100890004080641711241FBECFEFDAE0DEBFCDBF6A
:1008A00026E0A0ECB1E001C01D92AD3DB207E1F73A
:1008B00011E0A0E0B1E0E6E5F3E302C005900D929F
:1008C000A03CB107D9F714E0CAE4D4E004C02197F2
:1008D000FE010E940B18C934D107C9F70E943A14CF
:1008E0000C94A9190C940000CF92DF92EF92FF9222
:1008F0000F931F93CF93DF936C017A018B01C0E0BC
:10090000D0E0CE15DF0589F0D8016D918D01D601BB
:10091000ED91FC910190F081E02DC6010995892BA4
:1009200011F47E0102C02196ECCFC701DF91CF9177
:100930001F910F91FF90EF90DF90CF900895089551
:100940000895FC01138212821582148288E090E0DF
:1009500097838683918780870895FC011382128292
:100960001582148288E090E0978386839187808740
:100970000895FC01EE5BFF4F80E021913191232B24
:1009800021F08F5F8031C9F78FEF0895FC01329617
:1009900090E021913191232B29F09F5F9032C9F78C
:1009A0008FEF0895892F0895AF92BF92CF92DF9273
:1009B000EF92FF921F93CF93DF937B016A01EC01CB
:1009C0005C0180E4A80EB11C10E08A819B81009735
:1009D000D1F0E816F906B9F0DC01ED91FC91008840
:1009E000F189E02DB7010995882369F0C114D1047C
:1009F00049F08A819B81F601E10FF11DE10FF11DA4
:100A0000918380831F5F2296CA15DB05F1F6812F43
:100A1000DF91CF911F91FF90EF90DF90CF90BF902B
:100A2000AF9008950895EF92FF920F931F93CF9385
:100A3000DF93DB0112960D911C911397EC01EA8173
:100A4000FB8114960D90BC91A02DEB012885398572
:100A5000EC014C815D81E884F9848E819F81EB01FA
:100A60006E817F81600F711F8E0F9F1F681779073E
:100A70000CF4CB01BF01E017F1070CF4B801861BA1
:100A8000970B18161906B4F4BA016E0D7F1DCD012F
:100A9000820F931F681779070CF4CB019A014A174C
:100AA0005B070CF49D01FC01E21BF30B81E01E16B9
:100AB0001F060CF080E0DF91CF911F910F91FF9006
:100AC000EF9008950895089508950895089508955C
:100AD000FC01138212821582148288E090E09783D1
:100AE000868391878087089508950F931F93CF93EE
:100AF000DF93EC018B01E881F9810088F189E02D19
:100B000009958823C1F0F80182858823A1F02F85FB
:100B10003889F80184819581121613062CF42885F2
:100B20003985821B930B05C0F80120853185820F22
:100B3000931F9D838C83DF91CF911F910F91089517
:100B40000F931F93CF93DF93EC018B010E947505E8
:100B5000F8018285882341F08F8598891816190637
:100B60000CF41D8A188A1F86F8018485813041F4AF
:100B7000EF89F88DEC59FF4F83E090E091838083FB
:100B8000DF91CF911F910F9108950C9475050F93EC
:100B90001F93CF93DF93EC018B010E947505F80141
:100BA0008285882349F08F8598891816190614F4D0
:100BB00081E08B87188A1F86DF91CF911F910F915B
:100BC00008950F931F93CF93DF93EC018B01E8817E
:100BD000F9810088F189E02D09958823C1F0F80199
:100BE00082858823A1F02D853E85F801828193813D
:100BF000121613062CF42E813F81821B930B05C025
:100C0000F80126813781820F931F9B838A83DF91AE
:100C1000CF911F910F9108950F931F93CF93DF935F
:100C2000EC018B010E94E105F8018485813041F4DB
:100C3000EF89F88DEC59FF4F83E090E0918380833A
:100C4000DF91CF911F910F9108950F931F93CF9331
:100C5000DF93EC018B010E94E105F8018285882376
:100C600039F08D859E859195819591099E878D8717
:100C7000DF91CF911F910F910895CF93DF93EC01F6
:100C80000E94E1051E861D86DF91CF910895FC012B
:100C90008785908923893489280F391FB90137FF47
:100CA00004C066277727621B730B613471051CF43F
:100CB000308B27870AC0C90126E0880F991F2A9523
:100CC000E1F70E94E317708B678724813581878560
:100CD0009089820F931F958384830895FC018585F5
:100CE000968521893289280F391FB90137FF04C041
:100CF00066277727621B730B693071051CF43687F2
:100D000025870AC0C90123E0880F991F2A95E1F7BA
:100D10000E94E317768765872281338185859685D2
:100D2000820F931F93838283089508950E943E1932
:100D3000DC0114962D913C91159784E0359527950B
:100D40008A95E1F72F5F3F4FE4E4F6E012968D912C
:100D50009C91139744E0959587954A95E1F7019604
:100D6000978B868B318F208F81E0828F138E81E36A
:100D700092E00C94CC11CF93DF930E94ED11C4E468
:100D8000D6E0198E188E1F8A1E8A8FE392E00E9489
:100D9000CC1180E390E09F8B8E8B86E390E0998F5F
:100DA000888F83E392E0DF91CF910C94CC11EF9286
:100DB000FF920F931F93CF93DF93EC010E94ED11ED
:100DC00010925D0610925C0610925B0610925A0615
:100DD00081E080935E0610925F068CE292E00E94B2
:100DE000CC117E0182E0E80EF11C8E010E5B1F4FDC
:100DF000D7018D919D917D01009739F0DC01ED9136
:100E0000FC910280F381E02D0995E016F10681F74F
:100E1000CE59DF4FF801819191918F01009739F000
:100E2000DC01ED91FC910280F381E02D09950C1716
:100E30001D0781F7DF91CF911F910F91FF90EF90E8
:100E40000895CF93DF93EC0188E00E94FC1181119B
:100E50000DC080E80E94FC11882329F09A81992313
:100E600011F091509A8385E090E002C081E090E01B
:100E7000DF91CF910895FC012085318584E035957F
:100E800027958A95E1F74681578194E055954795D6
:100E90009A95E1F76481758134E0759567953A9587
:100EA000E1F78281938154E0959587955A95E1F712
:100EB0000C949E11FC012085318584E035952795A1
:100EC0008A95E1F74681578194E0559547959A9523
:100ED000E1F76481758134E0759567953A95E1F79E
:100EE0008281938154E0959587955A95E1F70C940A
:100EF0009E11FC012085318584E0359527958A95E2
:100F0000E1F74681578194E0559547959A95E1F729
:100F10006481758134E0759567953A95E1F7828132
:100F2000938154E0959587955A95E1F70C949E111D
:100F3000FC012085318584E0359527958A95E1F778
:100F40004681578194E0559547959A95E1F76481DC
:100F5000758134E0759567953A95E1F782819381C3
:100F600054E0959587955A95E1F70C949E11FC01F4
:100F70002085318584E0359527958A95E1F746816E
:100F8000578194E0559547959A95E1F7648175816D
:100F900034E0759567953A95E1F78281938154E045
:100FA000959587955A95E1F70C949E112F923F9253
:100FB0004F925F926F927F928F929F92AF92BF9269
:100FC000CF92DF92EF92FF920F931F93CF93DF9315
:100FD000CDB7DEB7A0970FB6F894DEBF0FBECDBF7A
:100FE0007C012C0184E6480E511C85E090E0D20182
:100FF0008D939C9388E00E94FC11882379F0F7017F
:10100000EE59FF4F0190F081E02D8589811106C0D6
:101010008CED9FEF908B878781E0858B84E00E9429
:10102000FC11882309F461C0C7010E94B904182F7C
:1010300085E190E00E941118FC01D701AE59BF4F25
:101040008D919C91DC0114962D913C9115971296EF
:101050004D915C91139761E06287407F5F7053838D
:101060004283207F3F703583248320E430E0378340
:101070002683318720871386148616861586108A64
:101080001786128A118A22E731E03183208322E019
:1010900030E0348B238BA12FB0E09196AA0FBB1FB9
:1010A000AE0DBF1DED93FC93DC0156964C91569707
:1010B00012962D913C911397442359F016968D91D9
:1010C0009C911797280F391F3383228380E190E08A
:1010D00006C0205431093383228380EF9FEF968727
:1010E00085878CED9FEF908B87870E94561386FF34
:1010F0000FC0F701EE59FF4F0190F081E02D85857B
:10110000968501969687858781E0868B11E001C0E0
:1011100010E00E94561385FF0DC0F701EE59FF4FF6
:101120000190F081E02D85859685019796878587CA
:10113000168A0AC0111108C0F701EE59FF4F01903D
:10114000F081E02D168615865701B2E0AB0EB11C7A
:101150006701E2E4CE0ED11C8501D8018D919D91ED
:101160008D01009739F0DC01ED91FC910084F1854F
:10117000E02D09950C151D0581F74701B2E68B0E90
:10118000911C8601F801819191918F01009739F0AE
:10119000DC01ED91FC910084F185E02D09950815A5
:1011A000190581F78601F80180819181009709F482
:1011B0007CC0DC01ED91FC910480F581E02D099566
:1011C000F80160817181AE014F5F5F4FC7010E94DE
:1011D000D404282E811117C0D8018D919C91DC0177
:1011E000ED91FC910680F781E02D0995F801608171
:1011F0007181AE014F5F5F4FC7010E94D404282E5A
:10120000811124C045C0CE0101963C01312CD8018A
:101210008D919C91DC01ED91FC91D3016D917C91BC
:101220000484F585E02D0995F301819191913F01A9
:10123000DC01ED91FC91D8016D917C910484F585E0
:10124000E02D099533943210E2CFC6CFFE013196DE
:101250003F01312CD8018D919C91DC01ED91FC91E5
:10126000D3016D917C910684F785E02D0995F301FA
:10127000819191913F01DC01ED91FC91D8016D913B
:101280007C910684F785E02D099533943210E2CFE6
:10129000F80180819181DC011B962C91222329F099
:1012A0000E94A618F801118210820E5F1F4F0815C8
:1012B000190509F078CFD5018D919D915D010097B9
:1012C00039F0DC01ED91FC910284F385E02D099564
:1012D000AC14BD0481F7F601819191916F010097E3
:1012E00039F0DC01ED91FC910284F385E02D099544
:1012F000C814D90481F7F20180819181A0960FB6BC
:10130000F894DEBF0FBECDBFDF91CF911F910F913B
:10131000FF90EF90DF90CF90BF90AF909F908F9015
:101320007F906F905F904F903F902F9008952F92F5
:101330003F924F925F926F927F928F929F92AF9265
:10134000BF92CF92DF92EF92FF920F931F93CF93B2
:10135000DF9300D000D000D0CDB7DEB79E838D8361
:101360008C017C0180E4E80EF11CF80182819381FC
:10137000009729F00E94A618F801138212820E5FCE
:101380001F4F0E151F0589F70D811E810E5B1F4F24
:101390002D803E80F2E62F0E311CF8018081918174
:1013A000009729F00E94A618F801118210820E5FA2
:1013B0001F4F0215130589F78EE090E00E94111867
:1013C0008C01BB24B394FC01B28613821282158275
:1013D0001482612C88E0782E7782668290E2C92E92
:1013E000D12CD186C086138614862AE1E22E21E014
:1013F000F22EF182E0828D819E810E94C604ED81F1
:10140000FE81E80FF11DE80FF11D138302838EE0CA
:1014100090E00E9411188C01FC01B28613821282A6
:10142000812C34E0932E958284827782668280E8D4
:1014300090E09187808713861486F182E0828D8107
:101440009E810E94C604ED81FE81E80FF11DE80F28
:10145000F11D138302838EE090E00E9411188C012D
:10146000FC01B2861382128215821482D782C68250
:101470009186808613861486F182E0828D819E811A
:101480000E94C604ED81FE81E80FF11DE80FF11DF9
:10149000138302838EE090E00E9411188C01FC01FE
:1014A000B28680EE97E093838283D582C482D7820E
:1014B000C68280EE93E09187808713861486F1823E
:1014C000E0828D819E810E94C604ED81FE81E80F3D
:1014D000F11DE80FF11D13830283E12CF12C40E490
:1014E000A42EB12C52E0452E512C60E8862E912C72
:1014F000670184E0CC0CDD1C8A95E1F7F701EE0F63
:10150000FF1FFA83E98300E010E0612C712CE98170
:10151000FA81E60DF71DE455FF4F4491423009F47E
:1015200068C008F043C0413009F0CDC08D819E8174
:101530004C830E94B904582F89E190E05B830E949C
:1015400011189C014C81FC014287C801A4E0880F5E
:10155000991FAA95E1F793838283D582C482B782CB
:10156000A682B186A0861386148616861586108AF2
:101570001786128A118A8CE591E091838083158AFF
:10158000468B8D819E81908F878BF10131832083E3
:101590005B81E52FF0E0B196EE0FFF1FE80FF91F1A
:1015A00031832083F901548A438A4EC0433009F4C1
:1015B0005DC0443009F087C08EE090E00E941118B1
:1015C0009C0181E0F9018287C80144E0880F991FDE
:1015D0004A95E1F793838283D582C482978286827B
:1015E00091868086138614868AE191E091838083B8
:1015F0005AC087E190E00E9411189C0181E0F90136
:101600008287C80174E0880F991F7A95E1F7938368
:101610008283D582C482B782A682B186A0861386D1
:101620001486108A1786128A118A86E491E09183C3
:101630008083158A91E0968B80E190E0968785877C
:10164000548A438A8D819E812B833C830E94B904F6
:10165000E82FF0E0B196EE0FFF1F8D819E81E80F1D
:10166000F91F2B813C81318320832DC08EE090E0D7
:101670000E9411189C0181E0F9018287C80154E0A1
:10168000880F991F5A95E1F793838283D582C4828C
:101690009782868291868086138680E391E091838B
:1016A000808391E094878D819E812B833C830E946F
:1016B000C604ED81FE81E80FF11DE80FF11D2B81BD
:1016C0003C81338322839FEF691A790A085F1F4F99
:1016D000E0E16E16710409F01ACFF8E0EF0EF11C8C
:1016E00080E4E816F10409F003CF26960FB6F894CB
:1016F000DEBF0FBECDBFDF91CF911F910F91FF9045
:10170000EF90DF90CF90BF90AF909F908F907F90A1
:101710006F905F904F903F902F900895CF92DF92FF
:10172000EF92FF921F93CF93DF93FC014085518589
:1017300084E0559547958A95E1F7142F8681978126
:1017400024E0959587952A95E1F7E480F58034E0CB
:10175000F594E7943A95E1F7C281D38144E0D595B9
:10176000C7954A95E1F76E01C80ED11CCC15DD0571
:101770003CF4412FB701CE010E9473112196F6CFA0
:10178000DF91CF911F91FF90EF90DF90CF90089560
:1017900008958091D00181110DC082E08093CC0129
:1017A00084E08093CD011092CF011092CE0181E0B0
:1017B0008093D0018CEC91E00895CF93DF931F923A
:1017C000CDB7DEB76983DC01ED91FC910280F38136
:1017D000E02D41E050E0BE016F5F7F4F09950F9013
:1017E000DF91CF91089583E08093E9008091F2002A
:1017F000882319F08AE38093E8000895FC0184852A
:10180000958597FD0BC09FB7F89482E08093E9001F
:101810008091F2009FBF90E0019608959FB7F894E1
:1018200082E08093E9008091F2009FBF90E00895EC
:101830004091C9015091CA012091C7013091C8015E
:1018400042175307B4F49091E8009570E1F390913A
:10185000E80092FD19C08093F1008091C901909138
:10186000CA0101968F739927892B19F48EEF809303
:10187000E8008091C9019091CA0101969093CA0134
:101880008093C90181E0089580E00895DF92EF928E
:10189000FF920F931F93CF93DF93D82E8A017B0182
:1018A000E40EF51EEB01CE15DF0571F0D7FE03C087
:1018B000FE01849101C088810E94180C219681113B
:1018C000F2CF8FEF9FEF01C0C801DF91CF911F9141
:1018D0000F91FF90EF90DF9008950F931F93CF9398
:1018E000DF931F92CDB7DEB782E0898342E450E0F8
:1018F00063E073E080E80E94460C0E94C90BDC01A3
:1019000012960D911C9113970115110569F0D801DC
:10191000ED91FC910280F381E02DBE016F5F7F4F5E
:10192000C801099597FF07C089810F90DF91CF917A
:101930001F910F910895F80100851185E5CF8F92D1
:101940009F92AF92BF92CF92DF92EF92FF920F934E
:101950001F93CF93DF935C016B018A0180910B0190
:10196000882309F45EC08091DA01882309F459C004
:101970008091C50180FF05C08091E0008260809366
:10198000E000E8018AEFF82E93E0E92E2FE3822EA3
:101990003AE3932E209709F43DC08FB7F894E09274
:1019A000E9009091E80095FF06C09091F200282D83
:1019B000291B922F01C090E08FBF91110AC0FA94A9
:1019C000FF2079F161E070E080E090E00E94B613C2
:1019D000E1CF292F30E0C217D3070CF49C2F8FB72B
:1019E000F894E092E9002091E80025FF11C0292F2A
:1019F00030E0C21BD30BF601915020F0419140938F
:101A0000F100FACFC20ED31E9091E80095FF13C0EB
:101A10008FBFC0CF5D9884E68093CB01101611066E
:101A200044F081E090E0F5019383828380E090E0D0
:101A300005C0C80103C09092E800EACFDF91CF91C2
:101A40001F910F91FF90EF90DF90CF90BF90AF90DC
:101A50009F908F900895CF93DF931F92CDB7DEB7FD
:101A6000FC018485958597FD05C02FEF3FEF3587F5
:101A700024870BC0CE0101960E941912019719F418
:101A8000898190E002C08FEF9FEF0F90DF91CF919F
:101A900008950F931F93CF93DF931F92CDB7DEB7B7
:101AA0008C01FC018485958597FF0EC0CE010196BF
:101AB0000E941912019719F4298130E002C02FEF1A
:101AC0003FEFF80135872487F801848595850F90CD
:101AD000DF91CF911F910F9108951F920F920FB632
:101AE0000F9211248F939F938091E1009091E100D8
:101AF000937F9093E10083FF0FC01092E90091E083
:101B00009093EB001092EC0092E39093ED00109212
:101B1000DA0198E09093F00082FF20C093E0909368
:101B2000E9009091F200992319F09AE39093E8006C
:101B30009091CB01992339F09091CB0191509093E2
:101B4000CB01992389F19091D901992339F0909192
:101B5000D90191509093D901992341F184FF10C08C
:101B60008091E2008E7E81608093E2008091E100AE
:101B70008F7E8093E1008091C5018E7E806111C0CF
:101B800080FF16C08091E2008E7E80618093E2002B
:101B90008091E1008E7E8093E1008091C5018E7E70
:101BA00081608093C50104C05D9ACDCF289AD6CFBD
:101BB0009F918F910F900FBE0F901F9018951F92BD
:101BC0000F920FB60F921124CF92DF92EF92FF92F5
:101BD0000F931F932F933F934F935F936F937F9335
:101BE0008F939F93AF93BF93EF93FF93CF93DF9325
:101BF000CDB7DEB76C97DEBFCDBF1092E900809104
:101C0000E80083FFFAC168E0CE0145960E94A9135F
:101C100082EF8093E8008D8987FF05C09091E800EE
:101C200090FFFCCF03C09EEF9093E800982F907632
:101C300009F0C6C09E892F89188D91110CC080387B
:101C400029F48091C4018093F10002C01092F10048
:101C50001092F10047C1422F50E0512B913051F4C6
:101C6000811140C14130510509F03CC18091C4014E
:101C70008D7F0BC0933061F4811134C14130510527
:101C800009F030C18091C40182608093C4012AC1EF
:101C9000953041F48091E80080FFFCCF20682093CC
:101CA000E30020C1963009F05FC0EB8CFC8C1092F1
:101CB000E9001092CA011092C901123091F51092F8
:101CC000C8011092C7010E946D0C99E0BE016F5FC0
:101CD0007F4FDB01E92F1D92EA95E9F799831A837B
:101CE00091E09E8390EA98879AEF99872091C901A5
:101CF0003091CA01275F3F4F3C832B838D83109225
:101D0000E9001092CA011092C901F092C801E09254
:101D1000C70149E050E080E00E94460C0E946D0C33
:101D2000E1C0F092C801E092C7010E94C90BDC013A
:101D30001296ED90FC901397E114F10409F4C0C0E1
:101D4000D701ED91FC910480F581E02DBE016B5E21
:101D50007F4FC7010995009719F00CF0C3C0C6C0AA
:101D6000F701E084F184E8CF973009F4BFC09830E0
:101D700021F481E08093F100B5C0993009F0B2C040
:101D8000837009F0B3C0E5E8F1E081E021E036E3DB
:101D90009081992361F08093E9002093EB00919169
:101DA0009093EC003093ED008F5F873089F78EE7DA
:101DB0008093EA001092EA008F898093DA0192C042
:101DC0008B8D9C8D1092E9001092CA011092C9016E
:101DD0009093C8018093C701898D811156C08E8967
:101DE0009D89913A59F4813209F080C047E050E072
:101DF00064E071E080E00E94460C74C0913209F00A
:101E000075C0833289F4888D90E0982F88272F89B8
:101E1000822BA0E0B0E08093000190930101A09399
:101E20000201B09303015EC0803269F48091E80042
:101E300082FFFCCF67E084E091E00E94A9138BEF62
:101E40008093E80006C0823209F04CC08F898093ED
:101E50000B018091C301882319F0EEEFFAE002C074
:101E6000E0E0F8E08091040190910501A091060165
:101E7000B0910701803B9440A105B10509F088C0ED
:101E800080910B0180FFA0C083C00E94C90BDC01C0
:101E900012960D911C9113970115110539F1D80176
:101EA000ED91FC910190F081E02DBE016B5E7F4FC2
:101EB000C8010995811116C0F80100851185ECCF84
:101EC0001130C1F0133091F48F89882309F455C083
:101ED0008230E9F440E860E185E593E00E94E31692
:101EE000882321F08EEF8093E80087C081E2809301
:101EF000EB0083C08B8D9C8D089711F41093C60165
:101F00008091C601811136C066E673E038C0813029
:101F100029F440E86BE089E493E0E0CF833031F7C7
:101F20000E94C90BDC011296ED90FC9013978E0174
:101F30000F5F1F4F6801E114F10479F0D701ED91B3
:101F4000FC910680F781E02DB801C7010995080FC3
:101F5000111DF701E084F184EECFD8011C92F60147
:101F600001900020E9F73197BF016C197D0940E02D
:101F7000C601B4CF68E773E002C065E473E06115A1
:101F8000710509F4B3CFFB01449150E080E833CFF1
:101F90000FB6F894A89580916000886180936000E6
:101FA000109260000FBEA895EE3F2AE0F20739F0CC
:101FB0008091FE0A9091FF0A9183808393CF1092C3
:101FC000FF0A1092FE0A8ECFEE3F8AE0F80731F04A
:101FD000808191819093FF0A8093FE0A87E797E7BB
:101FE000918380839BE088E10FB6F894A895809355
:101FF00060000FBE9093600075CF6C960FB6F8949A
:10200000DEBF0FBECDBFDF91CF91FF91EF91BF91AA
:10201000AF919F918F917F916F915F914F913F9180
:102020002F911F910F91FF90EF90DF90CF900F9025
:102030000FBE0F901F9018958091D80108959C01B4
:10204000240F311D1216130674F5803891055CF5C6
:10205000FC0197FF02C0E0E0F0E02138310514F008
:1020600020E830E02E1BAB014770552781E001C00E
:10207000880F4A95EAF777FF02C0695F7F4F93E0C8
:10208000759567959A95E1F77695762F66277795FA
:102090006795E60FF71FE552FE4F215020F0908123
:1020A000982B9193FACF089580916206E09165068E
:1020B000F0916606882349F0CF0102969093660658
:1020C00080936506859194910895CF01029690932F
:1020D000660680936506808191810895EAE8F8E0BC
:1020E00090E1969FD001A0781124A80F6770E60FA9
:1020F000F11D8491A552BE4F442321F0EC91E82BB1
:10210000EC930895E82FE0958C918E238C9308959D
:102110002F923F924F925F926F927F928F929F92F7
:10212000AF92BF92CF92DF92EF92FF920F931F93E5
:10213000CF93DF93CDB7DEB727970FB6F894DEBF06
:102140000FBECDBFFC016A3069F4248D808D918D66
:1021500038E0239F800D911D1124918F808F178A65
:10216000168AA6C06D3009F4A3C09F838E83348C79
:10217000238D2983328D3A83608C718CE688F788B1
:1021800080E8E816F104C4F0AE81BF815C962C9122
:102190005C97422F50E056968D919C915797B6E0F0
:1021A0002B9F800D911D1124EE81FF81978B868BD3
:1021B000258D211167C07CC0F0E46F16710424F7EF
:1021C000C70125E0329E800D911D112418161906B5
:1021D000DCF6432C512CC30138E0339E800D911D59
:1021E00011241816190684F685E0689F80011124D1
:1021F00006571C4F20E0F8012490253009F4212CCB
:10220000430158E020FC02C0398101C03A813111FC
:102210000BC0F9818A81F81307C026945150840CB1
:10222000951C5111EFCF25C067018C2D8E19831598
:10223000A0F754018A2D88198315B8F490E8C916BF
:10224000D10478F4A0E4AA16B10458F4432FB501E0
:10225000C6012C833B835D830E946E105D813B81B0
:102260002C81BFEFAB1ABB0AE5CFEFEFCE1ADE0A27
:10227000DCCF2F5FE40CF51C0F5F1F4F263009F0F9
:10228000BACF82CF6AEF64039001659F300D1124AD
:1022900020583F4F281739075CF4AE81BF81ED917C
:1022A000FC9111970190F081E02D6AE0CD01099534
:1022B00081E090E027960FB6F894DEBF0FBECDBF49
:1022C000DF91CF911F910F91FF90EF90DF90CF9012
:1022D000BF90AF909F908F907F906F905F904F9046
:1022E0003F902F900895EF92FF920F931F93CF93FB
:1022F000DF937C018B01040F111DEB0177FF10C0F0
:10230000C0E0D0E00DC0C217D3078CF480E8E81617
:10231000F10428F441E0BE01C7010E946E1021962D
:102320009801013411057CF320E430E0ECCFDF911B
:10233000CF911F910F91FF90EF900895EF92FF9230
:102340000F931F93CF93DF93EC018B01E42EF22EBA
:102350006034710510F40E941F10B8016F0D711DDB
:10236000615071096034710520F44E2DCE010E9438
:102370001F104F2DB801CE010E947311CE018E0D9A
:10238000911D4F2DB8010197DF91CF911F910F91B2
:10239000FF90EF900C9473110F931F93CF93DF93E3
:1023A0008C01C0E0D0E0F801EC0FFD1F64916623C2
:1023B00071F0E0914406F09145060190F081E02D26
:1023C00084E496E00995892B11F02196ECCFCE019B
:1023D000DF91CF911F910F91089520E08BED91E057
:1023E000B22FB111BFEFFC010024B193B193B193AF
:1023F000B1930394D1F7089520914E06282329F430
:1024000090914D06982381E009F480E00895809131
:10241000DB018EBDECEDF1E081910DB407FEFDCF47
:102420008EBD85E0EB3DF807B9F70DB407FEFDCF93
:102430000895FC018091DA01811103C08FEF9FEFB5
:1024400008959FB7F89482E08093E9002091F2000C
:1024500030E01216130614F421E030E021153105A6
:1024600059F0289884E68093D9018091F100808307
:102470008091F200882319F09FBFC90108958BE66F
:102480008093E800F9CF1F920F920FB60F9211249C
:10249000CF92DF92EF92FF920F931F932F933F9370
:1024A0004F935F936F937F938F939F93AF93BF935C
:1024B000CF93DF93EF93FF9380916C0690916D061D
:1024C000A0916E06B0916F06892B8A2B8B2B89F118
:1024D00080916B0681110BC098B180E4892788B97F
:1024E00080916A06882319F088B1805888B9809154
:1024F0006C0690916D06A0916E06B0916F0618164D
:1025000019061A061B060CF0B1C080916C0690915A
:102510006D06A0916E06B0916F060197A109B109F1
:1025200080936C0690936D06A0936E06B0936F0631
:102530009DC00E945410811520E8920761F480919B
:1025400071008D7F8093710010929100469847989A
:10255000109269068BC021E020936906813020E843
:10256000920751F4809167069091680690936606F1
:10257000809365060E94541097FD05C02091640663
:10258000222309F43FC02091630621113BC021E0C2
:1025900020936A06EC01DF77209769F481E080934D
:1025A0006B0646983FE9C32E3FE0D32EE12CF12C79
:1025B000CAEFD0E014C08E0120E030E060E472E4A5
:1025C0008FE090E0A90198010E94591969017A01F0
:1025D00081E0C81AD108E108F10810926B06E09179
:1025E000CE06F091CF060995811103C081E080935A
:1025F0006B0680916A068823B9F180916B06811180
:1026000033C003C010926A06C5CF46992DC0479AC1
:102610000E945410009771F09C01DE010E949A19EB
:10262000DC01CB0129E0B595A795979587952A956B
:10263000D1F703C08FEF9FEFDC01109290002AE0EA
:1026400020939100D0929900C092980080936C06DC
:1026500090936D06A0936E06B0936F068091710003
:1026600082608093710002C04798D2CFFF91EF91B2
:10267000DF91CF91BF91AF919F918F917F916F919A
:102680005F914F913F912F911F910F91FF90EF908C
:10269000DF90CF900F900FBE0F901F9018952D9A3E
:1026A0000895BC0180E090E00C94B6138FB12CB17A
:1026B00093B130E02095309520743327A90123E0B1
:1026C000559547952A95E1F7292F30E020953095CB
:1026D000207133273595279535952795242B80959F
:1026E000807F822B089583B7817F83BF83B781600A
:1026F00083BF889583B78E7F83BF08958EBD00000A
:102700000DB407FEFDCF08953FB7F8948091D5062C
:102710009091D606A091D706B091D80626B5A89B71
:1027200005C02F3F19F00196A11DB11D3FBFBA2F63
:10273000A92F982F8827820F911DA11DB11DBC01C3
:10274000CD0142E0660F771F881F991F4A95D1F788
:102750000895615030F02091F100FC012083019632
:10276000F8CF289884E68093D90108958F929F929C
:10277000AF92BF92CF92DF92EF92FF926B017C01FA
:102780000E9484134B015C01C114D104E104F104E3
:10279000F1F00E948413DC01CB0188199909AA0980
:1027A000BB09883E9340A105B10570F321E0C21A30
:1027B000D108E108F10888EE880E83E0981EA11C7C
:1027C000B11CC114D104E104F10419F7DDCFFF906D
:1027D000EF90DF90CF90BF90AF909F908F90089533
:1027E0001F920F920FB60F9211242F933F938F9346
:1027F0009F93AF93BF938091D0069091D106A09103
:10280000D206B091D3063091D40623E0230F2D37A2
:1028100020F40196A11DB11D05C026E8230F0296E4
:10282000A11DB11D2093D4068093D0069093D106AC
:10283000A093D206B093D3068091D5069091D60688
:10284000A091D706B091D8060196A11DB11D809325
:10285000D5069093D606A093D706B093D806BF911D
:10286000AF919F918F913F912F910F900FBE0F903D
:102870001F901895789484B5826084BD84B581607A
:1028800084BD85B5826085BD85B5816085BD80913B
:102890006E00816080936E001092810080918100B3
:1028A00082608093810080918100816080938100AB
:1028B000809180008160809380008091910082608F
:1028C000809391008091910081608093910080912C
:1028D00090008160809390008091C100846080931B
:1028E000C1008091C10082608093C1008091C100CD
:1028F00081608093C1008091C30081608093C30098
:102900008091C00082608093C0008091C20081608D
:102910008093C20080917A00846080937A008091D5
:102920007A00826080937A0080917A00816080933F
:102930007A0080917A00806880937A001092DA01A0
:102940001092C4011092C5018091D70081608093DC
:10295000D70080EA8093D80089B5806189BD89B5A8
:10296000826089BD09B400FEFDCF61E070E080E0C7
:1029700090E00E94B6138091D8008F7C8061809394
:10298000D8008091E000807F8093E0008091E1009A
:102990008E7E8093E1008DE08093E200559A209A2C
:1029A000EEEFFFE7859194918B3F9C4D19F481E008
:1029B0008093C30181EC80937C0085B1806F85B9E1
:1029C000249884B1866E84B95E9A5F988AB1806DCE
:1029D0008AB9769A6E9881B3806F81BB899880B3EB
:1029E0008D7080BB80E58CBD81E08DBD85E090E081
:1029F0000E9451135F9A85E090E00E9451135E9807
:102A00005C98C6EFD2E01C2F135FFE0184910E94F8
:102A10007E1321961C13F9CF5C9A81E880936400A1
:102A200081E080936500C0E0D4E080E00E947E13E6
:102A30002197D9F70E94561387FF1FC05C9885EA3B
:102A40000E947E135C9A2E982F982D988091640096
:102A50008062809364000E947313FDCF2D980E94C2
:102A600056138478843871F00E945613847184312F
:102A700031F188EC90E00E9451130E94561382FDC0
:102A8000EDCF3AC00E944F1388EC90E00E945113A2
:102A90002F9882E090E00E9443198F3F29F06FEF5A
:102AA00082E090E00E944B1984EF91E00E94511364
:102AB0002F9A0E94561384788438D9F3D5CF0E9478
:102AC0004F1388EC90E00E9451132E9882E090E022
:102AD0000E944319882329F060E082E090E00E9480
:102AE0004B1984EF91E00E9451132E9A0E945613C5
:102AF00084718431D9F3BDCF0E944F1382E090E0FE
:102B00000E944319882331F03E9A3F9A81E08093D6
:102B1000D80104C01092D8013E983F982E98CEEE6E
:102B2000DFEF08E010E00E94561386FF04C02E9AE3
:102B30002F9A2D9A8BC0CC3F2FEFD20719F42E9AE3
:102B40002F9805C0C831D10511F42F9A2D980E94F5
:102B5000ED11C03F4FEFD40784F40E9407128BE1C0
:102B600090E00E945113C03F5FEFD50709F059C0B4
:102B70008AEF90E00E94511354C09E01D7FF04C019
:102B8000222733272C1B3D0B27703327CE01D7FD7F
:102B9000079653E0959587955A95E1F7D7FF05C0BD
:102BA0000197D801A21BB30B9D017C01F694FE2C6A
:102BB000EE24F794E79460E070E04801821A930AEB
:102BC000F701E058FF4F5F018F3FFFEF9F0744F48D
:102BD0000196685A7F4F7501603B710589F7BDCF3B
:102BE000D701A159BD4F40E050E08F3FEFEF9E0766
:102BF00009F4CEC0FA01E60FF71FEA5BFD4FE4913E
:102C00006D01CA18DB08CE0CDF1CF0E02F01022E8C
:102C100001C0440C0A94EAF7F6017080472840820C
:102C2000B7C02196C931D10509F07DCF8CEB92E078
:102C30000E9451130E944F13E0914806F0914906FB
:102C40000190F081E02D88E496E0099582E390E020
:102C50000E9451130E9456138111F8CF80E1809396
:102C60004F068BED95E00E9497091092C00181E418
:102C700096E09093C2018093C101C0E0D0E0DD24D2
:102C8000D3948C018BEDE82E85E0F82E2FB7F894C5
:102C90008091D0069091D106A091D206B091D30632
:102CA0002FBF409154065091550660915606709181
:102CB000570620915806222341F020915006821B8E
:102CC00080935906109258065DC084179507A60791
:102CD000B70738F4481B423008F454C00E947313FD
:102CE00051C0D09258068093500690935106A093FD
:102CF0005206B093530620914F06820F911DA11DDD
:102D0000B11D8093540690935506A0935606B09338
:102D1000570680914B0690914C06019690934C0675
:102D200080934B0680914D0680934E060E94561369
:102D300080934D068091C1019091C201DC01ED911B
:102D4000FC910280F381E02D09955C018091C10125
:102D50009091C201DC01ED91FC910480F581E02DA0
:102D600009950E940712A114B10441F0AA94AB285E
:102D700049F4F092C201E092C10104C01093C20173
:102D80000093C101209709F481CF0E9400007ECFFB
:102D90002115310581F0FA01E60FF71FEA5BFD4FBF
:102DA000E491F0E0082C02C0F595E7950A94E2F76B
:102DB000DC90ED29EC934F5F5F4F1196483551053C
:102DC00009F013CF05CFCF92DF92EF92FF920F93CE
:102DD0001F93CF93DF931F92CDB7DEB7182F062F27
:102DE000E42E862F880F8E5F99830E94180C83E053
:102DF0000E94180CF12EC12E9981D92E8C2D8F197D
:102E0000801798F4F601E7FE02C0849101C080812A
:102E10000E94180C182F80E00E94180C8123FFEFED
:102E2000CF1ADF0A8111EACF01C081E00F90DF9154
:102E3000CF911F910F91FF90EF90DF90CF90089569
:102E40000F931F93CF93DF938C0181E090E00E945A
:102E5000431980FF31C08AE090E00E9443199FEF40
:102E6000980F9E3F48F522E330E0D80157963C93F7
:102E70002E93569728E330E059963C932E9358971B
:102E8000CBE0D0E0D801ED91FC910190F081E02DF4
:102E9000682FC8010995CE010E9443192196C131BE
:102EA000D10581F70E94071288EE93E0DF91CF9160
:102EB0001F910F910C945113DF91CF911F910F919E
:102EC000089504970C9420171092730610927206BE
:102ED00088EE93E0A0E0B0E08093740690937506CE
:102EE000A0937606B09377068FE891E090937106F1
:102EF000809370068FEF9FEF90937D0680937C0602
:102F0000109247061092460610924D0610924E06F9
:102F100020E120934F0690934C0680934B0610922D
:102F200054061092550610925606109257061092AB
:102F3000580689EA91E0909345068093440683EB16
:102F400091E0909349068093480610925B06109298
:102F50005A0610925D0610925C0681E080935E0630
:102F600010925F0680936006109261068CE190E1FA
:102F70009093CF068093CE0680E090E89093CD06A4
:102F80008093CC0646983E9A47983F9A89EB91E009
:102F900090934206809341068FE991E09093DC057F
:102FA0008093DB05EDEDF5E01192119286E0ED31B5
:102FB000F807D1F7EDE1F6E01192119286E0ED33DA
:102FC000F807D1F7089597FB072E16F4009407D061
:102FD00077FD09D00E94F71707FC05D03EF49095C5
:102FE00081959F4F0895709561957F4F0895AA1B15
:102FF000BB1B51E107C0AA1FBB1FA617B70710F0E4
:10300000A61BB70B881F991F5A95A9F78095909515
:10301000BC01CD010895EE0FFF1F0590F491E02D46
:103020000994CF93DF938230910510F482E090E011
:10303000E091DB06F091DC0620E030E0C0E0D0E07B
:10304000309711F14081518148175907C0F0481756
:10305000590761F482819381209719F09B838A83B9
:103060002BC09093DC068093DB0626C0211531052A
:1030700019F04217530718F49A01BE01DF01EF015E
:103080000280F381E02DDCCF2115310509F1281BE9
:10309000390B2430310590F412968D919C91139741
:1030A0006115710521F0FB019383828304C0909325
:1030B000DC068093DB06FD01329644C0FD01E20F81
:1030C000F31F81939193225031092D933C933AC081
:1030D0002091D9063091DA06232B41F420910E017C
:1030E00030910F013093DA062093D90620910C011C
:1030F00030910D012115310541F42DB73EB74091B6
:10310000100150911101241B350BE091D906F0916B
:10311000DA06E217F307A0F42E1B3F0B2817390736
:1031200078F0AC014E5F5F4F2417350748F04E0F23
:103130005F1F5093DA064093D9068193919302C0A2
:10314000E0E0F0E0CF01DF91CF9108950F931F935E
:10315000CF93DF93009709F48CC0FC013297138260
:1031600012820091DB061091DC060115110581F435
:1031700020813181820F931F2091D9063091DA0688
:103180002817390779F5F093DA06E093D90671C06C
:10319000D80140E050E0AE17BF0750F412962D91D1
:1031A0003C911397AD012115310509F1D901F3CFF8
:1031B0009D01DA013383228360817181860F971F1D
:1031C0008217930769F4EC0128813981260F371F94
:1031D0002E5F3F4F318320838A819B81938382833B
:1031E000452B29F4F093DC06E093DB0642C01396EE
:1031F000FC93EE931297ED01499159919E01240F92
:10320000351FE217F30771F480819181840F951FB8
:10321000029611969C938E938281938113969C9330
:103220008E931297E0E0F0E0D80112968D919C9178
:103230001397009719F0F8018C01F6CF8D919C91AE
:1032400098012E5F3F4F820F931F2091D906309136
:10325000DA062817390769F4309729F41092DC064A
:103260001092DB0602C0138212821093DA060093DA
:10327000D906DF91CF911F910F91089581E090E0E1
:10328000F8940C94A919F999FECF92BD81BDF89AD2
:10329000992780B50895262FF999FECF1FBA92BDC0
:1032A00081BD20BD0FB6F894FA9AF99A0FBE019627
:1032B0000895052E97FB1EF400940E94701957FD87
:1032C00007D00E94781907FC03D04EF40C947019B3
:1032D00050954095309521953F4F4F4F5F4F089542
:1032E00090958095709561957F4F8F4F9F4F089572
:1032F000A1E21A2EAA1BBB1BFD010DC0AA1FBB1FFA
:10330000EE1FFF1FA217B307E407F50720F0A21B6B
:10331000B30BE40BF50B661F771F881F991F1A94D8
:1033200069F760957095809590959B01AC01BD0102
:10333000CF010895A29FB001B39FC001A39F700D5C
:10334000811D1124911DB29F700D811D1124911DAD
:063350000895F894FFCF80
:10335600FFFFFFFF00E10000000000000000DD06A7
:1033660080000100000000000000A1045A07650566
:103376006405670566056305620513050000000020
:10338600AD0498066505640567056605630562056F
:1033960013050000000012058E0B6E064706670532
:1033A60066052506C505130500000000A0043B07B9
:1033B6006E064706670566050C06A00513050000A0
:1033C6000000740598076E064706670566053D0604
:1033D600C705130500C1808100000000000000DD64
:1033E6000B9F0CFE0B2B0D490DF30B0000000097F5
:1033F60009D607D70600000000881074042017FCC1
:10340600FF00006117000000009F042107BB0600B3
:00000001FF
