:100000000C9429070C9451070C9451070C94510738
:100010000C9451070C9451070C9451070C94510700
:100020000C9451070C9451070C947A170C94EC170C
:100030000C9451070C9451070C9451070C945107E0
:100040000C9451070C9451070C9451070C945107D0
:100050000C9451070C9451070C9451070C942A1FCF
:100060000C9451070C9451070C9451070C945107B0
:100070000C9451070C9451070C9451070C945107A0
:100080000C94B6130C9451070C9451070C9451071F
:100090000C9451070C9451070C9451070C94510780
:1000A0000C9451070C9451070C945107600CA70C49
:1000B000070D350D630D080E080E080E080E880D8D
:1000C000880D880D880D880D880D080E080E080E05
:1000D000080EC80DC80DC80DC80DC80DC80D436C5D
:1000E00065617221006090A888888890606090881F
:1000F0008888A89060000000000000000000000058
:1001000000000000000000000000000000000000EF
:1001100000000000000000000000000000000000DF
:1001200000000000000000000000000000000000CF
:1001300000000000000000000000000000000000BF
:1001400000000000000000000000000000000000AF
:10015000000000000000000000000500000000009A
:100160000000000000000100000000000500000089
:10017000000000030000000000000000000000007C
:10018000000000000000000000000000000000006F
:10019000000000000000000000000000000000005F
:1001A000000000000000000000000000000000004F
:1001B000000000000000000000000000000000003F
:1001C000000000000000000000000000000000002F
:1001D000000000000000000000000000000000001F
:1001E000000000000000010000000000000000000E
:1001F00000000003000000000000000000000000FC
:1002000000000000000000000000000000000000EE
:1002100000000000000000000000000000000000DE
:100220000000000300000014001500140015001465
:1002300000150000000100000000000000000000A8
:1002400000000000000004000000000000000000AA
:10025000000000000004000000000000000000009A
:1002600000000000000A020000000A040B00000069
:10027000020B000000000000000000000000000071
:100280000000000000000000000000000000000D61
:10029000000000000B000000000000000000000053
:1002A000000000000000000000000000000004004A
:1002B000000000000000000000000000010000003D
:1002C00000000000171704000000000000000004F8
:1002D0000000000000150400000000000000000005
:1002E00000000016160C04040000000000000400CA
:1002F00000000016030A02000002040400000000CF
:1003000000000000000404040404040400000000D1
:1003100000000000000B00020000040400000000C8
:1003200000000000000404040404040000000000B5
:1003300000000000000C00000200040000000000AB
:100340000000000000040404040404000000000095
:10035000000000000000000000000100000000009C
:10036000000000000000000000000000000000008D
:10037000000000000300000000000000000000007A
:10038000000000000000000000000000000000006D
:10039000000000000000000000000000000000005D
:1003A000000000000000000000000000000000004D
:1003B000000000000000000000000000000000003D
:1003C0000000000303000000000000000000000027
:1003D0000000000303000000000000000000000017
:1003E00000000000000100040A0B0C0D0E0F10119C
:1003F00012130000000000000000000000000000D8
:1004000000000000000000000000000000000000EC
:1004100000000000000000000000000000000000DC
:1004200000000000000000000000000000000000CC
:1004300000000000000000000000000000000000BC
:1004400000000003030000000000000000000000A6
:100450000000000303000000000000000000000096
:100460000000000000010000000000000000020089
:100470000002000002000000000000000000000078
:10048000000000000000000000000000000000006C
:100490000000000300000004040404040404040435
:1004A0000404040404040000000000000000000034
:1004B000000000000000000000000000000000003C
:1004C000000000000004040404040400040004000C
:1004D0000400040000000000000000000000000014
:1004E0000000000004010000000000000000000007
:1004F00000000000000000000000000000000000FC
:1005000000000000000000000000000000000000EB
:1005100000000000000000000000000000000000DB
:1005200000000000000000000000000000000000CB
:1005300000000000000000000000000000000000BB
:10054000000000000000000A001400000B0015006D
:10055000000C001600000000001400000000150050
:10056000000000160001000000140000000015004B
:1005700000000016030A0002000000040000000052
:100580000000000000040404040404000000000053
:1005900000000000000B000000000204000000004A
:1005A0000000000000040404040404000000000033
:1005B0000000000000000000000000000000001427
:1005C0000015000000000000000000000000001402
:1005D00000150000000000000000010000000014F1
:1005E00000150000000000000000000000000014E2
:1005F00000150000030000000000000000000000E3
:1006000000000000000002020202000300000000DF
:1006100000000000000000000000000000000000DA
:1006200000000000000000000000000000000000CA
:1006300000000000000000000000000400000000B6
:1006400000000000000000000000000000000000AA
:10065000000000000400000000040400000400008A
:10066000040400000401000000000000000000007D
:100670000000000404000000000000000000000072
:100680000000000003000000000000000000000067
:100690000000000004000000000000000000000056
:1006A0000000000400000000000000000000000046
:1006B0000000040000000000000000000000000036
:1006C0000004000000000000000000000000000026
:1006D0000400000000000000000000000000000412
:1006E0000000000000000000000000000100040005
:1006F000000000000000000000003E5B4F5B3E3E3B
:100700006B4F6B3E1C3E7C3E1C183C7E3C181C57BD
:100710007D571C1C5E7F5E1C00183C1800FFE7C361
:10072000E7FF0018241800FFE7DBE7FF30483A0630
:100730000E2629792926407F050507407F05253F9C
:100740005A3CE73C5A7F3E1C1C08081C1C3E7F1488
:10075000227F22145F5F005F5F06097F017F0066D2
:1007600089956A606060606094A2FFA29408047E2C
:10077000040810207E201008082A1C08081C2A08DB
:10078000081E101010100C1E0C1E0C30383E383095
:10079000060E3E0E06000000000000005F00000094
:1007A00007000700147F147F14242A7F2A122313C2
:1007B00008646236495620500008070300001C22D6
:1007C00041000041221C002A1C7F1C2A08083E0808
:1007D0000800807030000808080808000060600009
:1007E00020100804023E5149453E00427F400072FD
:1007F000494949462141494D331814127F10274574
:100800004545393C4A494931412111090736494991
:100810004936464949291E000014000000403400B2
:100820000000081422411414141414004122140866
:1008300002015909063E415D594E7C1211127C7F1E
:10084000494949363E414141227F4141413E7F492C
:100850004949417F090909013E414151737F080817
:10086000087F00417F41002040413F017F08142262
:10087000417F404040407F021C027F7F0408107F80
:100880003E4141413E7F090909063E4151215E7FBB
:1008900009192946264949493203017F01033F408E
:1008A00040403F1F2040201F3F4038403F63140816
:1008B000146303047804036159494D43007F4141A7
:1008C000410204081020004141417F04020102045A
:1008D0004040404040000307080020545478407FC7
:1008E000284444383844444428384444287F385401
:1008F00054541800087E090218A4A49C787F0804A8
:10090000047800447D40002040403D007F10284492
:100910000000417F40007C047804787C080404785F
:100920003844444438FC1824241818242418FC7C27
:1009300008040408485454542404043F44243C400C
:1009400040207C1C2040201C3C4030403C4428106F
:1009500028444C9090907C4464544C4400083641A8
:100960000000007700000041360800020102040286
:100970003C2623263C1EA1A161123A4040207A3831
:100980005454555921555579412154547841215594
:1009900054784020545579400C1E527212395555E6
:1009A0005559395454545939555454580000457CBC
:1009B000410002457D420001457C40F0292429F098
:1009C000F0282528F07C545545002054547C547C54
:1009D0000A097F4932494949323248484832324A45
:1009E0004848303A4141217A3A42402078009DA05F
:1009F000A07D39444444393D4040403D3C24FF24DF
:100A000024487E4943662B2FFC2F2BFF0929F62013
:100A1000C0887E090320545479410000447D413050
:100A200048484A32384040227A007A0A0A727D0DDC
:100A300019317D2629292F28262929292630484D94
:100A40004020380808080808080808382F10C8ACE3
:100A5000BA2F102834FA00007B000008142A142250
:100A600022142A14089500220095AA005500AAAA6B
:100A700055AA55AA000000FF00101010FF00141422
:100A800014FF001010FF00FF1010F010F0141414E9
:100A9000FC001414F700FF0000FF00FF1414F4041E
:100AA000FC141417101F10101F101F1414141F0013
:100AB000101010F0000000001F101010101F101078
:100AC0001010F010000000FF101010101010101087
:100AD00010FF10000000FF140000FF00FF00001FC7
:100AE00010170000FC04F414141710171414F40465
:100AF000F40000FF00F714141414141414F700F792
:100B0000141414171410101F101F141414F41410BC
:100B100010F010F000001F101F0000001F14000054
:100B200000FC140000F010F01010FF10FF1414145B
:100B3000FF141010101F00000000F010FFFFFFFF57
:100B4000FFF0F0F0F0F0FFFFFF0000000000FFFFFB
:100B50000F0F0F0F0F38444438447C2A2A3E147E6E
:100B600002020606027E027E026355494163384452
:100B7000443C04407E201E2006027E020299A5E726
:100B8000A5991C2A492A1C4C7201724C304A4D4DC1
:100B9000303048784830BC625A463D3E49494900A9
:100BA0007E0101017E2A2A2A2A2A44445F444440C5
:100BB000514A444040444A51400000FF0103E08054
:100BC000FF000008086B6B083612362436060F0942
:100BD0000F06000018180000001010003040FF0140
:100BE00001001F01011E00191D1712003C3C3C3C76
:100BF0000000000000F0F89C8E8783878E9CF8F040
:100C00000000FEFF0303030303070EFCF80000FED1
:100C1000FF0303030303070EFCF80000FFFF0000BF
:100C20000000000000FFFF0000FEFF83838383833A
:100C3000C7EE7C380000F8FC0E07030303070EFC28
:100C4000F800003F7FE0C08080C0E07F3FFFFF01F1
:100C5000010101010101FFFF0000FFFF0C0C0C0C62
:100C60001C3E77E3C100007FFFC0C0C0C0C0E07081
:100C70003F1F00001F3F70E0C0C0C0E0703F1F007A
:100C8000007FFFC1C1C1C1C1E3773E1C00001F3F0F
:100C900070E0C0C0C0E0703F1F000000000001FF16
:100CA000FF01000000D5F08D14A1C881CFD9F1AFAC
:100CB0002000080B000202020100090400000102EA
:100CC0000200000524001001052401010104240292
:100CD00006052406000107058103100040090401F0
:100CE00000020A0000000705020240000007058319
:100CF000024000000403090441726475696E6F20AC
:100D00004C4C430041726475696E6F204C656F6E88
:100D10006172646F0012010002000000404123363E
:100D20008000010102030112010002EF02014041B3
:100D30002336800001010203010102040810204053
:100D4000801E11131E000000001E13111E00000063
:100D500000FC828181819182FC000018242418000B
:100D60000000003C24243C00000000242424240033
:100D70000000003C00003C000000002424243C0053
:100D80000000003C242424000000000000000000BB
:100D90000000000000000000000000000000000053
:100DA0000000000000000000001E11131E000000E3
:100DB000001E13111E00000000FC828181819182BF
:100DC000FC47616D65204F76657221005265616454
:100DD0007900000018242418000000003C24243C62
:100DE0000000000024242424000000003C00003CFB
:100DF000000000002424243C000000003C242424A3
:100E000000000000000000000000000000000000E2
:100E100000000000000000000000000000000000D2
:100E2000000017049704270575052006E006B8079B
:100E30002D082D094D0A62792040696E615F616E4F
:100E40006900535441474500504F4954544F0000E6
:100E5000741F11241FBECFEFDAE0DEBFCDBF27E045
:100E6000A0E3B2E001C01D92AD34B207E1F712E099
:100E7000A0E0B1E0E4E7F9E402C005900D92A033F0
:100E8000B107D9F717E0C9E2D7E004C02197FE0106
:100E90000E940623C832D107C9F70E9443200C9450
:100EA000B8240C940000FC012281349680E0821763
:100EB00031F041915191452B19F08F5FF8CF8FEFB1
:100EC0000895AF92BF92CF92DF92EF92FF920F936D
:100ED0001F93CF93DF937C016B015A0100E010E078
:100EE000F7018281081728F5E701C00FD11DC00F57
:100EF000D11D8C819D810097D1F0C816D906B9F01B
:100F0000DC01ED91FC910088F189E02DB601099595
:100F1000882369F0A114B10449F08C819D81F50109
:100F2000E10FF11DE10FF11D918380831F5F0F5FC2
:100F3000D7CF812FDF91CF911F910F91FF90EF902D
:100F4000DF90CF90BF90AF900895FC018585968586
:100F500021893289280F391FB90137FF04C066275C
:100F60007727621B730B693071051CF43687258760
:100F70000AC0C90123E0880F991F2A95E1F70E9452
:100F8000F222768765872281338185859685820F57
:100F9000931F93838283089508950895EF92FF929B
:100FA0000F931F93CF93DF93DB0112960D911C914A
:100FB0001397EC01EA81FB8114960D90BC91A02D52
:100FC000EB0128853985EC014C815D81E884F98449
:100FD0008E819F81EB016E817F81600F711F8E0F6B
:100FE0009F1F681779070CF4CB01BF01E017F107C9
:100FF0000CF4B801861B970B18161906B4F4BA0145
:101000006E0D7F1DCD01820F931F681779070CF4B9
:10101000CB019A014A175B070CF49D01FC01E21B0E
:10102000F30B81E01E161F060CF080E0DF91CF91DC
:101030001F910F91FF90EF900895089508950895DE
:10104000089508950895FC01138212821582148276
:1010500088E090E0978386839187808708950F9337
:101060001F93CF93DF93EC018B01E881F981008816
:10107000F189E02D09958823C1F0F8018285882344
:10108000A1F02F853889F801848195811216130605
:101090002CF428853985821B930B05C0F801208527
:1010A0003185820F931F9D838C83DF91CF911F9198
:1010B0000F9108950C942F080F931F93CF93DF93F4
:1010C000EC018B01E881F9810088F189E02D099517
:1010D0008823C1F0F80182858823A1F02D853E8503
:1010E000F80182819381121613062CF42E813F8120
:1010F000821B930B05C0F80126813781820F931F55
:101100009B838A83DF91CF911F910F9108950F9355
:101110001F93CF93DF93EC018B010E945C08F801D1
:101120008285882339F08D859E85919581959109D9
:101130009E878D87DF91CF911F910F910895FC01BC
:101140008785908923893489280F391FB90137FF92
:1011500004C066277727621B730B613471051CF48A
:10116000308B27870AC0C90126E0880F991F2A956E
:10117000E1F70E94F222708B678724813581878591
:101180009089820F931F958384830895FC01858540
:10119000968521893289280F391FB90137FF04C08C
:1011A00066277727621B730B613271051CF4368743
:1011B00025870AC0C90125E0880F991F2A95E1F704
:1011C0000E94F22276876587228133818585968504
:1011D000820F931F938382830895089588E00E946D
:1011E0004311882341F0809128078F5F809328075F
:1011F00082E090E0089585E090E008952F923F927C
:101200004F925F926F927F928F929F92AF92BF9216
:10121000CF92DF92EF92FF920F931F93CF93DF93C2
:10122000CDB7DEB72A970FB6F894DEBF0FBECDBF9D
:101230008C017C0180E6E80EF11C85E090E0D7018E
:101240008D939C9388E00E944311882379F0F801E4
:10125000E25AFF4F0190F081E02D8589811106C08F
:101260008CED9FEF908B878781E0858B0E941D140A
:1012700086FF10C0F801E25AFF4F0190F081E02D87
:101280008585968501969687858781E0868BDD2406
:10129000D39401C0D12C0E941D1485FF0DC0F8010C
:1012A000E25AFF4F0190F081E02D858596850197E8
:1012B00096878587168A0AC0D11008C0F801E25ABD
:1012C000FF4F0190F081E02D16861586D12CF80194
:1012D0008281D81690F4F801ED0DF11DED0DF11D90
:1012E00084819581009739F0DC01ED91FC910084B7
:1012F000F185E02D0995D394EACFD12CF8018381B3
:10130000D816A0F4ED2DF0E0B296EE0FFF1FE00F1F
:10131000F11F80819181009739F0DC01ED91FC9102
:101320000084F185E02D0995D394E8CFB12CD80144
:1013300013968C91B81608F0B4C06801CB0CD11C80
:10134000CB0CD11CF4E4CF0ED11CD6018D919C9115
:10135000009709F4A4C0DC01ED91FC910480F581B3
:10136000E02D0995F60160817181AE014F5F5F4FFD
:10137000C8010E946107982E81110DC0D6016D91A0
:101380007C91AE014F5F5F4FC8010E946107982EAC
:10139000811117C02BC0FE0131963F01A12CD30152
:1013A0008D919D913D01DC01ED91FC91D6016D91F6
:1013B0007C910484F585E02D0995A394A910EFCFC5
:1013C000DDCFCE0101963C01A12CD6018D919C91DF
:1013D000F301619171913F01DC01ED91FC91048475
:1013E000F585E02D0995A394A910EFCFF601808132
:1013F0009181DC01ED91FC910680F781E02D09954A
:10140000F60160817181AE014F5F5F4FC8010E949C
:101410006107982E8823A9F0CE0101963C01A12CEA
:10142000D3018D919D913D01DC01ED91FC91D6019F
:101430006D917C910288F389E02D0995A394A91000
:10144000EFCFF60160817181AE014F5F5F4FC80140
:101450000E946107982E8823A9F0FE0131963F0172
:10146000A12CD6018D919C91F301619171913F0165
:10147000DC01ED91FC910684F785E02D0995A3949C
:10148000A910EFCFF60180819181DC011B962C9190
:10149000222329F00E94B523F60111821082B39411
:1014A00046CFD12CF8018281D81690F4F801ED0DC9
:1014B000F11DED0DF11D84819581009739F0DC015E
:1014C000ED91FC910284F385E02D0995D394EACF48
:1014D000D12CF8018381D816A0F4ED2DF0E0B2965E
:1014E000EE0FFF1FE00FF11F80819181009739F00F
:1014F000DC01ED91FC910284F385E02D0995D394F4
:10150000E8CFB12CC801825A9F4F9A87898788E318
:10151000C82E86E0D82E98EC292E312C2BE0422EB6
:1015200022E0522E812C30E8932ED80113968C9114
:10153000B81608F054C038016B0C711C6B0C711C90
:1015400094E4690E711CD3018D919C91009709F46C
:1015500044C0E985FA856081718186179707E9F1B2
:10156000DC01ED91FC910088F189E02D099588233B
:10157000A1F1D301ED91FC918485823071F584E075
:1015800090E0F70191838083809171008D7F80933B
:10159000710010923502D0923402C0923302D09280
:1015A0003202C0923102A0E1B3E0B0933906A093B9
:1015B000380630923B0620923A0650923D06409201
:1015C0003C06E0E9F1E0F0933F06E0933E0690929E
:1015D0004106809240060E940813B394A6CFF701FB
:1015E000808191812A960FB6F894DEBF0FBECDBFE1
:1015F000DF91CF911F910F91FF90EF90DF90CF90EF
:10160000BF90AF909F908F907F906F905F904F9022
:101610003F902F9008952F923F924F925F926F923A
:101620007F928F929F92AF92BF92CF92DF92EF9272
:10163000FF920F931F93CF93DF93CDB7DEB72D9714
:101640000FB6F894DEBF0FBECDBF9D878C87F12CFF
:10165000AC85BD8512968C91F816A0F40C851D857D
:101660000F0D111D0F0D111DD80114968D919C9118
:101670001597009729F00E94B523F801158214826E
:10168000F394E6CFF12CEC85FD85F381F983FF1609
:10169000A8F48C859D858F0D911D8F0D911D8C015A
:1016A0000C5B1F4FF80180819181009729F00E9407
:1016B000B523D8011D921C92F394E5CF8EE090E003
:1016C0000E9420238C01BB24B394DC011A96BC92A7
:1016D0001A9713961C921E92129715961C921E92A0
:1016E0001497612C48E0742E17967C926E92169790
:1016F00050E2C52ED12C1996DC92CE9218971B96EB
:101700001C921B971C961C921C971D961C921D9751
:101710006EE1E62E61E0F62EED92FC928C859D85C1
:101720000E945307EC85FD85E80FF11DE80FF11DC0
:10173000158304838EE090E00E9420238C01FC013D
:10174000B28613821282812C74E0972E9582848255
:101750007782668280E890E091878087138614867E
:101760001586F182E0828C859D850E945307EC8569
:10177000FD85E80FF11DE80FF11D158304838EE050
:1017800090E00E9420238C01DC011A96BC921A97EB
:1017900013961C921E92129715961C921E921497E5
:1017A0001796DC92CE92169719969C928E92189765
:1017B0001B961C921B971C961C921C971D961C92A4
:1017C0001D97ED92FC928C859D850E945307EC85B8
:1017D000FD85E80FF11DE80FF11D158304838EE0F0
:1017E00090E00E9420238C01FC01B28680EE97E0FD
:1017F00093838283D582C482D782C68280EE93E0AF
:1018000091878087138614861586F182E0828C8505
:101810009D850E945307EC85FD85E80FF11DE80FBB
:10182000F11D158304838091280740E4849F900173
:1018300011243F832E83C12CD12C00E810E02C858D
:101840003D85225A3F4F3B832A834C845D8434E498
:10185000430E511C560184E0AA0CBB1C8A95E1F78B
:10186000C60102969C0194E0220F331F9A95E1F77E
:10187000398728878E819F818C0D9D1DAC01440F77
:10188000551F5D834C83E12CF12C812C912C30E48D
:10189000632E712C42E0242E312CEC81FD81E80D69
:1018A000F91DEB50FF4F4491842F90E0FC013197DC
:1018B000E931F10508F0ACC1EA5AFF4F0C94062358
:1018C000F201A0E04981A41731F081919191892B17
:1018D00021F0AF5FF7CF2FEF01C02A2F89E190E011
:1018E0002B870E942023FC0181E08287A70124E04E
:1018F000440F551F2A95E1F753834283B582A48292
:1019000077826682718660861386148616861586AF
:10191000108A1786128A118AA6E3B1E0B183A083E8
:10192000158A868B4C855D85508F478BAA81BB813C
:10193000ED93FC932B85A22FB0E09296AA0FBB1FCC
:10194000A40FB51FED93FC93348A238A61C187E10C
:1019500090E00E942023DC0181E01A968C931A9774
:10196000970194E0220F331F9A95E1F713963C9369
:101970002E9312972885398515963C932E931497AC
:1019800017961C930E93169719967C926E92189741
:101990001B961C921B9750961C921E921F97529654
:1019A0001C921E9251974CE451E011965C934E9319
:1019B00055961C92559756968C93569780E190E0D9
:1019C0001E969C938E931D9782E01C968C931C9779
:1019D00054963C922E925397C20140E029814217BF
:1019E00041F0FC0121913191CF01232B21F04F5F78
:1019F000F5CFEFEF01C0E42FF0E0B296EE0FFF1F3E
:101A00004C855D85E40FF51FB183A08301C18EE095
:101A100090E00E9420239C0181E0D9011A968C93CA
:101A20001A97A701F4E0440F551FFA95E1F71396B2
:101A30005C934E9312971596BC92AE92149717969C
:101A40001C930E93169719961C930E9318971B963A
:101A50001C921B971D961C921D97E2E6F1E01196D1
:101A6000FC93EE931C968C93C3C08EE090E00E9492
:101A700020239C0181E0D9011A968C931A97C70103
:101A8000E4E0880F991FEA95E1F713969C938E93F3
:101A900012971596BC92AE92149717961C930E93BC
:101AA000169719961C930E9318971B961C921B97CA
:101AB0001C961C921C97EAEAF1E01196FC93EE93B7
:101AC0001D961C9295C089E190E00E9420239C0104
:101AD000AA81BB818D919C9141E0F9014287A701C8
:101AE00074E0440F551F7A95E1F753834283B58222
:101AF000A4821783068311870087138614861586B0
:101B00004AE751E051834083168A908F878B70C0DB
:101B100083E290E04A870E9420239C0181E0D90162
:101B20001A968C931A97C70164E0880F991F6A95DB
:101B3000E1F713969C938E9312971596BC92AE92F2
:101B4000149717961C930E93169719961C930E9341
:101B500018971B961C921B971C961C921C971D96FF
:101B60001C921D97E2E9F1E01196FC93EE935996D1
:101B70001C92599792961C9292978C859D855096AF
:101B80009C938E931F974A854A5D1E964C9332C054
:101B90008EE090E04A870E9420239C0181E0D901D9
:101BA0001A968C931A97C70154E0880F991F5A957B
:101BB000E1F713969C938E9312971596BC92AE9272
:101BC000149717961C930E93169719961C930E93C1
:101BD00018971B961C921B971C961C921C97E2EC64
:101BE000F1E01196FC93EE934A85445E1D964C936A
:101BF0008C859D852B873A870E945307EC85FD8550
:101C0000E80FF11DE80FF11D2B853A8535832483FC
:101C1000FFEF8F1A9F0A28E0E20EF11C30E18316D5
:101C2000910409F03ACE48E0C40ED11C50E4C51628
:101C3000D10409F00FCEEC85FD85EC5AFF4F2C85C1
:101C40003D85225A3F4F81E08193E217F307E1F788
:101C50002D960FB6F894DEBF0FBECDBFDF91CF91AA
:101C60001F910F91FF90EF90DF90CF90BF90AF90BA
:101C70009F908F907F906F905F904F903F902F90AC
:101C80000895EF920F93FC01258536856481758157
:101C90008281938144E0759567954A95E1F7645098
:101CA0007109EE24E39408E037FF04C028E045EE14
:101CB00050E003C028E04DEE50E034E09595879564
:101CC0003A95E1F70E944B140F91EF9008950E940E
:101CD0003411EFEAF6E0118E108E178A168A8EED17
:101CE00090E00C941311FC012085318584E035953A
:101CF00027958A95E1F74681578194E05595479558
:101D00009A95E1F76481758134E0759567953A9508
:101D1000E1F78281938154E0959587955A95E1F793
:101D20000C94E510FC012085318584E035952795DC
:101D30008A95E1F74681578194E0559547959A95A4
:101D4000E1F76481758134E0759567953A95E1F71F
:101D50008281938154E0959587955A95E1F70C948B
:101D6000E510FC01E05AFF4F83E090E0918380830F
:101D7000E1E7F0E080818D7F808310923502E8E317
:101D8000F6E0F0933402E0933302F0933202E093F2
:101D900031028BE092E09183808388EC90E0938322
:101DA000828323E932E0358324839783868380E12D
:101DB00093E09187808780E991E0938782870C94F4
:101DC00008138091300208959C01240F311D1216D2
:101DD000130674F5803891055CF5FC0197FF02C08D
:101DE000E0E0F0E02138310514F020E830E02E1B6F
:101DF000AB014770552781E001C0880F4A95EAF78B
:101E000077FF02C0695F7F4F93E0759567959A955C
:101E1000E1F77695762F662777956795E60FF71F9A
:101E2000E85CFD4F215020F09081982B9193FACFE0
:101E3000089580913502E0913302F09134028823B5
:101E400049F0CF010296909334028093330285913A
:101E500094910895CF0102969093340280933302B7
:101E6000808191810895EF92FF920F931F93CF93FA
:101E7000DF937C018B01040F111DEB0177FF0EC076
:101E8000C0E0D0E00BC0C217D3077CF421E0AE0164
:101E9000B70183EB96E00E945C172196980101340C
:101EA00011058CF320E430E0EECFDF91CF911F914C
:101EB0000F91FF90EF900895EF92FF920F931F9371
:101EC000CF93DF937C01EB01042F122F40FF0DC055
:101ED00041E0420F01960E94330F43E0410FBE01E3
:101EE00061507109C7010E94330F01FF15C041E025
:101EF000410FBE01C70101970E94330F43E0410F1C
:101F0000BE0161507109C701DF91CF911F910F91FF
:101F1000FF90EF900C94330FDF91CF911F910F91B1
:101F2000FF90EF900895FF920F931F93CF93DF934D
:101F3000EC018B01F42E42FF12C021E0AB01BC0189
:101F40006F5F7F4F83EB96E00E945C1721E0A80152
:101F50004F5F5F4FBE0183EB96E00E945C17F1FE7E
:101F600012C021E0A801BE016F5F7F4F83EB96E0B6
:101F70000E945C1721E0A80141505109BE0183EB8A
:101F800096E00E945C17F3FE12C021E0A8014F5FAB
:101F90005F4FBE0183EB96E00E945C1721E0A80131
:101FA000BE016150710983EB96E00E945C17F0FE60
:101FB00017C0A8014150510921E0BE0183EB96E012
:101FC0000E945C17BE016150710921E0A80183EBFA
:101FD00096E0DF91CF911F910F91FF900C945C17C9
:101FE000DF91CF911F910F91FF9008952F923F9213
:101FF0004F925F926F927F928F929F92AF92BF9219
:10200000CF92DF92EF92FF920F931F93CF93DF93C4
:10201000CDB7DEB729970FB6F894DEBF0FBECDBFA0
:10202000FC016A3069F4248D808D918D38E0239F06
:10203000800D911D1124918F808F178A168AAAC056
:102040006D3009F4A7C099878887F48C338C228C73
:10205000608C718C0689178900381105C4F0A88539
:10206000B9855C962C915C97422F50E056968D91E5
:102070009C915797B6E02B9F800D911D1124E88508
:10208000F985978B868B258D21116EC083C0F0E476
:102090006F16710424F7C80125E0F29E800D911D92
:1020A000112418161906DCF68F2D90E09C838B8383
:1020B000C301A8E0FA9E800D911D1124181619067F
:1020C00074F6B5E06B9FB0011124FB01EB50F94FA2
:1020D000FA83E98330E08885998504969E838D8311
:1020E000E981FA81E490353009F4E12C430188E07C
:1020F000482EE0FC02C0532C01C0522C51100BC0E2
:10210000321009C0E6944A948B819C81880E991EF6
:102110004110EFCF1BC068018C2D801B8F1590F7ED
:1021200054018A2D88198F1568F4252DA501B60153
:102130008D819E813F830E945C179FEFA91AB90A87
:102140003F81EFCFAFEFCA1ADA0AE6CF3F5FEB81EC
:10215000FC810E0F1F1F89819A8101969A838983C2
:10216000363009F0BDCF7BCF6AEF64039001659FE5
:10217000300D112420583F4F281739075CF4A885EB
:10218000B985ED91FC9111970190F081E02D6AE005
:10219000CD01099581E090E029960FB6F894DEBF55
:1021A0000FBECDBFDF91CF911F910F91FF90EF90A8
:1021B000DF90CF90BF90AF909F908F907F906F9067
:1021C0005F904F903F902F900895EF92FF920F9362
:1021D0001F93CF93DF93EC018B01E42EF22E60343A
:1021E000710510F40E94E40EB8016F0D711D61506D
:1021F00071096034710520F44E2DCE010E94E40E69
:102200004F2DB801CE010E94330FCE018E0D911DCE
:102210004F2DB8010197DF91CF911F910F91FF9042
:10222000EF900C94330F0F931F93CF93DF938C0198
:10223000C0E0D0E0F801EC0FFD1F6491662371F05F
:10224000E091AF06F091B0060190F081E02D8FEAA9
:1022500096E00995892B11F02196ECCFCE01DF9104
:10226000CF911F910F91089520E088E392E0B22F63
:10227000B111BFEFFC010024B193B193B193B193BD
:102280000394D1F708952091B906282329F4909159
:10229000B806982381E009F480E008955F926F9278
:1022A0007F928F929F92AF92BF92CF92DF92EF92E6
:1022B000FF920F931F93CF93DF93EC018B017A0171
:1022C000A901461B570B57FF03C051954195510972
:1022D000C7018C1B9D0B97FF03C0919581959109B8
:1022E000552453948417950714F0512C0AC09E2D41
:1022F0008F2D7901292F382F9C2F8D2FE801092F41
:10230000182FEC16FD0654F4902F812F8901292FE8
:10231000382F9C2F8D2FE701E92EF82E37016C1AEC
:102320007D0A5901A01AB10AB7FE03C0B194A19465
:10233000B108630177FE03C08FEFC81AD80AD5949D
:10234000C7940217130714F08FEF01C081E0882EA5
:10235000880F9908EC16FD06B4F021E0552019F01D
:10236000AE01B80102C0A801BE0183EB96E00E9455
:102370005C17CA18DB08D7FE04C0080D191DC60C6F
:10238000D71C2196E7CFDF91CF911F910F91FF903E
:10239000EF90DF90CF90BF90AF909F908F907F9005
:1023A0006F905F9008958F929F92AF92BF92CF925D
:1023B000DF92EF92FF920F931F93CF93DF93EC0185
:1023C0004B01A42E122F0EEF040F6C018FEFC81AD1
:1023D000D80A6034710520F4402FC6010E94E40E33
:1023E0007401E10EF11CB70161507109603471058F
:1023F00020F4402FC6010E94E40E8EEFB82EB10EDD
:1024000084010F5F1F4F4B2DB801CE010E94330F87
:10241000CA0DD11D4B2DB801CE0101970E94330F7B
:1024200041E0B801C6010E94930F229742E0B80133
:10243000CE010E94930F82E0E81AF10844E0B70150
:10244000CE010E94930F48E0B701C601DF91CF9102
:102450001F910F91FF90EF90DF90CF90BF90AF90C2
:102460009F908F900C94930F8F929F92AF92BF92F8
:102470000F931F93CF93DF93CDB7DEB7A1970FB61E
:10248000F894DEBF0FBECDBF19A2423008F44AE077
:102490008E010F5D1F4F842E912CA12CB12CA50114
:1024A00094010E948724E62FB901CA010150110945
:1024B000EA3014F4E05D01C0E95CD801EC93232B11
:1024C000242B252B61F70115110571F0F8010190FE
:1024D0000020E9F73197AF01401B510BB8018FEA9B
:1024E00096E00E94B81502C080E090E0A1960FB679
:1024F000F894DEBF0FBECDBFDF91CF911F910F913A
:10250000BF90AF909F908F9008956F927F929F920F
:10251000AF92BF92CF92DF92EF92FF920F931F93F1
:10252000CF93DF936C018B01942EC22F8EEF840F1B
:1025300076019FEFE91AF90A57013701680E711CFD
:10254000A614B7044CF44C2FB801C5010E94330FF8
:102550008FEFA81AB80AF4CFD0E023970F5F1F4F70
:10256000C601890D911D9E0141E0B80102970E94AC
:102570005C0F9E0142E0B801C701DF91CF911F912E
:102580000F91FF90EF90DF90CF90BF90AF909F9012
:102590007F906F900C945C0F809138028EBDE9E3C0
:1025A000F2E081910DB407FEFDCF8EBD86E0E833E9
:1025B000F807B9F70DB407FEFDCF0895FC0180912F
:1025C0003702811103C08FEF9FEF08959FB7F894F2
:1025D00082E08093E9002091F20030E012161306A9
:1025E00014F421E030E02115310559F0289884E6F3
:1025F000809336028091F10080838091F2008823DD
:1026000019F09FBFC90108958BE68093E800F9CFC8
:10261000CF92DF92EF92FF920F931F93CF93DF93AE
:102620000E94190F811520E8920761F480917100D2
:102630008D7F809371001092910046984798109278
:10264000CF068BC021E02093CF06813020E892078F
:1026500051F4809131029091320290933402809330
:1026600033020E94190F97FD05C02091CE06222348
:1026700009F43FC02091CD0621113BC021E02093F9
:10268000D006EC01DF77209769F481E08093D106D2
:1026900046983FE9C32E3FE0D32EE12CF12CCAEF40
:1026A000D0E014C08E0120E030E060E472E48FE0FE
:1026B00090E0A90198010E94682469017A0181E0F3
:1026C000C81AD108E108F1081092D106E091260756
:1026D000F09127070995811103C081E08093D1060D
:1026E0008091D0068823B9F18091D106811133C041
:1026F00003C01092D006C5CF46992DC0479A0E94BC
:10270000190F009771F09C01DE010E94A924DC01E1
:10271000CB0129E0B595A795979587952A95D1F78F
:1027200003C08FEF9FEFDC01109290002AE020930E
:102730009100D0929900C09298008093D206909315
:10274000D306A093D406B093D50680917100826021
:102750008093710002C04798D2CFDF91CF911F9133
:102760000F91FF90EF90DF90CF9008951F920F92FE
:102770000FB60F9211242F933F934F935F936F9354
:102780007F938F939F93AF93BF93EF93FF9380912A
:10279000D2069091D306A091D406B091D506892B8C
:1027A0008A2B8B2B81F18091D10681110BC098B1BE
:1027B00080E4892788B98091D006882319F088B1F0
:1027C000805888B98091D2069091D306A091D40602
:1027D000B091D506181619061A061B06B4F4809196
:1027E000D2069091D306A091D406B091D506019758
:1027F000A109B1098093D2069093D306A093D40681
:10280000B093D50602C00E940813FF91EF91BF91CB
:10281000AF919F918F917F916F915F914F913F9178
:102820002F910F900FBE0F901F9018952D9A08951D
:10283000BC0180E090E00C94F01E8FB12CB193B1FC
:1028400030E02095309520743327A90123E0559579
:1028500047952A95E1F7292F30E020953095207192
:1028600033273595279535952795242B8095807F9F
:10287000822B089583B7817F83BF83B7816083BF35
:10288000889583B78E7F83BF08958EBD00000DB4F9
:1028900007FEFDCF08952F923F924F925F926F9265
:1028A0007F928F929F92AF92BF92CF92DF92EF92E0
:1028B000FF920F931F93CF93DF93CDB7DEB72D9782
:1028C0000FB6F894DEBF0FBECDBFED82E22EF12C25
:1028D0009C012E0D3F1D37FD32C1803891050CF053
:1028E0002EC19B01200F311D37FD29C160347105B8
:1028F0000CF025C1DB0177FF04C0AA27BB27A61B6C
:10290000B70BA770BB279B0177FF02C0295F3F4F22
:1029100013E0359527951A95E1F777FF08C0215008
:10292000310968E070E0FB01EA1BFB0BDF01E02FDF
:10293000E695E695E695CE2ED12C077019F0FFEFBF
:10294000CF1ADF0AB9017695762F662777956795B6
:10295000680F791F685C7D4F8601020F131F19876E
:102960000887C12CD12CF8E0AF2EB12C85010A1BB1
:102970001B0B1F830E83088519852017310709F467
:10298000DEC02830310509F4DAC02F3F1FEF3107D0
:102990000CF4CAC08B0100581F4F1D870C874B01D8
:1029A0003B012B011C011C830B831A8309831B86AB
:1029B0001A860A851B850E151F050CF0B5C010E898
:1029C0002116310409F4B0C037FC89C02F3FEFEF66
:1029D0003E0709F4B0C00A851B850C0D1D1DFD8145
:1029E000F13079F4F801E40FF51FE491F0E08F0184
:1029F0000A2E01C0000F0A94EAF7F301B0800B29F8
:102A000025C0FD81F11114C0F801E40FF51FE49118
:102A1000F0E00A2E02C0EE0FFF1F0A94E2F78F01CA
:102A200000951095F401A080B12C0A211B210EC045
:102A3000F801E40FF51FE491F0E08F010A2E01C0C8
:102A4000000F0A94EAF7F201B0800B25008310977B
:102A500009F445C02730310509F441C00A851B85BA
:102A60000C0D1D1DFD81F13089F4F801E40FF51FF7
:102A7000E4910E2F10E00E8002C0159507950A9480
:102A8000E2F7EC85FD85B0800B2928C0FD81F111AE
:102A900015C0F801E40FF51FE4910E2F10E00E8031
:102AA00002C0159507950A94E2F700951095E98103
:102AB000FA81A080B12C0A211B2110C0F801E40F7B
:102AC000F51FE4910E2F10E00E8002C015950795BA
:102AD0000A94E2F7EB81FC81B0800B2500830A8524
:102AE0001B850F5F1F4F1B870A870C851D850F5F96
:102AF0001F4F1D870C8709811A810F5F1F4F1A8393
:102B000009830B811C810F5F1F4F1C830B831FEFF9
:102B1000211A310AEFEF4E1A5E0AFFEF6F1A7F0A91
:102B20000FEF801A900A45CF2F5F3F4F60587F4FBD
:102B3000CE0CDF1C20CF109709F090CFD0CF2D9670
:102B40000FB6F894DEBF0FBECDBFDF91CF911F91BE
:102B50000F91FF90EF90DF90CF90BF90AF909F903C
:102B60008F907F906F905F904F903F902F9008953F
:102B7000CF92DF92EF92FF920F931F93CF93DF9349
:102B80006C017A018B01C0E0D0E0CE15DF0589F041
:102B9000D8016D918D01D601ED91FC910190F081EC
:102BA000E02DC6010995892B11F47E0102C0219602
:102BB000ECCFC701DF91CF911F910F91FF90EF9064
:102BC000DF90CF9008950E944D240895809138079A
:102BD00081110DC082E08093340784E08093350733
:102BE000109237071092360781E08093380784E30C
:102BF00097E00895CF93DF931F92CDB7DEB7698337
:102C0000DC01ED91FC910280F381E02D41E050E088
:102C1000BE016F5F7F4F09950F90DF91CF910895AF
:102C200083E08093E9008091F200882319F08AE321
:102C30008093E8000895FC018485958597FD0BC07D
:102C40009FB7F89482E08093E9008091F2009FBFE3
:102C500090E0019608959FB7F89482E08093E90090
:102C60008091F2009FBF90E008958F929F92AF9263
:102C7000BF92CF92DF92EF92FF920F931F93CF9369
:102C8000DF935C016B018A0180910F01882309F4B5
:102C90005EC080913702882309F459C080913107C2
:102CA00080FF05C08091E00082608093E000E80131
:102CB0008AEFF82E93E0E92E2FE3822E3AE3932E4B
:102CC000209709F43DC08FB7F894E092E900909105
:102CD000E80095FF06C09091F200282D291B922F45
:102CE00001C090E08FBF91110AC0FA94FF2079F1E2
:102CF00061E070E080E090E00E94F01EE1CF292FBB
:102D000030E0C217D3070CF49C2F8FB7F894E092F1
:102D1000E9002091E80025FF11C0292F30E0C21BF7
:102D2000D30BF601915020F041914093F100FACF7E
:102D3000C20ED31E9091E80095FF13C08FBFC0CF85
:102D40005D9884E6809333071016110644F081E005
:102D500090E0F5019383828380E090E005C0C80194
:102D600003C09092E800EACFDF91CF911F910F91BD
:102D7000FF90EF90DF90CF90BF90AF909F908F909B
:102D80000895CF93DF931F92CDB7DEB7FC01848502
:102D9000958597FD05C02FEF3FEF358724870BC042
:102DA000CE0101960E94DE12019719F4898190E00C
:102DB00002C08FEF9FEF0F90DF91CF9108950F9397
:102DC0001F93CF93DF931F92CDB7DEB78C01FC0129
:102DD0008485958597FF0EC0CE0101960E94DE1274
:102DE000019719F4298130E002C02FEF3FEFF8017D
:102DF00035872487F801848595850F90DF91CF91E1
:102E00001F910F910895DF92EF92FF920F931F93FE
:102E1000CF93DF93D82E8A017B01E40EF51EEB01E0
:102E2000CE15DF0571F0D7FE03C0FE01849101C00D
:102E300088810E94B51E21968111F2CF8FEF9FEFFE
:102E400001C0C801DF91CF911F910F91FF90EF90CA
:102E5000DF9008950F931F93CF93DF931F92CDB709
:102E6000DEB782E0898342E450E062EB7CE080E8F8
:102E70000E9403170E94E615DC0112960D911C9129
:102E800013970115110569F0D801ED91FC910280AD
:102E9000F381E02DBE016F5F7F4FC801099597FF59
:102EA00007C089810F90DF91CF911F910F910895F5
:102EB000F80100851185E5CF60387105D0F4403404
:102EC0005105B8F4E9E3FDE080E1849FD001A078EA
:102ED0001124A60F4770E40FF11DE491A85CBD4FCB
:102EE000222319F04C91E42B03C0E0954C91E4238C
:102EF000EC9308951F920F920FB60F9211248F93A7
:102F00009F938091E1009091E100937F9093E10085
:102F100083FF0FC01092E90091E09093EB001092B4
:102F2000EC0092E39093ED001092370298E09093BA
:102F3000F00082FF20C093E09093E9009091F200AE
:102F4000992319F09AE39093E8009091330799231D
:102F500039F090913307915090933307992389F179
:102F600090913602992339F09091360291509093C6
:102F70003602992341F184FF10C08091E2008E7ED9
:102F800081608093E2008091E1008F7E8093E10078
:102F9000809131078E7E806111C080FF16C08091C4
:102FA000E2008E7E80618093E2008091E1008E7E5F
:102FB0008093E100809131078E7E8160809331079C
:102FC00004C05D9ACDCF289AD6CF9F918F910F9054
:102FD0000FBE0F901F9018951F920F920FB60F9271
:102FE0001124CF92DF92EF92FF920F931F932F93B2
:102FF0003F934F935F936F937F938F939F93AF9381
:10300000BF93EF93FF93CF93DF93CDB7DEB76C976A
:10301000DEBFCDBF1092E9008091E80083FFFAC1C6
:1030200068E0CE0145960E94E31E82EF8093E8009F
:103030008D8987FF05C09091E80090FFFCCF03C009
:103040009EEF9093E800982F907609F0C6C09E8975
:103050002F89188D91110CC0803829F48091300788
:103060008093F10002C01092F1001092F10047C16C
:10307000422F50E0512B913051F4811140C1413029
:10308000510509F03CC1809130078D7F0BC0933012
:1030900061F4811134C14130510509F030C1809192
:1030A00030078260809330072AC1953041F48091C7
:1030B000E80080FFFCCF20682093E30020C1963019
:1030C00009F05FC0EB8CFC8C1092E90010922E0787
:1030D00010922D07123091F510922C0710922B07A9
:1030E0000E942A1799E0BE016F5F7F4FDB01E92F35
:1030F0001D92EA95E9F799831A8391E09E8390EAFD
:1031000098879AEF998720912D0730912E07275F96
:103110003F4F3C832B838D831092E90010922E0742
:1031200010922D07F0922C07E0922B0749E050E017
:1031300080E00E9403170E942A17E1C0F0922C073A
:10314000E0922B070E94E615DC011296ED90FC90B0
:103150001397E114F10409F4C0C0D701ED91FC917B
:103160000480F581E02DBE016B5E7F4FC70109959C
:10317000009719F00CF0C3C0C6C0F701E084F184D9
:10318000E8CF973009F4BFC0983021F481E08093F4
:10319000F100B5C0993009F0B2C0837009F0B3C036
:1031A000E9E2F2E081E021E036E39081992361F0E9
:1031B0008093E9002093EB0091919093EC00309381
:1031C000ED008F5F873089F78EE78093EA001092D9
:1031D000EA008F898093370292C08B8D9C8D10926C
:1031E000E90010922E0710922D0790932C078093E0
:1031F0002B07898D811156C08E899D89913A59F48A
:10320000813209F080C047E050E068E071E080E082
:103210000E94031774C0913209F075C0833289F49B
:10322000888D90E0982F88272F89822BA0E0B0E02E
:103230008093040190930501A0930601B0930701C8
:103240005EC0803269F48091E80082FFFCCF67E0C5
:1032500088E091E00E94E31E8BEF8093E80006C0B7
:10326000823209F04CC08F8980930F0180912F0723
:10327000882319F0EEEFFAE002C0E0E0F8E0809178
:10328000080190910901A0910A01B0910B01803BC6
:103290009440A105B10509F088C080910F0180FF1D
:1032A000A0C083C00E94E615DC0112960D911C910E
:1032B00013970115110539F1D801ED91FC91019099
:1032C000F081E02DBE016B5E7F4FC8010995811131
:1032D00016C0F80100851185ECCF1130C1F0133014
:1032E00091F48F89882309F455C08230E9F440E8CD
:1032F00060E184E09DE00E94B522882321F08EEFFA
:103300008093E80087C081E28093EB0083C08B8DBF
:103310009C8D089711F41093320780913207811128
:1033200036C065E17DE038C0813029F440E86BE0CB
:1033300088EF9CE0E0CF833031F70E94E615DC0196
:103340001296ED90FC9013978E010F5F1F4F68014E
:10335000E114F10479F0D701ED91FC910680F78139
:10336000E02DB801C7010995080F111DF701E08490
:10337000F184EECFD8011C92F60101900020E9F70C
:103380003197BF016C197D0940E0C601B4CF67E2F7
:103390007DE002C064EF7CE06115710509F4B3CFF4
:1033A000FB01449150E080E833CF0FB6F894A89524
:1033B00080916000886180936000109260000FBE71
:1033C000A895EE3F2AE0F20739F08091FE0A90912D
:1033D000FF0A9183808393CF1092FF0A1092FE0A16
:1033E0008ECFEE3F8AE0F80731F080819181909393
:1033F000FF0A8093FE0A87E797E7918380839BE02B
:1034000088E10FB6F894A895809360000FBE909362
:10341000600075CF6C960FB6F894DEBF0FBECDBFBF
:10342000DF91CF91FF91EF91BF91AF919F918F91DC
:103430007F916F915F914F913F912F911F910F91CC
:10344000FF90EF90DF90CF900F900FBE0F901F90E6
:10345000189520912807FC0122830895FC0192A170
:10346000DF01519680E0891741F019962D913C912A
:103470001A972D933D938F5FF6CF818F12A20895F7
:10348000DC0192968C919297FD017A9690E09817C4
:1034900039F0219131912617370761F09F5FF7CFFF
:1034A000FD01E90FF11DE90FF11D738F628F9F5F21
:1034B00092969C930895DC0192968C919297FD01CF
:1034C0007A9690E0981739F02191319126173707B5
:1034D00061F09F5FF7CFFD01E90FF11DE90FF11DCD
:1034E000738F628F9F5F92969C930895FC01138265
:1034F00012821582148288E090E0978386839187F8
:1035000080870895DC0190E02CED3FEF41E0569676
:103510008C9156979817A0F4FD01E90FF11DE90F62
:10352000F11D0684F785E02D308B278757966D9126
:103530007C915897E617F70709F4458B9F5FE7CF13
:103540000895FC01168A0895DC01FB0187859089A6
:1035500097FD19C056968C915697FD013E9690E0C6
:10356000981739F0219131912617370761F09F5F45
:10357000F7CFFD01E90FF11DE90FF11D7787668790
:103580009F5F56969C930895FC01138212821582C8
:10359000148288E090E097838683918780870895DE
:1035A000FC01228133812150310929F033832283A8
:1035B00085E090E0089584E690E09383828381E043
:1035C00090E0089524E630E0FC01338322830895DF
:1035D0000895FC018585968521893289280F391F38
:1035E000B90137FF04C066277727621B730B693068
:1035F00071051CF4368725870AC0C90123E0880FAE
:10360000991F2A95E1F70E94F22276876587228129
:10361000338185859685820F931F938382830895D6
:1036200008950895DC01ED91FC910684F785E02D65
:103630000994FC01138212821582148288E090E0C2
:103640009783868391878087158608950895FC0166
:10365000138212821582148288E090E09783868319
:10366000918780870895FC0113821282158214824B
:1036700088E090E097838683918780870895EFEABA
:10368000F6E0178A168A8EE190E0918F808F81E0B4
:10369000828F138E81EC9DE00C9413110F931F9376
:1036A000CF93DF938C010E943411CFEAD6E0198EBC
:1036B000188E1F8A1E8A88E49EE00E94131120E261
:1036C00030E03F8B2E8B398F288F82E49EE00E9462
:1036D0001311E881F981D80112966C91605D019017
:1036E000F081E02DCE01099580E390E09F8B8E8BD9
:1036F00086E390E0998F888F86E39EE0DF91CF91FB
:103700001F910F910C941311CF93DF93EC0188E07C
:103710000E944311882331F08A818093280781E039
:1037200090E016C080E80E944311882329F08A8126
:10373000882311F081508A8380E10E9443118823FD
:1037400029F08A818B3010F48F5F8A8385E090E0C6
:10375000DF91CF91089588E00E944311811103C049
:1037600085E090E0089580E090E00895EF92FF9268
:103770000F931F93CF93DF93DC0192965C91929706
:1037800059962C91251728F1521371C040E070E032
:103790007C01B1E1EB0EF11C4517C1F0F70160E0CF
:1037A0009C01240F311D240F311D265E3F4F6517EC
:1037B00059F0C191D191D9010D911C910C171D07A0
:1037C00009F071E06F5FF3CF4F5FE6CF772309F425
:1037D0004EC0FC01F68407851089CF2D0F2C000CFC
:1037E000DD0BFE01EE0FFF1FEE53F24F25913491DA
:1037F000809171008D7F809371001092350288E373
:1038000096E0909334028093330290933202809337
:103810003102309339062093380684E690E0909385
:103820003B0680933A0680E090E890933D068093B3
:103830003C060E940813C00FD11FA496988181E016
:103840009827988380E0F8012281821780F4F8019C
:10385000E80FF11DE80FF11D0480F581E02D309790
:1038600021F025852F1101C092878F5FECCFDF916A
:10387000CF911F910F91FF90EF900895EF920F93CA
:10388000FC012689648175818281938144E075956C
:1038900067954A95E1F761507109EE24E39408E0D9
:1038A000222321F028E049EA5DE003C028E041EB53
:1038B0005DE034E0959587953A95E1F70E944B14C9
:1038C0000F91EF900895EF920F93FC016481758141
:1038D00084E0759567958A95E1F782819381EE245E
:1038E000E39408E028E041E55DE034E095958795B4
:1038F0003A95E1F70E944B140F91EF900895EF92E3
:103900000F931F93CF93DF93EC012885398584E0D3
:10391000359527958A95E1F74E815F8194E055951D
:1039200047959A95E1F76C817D8134E075956795AF
:103930003A95E1F78A819B8154E0959587955A9550
:10394000E1F70E9485120885198564E015950795B1
:103950006A95E1F72E813F8174E0359527957A9538
:10396000E1F74E8588E04802A00111244E5A534FDA
:103970006C817D81E4E075956795EA95E1F78A8130
:103980009B81E12CF4E095958795FA95E1F70E94EB
:103990004B14DF91CF911F910F91EF900895FC018F
:1039A0002085318584E0359527958A95E1F7468114
:1039B000578194E0559547959A95E1F76481758113
:1039C00034E0759567953A95E1F78281938154E0EB
:1039D000959587955A95E1F70C948512CF92DF92D1
:1039E000EF92FF92CF93DF93EC010E94341110927B
:1039F000C8061092C7061092C6061092C5068CEC37
:103A00009DE00E94131180E290E09093C60680939F
:103A1000C5061092C8061092C706CA80DB800D2C1E
:103A2000000CEE08FF08F7FE14C0E091AF06F0911D
:103A3000B0060190F081E02D6DE28FEA96E00995E5
:103A400066277727CB016C197D098E099F094AE00B
:103A500003C04AE0C701B601DF91CF91FF90EF901C
:103A6000DF90CF900C9434120F931F93CF93DF937A
:103A7000EC018B010E942F08F8018285882341F018
:103A80008F859889181619060CF41D8A188A1F86C6
:103A9000F8018485813041F48F89988DDF91CF9131
:103AA0001F910F910C94B10EDF91CF911F910F9147
:103AB00008950F931F93CF93DF93EC018B010E9426
:103AC0005C08F8018485813041F48F89988DDF91FD
:103AD000CF911F910F910C94B10EDF91CF911F9157
:103AE0000F910895FC012085318584E03595279557
:103AF0008A95E1F74681578194E0559547959A95C7
:103B0000E1F76481758134E0759567953A95E1F741
:103B10008281938154E0959587955A95E1F70C94AD
:103B2000D311EF920F931F93CF93DF93EC01EA85AC
:103B3000288539854E815F816C817D818A819B8159
:103B4000EE23A9F1B4E035952795BA95E1F714E095
:103B5000559547951A95E1F704E0759567950A958F
:103B6000E1F734E0959587953A95E1F70E94D311F6
:103B70000885198544E0159507954A95E1F72E814A
:103B80003F8154E0359527955A95E1F74D8588E0BA
:103B90004802A00111244752544F6C817D81E4E01A
:103BA00075956795EA95E1F78A819B8118C089012F
:103BB000E4E015950795EA95E1F79A01F4E035956B
:103BC0002795FA95E1F74D85E8E04E02A001112412
:103BD0004752544FA4E075956795AA95E1F7EE24F6
:103BE000E39434E0959587953A95E1F70E944B145C
:103BF000DF91CF911F910F91EF9008950F931F9335
:103C0000CF938C010E9434111092C8061092C706FF
:103C10001092C6061092C50620E030E044E050E065
:103C200060E070E080E090E00E944E1124E030E01F
:103C300040E050E060E070E080E090E00E944E11D3
:103C400020E030E04FE750E060E070E08BE790E08C
:103C50000E944E1124E030E04FE750E060E070E059
:103C60008FE790E00E944E112FE330E04FE750E0E5
:103C70006BE370E08FE790E00E944E112FE330E09D
:103C80004FE750E06FE370E08BE790E00E944E1149
:103C90002FE330E040E050E06BE370E080E090E044
:103CA0000E944E112FE330E044E050E06FE370E0FB
:103CB00080E090E00E944E11C0E0F8018281C817B8
:103CC00090F4F801EC0FF11DEC0FF11D848195814A
:103CD000009739F0DC01ED91FC910280F381E02D39
:103CE0000995CF5FEACFC0E0F8018381C817A0F43F
:103CF000EC2FF0E0B296EE0FFF1FE00FF11F808176
:103D00009181009739F0DC01ED91FC910280F38103
:103D1000E02D0995CF5FE8CFCF911F910F910895C6
:103D20003FB7F8948091450790914607A0914707C7
:103D3000B091480726B5A89B05C02F3F19F0019602
:103D4000A11DB11D3FBFBA2FA92F982F8827820F21
:103D5000911DA11DB11DBC01CD0142E0660F771F71
:103D6000881F991F4A95D1F7089540912D075091CA
:103D70002E0720912B0730912C0742175307B4F4DC
:103D80009091E8009570E1F39091E80092FD19C0E0
:103D90008093F10080912D0790912E0701968F73EB
:103DA0009927892B19F48EEF8093E80080912D07D5
:103DB00090912E07019690932E0780932D0781E016
:103DC000089580E00895615030F02091F100FC01E9
:103DD00020830196F8CF289884E6809336020895D0
:103DE0008F929F92AF92BF92CF92DF92EF92FF920B
:103DF0006B017C010E94901E4B015C01C114D10437
:103E0000E104F104F1F00E94901EDC01CB0188195D
:103E10009909AA09BB09883E9340A105B10570F331
:103E200021E0C21AD108E108F10888EE880E83E08B
:103E3000981EA11CB11CC114D104E104F10419F7AE
:103E4000DDCFFF90EF90DF90CF90BF90AF909F902D
:103E50008F9008951F920F920FB60F9211242F93F7
:103E60003F938F939F93AF93BF938091400790911F
:103E70004107A0914207B09143073091440723E0E6
:103E8000230F2D3720F40196A11DB11D05C026E892
:103E9000230F0296A11DB11D209344078093400774
:103EA00090934107A0934207B09343078091450741
:103EB00090914607A0914707B09148070196A11D30
:103EC000B11D8093450790934607A0934707B09391
:103ED0004807BF91AF919F918F913F912F910F9084
:103EE0000FBE0F901F9018951092D9061092D80609
:103EF00088EE93E0A0E0B0E08093DA069093DB06D2
:103F0000A093DC06B093DD068AED91E09093D7068E
:103F10008093D6068FEF9FEF9093E3068093E2069F
:103F20001092B2061092B1061092B8061092B9061D
:103F300020E12093BA069093B7068093B6061092BC
:103F4000BF061092C0061092C1061092C2061092CF
:103F5000C30684EF91E09093B0068093AF068EEF96
:103F600091E09093B4068093B3061092C606109227
:103F7000C5061092C8061092C70681E08093C90654
:103F80001092CA068093CB061092CC0681EE9EE07A
:103F9000909327078093260780E090E8909345064A
:103FA0008093440646983E9A47983F9A8EE092E066
:103FB0009093AD068093AC068AEE91E090934B0609
:103FC00080934A0680E280934C0688E080934D06F9
:103FD000EEE4F6E01192119286E0EE38F807D1F7A0
:103FE000EEE8F6E01192119286E0EE39F807D1F78B
:103FF00084E092E0909347068093460608950F93DD
:104000001F93CF93DF938C0181E090E00E945224B4
:1040100080FF31C08AE090E00E9452249FEF980F09
:104020009E3F48F522E330E0D80157963C932E930B
:10403000569728E330E059963C932E935897CBE05F
:10404000D0E0D801ED91FC910190F081E02D682F36
:10405000C8010995CE010E9452242196C131D10593
:1040600081F70E94CC1288EE93E0DF91CF911F91EF
:104070000F910C941814DF91CF911F910F91089517
:1040800004970C94FF1F789484B5826084BD84B536
:10409000816084BD85B5826085BD85B5816085BD43
:1040A00080916E00816080936E00109281008091FB
:1040B0008100826080938100809181008160809383
:1040C00081008091800081608093800080919100C8
:1040D0008260809391008091910081608093910033
:1040E000809190008160809390008091C1008460F5
:1040F0008093C1008091C10082608093C100809153
:10410000C10081608093C1008091C3008160809371
:10411000C3008091C00082608093C0008091C20083
:1041200081608093C20080917A00846080937A00DD
:1041300080917A00826080937A0080917A00816019
:1041400080937A0080917A00806880937A00109240
:10415000370210923007109231078091D7008160AA
:104160008093D70080EA8093D80089B5806189BDAB
:1041700089B5826089BD09B400FEFDCF61E070E0C1
:1041800080E090E00E94F01E8091D8008F7C8061DA
:104190008093D8008091E000807F8093E000809140
:1041A000E1008E7E8093E1008DE08093E200559ADD
:1041B000209AEEEFFFE7859194918B3F9C4D19F487
:1041C00081E080932F0781EC80937C0085B1806F24
:1041D00085B9249884B1866E84B95E9A5F988AB155
:1041E000806D8AB9769A6E9881B3806F81BB899809
:1041F00080B38D7080BB80E58CBD81E08DBD85E096
:1042000090E00E9418145F9A85E090E00E941814D4
:104210005E985C98C5EADCE01C2F135FFE01849178
:104220000E94451421961C13F9CF5C9A81E8809373
:10423000640081E080936500C0E0D4E080E00E94EB
:1042400045142197D9F70E941D1487FF1FC05C9861
:1042500085EA0E9445145C9A2E982F982D9880919B
:1042600064008062809364000E943A14FDCF2D9810
:104270000E941D148478843871F00E941D1484718A
:10428000843131F188EC90E00E9418140E941D14D2
:1042900082FDEDCF3AC00E94161488EC90E00E9497
:1042A00018142F9882E090E00E9452248F3F29F04A
:1042B0006FEF82E090E00E945A2484EF91E00E9428
:1042C00018142F9A0E941D1484788438D9F3D5CFFE
:1042D0000E94161488EC90E00E9418142E9882E038
:1042E00090E00E945224882329F060E082E090E070
:1042F0000E945A2484EF91E00E9418142E9A0E9482
:104300001D1484718431D9F3BDCF0E94161482E04C
:1043100090E00E945224882331F03E9A3F9A81E037
:104320008093300204C0109230023E983F982E983D
:10433000CEEEDFEF0E941D1486FF04C02E9A2F9A46
:104340002D9A3BC0CC3F2FEFD20719F42E9A2F980D
:1043500005C0C831D10511F42F9A2D980E9434114F
:10436000EE24E39400E128E545EF5BE0BE0184E143
:1043700090E00E944B140E94CC128BE190E00E94CE
:104380001814C03F8FEFD80721F48AEF90E00E9405
:1043900018142196C931D10569F68CEB92E00E9480
:1043A00018140E941614E091B306F091B40601901F
:1043B000F081E02D83EB96E0099582E390E00E9486
:1043C00018140E941D148111F8CF80E18093BA0661
:1043D000809128078093AE068AE496E00E940B0B3A
:1043E00084E690E09093490680934806109228074F
:1043F0008CEA96E090932A0780932907C0E0D0E0EA
:104400009924939406E416E022E0E22E21E0F22EB5
:1044100030E0C32E31E0D32E5C012FB7F8948091A9
:10442000400790914107A0914207B09143072FBFE9
:104430004091BF065091C0066091C1067091C206BE
:104440002091C306222341F02091BB06821B80935A
:10445000C4061092C30683C084179507A607B70742
:1044600038F4481B423008F47AC00E943A1477C0EE
:104470009092C3068093BB069093BC06A093BD06A2
:10448000B093BE062091BA06820F911DA11DB11DE9
:104490008093BF069093C006A093C106B093C20656
:1044A0008091B6069091B70601969093B7068093D7
:1044B000B6068091B8068093B9060E941D148093B9
:1044C000B8068091290790912A07DC01ED91FC91B3
:1044D0000280F381E02D09953C018091290790919C
:1044E0002A07DC01ED91FC910480F581E02D09950E
:1044F0000E94CC12B2E06B167104F9F08CF46114D6
:10450000710401F16A94672851F58AE496E00E94EB
:104510000B0B8AE496E090932A07809329071FC02B
:1045200023E062167104B9F084E068167104B9F4EE
:10453000D0922A07C092290712C010932A0700932D
:1045400029070DC0809128078093AE06B0922A07F4
:10455000A092290704C0F0922A07E0922907209729
:1045600009F45BCF0E94000058CFCF92DF92EF9208
:10457000FF920F931F93CF93DF931F92CDB7DEB7B8
:10458000182F062FE42E862F880F8E5F99830E94A6
:10459000B51E83E00E94B51EF12EC12E9981D92E41
:1045A0008C2D8F19801798F4F601E7FE02C08491D4
:1045B00001C080810E94B51E182F80E00E94B51EA8
:1045C0008123FFEFCF1ADF0A8111EACF01C081E01A
:1045D0000F90DF91CF911F910F91FF90EF90DF909F
:1045E000CF90089597FB072E16F4009407D077FD1F
:1045F00009D00E940C2307FC05D03EF490958195CC
:104600009F4F0895709561957F4F0895EE0FFF1F9E
:104610000590F491E02D0994AA1BBB1B51E107C042
:10462000AA1FBB1FA617B70710F0A61BB70B881F42
:10463000991F5A95A9F780959095BC01CD010895D1
:10464000CF93DF938230910510F482E090E0E09107
:104650004B07F0914C0720E030E0C0E0D0E030970D
:1046600011F14081518148175907C0F04817590787
:1046700061F482819381209719F09B838A832BC0F8
:1046800090934C0780934B0726C02115310519F0F4
:104690004217530718F49A01BE01DF01EF010280AF
:1046A000F381E02DDCCF2115310509F1281B390BF1
:1046B0002430310590F412968D919C9113976115D9
:1046C000710521F0FB019383828304C090934C0712
:1046D00080934B07FD01329644C0FD01E20FF31FAA
:1046E00081939193225031092D933C933AC02091AC
:1046F000490730914A07232B41F420911201309150
:10470000130130934A0720934907209110013091FB
:1047100011012115310541F42DB73EB74091140127
:1047200050911501241B350BE0914907F0914A0780
:10473000E217F307A0F42E1B3F0B2817390778F078
:10474000AC014E5F5F4F2417350748F04E0F5F1FD7
:1047500050934A07409349078193919302C0E0E048
:10476000F0E0CF01DF91CF9108950F931F93CF9386
:10477000DF93009709F48CC0FC01329713821282F8
:1047800000914B0710914C070115110581F4208110
:104790003181820F931F2091490730914A072817D2
:1047A000390779F5F0934A07E093490771C0D801BA
:1047B00040E050E0AE17BF0750F412962D913C91A7
:1047C0001397AD012115310509F1D901F3CF9D01F1
:1047D000DA013383228360817181860F971F8217EC
:1047E000930769F4EC0128813981260F371F2E5F6A
:1047F0003F4F318320838A819B8193838283452B22
:1048000029F4F0934C07E0934B0742C01396FC93B6
:10481000EE931297ED01499159919E01240F351F96
:10482000E217F30771F480819181840F951F02963E
:1048300011969C938E938281938113969C938E9371
:104840001297E0E0F0E0D80112968D919C911397B9
:10485000009719F0F8018C01F6CF8D919C91980189
:104860002E5F3F4F820F931F2091490730914A07D7
:104870002817390769F4309729F410924C071092E1
:104880004B0702C01382128210934A070093490714
:10489000DF91CF911F910F91089581E090E0F894FE
:1048A0000C94B824F999FECF92BD81BDF89A99274E
:1048B00080B50895262FF999FECF1FBA92BD81BD0C
:1048C00020BD0FB6F894FA9AF99A0FBE0196089592
:1048D000052E97FB1EF400940E947F2457FD07D0FD
:1048E0000E94872407FC03D04EF40C947F2450953B
:1048F0004095309521953F4F4F4F5F4F08959095CC
:104900008095709561957F4F8F4F9F4F0895A1E2DD
:104910001A2EAA1BBB1BFD010DC0AA1FBB1FEE1F39
:10492000FF1FA217B307E407F50720F0A21BB30B84
:10493000E40BF50B661F771F881F991F1A9469F700
:1049400060957095809590959B01AC01BD01CF015C
:104950000895A29FB001B39FC001A39F700D811D58
:104960001124911DB29F700D811D1124911D089578
:04497000F894FFCFE9
:1049740018022202FFFFFFFF00E100000000000018
:1049840000004D0780000100000000000000191B1A
:10499400261B20081F08220821081E08111BCE0709
:1049A400121B00000000101B3E1CE91A9F0822087D
:1049B4002108591D341DCE0700000000CC07410E0C
:1049C400A5079F082208210887085A08CE07000077
:1049D4000000331B631C20081F08220821081E083E
:1049E400111BCE07121B00000000C41ACF1C2008A4
:1049F4001F08A11A821A1E08111BCE07A41A000050
:104A04000000761A7F1C20081F082E1AB61B5B1A9A
:104A1400401ACE07121B00000000191B721D20084B
:104A24001F08220821081E08111BCE07121B0000B4
:104A34000000271B911D20081F08220821081E08BA
:104A4400111BCE07121B00000000FA1535161B16A9
:104A5400C116DF161016000000000B0BFE08FE1D29
:104A640000000000F60FB815FF1FFCFF00004020F7
:104A740000000000E21AD01AEE1C00000000291AFF
:104A8400841B4E1B00000000E81AAB1B3F1B0000F8
:104A94000000CD07EE08670E00C180810000000011
:00000001FF
