:100000000C9489030C94B1030C94B1030C94B103C8
:100010000C94B1030C94B1030C94B1030C94B10390
:100020000C94B1030C94B1030C949E0E0C94100F1D
:100030000C94B1030C94B1030C94B1030C94B10370
:100040000C94B1030C94B1030C94B1030C94B10360
:100050000C94B1030C94B1030C94B1030C942C15C3
:100060000C94B1030C94B1030C94B1030C94B10340
:100070000C94B1030C94B1030C94B1030C94B10330
:100080000C947F130C94B1030C94B1030C94B10342
:100090000C94B1030C94B1030C94B1030C94B10310
:1000A0000C94B1030C94B1030C94B10347414D453A
:1000B0000062792040696E615F616E6900504F494E
:1000C00054544F00F0F89C8E8783878E9CF8F00084
:1000D00000FEFF0303030303070EFCF80000FEFF0E
:1000E0000303030303070EFCF80000FFFF000000FA
:1000F00000000000FFFF0000FEFF8383838383C7AF
:10010000EE7C380000F8FC0E07030303070EFCF832
:1001100000003F7FE0C08080C0E07F3FFFFF010123
:100120000101010101FFFF0000FFFF0C0C0C0C1C82
:100130003E77E3C100007FFFC0C0C0C0C0E0703F99
:100140001F00001F3F70E0C0C0C0E0703F1F0000F4
:100150007FFFC1C1C1C1C1E3773E1C00001F3F70DA
:10016000E0C0C0C0E0703F1F000000000001FFFFC2
:1001700001000000D5F08D14A1C881CFD9F1AF20C6
:1001800000080B0002020201000904000001020243
:1001900000000524001001052401010104240206C9
:1001A0000524060001070581031000400904010031
:1001B000020A000000070502024000000705830252
:1001C0004000000403090441726475696E6F204C9D
:1001D0004C430041726475696E6F204C656F6E61AF
:1001E00072646F001201000200000040412336805B
:1001F00000010102030112010002EF02014041234C
:10020000368000010102030100000000003E5B4F48
:100210005B3E3E6B4F6B3E1C3E7C3E1C183C7E3C66
:10022000181C577D571C1C5E7F5E1C00183C180074
:10023000FFE7C3E7FF0018241800FFE7DBE7FF3004
:10024000483A060E2629792926407F050507407F72
:1002500005253F5A3CE73C5A7F3E1C1C08081C1CE5
:100260003E7F14227F22145F5F005F5F06097F01DB
:100270007F006689956A606060606094A2FFA294C6
:1002800008047E040810207E201008082A1C080894
:100290001C2A08081E101010100C1E0C1E0C3038E2
:1002A0003E3830060E3E0E06000000000000005FE3
:1002B00000000007000700147F147F14242A7F2AFF
:1002C00012231308646236495620500008070300C1
:1002D000001C2241000041221C002A1C7F1C2A080D
:1002E000083E080800807030000808080808000070
:1002F00060600020100804023E5149453E00427FE4
:10030000400072494949462141494D331814127F32
:100310001027454545393C4A4949314121110907D2
:100320003649494936464949291E00001400000053
:100330004034000000081422411414141414004125
:1003400022140802015909063E415D594E7C1211E2
:10035000127C7F494949363E414141227F4141411A
:100360003E7F494949417F090909013E4141517395
:100370007F0808087F00417F41002040413F017F06
:10038000081422417F404040407F021C027F7F04CE
:1003900008107F3E4141413E7F090909063E415117
:1003A000215E7F09192946264949493203017F0107
:1003B000033F4040403F1F2040201F3F4038403F08
:1003C000631408146303047804036159494D43001E
:1003D0007F4141410204081020004141417F040255
:1003E00001020440404040400003070800205454EC
:1003F00078407F28444438384444442838444428CA
:100400007F385454541800087E090218A4A49C781C
:100410007F0804047800447D40002040403D007F78
:100420001028440000417F40007C047804787C0858
:100430000404783844444438FC182424181824242C
:1004400018FC7C08040408485454542404043F4411
:10045000243C4040207C1C2040201C3C4030403C40
:1004600044281028444C9090907C4464544C4400A0
:100470000836410000007700000041360800020104
:100480000204023C2623263C1EA1A161123A4040F0
:10049000207A38545455592155557941215454786E
:1004A00041215554784020545579400C1E52721207
:1004B000395555555939545454593955545458008F
:1004C00000457C410002457D420001457C40F02909
:1004D0002429F0F0282528F07C5455450020545458
:1004E0007C547C0A097F493249494932324848489C
:1004F00032324A4848303A4141217A3A42402078E3
:10050000009DA0A07D39444444393D4040403D3CDD
:1005100024FF2424487E4943662B2FFC2F2BFF0900
:1005200029F620C0887E09032054547941000044F4
:100530007D413048484A32384040227A007A0A0ADF
:10054000727D0D19317D2629292F28262929292652
:1005500030484D4020380808080808080808382F97
:1005600010C8ACBA2F102834FA00007B0000081421
:100570002A142222142A14089500220095AA005554
:1005800000AAAA55AA55AA000000FF00101010FFEB
:1005900000141414FF001010FF00FF1010F010F0F2
:1005A000141414FC001414F700FF0000FF00FF14E3
:1005B00014F404FC141417101F10101F101F14142F
:1005C000141F00101010F0000000001F1010101079
:1005D0001F10101010F010000000FF10101010106D
:1005E00010101010FF10000000FF140000FF00FFAB
:1005F00000001F10170000FC04F414141710171447
:1006000014F404F40000FF00F71414141414141468
:10061000F700F7141414171410101F101F141414DB
:10062000F4141010F010F000001F101F0000001F45
:1006300014000000FC140000F010F01010FF10FF78
:10064000141414FF141010101F00000000F010FF0D
:10065000FFFFFFFFF0F0F0F0F0FFFFFF00000000F1
:1006600000FFFF0F0F0F0F0F38444438447C2A2A35
:100670003E147E02020606027E027E026355494156
:10068000633844443C04407E201E2006027E020261
:1006900099A5E7A5991C2A492A1C4C7201724C3075
:1006A0004A4D4D303048784830BC625A463D3E494C
:1006B0004949007E0101017E2A2A2A2A2A44445FF0
:1006C000444440514A444040444A51400000FF01E4
:1006D00003E080FF000008086B6B083612362436F2
:1006E000060F090F06000018180000001010003057
:1006F00040FF0101001F01011E00191D1712003CDF
:100700003C3C3C0000000000010204081020408036
:100710009E1811241FBECFEFDAE0DEBFCDBF27E069
:10072000A6EDB1E001C01D92A031B207E1F711E0E2
:10073000A0E0B1E0ECE4F6E302C005900D92A63D26
:10074000B107D9F713E0C9E8D3E004C02197FE014F
:100750000E941719C838D107C9F70E9476150C9462
:10076000241B0C940000CF92DF92EF92FF920F9324
:100770001F93CF93DF936C017A018B01C0E0D0E02F
:10078000CE15DF0589F0D8016D918D01D601ED916F
:10079000FC910190F081E02DC6010995892B11F49F
:1007A0007E0102C02196ECCFC701DF91CF911F914E
:1007B0000F91FF90EF90DF90CF9008950895EF9202
:1007C000FF920F931F93CF93DF93FC01968D858942
:1007D000891718F1981325C080E050E0BF01635FCE
:1007E0007F4F8917C1F0DB0140E09F01280F311DC9
:1007F000280F311D2A5E3F4F491759F0ED90FD90AB
:10080000E901088119810E151F0509F051E04F5FBC
:10081000F3CF8F5FE6CF552321F0938581E08927C1
:100820008387DF91CF911F910F91FF90EF900895F3
:10083000FC01968DDF011D9680E0891741F0199625
:100840002D913C911A972D933D938F5FF6CF858B19
:10085000168E0895DC015E968C915E97FD0176966A
:1008600090E0981739F0219131912617370761F000
:100870009F5FF7CFFD01E90FF11DE90FF11D778BA8
:10088000668B9F5F5E969C930895DC015E968C91CB
:100890005E97FD01769690E0981739F0219131919D
:1008A0002617370761F09F5FF7CFFD01E90FF11DB4
:1008B000E90FF11D778B668B9F5F5E969C93089581
:1008C000FC01138212821582148288E090E09783E3
:1008D00086839187808708950895FC011382128290
:1008E0001582148288E090E09783868391878087C1
:1008F0000895FC01138212821582148288E090E030
:1009000097838683918780870895FC01329690E0D3
:1009100021913191232B29F09F5F9032C9F78FEFFE
:100920000895892F0895AF92BF92CF92DF92EF92F0
:10093000FF921F93CF93DF937B016A01EC015C016F
:1009400080E4A80EB11C10E08A819B810097D1F051
:10095000E816F906B9F0DC01ED91FC910088F18907
:10096000E02DB7010995882369F0C114D10449F03D
:100970008A819B81F601E10FF11DE10FF11D918349
:1009800080831F5F2296CA15DB05F1F6812FDF9168
:10099000CF911F91FF90EF90DF90CF90BF90AF90DD
:1009A00008950895EF92FF920F931F93CF93DF93D3
:1009B000DB0112960D911C911397EC01EA81FB81EA
:1009C00014960D90BC91A02DEB0128853985EC0182
:1009D0004C815D81E884F9848E819F81EB016E8179
:1009E0007F81600F711F8E0F9F1F681779070CF4AE
:1009F000CB01BF01E017F1070CF4B801861B970B80
:100A000018161906B4F4BA016E0D7F1DCD01820FC0
:100A1000931F681779070CF4CB019A014A175B07FB
:100A20000CF49D01FC01E21BF30B81E01E161F0676
:100A30000CF080E0DF91CF911F910F91FF90EF902C
:100A40000895089508950895089508950895FC015E
:100A5000138212821582148288E090E09783868345
:100A600091878087089508950F931F93CF93DF9305
:100A7000EC018B01E881F9810088F189E02D09956D
:100A80008823A1F02D853E85F80184819581121679
:100A900013062CF428853985821B930B05C0F801B9
:100AA00020853185820F931F9D838C83DF91CF91A9
:100AB0001F910F910895CF93DF93EC010E943405AD
:100AC0008D859E85181619060CF41B8A1E861D86B8
:100AD000DF91CF9108950C943405CF93DF93EC010F
:100AE0000E9434058D859E851816190614F481E040
:100AF0008A871E861D86DF91CF9108950F931F93DD
:100B0000CF93DF93EC018B01E881F9810088F189B3
:100B1000E02D09958823A1F02B853C85F801828181
:100B20009381121613062CF42E813F81821B930BA6
:100B300005C0F80126813781820F931F9B838A832A
:100B4000DF91CF911F910F9108950C947E05CF9363
:100B5000DF93EC010E947E058B859C8591958195A4
:100B600091099C878B87DF91CF910895CF93DF9375
:100B7000EC010E947E051C861B86DF91CF910895B3
:100B8000FC018585968521893289280F391FB90195
:100B900037FF04C066277727621B730B613471052A
:100BA0001CF4368725870AC0C90126E0880F991FE3
:100BB0002A95E1F70E94EF187687658724813581B1
:100BC00085859685820F931F958384830895FC0104
:100BD0008385948527853089280F391FB90137FF10
:100BE00004C066277727621B730B613171051CF403
:100BF000348723870AC0C90124E0880F991F2A95EA
:100C0000E1F70E94EF18748763872281338183851F
:100C10009485820F931F93838283089508950E9481
:100C20004A1AEF92FF920F931F93CF93DF93EC0139
:100C30000E941E131092900610928F0610928E063C
:100C400010928D0681E080939106109292068CEAB4
:100C500090E00E94FD127E0182E0E80EF11C8E0100
:100C60000E5B1F4FD7018D919D917D01009739F04B
:100C7000DC01ED91FC910280F381E02D0995E016F5
:100C8000F10681F7CE57DF4FF801819191918F01E5
:100C9000009739F0DC01ED91FC910280F381E02DA9
:100CA00009950C171D0781F7DF91CF911F910F91C7
:100CB000FF90EF900895CF93DF930E941E13C7E734
:100CC000D6E0198E188E1F8A1E8A8DEB90E00E9446
:100CD000FD1280E390E09F8B8E8B86E390E0998FEE
:100CE000888F81EB90E0DF91CF910C94FD12CF9330
:100CF000DF93EC0188E00E942D1381110DC080E884
:100D00000E942D13882329F09A81992311F0915084
:100D10009A8382E090E002C081E090E0DF91CF9181
:100D20000895FC012085318584E0359527958A95C5
:100D3000E1F74681578194E0559547959A95E1F7FB
:100D40006481758134E0759567953A95E1F7828104
:100D5000938154E0959587955A95E1F70C94CF12BD
:100D6000FC012085318584E0359527958A95E1F74A
:100D70004681578194E0559547959A95E1F76481AE
:100D8000758134E0759567953A95E1F78281938195
:100D900054E0959587955A95E1F70C94CF12FC0194
:100DA0002085318584E0359527958A95E1F7468140
:100DB000578194E0559547959A95E1F7648175813F
:100DC00034E0759567953A95E1F78281938154E017
:100DD000959587955A95E1F70C94CF12FC012085E3
:100DE000318584E0359527958A95E1F746815781CD
:100DF00094E0559547959A95E1F76481758134E0C3
:100E0000759567953A95E1F78281938154E09595C0
:100E100087955A95E1F70C94CF12FC012085318516
:100E200084E0359527958A95E1F74681578194E0CE
:100E3000559547959A95E1F76481758134E07595EC
:100E400067953A95E1F78281938154E0959587956E
:100E50005A95E1F70C94CF12BF92CF92DF92EF92A6
:100E6000FF920F931F93CF93DF93EC01EB852885BF
:100E700039854E815F816C817D818A819B81F4E01F
:100E800035952795FA95E1F7EE2309F440C0B22E87
:100E900004E0559547950A95E1F78B0124E01595F7
:100EA00007952A95E1F77C0134E0F594E7943A95AB
:100EB000E1F76701C40ED11CEC14FD044CF44B2D7A
:100EC000B801C7010E94A4128FEFE81AF80AF4CF04
:100ED0008C819D81B4E095958795BA95E1F701964F
:100EE0002A813B8114E0359527951A95E1F72F5F0C
:100EF0003F4F30938E0620938D06909390068093FB
:100F00008F061092910681E0809392062FC034E004
:100F1000559547953A95E1F754E0759567955A953B
:100F2000E1F7E4E095958795EA95E1F70E94CF1205
:100F30008C819D81F4E095958795FA95E1F701966E
:100F40002A813B81A4E035952795AA95E1F72F5F8B
:100F50003F4F30938E0620938D069093900680939A
:100F60008F0681E080939106109292068C85DF9126
:100F7000CF911F910F91FF90EF90DF90CF90BF9096
:100F80000C943813AF92BF92DF92EF92FF920F93BF
:100F90001F93CF93DF93FC01238564817581828148
:100FA0009381222309F44BC0EF0140855185E4E091
:100FB00055954795EA95E1F7D42E2E813F81F4E0CF
:100FC00035952795FA95E1F78B01A4E015950795DE
:100FD000AA95E1F77C01B4E0F594E794BA95E1F7BE
:100FE0005701A20EB11CEA14FB044CF44D2DB801BC
:100FF000C7010E94A4128FEFE81AF80AF4CF8C817F
:101000009D8144E0959587954A95E1F701962A815F
:101010003B8154E0359527955A95E1F72F5F3F4F77
:1010200030938E0620938D069093900680938F06C2
:101030001092910681E0809392068C851BC024E07B
:10104000759567952A95E1F76F5F7F4F34E0959529
:1010500087953A95E1F7019690938E0680938D06D9
:101060007093900660938F0681E0809391061092B2
:1010700092068485DF91CF911F910F91FF90EF90A1
:10108000DF90BF90AF900C943813CF92DF92EF9225
:10109000FF921F93CF93DF93FC014085518584E03D
:1010A000559547958A95E1F7142F8681978124E01D
:1010B000959587952A95E1F7E480F58034E0F594DD
:1010C000E7943A95E1F7C281D38144E0D595C7957D
:1010D0004A95E1F76E01C80ED11CCC15DD053CF434
:1010E000412FB701CE010E94A4122196F6CFDF91C5
:1010F000CF911F91FF90EF90DF90CF9008952F92A6
:101100003F924F925F926F927F928F929F92AF9297
:10111000BF92CF92DF92EF92FF920F931F93CF93E4
:10112000DF93CDB7DEB7C054D1090FB6F894DEBF58
:101130000FBECDBF7C0188E00E942D13882379F07B
:10114000F701EE57FF4F0190F081E02D8389811167
:1011500006C08CED9FEF9687858781E0838B84E0C6
:101160000E942D1397012E5B3F4F6901882309F4DC
:1011700066C0F901A0E081919191892B29F0AF5FC0
:10118000A032C9F71FEF01C01A2F83E190E00E943F
:101190001D19FC01D701AE57BF4F2D913C91D901CC
:1011A00014968D919C91159712964D915C91139781
:1011B000407F5F7053834283807F9F7095838483D9
:1011C00080E490E0978386839187808712861486D7
:1011D000138616861586108A178688E891E0918313
:1011E000808382E090E0928B818BA12FB0E091967A
:1011F000AA0FBB1FAE0DBF1DED93FC93D9015496F2
:101200004C91549712968D919C911397442359F0C9
:1012100016962D913C911797820F931F938382838B
:1012200080E190E006C0805491099383828380EF2F
:101230009FEF948783878CED9FEF968785870E9429
:10124000921486FF0FC0F701EE57FF4F0190F08117
:10125000E02D8385948501969487838781E0848B34
:1012600011E001C010E00E94921485FF0DC0F7014B
:10127000EE57FF4F0190F081E02D83859485019713
:1012800094878387148A0AC0111108C0F701EE57AA
:10129000FF4F0190F081E02D148613865701B2E0D4
:1012A000AB0EB11C36018501F801819191918F013E
:1012B000009739F0DC01ED91FC910084F185E02D7F
:1012C00009950C151D0581F74701B2E88B0E911C9D
:1012D0008601F801819191918F01009739F0DC012D
:1012E000ED91FC910084F185E02D09950815190513
:1012F00081F78601F80180819181009709F47DC012
:10130000DC01ED91FC910480F581E02D0995F80157
:1013100060817181AE014F5F5F4FC7010E949304EE
:10132000282E811117C0D8018D919C91DC01ED917F
:10133000FC910680F781E02D0995F80160817181AB
:10134000AE014F5F5F4FC7010E949304282E8111A9
:1013500025C046C09E012F5F3F4F2901312CD80187
:101360008D919C91DC01ED91FC91D2016D917C916C
:101370000484F585E02D0995F201819191912F0169
:10138000DC01ED91FC91D8016D917C910484F5858F
:10139000E02D099533943210E2CFC5CFFE0131968E
:1013A0002F01312CD8018D919C91DC01ED91FC91A4
:1013B000D2016D917C910684F785E02D0995F201AB
:1013C000819191912F01DC01ED91FC91D8016D91FA
:1013D0007C910684F785E02D099533943210E2CF95
:1013E000F80180819181DC011A962C91222329F049
:1013F0000E94B219F801118210820E5F1F4F08156A
:10140000190509F077CFD5018D919D915D01009768
:1014100039F0DC01ED91FC910284F385E02D099512
:10142000AC14BD0481F7F301819191913F010097C4
:1014300039F0DC01ED91FC910284F385E02D0995F2
:101440006814790481F782E090E0C05CDF4F0FB64A
:10145000F894DEBF0FBECDBFDF91CF911F910F91EA
:10146000FF90EF90DF90CF90BF90AF909F908F90C4
:101470007F906F905F904F903F902F9008952F92A4
:101480003F924F925F926F927F928F929F92AF9214
:10149000BF92CF92DF92EF92FF920F931F93CF9361
:1014A000DF93CDB7DEB727970FB6F894DEBF0FBE38
:1014B000CDBF1C01FC0132968E5B9F4F9A838983BE
:1014C00011921192A981BA81EA17FB07C9F7F101BC
:1014D000EE57FF4FFD83EC83FD01119211928C8139
:1014E0009D81E817F907C9F78BE090E00E941D196C
:1014F0006C01DC0113961C921E92129715961C9299
:101500001E921497A12C58E0B52E1796BC92AE925D
:10151000169760E2E62EF12C1996FC92EE9218973F
:101520001A961C921A9700E311E00D931C93C101C7
:101530000E948504F101E80FF11DE80FF11DD3822F
:10154000C2828BE090E00E941D194C01FC011382C5
:101550001282C12C74E0D72ED582C482B782A682B3
:1015600080E890E091878087128611830083C10113
:101570000E948504F101E80FF11DE80FF11D93822F
:1015800082828BE090E00E941D195C01DC011396C1
:101590001C921E92129715961C921E9214971796E3
:1015A000FC92EE9216971996DC92CE9218971A96A4
:1015B0001C921A970D931C93C1010E948504F1019E
:1015C000E80FF11DE80FF11DB382A2828BE090E0DD
:1015D0000E941D196C0180EE97E0F60193838283CF
:1015E000F582E482F782E68280EE93E0918780873D
:1015F000128611830083C1010E948504F101E80F66
:10160000F11DE80FF11DD382C282F8E0FB83E8E010
:10161000CE2ED12CE12CF12C00E810E00E949D1A76
:101620002B013C010E949D1A4B015C018BE090E074
:101630000E941D199F838E83C301B20120E130E017
:1016400040E050E00E94C11A660F660F660F80E10D
:10165000689FB0011124AE81BF8113967C936E9375
:101660001297C501B401A70196010E94C11A660F25
:10167000660F660FB0E16B9FB0011124EE81FF8110
:10168000758364831783068311870087128680E33E
:1016900091E09183808340E050E0BF01C1010E944E
:1016A000930481110DC0C1010E948504F101E80F6E
:1016B000F11DE80FF11DAE81BF81B383A28304C089
:1016C0008E819F810E94B219BB81B150BB83B11141
:1016D000A5CF18E048E0C42ED12CE12CF12C01E379
:1016E0000E949D1A2B013C010E949D1A4B015C0136
:1016F0008FE190E00E941D199F838E83C301B20188
:1017000020E130E040E050E00E94C11A660F660F11
:10171000660FE0E16E9FB0011124AE81BF81139688
:101720007C936E931297C501B401A70196010E94A4
:10173000C11A660F660F660FB0E16B9FB0011124EE
:10174000EE81FF817583648380E890E097838683D0
:10175000918780871286AAE1B1E0B183A083B1E0CE
:10176000B387158A168E048740E050E0BF01C1019F
:101770000E94930481110DC0C1010E948504F101F2
:10178000E80FF11DE80FF11D8E819F819383828305
:1017900004C08E819F810E94B219115009F0A0CF20
:1017A00010E138E0C32ED12CE12CF12C01E30E9492
:1017B0009D1A2B013C010E949D1A4B015C018DE09A
:1017C00090E00E941D199F838E83C301B20120E126
:1017D00030E040E050E00E94C11A660F660F660FCD
:1017E00090E1699FB0011124AE81BF8113967C9373
:1017F0006E931297C501B401A70196010E94C11A08
:10180000660F660F660FB0E16B9FB0011124EE8189
:10181000FF817583648380E890E097838683918756
:1018200080871286A6E4B1E0B183A083B1E0B387DC
:10183000048740E050E0BF01C1010E949304811180
:101840000DC0C1010E948504F101E80FF11DE80FF0
:10185000F11D8E819F819383828304C08E819F813D
:101860000E94B219115009F0A2CF15E028E0C22E53
:10187000D12CE12CF12C01E00E949D1A2B013C019E
:101880000E949D1A4B015C0185E190E00E941D19A8
:101890009F838E83C301B20120E130E040E050E03D
:1018A0000E94C11A660F660F660F90E1699FB00132
:1018B0001124AE81BF8113967C936E931297C5015C
:1018C000B401A70196010E94C11A660F660F660F48
:1018D000B0E16B9FB0011124EE81FF8175836483B9
:1018E00080E890E0978386839187808712861686AA
:1018F0001586108A1786128A118AACE5B1E0B18389
:10190000A083138A048B80E190E094878387A98168
:10191000BA81E0E08D919D91892B21F0EF5FE0325B
:10192000C9F7EFEFF0E0B196EE0FFF1FE20DF31DE8
:10193000AE81BF81B183A083115009F09DCF20E01B
:10194000E981FA8181919191FA83E983892B29F0C8
:101950002F5F2032A9F71FEF01C0122F85E190E021
:101960000E941D19FC0180E092E09383828395839D
:10197000848380E490E097838683918780871286B2
:101980001486138616861586108A178682E791E0DC
:1019900091838083138A81E0848BAC81BD81ED9338
:1019A000FC93212F30E02F5D3F4F220F331FD101D9
:1019B000A20FB31FED93FC9382E090E0928B818B9A
:1019C00027960FB6F894DEBF0FBECDBFDF91CF9143
:1019D0001F910F91FF90EF90DF90CF90BF90AF904D
:1019E0009F908F907F906F905F904F903F902F903F
:1019F000089508958091E50181110DC082E08093E2
:101A0000E10184E08093E2011092E4011092E3018D
:101A100081E08093E50181EE91E00895CF93DF931B
:101A20001F92CDB7DEB76983DC01ED91FC91028096
:101A3000F381E02D41E050E0BE016F5F7F4F0995DB
:101A40000F90DF91CF91089583E08093E90080911A
:101A5000F200882319F08AE38093E8000895FC01DE
:101A60008485958597FD0BC09FB7F89482E080939D
:101A7000E9008091F2009FBF90E0019608959FB722
:101A8000F89482E08093E9008091F2009FBF90E09B
:101A900008954091DE015091DF012091DC013091E9
:101AA000DD0142175307B4F49091E8009570E1F31B
:101AB0009091E80092FD19C08093F1008091DE01C1
:101AC0009091DF0101968F739927892B19F48EEF7E
:101AD0008093E8008091DE019091DF010196909360
:101AE000DF018093DE0181E0089580E00895DF92B8
:101AF000EF92FF920F931F93CF93DF93D82E8A011B
:101B00007B01E40EF51EEB01CE15DF0571F0D7FE6B
:101B100003C0FE01849101C088810E94490D219675
:101B20008111F2CF8FEF9FEF01C0C801DF91CF91FC
:101B30001F910F91FF90EF90DF9008950F931F93E7
:101B4000CF93DF931F92CDB7DEB782E0898342E463
:101B500050E061E871E080E80E94770D0E94FA0C85
:101B6000DC0112960D911C9113970115110569F076
:101B7000D801ED91FC910280F381E02DBE016F5FF1
:101B80007F4FC801099597FF07C089810F90DF91AA
:101B9000CF911F910F910895F80100851185E5CF30
:101BA0008F929F92AF92BF92CF92DF92EF92FF926D
:101BB0000F931F93CF93DF935C016B018A01809198
:101BC0000B01882309F45EC08091EF01882309F49A
:101BD00059C08091DA0180FF05C08091E0008260E9
:101BE0008093E000E8018AEFF82E93E0E92E2FE3DE
:101BF000822E3AE3932E209709F43DC08FB7F894D4
:101C0000E092E9009091E80095FF06C09091F20003
:101C1000282D291B922F01C090E08FBF91110AC07F
:101C2000FA94FF2079F161E070E080E090E00E949A
:101C3000F214E1CF292F30E0C217D3070CF49C2F08
:101C40008FB7F894E092E9002091E80025FF11C0D9
:101C5000292F30E0C21BD30BF601915020F04191A7
:101C60004093F100FACFC20ED31E9091E80095FF89
:101C700013C08FBFC0CF5D9884E68093E00110163B
:101C8000110644F081E090E0F5019383828380E0C7
:101C900090E005C0C80103C09092E800EACFDF9150
:101CA000CF911F910F91FF90EF90DF90CF90BF9059
:101CB000AF909F908F900895CF93DF931F92CDB7F1
:101CC000DEB7FC018485958597FD05C02FEF3FEFBA
:101CD000358724870BC0CE0101960E9455130197CA
:101CE00019F4898190E002C08FEF9FEF0F90DF9190
:101CF000CF9108950F931F93CF93DF931F92CDB78A
:101D0000DEB78C01FC018485958597FF0EC0CE015E
:101D100001960E945513019719F4298130E002C001
:101D20002FEF3FEFF80135872487F80184859585EB
:101D30000F90DF91CF911F910F9108951F920F92F5
:101D40000FB60F9211248F939F938091E100909191
:101D5000E100937F9093E10083FF0FC01092E900B0
:101D600091E09093EB001092EC0092E39093ED00E1
:101D70001092EF0198E09093F00082FF20C093E072
:101D80009093E9009091F200992319F09AE39093CF
:101D9000E8009091E001992339F09091E001915091
:101DA0009093E001992389F19091EE01992339F004
:101DB0009091EE0191509093EE01992341F184FFAF
:101DC00010C08091E2008E7E81608093E20080915D
:101DD000E1008F7E8093E1008091DA018E7E806148
:101DE00011C080FF16C08091E2008E7E80618093DA
:101DF000E2008091E1008E7E8093E1008091DA0123
:101E00008E7E81608093DA0104C05D9ACDCF289ADE
:101E1000D6CF9F918F910F900FBE0F901F90189566
:101E20001F920F920FB60F921124CF92DF92EF9272
:101E3000FF920F931F932F933F934F935F936F9353
:101E40007F938F939F93AF93BF93EF93FF93CF9322
:101E5000DF93CDB7DEB76C97DEBFCDBF1092E90040
:101E60008091E80083FFFAC168E0CE0145960E94A8
:101E7000E51482EF8093E8008D8987FF05C090917B
:101E8000E80090FFFCCF03C09EEF9093E800982FEE
:101E9000907609F0C6C09E892F89188D91110CC0CB
:101EA000803829F48091D9018093F10002C010920A
:101EB000F1001092F10047C1422F50E0512B9130B8
:101EC00051F4811140C14130510509F03CC180916C
:101ED000D9018D7F0BC0933061F4811134C1413041
:101EE000510509F030C18091D90182608093D901F8
:101EF0002AC1953041F48091E80080FFFCCF206832
:101F00002093E30020C1963009F05FC0EB8CFC8C7D
:101F10001092E9001092DF011092DE01123091F56B
:101F20001092DD011092DC010E949E0D99E0BE012D
:101F30006F5F7F4FDB01E92F1D92EA95E9F79983E7
:101F40001A8391E09E8390EA98879AEF998720916F
:101F5000DE013091DF01275F3F4F3C832B838D8370
:101F60001092E9001092DF011092DE01F092DD0183
:101F7000E092DC0149E050E080E00E94770D0E9491
:101F80009E0DE1C0F092DD01E092DC010E94FA0CAE
:101F9000DC011296ED90FC901397E114F10409F422
:101FA000C0C0D701ED91FC910480F581E02DBE0108
:101FB0006B5E7F4FC7010995009719F00CF0C3C005
:101FC000C6C0F701E084F184E8CF973009F4BFC0C0
:101FD000983021F481E08093F100B5C0993009F088
:101FE000B2C0837009F0B3C0EBE9F1E081E021E019
:101FF00036E39081992361F08093E9002093EB0010
:1020000091919093EC003093ED008F5F873089F7CA
:102010008EE78093EA001092EA008F898093EF01A7
:1020200092C08B8D9C8D1092E9001092DF0110926E
:10203000DE019093DD018093DC01898D811156C012
:102040008E899D89913A59F4813209F080C047E028
:1020500050E064E071E080E00E94770D74C091323E
:1020600009F075C0833289F4888D90E0982F882715
:102070002F89822BA0E0B0E08093000190930101B2
:10208000A0930201B09303015EC0803269F4809195
:10209000E80082FFFCCF67E084E091E00E94E51455
:1020A0008BEF8093E80006C0823209F04CC08F8924
:1020B00080930B018091D801882319F0EEEFFAE0AC
:1020C00002C0E0E0F8E08091040190910501A09148
:1020D0000601B0910701803B9440A105B10509F0CC
:1020E00088C080910B0180FFA0C083C00E94FA0CC1
:1020F000DC0112960D911C9113970115110539F110
:10210000D801ED91FC910190F081E02DBE016B5E54
:102110007F4FC8010995811116C0F801008511850E
:10212000ECCF1130C1F0133091F48F89882309F47A
:1021300055C08230E9F440E860E183ED91E00E940F
:102140001D18882321F08EEF8093E80087C081E27C
:102150008093EB0083C08B8D9C8D089711F41093B6
:10216000DB018091DB01811136C064EE71E038C083
:10217000813029F440E86BE087EC91E0E0CF8330D8
:1021800031F70E94FA0CDC011296ED90FC90139747
:102190008E010F5F1F4F6801E114F10479F0D70140
:1021A000ED91FC910680F781E02DB801C7010995FA
:1021B000080F111DF701E084F184EECFD8011C92C5
:1021C000F60101900020E9F73197BF016C197D09F4
:1021D00040E0C601B4CF66EF71E002C063EC71E08D
:1021E0006115710509F4B3CFFB01449150E080E81B
:1021F00033CF0FB6F894A8958091600088618093E2
:102200006000109260000FBEA895EE3F2AE0F20732
:1022100039F08091FE0A9091FF0A9183808393CFD9
:102220001092FF0A1092FE0A8ECFEE3F8AE0F80766
:1022300031F0808191819093FF0A8093FE0A87E7B5
:1022400097E7918380839BE088E10FB6F894A89587
:10225000809360000FBE9093600075CF6C960FB6B0
:10226000F894DEBF0FBECDBFDF91CF91FF91EF910C
:10227000BF91AF919F918F917F916F915F914F919E
:102280003F912F911F910F91FF90EF90DF90CF9092
:102290000F900FBE0F901F9018958091ED0108953B
:1022A0009C01240F311D1216130674F58038910518
:1022B0005CF5FC0197FF02C0E0E0F0E02138310559
:1022C00014F020E830E02E1BAB014770552781E069
:1022D00001C0880F4A95EAF777FF02C0695F7F4F18
:1022E00093E0759567959A95E1F77695762F662731
:1022F00077956795E60FF71FE051FE4F215020F0CC
:102300009081982B9193FACF089580919506E09152
:102310009806F0919906882349F0CF010296909390
:10232000990680939806859194910895CF0102961D
:102330009093990680939806808191810895E8E0B2
:10234000F7E090E1969FD001A0781124A80F677064
:10235000E60FF11D8491A051BE4F442321F0EC9172
:10236000E82BEC930895E82FE0958C918E238C93C5
:1023700008952F923F924F925F926F927F928F9229
:102380009F92AF92BF92CF92DF92EF92FF920F9304
:102390001F93CF93DF93CDB7DEB727970FB6F8948F
:1023A000DEBF0FBECDBFFC016A3069F4248D808D85
:1023B000918D38E0239F800D911D1124918F808F86
:1023C000178A168AA6C06D3009F4A3C09F838E8336
:1023D000348C238D2983328D3A83608C718CE6880E
:1023E000F78880E8E816F104C4F0AE81BF815C96FE
:1023F0002C915C97422F50E056968D919C91579767
:10240000B6E02B9F800D911D1124EE81FF81978BEB
:10241000868B258D211167C07CC0F0E46F16710496
:1024200024F7C70125E0329E800D911D1124181656
:102430001906DCF6432C512CC30138E0339E800D85
:10244000911D11241816190684F685E0689F8001F5
:102450001124085F1D4F20E0F8012490253009F475
:10246000212C430158E020FC02C0398101C03A818F
:1024700031110BC0F9818A81F81307C0269451509D
:10248000840C951C5111EFCF25C067018C2D8E193E
:102490008315A0F754018A2D88198315B8F490E8A4
:1024A000C916D10478F4A0E4AA16B10458F4432F55
:1024B000B501C6012C833B835D830E949F115D8122
:1024C0003B812C81BFEFAB1ABB0AE5CFEFEFCE1AF1
:1024D000DE0ADCCF2F5FE40CF51C0F5F1F4F2630A8
:1024E00009F0BACF82CF6AEF64039001659F300D87
:1024F000112420583F4F281739075CF4AE81BF8163
:10250000ED91FC9111970190F081E02D6AE0CD01F1
:10251000099581E090E027960FB6F894DEBF0FBED4
:10252000CDBFDF91CF911F910F91FF90EF90DF9082
:10253000CF90BF90AF909F908F907F906F905F9063
:102540004F903F902F900895EF92FF920F931F931B
:10255000CF93DF937C018B01040F111DEB0177FFFB
:1025600010C0C0E0D0E00DC0C217D3078CF480E8E3
:10257000E816F10428F441E0BE01C7010E949F1152
:1025800021969801013411057CF320E430E0ECCF72
:10259000DF91CF911F910F91FF90EF900895EF92EF
:1025A000FF920F931F93CF93DF93EC018B01E42EE7
:1025B000F22E6034710510F40E945011B8016F0DB5
:1025C000711D615071096034710520F44E2DCE01EA
:1025D0000E9450114F2DB801CE010E94A412CE01CD
:1025E0008E0D911D4F2DB8010197DF91CF911F9155
:1025F0000F91FF90EF900C94A4120F931F93CF9321
:10260000DF938C01C0E0D0E0F801EC0FFD1F649176
:10261000662371F0E0917706F09178060190F081E1
:10262000E02D87E796E00995892B11F02196ECCFF4
:10263000CE01DF91CF911F910F91089520E080EF9F
:1026400091E0B22FB111BFEFFC010024B193B1931F
:10265000B193B1930394D1F7089520918106282373
:1026600029F490918006982381E009F480E0089590
:10267000E0917706F09178060190F081E02D682FC7
:1026800087E796E009948091F0018EBDE1EFF1E0DB
:1026900081910DB407FEFDCF8EBD85E0E03FF807C8
:1026A000B9F70DB407FEFDCF0895FC018091EF014D
:1026B000811103C08FEF9FEF08959FB7F89482E0D8
:1026C0008093E9002091F20030E01216130614F412
:1026D00021E030E02115310559F0289884E68093F7
:1026E000EE018091F10080838091F200882319F03F
:1026F0009FBFC90108958BE68093E800F9CF1F9230
:102700000F920FB60F921124CF92DF92EF92FF92A9
:102710000F931F932F933F934F935F936F937F93E9
:102720008F939F93AF93BF93CF93DF93EF93FF93D9
:1027300080919F069091A006A091A106B091A2065B
:10274000892B8A2B8B2B89F180919E0681110BC0DE
:1027500098B180E4892788B980919D06882319F073
:1027600088B1805888B980919F069091A006A09169
:10277000A106B091A206181619061A061B060CF03F
:10278000B1C080919F069091A006A091A106B09142
:10279000A2060197A109B10980939F069093A00614
:1027A000A093A106B093A2069DC00E948511811539
:1027B00020E8920761F4809171008D7F8093710011
:1027C000109291004698479810929C068BC021E089
:1027D00020939C06813020E8920751F480919A065C
:1027E00090919B0690939906809398060E9485117C
:1027F00097FD05C020919706222309F43FC0209140
:10280000960621113BC021E020939D06EC01DF7765
:10281000209769F481E080939E0646983FE9C32E95
:102820003FE0D32EE12CF12CCAEFD0E014C08E0192
:1028300020E030E060E472E48FE090E0A9019801CC
:102840000E94C11A69017A0181E0C81AD108E10821
:10285000F10810929E06E0910107F0910207099598
:10286000811103C081E080939E0680919D0688239C
:10287000B9F180919E06811133C003C010929D066C
:10288000C5CF46992DC0479A0E948511009771F0D7
:102890009C01DE010E94151BDC01CB0129E0B595EE
:1028A000A795979587952A95D1F703C08FEF9FEF4E
:1028B000DC01109290002AE020939100D0929900C0
:1028C000C092980080939F069093A006A093A106C3
:1028D000B093A2068091710082608093710002C063
:1028E0004798D2CFFF91EF91DF91CF91BF91AF91F8
:1028F0009F918F917F916F915F914F913F912F9118
:102900001F910F91FF90EF90DF90CF900F900FBE2F
:102910000F901F9018952D9A0895BC0180E090E0CB
:102920000C94F2148FB12CB193B130E02095309516
:1029300020743327A90123E0559547952A95E1F79F
:10294000292F30E020953095207133273595279534
:1029500035952795242B8095807F822B089583B70A
:10296000817F83BF83B7816083BF889583B78E7F64
:1029700083BF08958EBD00000DB407FEFDCF0895FE
:102980003FB7F8948091080790910907A0910A0732
:10299000B0910B0726B5A89B05C02F3F19F00196F3
:1029A000A11DB11D3FBFBA2FA92F982F8827820FD5
:1029B000911DA11DB11DBC01CD0142E0660F771F25
:1029C000881F991F4A95D1F70895615030F02091E2
:1029D000F100FC0120830196F8CF289884E68093CB
:1029E000EE0108958F929F92AF92BF92CF92DF92A5
:1029F000EF92FF926B017C010E94C0144B015C01BD
:102A0000C114D104E104F104F1F00E94C014DC010E
:102A1000CB0188199909AA09BB09883E9340A105F1
:102A2000B10570F321E0C21AD108E108F10888EE7F
:102A3000880E83E0981EA11CB11CC114D104E104CE
:102A4000F10419F7DDCFFF90EF90DF90CF90BF90AA
:102A5000AF909F908F9008951F920F920FB60F9294
:102A600011242F933F938F939F93AF93BF938091A4
:102A7000030790910407A0910507B09106073091D4
:102A8000070723E0230F2D3720F40196A11DB11D68
:102A900005C026E8230F0296A11DB11D209307074C
:102AA0008093030790930407A0930507B09306074C
:102AB0008091080790910907A0910A07B0910B0730
:102AC0000196A11DB11D8093080790930907A0935B
:102AD0000A07B0930B07BF91AF919F918F913F91E0
:102AE0002F910F900FBE0F901F901895789484B57A
:102AF000826084BD84B5816084BD85B5826085BDFA
:102B000085B5816085BD80916E00816080936E0087
:102B10001092810080918100826080938100809179
:102B2000810081608093810080918000816080932A
:102B3000800080919100826080939100809191004B
:102B400081608093910080919000816080939000DB
:102B50008091C10084608093C1008091C100826037
:102B60008093C1008091C10081608093C1008091F9
:102B7000C30081608093C3008091C0008260809315
:102B8000C0008091C20081608093C20080917A0071
:102B9000846080937A0080917A00826080937A00CA
:102BA00080917A00816080937A0080917A008068B9
:102BB00080937A001092EF011092D9011092DA01FD
:102BC0008091D70081608093D70080EA8093D800FD
:102BD00089B5806189BD89B5826089BD09B400FE6F
:102BE000FDCF61E070E080E090E00E94F2148091FF
:102BF000D8008F7C80618093D8008091E000807F36
:102C00008093E0008091E1008E7E8093E1008DE072
:102C10008093E200559A209AEEEFFFE78591949118
:102C20008B3F9C4D19F481E08093D80181EC809317
:102C30007C0085B1806F85B9249884B1866E84B993
:102C40005E9A5F988AB1806D8AB9769A6E9881B3E0
:102C5000806F81BB899880B38D7080BB80E58CBD0F
:102C600081E08DBD85E090E00E948D145F9A85E043
:102C700090E00E948D145E985C98C4E7D1E01C2F10
:102C8000135FFE0184910E94BA1421961C13F9CFA0
:102C90005C9A81E88093640081E080936500C0E0E5
:102CA000D4E080E00E94BA142197D9F70E949214D0
:102CB00087FF1FC05C9885EA0E94BA145C9A2E9820
:102CC0002F982D98809164008062809364000E9408
:102CD000AF14FDCF2D980E9492148478843871F03F
:102CE0000E9492148471843131F188EC90E00E944A
:102CF0008D140E94921482FDEDCF3AC00E948B1475
:102D000088EC90E00E948D142F9882E090E00E9461
:102D1000AB1A8F3F29F06FEF82E090E00E94B31A68
:102D200084EF91E00E948D142F9A0E94921484786F
:102D30008438D9F3D5CF0E948B1488EC90E00E94A0
:102D40008D142E9882E090E00E94AB1A882329F01F
:102D500060E082E090E00E94B31A84EF91E00E946C
:102D60008D142E9A0E94921484718431D9F3BDCFB0
:102D70000E948B1482E090E00E94AB1A882331F00D
:102D80003E9A3F9A81E08093ED0104C01092ED01DC
:102D90003E983F982E98CEEEDFEF08E010E00E94BC
:102DA000921486FF04C02E9A2F9A2D9A8BC0CC3F86
:102DB0002FEFD20719F42E9A2F9805C0C831D105EC
:102DC00011F42F9A2D980E941E13C03F4FEFD40785
:102DD00084F40E9443138BE190E00E948D14C03F65
:102DE0005FEFD50709F059C08AEF90E00E948D147B
:102DF00054C09E01D7FF04C0222733272C1B3D0B54
:102E000027703327CE01D7FD079653E09595879518
:102E10005A95E1F7D7FF05C00197D801A21BB30B64
:102E20009D017C01F694FE2CEE24F794E79460E07B
:102E300070E04801821A930AF701E058FF4F5F01E2
:102E40008F3FFFEF9F0744F40196685A7F4F75014B
:102E5000603B710589F7BDCFD701AC57BD4F40E04E
:102E600050E08F3FEFEF9E0709F4CCC0FA01E60F68
:102E7000F71FEC53FF4FE4916D01CA18DB08CE0C2D
:102E8000DF1CF0E02F01022E01C0440C0A94EAF787
:102E9000F601708047284082B5C02196C931D1051E
:102EA00009F07DCF8CEB92E00E948D140E948B1470
:102EB000E0917B06F0917C060190F081E02D8BE79C
:102EC00096E0099582E390E00E948D140E9492148E
:102ED0008111F8CF80E18093820680EF95E00E9417
:102EE0003F0A84E796E09093D7018093D601C0E033
:102EF000D0E0DD24D3948C0180EFE82E85E0F82E1D
:102F00002FB7F8948091030790910407A0910507CB
:102F1000B09106072FBF40918706509188066091B7
:102F2000890670918A0620918B06222341F0209118
:102F30008306821B80938C0610928B065DC08417DB
:102F40009507A607B70738F4481B423008F454C069
:102F50000E94AF1451C0D0928B0680938306909349
:102F60008406A0938506B093860620918206820F80
:102F7000911DA11DB11D8093870690938806A09393
:102F80008906B0938A0680917E0690917F0601960D
:102F900090937F0680937E068091800680938106C1
:102FA0000E949214809380068091D6019091D7015F
:102FB000DC01ED91FC910280F381E02D09955C012B
:102FC0008091D6019091D701DC01ED91FC910480B4
:102FD000F581E02D09950E944313A114B10441F03D
:102FE000AA94AB2849F4F092D701E092D60104C02C
:102FF0001093D7010093D601209709F481CF0E9446
:1030000000007ECF2115310581F0FA01E60FF71F90
:10301000EC53FF4FE491F0E0082C02C0F595E795E2
:103020000A94E2F7DC90ED29EC934F5F5F4F119625
:103030004835510509F015CF07CFCF92DF92EF92B7
:10304000FF920F931F93CF93DF931F92CDB7DEB7FD
:10305000182F062FE42E862F880F8E5F99830E94EB
:10306000490D83E00E94490DF12EC12E9981D92E80
:103070008C2D8F19801798F4F601E7FE02C0849119
:1030800001C080810E94490D182F80E00E94490DE7
:103090008123FFEFCF1ADF0A8111EACF01C081E05F
:1030A0000F90DF91CF911F910F91FF90EF90DF90E4
:1030B000CF9008950F931F93CF93DF938C0181E0FE
:1030C00090E00E94AB1A80FF31C08AE090E00E943D
:1030D000AB1A9FEF980F9E3F48F522E330E0D801EE
:1030E00057963C932E93569728E330E059963C939D
:1030F0002E935897CBE0D0E0D801ED91FC91019050
:10310000F081E02D682FC8010995CE010E94AB1A0D
:103110002196C131D10581F70E94431388EE93E0D7
:10312000DF91CF911F910F910C948D14DF91CF916E
:103130001F910F91089504970C945A18E3EAF6E052
:103140001382128288EE93E0A0E0B0E0848395833E
:10315000A683B78385EA91E0918380838FEF9FEF09
:1031600095878487E7E7F6E013821282118612863C
:1031700020E1238790878783108A118A128A138A15
:10318000148A85EB91E0918380838FEB91E09583A6
:103190008483178A168A118E108E81E0828F138E97
:1031A000848F158E8DE491E190930207809301073F
:1031B00080E090E8909300078093FF0646983E9A3F
:1031C00047983F9A8FEC91E0909375068093740630
:1031D00085EC91E09093F1058093F005089597FBBD
:1031E000072E16F4009407D077FD09D00E9403192A
:1031F00007FC05D03EF4909581959F4F08957095FA
:1032000061957F4F0895AA1BBB1B51E107C0AA1F00
:10321000BB1FA617B70710F0A61BB70B881F991F77
:103220005A95A9F780959095BC01CD010895EE0FB0
:10323000FF1F0590F491E02D0994CF93DF93823026
:10324000910510F482E090E0E0910E07F0910F07F5
:1032500020E030E0C0E0D0E0309711F140815181B2
:1032600048175907C0F04817590761F482819381C4
:10327000209719F09B838A832BC090930F0780932C
:103280000E0726C02115310519F04217530718F40F
:103290009A01BE01DF01EF010280F381E02DDCCF56
:1032A0002115310509F1281B390B2430310590F423
:1032B00012968D919C9113976115710521F0FB0178
:1032C0009383828304C090930F0780930E07FD01C0
:1032D000329644C0FD01E20FF31F81939193225077
:1032E00031092D933C933AC020910C0730910D0782
:1032F000232B41F420910E0130910F0130930D07E3
:1033000020930C0720910C0130910D0121153105FE
:1033100041F42DB73EB74091100150911101241B8B
:10332000350BE0910C07F0910D07E217F307A0F4BD
:103330002E1B3F0B2817390778F0AC014E5F5F4F0B
:103340002417350748F04E0F5F1F50930D07409329
:103350000C078193919302C0E0E0F0E0CF01DF9190
:10336000CF9108950F931F93CF93DF93009709F4A4
:103370008CC0FC0132971382128200910E071091CB
:103380000F070115110581F420813181820F931FF0
:1033900020910C0730910D072817390779F5F09324
:1033A0000D07E0930C0771C0D80140E050E0AE1764
:1033B000BF0750F412962D913C911397AD01211542
:1033C000310509F1D901F3CF9D01DA01338322835D
:1033D00060817181860F971F8217930769F4EC0152
:1033E00028813981260F371F2E5F3F4F318320837D
:1033F0008A819B8193838283452B29F4F0930F0765
:10340000E0930E0742C01396FC93EE931297ED01E2
:10341000499159919E01240F351FE217F30771F46A
:1034200080819181840F951F029611969C938E93B3
:103430008281938113969C938E931297E0E0F0E043
:10344000D80112968D919C911397009719F0F8016D
:103450008C01F6CF8D919C9198012E5F3F4F820F8A
:10346000931F20910C0730910D072817390769F435
:10347000309729F410920F0710920E0702C01382A2
:10348000128210930D0700930C07DF91CF911F91CB
:103490000F91089581E090E0F8940C94241B8F9292
:1034A0009F92AF92BF92CF92DF92EF92FF92CF9313
:1034B000DF93EC01688179818A819B8161157105B7
:1034C0008105910521F464E279ED8BE597E02DE12A
:1034D00033EF41E050E00E94C11A49015A019B01BB
:1034E000AC01A7EAB1E40E94E01A6B017C01ACEEEA
:1034F000B4EFA50194010E94EE1ADC01CB018C0D02
:103500009D1DAE1DBF1DB7FF03C00197A109B048A7
:1035100088839983AA83BB83BC01CD019F77DF9108
:10352000CF91FF90EF90DF90CF90BF90AF909F90A2
:103530008F9008950E944F1A089582E191E00E94B1
:103540004F1A089560931201709313018093140130
:10355000909315010895F999FECF92BD81BDF89A17
:10356000992780B50895262FF999FECF1FBA92BDED
:1035700081BD20BD0FB6F894FA9AF99A0FBE019654
:103580000895052E97FB1EF400940E94D81A57FD4B
:1035900007D00E94F31A07FC03D04EF40C94D81AFB
:1035A00050954095309521953F4F4F4F5F4F08956F
:1035B00090958095709561957F4F8F4F9F4F08959F
:1035C0000E94151BA59F900DB49F900DA49F800D88
:1035D000911D11240895B7FF0C94E01A0E94E01A7F
:1035E000821B930B0895A1E21A2EAA1BBB1BFD019F
:1035F0000DC0AA1FBB1FEE1FFF1FA217B307E407D2
:10360000F50720F0A21BB30BE40BF50B661F771F29
:10361000881F991F1A9469F7609570958095909509
:103620009B01AC01BD01CF010895A29FB001B39FE2
:10363000C001A39F700D811D1124911DB29F700DBB
:0C364000811D1124911D0895F894FFCF06
:10364C00FFFFFFFF00E1000000000000000010077A
:10365C008000010000000000000060042C0724051D
:10366C0023051804DF0345042A04D20400000000DB
:10367C006D04B00624052305260525052205210524
:10368C00D204000000007904C20724052305260596
:10369C00250522052105D20400000000D1044508AF
:1036AC00E705C00526052505A7056B05D204000016
:1036BC0000006C049106E705C00526052505A50547
:1036CC005B05D204000000003305EE06E705C005DB
:1036DC0026052505B6056D05D20400C180810000C4
:1036EC0000000000000E0DD00D2F0D5C0E7A0E2484
:1036FC000D00000000B911B3035A18FCFF00009B29
:10370C0018000000003F0A7F08110600000000DED0
:06371C000377065B0600C6
:00000001FF
