:100000000C9489030C94B1030C94B1030C94B103C8
:100010000C94B1030C94B1030C94B1030C94B10390
:100020000C94B1030C94B1030C9458050C94CA05BC
:100030000C94B1030C94B1030C94B1030C94B10370
:100040000C94B1030C94B1030C94B1030C94B10360
:100050000C94B1030C94B1030C94B1030C94EF0F06
:100060000C94B1030C94B1030C94B1030C94B10340
:100070000C94B1030C94B1030C94B1030C94B10330
:100080000C94420E0C94B1030C94B1030C94B10384
:100090000C94B1030C94B1030C94B1030C94B10310
:1000A0000C94B1030C94B1030C94B103F0F89C8E42
:1000B0008783878E9CF8F00000FEFF030303030391
:1000C000070EFCF80000FEFF0303030303070EFC0A
:1000D000F80000FFFF00000000000000FFFF00002C
:1000E000FEFF8383838383C7EE7C380000F8FC0E19
:1000F00007030303070EFCF800003F7FE0C0808089
:10010000C0E07F3FFFFF01010101010101FFFF008E
:1001100000FFFF0C0C0C0C1C3E77E3C100007FFFBE
:10012000C0C0C0C0C0E0703F1F00001F3F70E0C0F3
:10013000C0C0E0703F1F00007FFFC1C1C1C1C1E36B
:10014000773E1C00001F3F70E0C0C0C0E0703F1F42
:10015000000000000001FFFF01000000D5F08D1439
:10016000A1C881CFD9F1AF2000080B000202020123
:10017000000904000001020200000524001001052E
:10018000240101010424020605240600010705815B
:100190000310004009040100020A000000070502E4
:1001A00002400000070583024000000403090441E7
:1001B000726475696E6F204C4C43004172647569BE
:1001C0006E6F204C656F6E6172646F0012010002E9
:1001D00000000040412336800001010203011201AA
:1001E0000002EF02014041233680000101020301B9
:1001F00047414D450062792040696E615F616E69DB
:1002000000504F4954544F0000000000003E5B4F27
:100210005B3E3E6B4F6B3E1C3E7C3E1C183C7E3C66
:10022000181C577D571C1C5E7F5E1C00183C180074
:10023000FFE7C3E7FF0018241800FFE7DBE7FF3004
:10024000483A060E2629792926407F050507407F72
:1002500005253F5A3CE73C5A7F3E1C1C08081C1CE5
:100260003E7F14227F22145F5F005F5F06097F01DB
:100270007F006689956A606060606094A2FFA294C6
:1002800008047E040810207E201008082A1C080894
:100290001C2A08081E101010100C1E0C1E0C3038E2
:1002A0003E3830060E3E0E06000000000000005FE3
:1002B00000000007000700147F147F14242A7F2AFF
:1002C00012231308646236495620500008070300C1
:1002D000001C2241000041221C002A1C7F1C2A080D
:1002E000083E080800807030000808080808000070
:1002F00060600020100804023E5149453E00427FE4
:10030000400072494949462141494D331814127F32
:100310001027454545393C4A4949314121110907D2
:100320003649494936464949291E00001400000053
:100330004034000000081422411414141414004125
:1003400022140802015909063E415D594E7C1211E2
:10035000127C7F494949363E414141227F4141411A
:100360003E7F494949417F090909013E4141517395
:100370007F0808087F00417F41002040413F017F06
:10038000081422417F404040407F021C027F7F04CE
:1003900008107F3E4141413E7F090909063E415117
:1003A000215E7F09192946264949493203017F0107
:1003B000033F4040403F1F2040201F3F4038403F08
:1003C000631408146303047804036159494D43001E
:1003D0007F4141410204081020004141417F040255
:1003E00001020440404040400003070800205454EC
:1003F00078407F28444438384444442838444428CA
:100400007F385454541800087E090218A4A49C781C
:100410007F0804047800447D40002040403D007F78
:100420001028440000417F40007C047804787C0858
:100430000404783844444438FC182424181824242C
:1004400018FC7C08040408485454542404043F4411
:10045000243C4040207C1C2040201C3C4030403C40
:1004600044281028444C9090907C4464544C4400A0
:100470000836410000007700000041360800020104
:100480000204023C2623263C1EA1A161123A4040F0
:10049000207A38545455592155557941215454786E
:1004A00041215554784020545579400C1E52721207
:1004B000395555555939545454593955545458008F
:1004C00000457C410002457D420001457C40F02909
:1004D0002429F0F0282528F07C5455450020545458
:1004E0007C547C0A097F493249494932324848489C
:1004F00032324A4848303A4141217A3A42402078E3
:10050000009DA0A07D39444444393D4040403D3CDD
:1005100024FF2424487E4943662B2FFC2F2BFF0900
:1005200029F620C0887E09032054547941000044F4
:100530007D413048484A32384040227A007A0A0ADF
:10054000727D0D19317D2629292F28262929292652
:1005500030484D4020380808080808080808382F97
:1005600010C8ACBA2F102834FA00007B0000081421
:100570002A142222142A14089500220095AA005554
:1005800000AAAA55AA55AA000000FF00101010FFEB
:1005900000141414FF001010FF00FF1010F010F0F2
:1005A000141414FC001414F700FF0000FF00FF14E3
:1005B00014F404FC141417101F10101F101F14142F
:1005C000141F00101010F0000000001F1010101079
:1005D0001F10101010F010000000FF10101010106D
:1005E00010101010FF10000000FF140000FF00FFAB
:1005F00000001F10170000FC04F414141710171447
:1006000014F404F40000FF00F71414141414141468
:10061000F700F7141414171410101F101F141414DB
:10062000F4141010F010F000001F101F0000001F45
:1006300014000000FC140000F010F01010FF10FF78
:10064000141414FF141010101F00000000F010FF0D
:10065000FFFFFFFFF0F0F0F0F0FFFFFF00000000F1
:1006600000FFFF0F0F0F0F0F38444438447C2A2A35
:100670003E147E02020606027E027E026355494156
:10068000633844443C04407E201E2006027E020261
:1006900099A5E7A5991C2A492A1C4C7201724C3075
:1006A0004A4D4D303048784830BC625A463D3E494C
:1006B0004949007E0101017E2A2A2A2A2A44445FF0
:1006C000444440514A444040444A51400000FF01E4
:1006D00003E080FF000008086B6B083612362436F2
:1006E000060F090F06000018180000001010003057
:1006F00040FF0101001F01011E00191D1712003CDF
:100700003C3C3C0000000000010204081020408036
:10071000611311241FBECFEFDAE0DEBFCDBF26E0AC
:10072000A6E7B1E001C01D92A037B207E1F711E0E2
:10073000A0E0B1E0E2EDFBE202C005900D92A63729
:10074000B107D9F713E0C9E8D3E004C02197FE014F
:100750000E94DA13C838D107C9F70E9439100C94E7
:10076000E7150C94000008958091850181110DC05A
:1007700082E08093810184E0809382011092840161
:100780001092830181E08093850181E891E00895D2
:10079000CF93DF931F92CDB7DEB76983DC01ED9174
:1007A000FC910280F381E02D41E050E0BE016F5FDB
:1007B0007F4F09950F90DF91CF91089583E080934B
:1007C000E9008091F200882319F08AE38093E80021
:1007D0000895FC018485958597FD0BC09FB7F8941B
:1007E00082E08093E9008091F2009FBF90E0019643
:1007F00008959FB7F89482E08093E9008091F20019
:100800009FBF90E0089540917E0150917F0120911B
:100810007C0130917D0142175307B4F49091E800B8
:100820009570E1F39091E80092FD19C08093F1007A
:1008300080917E0190917F0101968F739927892B7A
:1008400019F48EEF8093E80080917E0190917F01F2
:10085000019690937F0180937E0181E0089580E06E
:100860000895DF92EF92FF920F931F93CF93DF9340
:10087000D82E8A017B01E40EF51EEB01CE15DF05B3
:1008800071F0D7FE03C0FE01849101C088810E94EF
:10089000030421968111F2CF8FEF9FEF01C0C801B1
:1008A000DF91CF911F910F91FF90EF90DF9008950E
:1008B0000F931F93CF93DF931F92CDB7DEB782E0E4
:1008C000898342E450E069E671E080E80E943104E7
:1008D0000E94B403DC0112960D911C91139701152F
:1008E000110569F0D801ED91FC910280F381E02DB2
:1008F000BE016F5F7F4FC801099597FF07C08981CF
:100900000F90DF91CF911F910F910895F80100850D
:100910001185E5CF8F929F92AF92BF92CF92DF92D7
:10092000EF92FF920F931F93CF93DF935C016B01C4
:100930008A0180910B01882309F45EC080918F01A8
:10094000882309F459C080917A0180FF05C0809105
:10095000E00082608093E000E8018AEFF82E93E0E7
:10096000E92E2FE3822E3AE3932E209709F43DC01F
:100970008FB7F894E092E9009091E80095FF06C0E7
:100980009091F200282D291B922F01C090E08FBF7B
:1009900091110AC0FA94FF2079F161E070E080E0E3
:1009A00090E00E94B50FE1CF292F30E0C217D307A6
:1009B0000CF49C2F8FB7F894E092E9002091E800A6
:1009C00025FF11C0292F30E0C21BD30BF601915037
:1009D00020F041914093F100FACFC20ED31E9091C6
:1009E000E80095FF13C08FBFC0CF5D9884E6809369
:1009F00080011016110644F081E090E0F501938328
:100A0000828380E090E005C0C80103C09092E800B6
:100A1000EACFDF91CF911F910F91FF90EF90DF9080
:100A2000CF90BF90AF909F908F9008950F931F939A
:100A3000CF93DF931F92CDB7DEB78C01FC01848585
:100A4000958597FF0EC0CE0101960E94180E019762
:100A500019F4298130E002C02FEF3FEFF80135870C
:100A60002487F801848595850F90DF91CF911F91A0
:100A70000F910895CF93DF931F92CDB7DEB7FC019E
:100A80008485958597FD05C02FEF3FEF3587248737
:100A90000BC0CE0101960E94180E019719F48981AE
:100AA00090E002C08FEF9FEF0F90DF91CF910895FC
:100AB0001F920F920FB60F9211248F939F938091E4
:100AC000E1009091E100937F9093E10083FF0FC0DC
:100AD0001092E90091E09093EB001092EC0092E309
:100AE0009093ED0010928F0198E09093F00082FFB8
:100AF00020C093E09093E9009091F200992319F0BF
:100B00009AE39093E80090918001992339F09091B5
:100B10008001915090938001992389F190918E01E9
:100B2000992339F090918E01915090938E019923E1
:100B300041F184FF10C08091E2008E7E816080933D
:100B4000E2008091E1008F7E8093E10080917A0144
:100B50008E7E806111C080FF16C08091E2008E7E83
:100B600080618093E2008091E1008E7E8093E100BD
:100B700080917A018E7E816080937A0104C05D9AB3
:100B8000CDCF289AD6CF9F918F910F900FBE0F9007
:100B90001F9018951F920F920FB60F921124CF92AB
:100BA000DF92EF92FF920F931F932F933F934F93F8
:100BB0005F936F937F938F939F93AF93BF93EF93C5
:100BC000FF93CF93DF93CDB7DEB76C97DEBFCDBF7A
:100BD0001092E9008091E80083FFFAC168E0CE013D
:100BE00045960E94A80F82EF8093E8008D8987FFC9
:100BF00005C09091E80090FFFCCF03C09EEF90935A
:100C0000E800982F907609F0C6C09E892F89188D2C
:100C100091110CC0803829F4809179018093F10002
:100C200002C01092F1001092F10047C1422F50E033
:100C3000512B913051F4811140C14130510509F0DF
:100C40003CC1809179018D7F0BC0933061F481119B
:100C500034C14130510509F030C180917901826081
:100C6000809379012AC1953041F48091E80080FF9A
:100C7000FCCF20682093E30020C1963009F05FC0CC
:100C8000EB8CFC8C1092E90010927F0110927E0197
:100C9000123091F510927D0110927C010E9458044F
:100CA00099E0BE016F5F7F4FDB01E92F1D92EA954E
:100CB000E9F799831A8391E09E8390EA98879AEFE7
:100CC000998720917E0130917F01275F3F4F3C83C0
:100CD0002B838D831092E90010927F0110927E0188
:100CE000F0927D01E0927C0149E050E080E00E94BA
:100CF00031040E945804E1C0F0927D01E0927C0131
:100D00000E94B403DC011296ED90FC901397E1145D
:100D1000F10409F4C0C0D701ED91FC910480F58184
:100D2000E02DBE016B5E7F4FC7010995009719F05A
:100D30000CF0C3C0C6C0F701E084F184E8CF97305F
:100D400009F4BFC0983021F481E08093F100B5C070
:100D5000993009F0B2C0837009F0B3C0E7E1F1E067
:100D600081E021E036E39081992361F08093E900EE
:100D70002093EB0091919093EC003093ED008F5F06
:100D8000873089F78EE78093EA001092EA008F8916
:100D900080938F0192C08B8D9C8D1092E9001092F0
:100DA0007F0110927E0190937D0180937C01898D5B
:100DB000811156C08E899D89913A59F4813209F08A
:100DC00080C047E050E064E071E080E00E943104C0
:100DD00074C0913209F075C0833289F4888D90E037
:100DE000982F88272F89822BA0E0B0E08093000104
:100DF00090930101A0930201B09303015EC0803281
:100E000069F48091E80082FFFCCF67E084E091E024
:100E10000E94A80F8BEF8093E80006C0823209F091
:100E20004CC08F8980930B0180917801882319F041
:100E3000EEEFFAE002C0E0E0F8E08091040190916A
:100E40000501A0910601B0910701803B9440A105E6
:100E5000B10509F088C080910B0180FFA0C083C05C
:100E60000E94B403DC0112960D911C911397011599
:100E7000110539F1D801ED91FC910190F081E02D3F
:100E8000BE016B5E7F4FC8010995811116C0F80144
:100E900000851185ECCF1130C1F0133091F48F89AA
:100EA000882309F455C08230E9F440E860E18BEB17
:100EB00091E00E94E012882321F08EEF8093E800F9
:100EC00087C081E28093EB0083C08B8D9C8D089757
:100ED00011F410937B0180917B01811136C06CEC81
:100EE00071E038C0813029F440E86BE08FEA91E08E
:100EF000E0CF833031F70E94B403DC011296ED900D
:100F0000FC9013978E010F5F1F4F6801E114F104ED
:100F100079F0D701ED91FC910680F781E02DB801C1
:100F2000C7010995080F111DF701E084F184EECF88
:100F3000D8011C92F60101900020E9F73197BF011A
:100F40006C197D0940E0C601B4CF6EED71E002C0BE
:100F50006BEA71E06115710509F4B3CFFB014491AF
:100F600050E080E833CF0FB6F894A89580916000E8
:100F7000886180936000109260000FBEA895EE3FDC
:100F80002AE0F20739F08091FE0A9091FF0A9183DE
:100F9000808393CF1092FF0A1092FE0A8ECFEE3F0D
:100FA0008AE0F80731F0808191819093FF0A809365
:100FB000FE0A87E797E7918380839BE088E10FB67D
:100FC000F894A895809360000FBE9093600075CF51
:100FD0006C960FB6F894DEBF0FBECDBFDF91CF91F8
:100FE000FF91EF91BF91AF919F918F917F916F9101
:100FF0005F914F913F912F911F910F91FF90EF9033
:10100000DF90CF900F900FBE0F901F901895CF924A
:10101000DF92EF92FF920F931F93CF93DF936C01B8
:101020007A018B01C0E0D0E0CE15DF0589F0D80150
:101030006D918D01D601ED91FC910190F081E02D33
:10104000C6010995892B11F47E0102C02196ECCFCF
:10105000C701DF91CF911F910F91FF90EF90DF902B
:10106000CF9008950895FC0124853585DB01149601
:101070008D919C911597121613062CF420853185BD
:10108000821B930B07C0DB0118962D913C91199799
:10109000820F931F9583848315861486128A089580
:1010A000FC0122853385DB0112968D919C9113976B
:1010B000121613062CF426813781821B930B07C06E
:1010C000DB0116962D913C911797820F931F938306
:1010D00082830895FC018485958520893189280FB4
:1010E000391FB90137FF04C066277727621B730BCE
:1010F000613471051CF4358724870AC0C90126E0D4
:10110000880F991F2A95E1F70E94B21375876487AB
:101110002481358184859585820F931F95838483EF
:101120000895FC018285938526853785280F391F10
:10113000B90137FF04C066277727621B730B613143
:1011400071051CF4338722870AC0C90124E0880F87
:10115000991F2A95E1F70E94B21373876287228153
:10116000338182859385820F931F938382830895B1
:101170000895FC01138212821582148288E090E0A7
:1011800097838683918780870895FC01329690E04B
:1011900021913191232B29F09F5F9032C9F78FEF76
:1011A0000895892F0895CF92DF92EF92FF920F93C7
:1011B0001F93CF93DF937C016B018C010E5F1F4F58
:1011C00020E030E0D8018D919D918D01E9012196BB
:1011D0000097B1F0C816D90699F0DC01ED91FC91A9
:1011E0000484F585E02DB6010995882349F09E0118
:1011F000220F331FE701C20FD31F8881998105C0D9
:101200009E01A097F9F680E090E0DF91CF911F91C9
:101210000F91FF90EF90DF90CF900895EF92FF92A3
:101220000F931F93CF93DF93DB0112960D911C91C7
:101230001397EC01EA81FB8114960D90BC91A02DCF
:10124000EB0128853985EC014C815D81E884F984C6
:101250008E819F81EB016E817F81600F711F8E0FE8
:101260009F1F681779070CF4CB01BF01E017F10746
:101270000CF4B801861B970B18161906B4F4BA01C2
:101280006E0D7F1DCD01820F931F681779070CF437
:10129000CB019A014A175B070CF49D01FC01E21B8C
:1012A000F30B81E01E161F060CF080E0DF91CF915A
:1012B0001F910F91FF90EF9008950895089508955C
:1012C0000895FC01138212821582148288E090E056
:1012D000978386839187808708950E940D150F93C9
:1012E0001F93CF93DF93EC010E94EC0D1092F00559
:1012F0001092EF051092EE051092ED0580EF91E04F
:101300000E94CB0D8E010E5F1F4FCE5BDF4FD801C9
:101310008D919D918D01009739F0DC01ED91FC914B
:101320000280F381E02D09950C171D0781F7DF91ED
:10133000CF911F910F910895CF93DF930E94EC0DF1
:10134000C7EDD5E0198E188E1F8A1E8A81E092E0C3
:101350000E94CB0D80E390E09F8B8E8B86E390E024
:10136000998F888F85EF91E0DF91CF910C94CB0D11
:10137000CF93DF93EC0188E00E94FB0D81110DC03B
:1013800080E80E94FB0D882329F09A81992311F0AF
:1013900091509A8382E090E002C081E090E0DF917A
:1013A000CF910895FC012085318584E035952795FE
:1013B0008A95E1F74681578194E0559547959A952E
:1013C000E1F76481758134E0759567953A95E1F7A9
:1013D0008281938154E0959587955A95E1F70C9415
:1013E0009D0DFC012085318584E0359527958A95F2
:1013F000E1F74681578194E0559547959A95E1F735
:101400006481758134E0759567953A95E1F782813D
:10141000938154E0959587955A95E1F70C949D0D2D
:10142000FC012085318584E0359527958A95E1F783
:101430004681578194E0559547959A95E1F76481E7
:10144000758134E0759567953A95E1F782819381CE
:1014500054E0959587955A95E1F70C949D0DEF9280
:10146000FF920F931F93CF93DF938C0188E00E942C
:10147000FB0D882379F0F801EE5BFF4F0190F081BE
:10148000E02D8289811106C08CED9FEF95878487BE
:1014900081E0828B0E94550F86FF0DC0F801EE5B44
:1014A000FF4F0190F081E02D82859385019693870F
:1014B0008287C1E001C0C0E00E94550F85FF0CC0CB
:1014C000F801EE5BFF4F0190F081E02D828593855E
:1014D0000197938782870AC0C11108C0F801EE5BAB
:1014E000FF4F0190F081E02D13861286E80178010C
:1014F00080E4E80EF11C8A819B810097A1F1DC0158
:10150000ED91FC910480F581E02D09956A817B8144
:10151000C8010E94D308009759F0AA81BB81ED91C0
:10152000FC9111970084F185E02DBC01CD01099556
:101530008A819B81DC01ED91FC910680F781E02D91
:1015400009956A817B81C8010E94D308009759F0F0
:10155000AA81BB81ED91FC9111970284F385E02D66
:10156000BC01CD0109952296CE15DF0521F682E05A
:1015700090E0DF91CF911F910F91FF90EF90089530
:101580002F923F924F925F926F927F928F929F9293
:10159000AF92BF92CF92DF92EF92FF920F931F9381
:1015A000CF93DF9300D01F92CDB7DEB79B838A83A2
:1015B000FC0132961C0182E4280E311C119211921A
:1015C000E215F305D9F78AE090E00E94E0138C0160
:1015D000DC0113961C921E92129715961C921E9275
:1015E0001497A12C88E0B82E1796BC92AE9216974D
:1015F00090E2C92ED12C1996DC92CE92189721E256
:10160000E22E21E0F22EED92FC928A819B810E94D3
:10161000C508EA81FB81E80FF11DE80FF11D138376
:1016200002838AE090E00E94E0138C01FC011382A7
:10163000128280E094E095838483B782A68230E8AA
:10164000A32EB12CB186A086F182E0828A819B8193
:101650000E94C508EA81FB81E80FF11DE80FF11D2A
:10166000138302838AE090E00E94E0138C01DC0186
:1016700013961C921E9212971596BC92AE921497D6
:101680001796DC92CE92169780E093E019969C9381
:101690008E931897ED92FC928A819B810E94C508D7
:1016A000EA81FB81E80FF11DE80FF11D138302832E
:1016B0008AE090E00E94E0138C0180EE97E0F80150
:1016C00093838283D582C482D782C68280EE93E0E0
:1016D00091878087F182E0828A819B810E94C50880
:1016E000EA81FB81E80FF11DE80FF11D13830283EE
:1016F000F0E4F98348E0C42ED12CE12CF12C0E94B7
:1017000060152B013C010E9460154B015C018AE0D1
:1017100090E00E94E0138C01C301B201A701960181
:101720000E9484156295607F80E1689FB00111245A
:10173000D80113967C936E931297C501B401A7014B
:1017400096010E948415660F660F660FB0E16B9FCD
:10175000B0011124F8017583648380E890E09783D9
:10176000868391878087A1E2B1E0B183A083B8012D
:101770008A819B810E94D308892B21F0C8010E9495
:1017800075140CC08A819B810E94C508EA81FB8187
:10179000E80FF11DE80FF11D13830283B981B150E9
:1017A000B983B111ACCF8A819B810E94C508182FE3
:1017B00083E190E00E94E013FC0180E092E09383DB
:1017C00082839583848380E490E0978386839187E6
:1017D000808783E391E09183808313861286158648
:1017E000148617861686128AD101ED93FC93AA817E
:1017F000BB81A10FB11DA10FB11D1396FC93EE93F8
:10180000129782E090E0918B808B0F900F900F9059
:10181000DF91CF911F910F91FF90EF90DF90CF90CC
:10182000BF90AF909F908F907F906F905F904F9000
:101830003F902F90089580918D0108959C01240F71
:10184000311D1216130674F5803891055CF5FC0104
:1018500097FF02C0E0E0F0E02138310514F020E805
:1018600030E02E1BAB014770552781E001C0880F87
:101870004A95EAF777FF02C0695F7F4F93E075955D
:1018800067959A95E1F77695762F66277795679510
:10189000E60FF71FE057FE4F215020F09081982B64
:1018A0009193FACF08958091F505E091F805F091B4
:1018B000F905882349F0CF0102969093F9058093AA
:1018C000F805859194910895CF0102969093F905BA
:1018D0008093F805808191810895E8E0F7E090E138
:1018E000969FD001A0781124A80F6770E60FF11D14
:1018F0008491A057BE4F442321F0EC91E82BEC9348
:101900000895E82FE0958C918E238C930895EF92A3
:10191000FF920F931F93CF93DF937C018B01040FF2
:10192000111DEB0177FF10C0C0E0D0E00DC0C21761
:10193000D3078CF480E8E816F10428F441E0BE01F6
:10194000C7010E946D0C21969801013411057CF3AA
:1019500020E430E0ECCFDF91CF911F910F91FF9009
:10196000EF9008952F923F924F925F926F927F92E5
:101970008F929F92AF92BF92CF92DF92EF92FF929F
:101980000F931F93CF93DF93CDB7DEB727970FB693
:10199000F894DEBF0FBECDBFFC016A3069F4248D20
:1019A000808D918D38E0239F800D911D1124918FA2
:1019B000808F178A168AA6C06D3009F4A3C09F8352
:1019C0008E83348C238D2983328D3A83608C718C85
:1019D000E688F78880E8E816F104C4F0AE81BF819C
:1019E0005C962C915C97422F50E056968D919C917D
:1019F0005797B6E02B9F800D911D1124EE81FF813A
:101A0000978B868B258D211167C07CC0F0E46F1603
:101A1000710424F7C70125E0329E800D911D112429
:101A200018161906DCF6432C512CC30138E0339EFE
:101A3000800D911D11241816190684F685E0689F03
:101A400080011124085F1D4F20E0F801249025300B
:101A500009F4212C430158E020FC02C0398101C067
:101A60003A8131110BC0F9818A81F81307C026949D
:101A70005150840C951C5111EFCF25C067018C2D5E
:101A80008E198315A0F754018A2D88198315B8F48F
:101A900090E8C916D10478F4A0E4AA16B10458F469
:101AA000432FB501C6012C833B835D830E946D0CDF
:101AB0005D813B812C81BFEFAB1ABB0AE5CFEFEF15
:101AC000CE1ADE0ADCCF2F5FE40CF51C0F5F1F4F30
:101AD000263009F0BACF82CF6AEF64039001659F88
:101AE000300D112420583F4F281739075CF4AE8180
:101AF000BF81ED91FC9111970190F081E02D6AE09A
:101B0000CD01099581E090E027960FB6F894DEBFED
:101B10000FBECDBFDF91CF911F910F91FF90EF903E
:101B2000DF90CF90BF90AF909F908F907F906F90FD
:101B30005F904F903F902F900895EF92FF920F93F8
:101B40001F93CF93DF93EC018B01E42EF22E6034D0
:101B5000710510F40E941E0CB8016F0D711D6150CB
:101B600071096034710520F44E2DCE010E941E0CC7
:101B70004F2DB801CE010E94870CCE018E0D911D14
:101B80004F2DB8010197DF91CF911F910F91FF90D9
:101B9000EF900C94870C0F931F93CF93DF938C01DE
:101BA000C0E0D0E0F801EC0FFD1F6491662371F0F6
:101BB000E091D705F091D8050190F081E02D87EDF7
:101BC00095E00995892B11F02196ECCFCE01DF919C
:101BD000CF911F910F91089520E080E991E0B22FFD
:101BE000B111BFEFFC010024B193B193B193B19354
:101BF0000394D1F708952091E105282329F49091C9
:101C0000E005982381E009F480E008958091900137
:101C10008EBDE1E9F1E081910DB407FEFDCF8EBDEF
:101C200085E0E039F807B9F70DB407FEFDCF089558
:101C3000FC0180918F01811103C08FEF9FEF089508
:101C40009FB7F89482E08093E9002091F20030E0A1
:101C50001216130614F421E030E02115310559F075
:101C6000289884E680938E018091F1008083809192
:101C7000F200882319F09FBFC90108958BE6809375
:101C8000E800F9CF1F920F920FB60F921124CF9256
:101C9000DF92EF92FF920F931F932F933F934F93F7
:101CA0005F936F937F938F939F93AF93BF93CF93E4
:101CB000DF93EF93FF938091FF0590910006A09131
:101CC0000106B0910206892B8A2B8B2B89F180911A
:101CD000FE0581110BC098B180E4892788B98091F5
:101CE000FD05882319F088B1805888B98091FF05D7
:101CF00090910006A0910106B091020618161906EF
:101D00001A061B060CF0B1C08091FF0590910006E9
:101D1000A0910106B09102060197A109B109809333
:101D2000FF0590930006A0930106B09302069DC0A4
:101D30000E94530C811520E8920761F48091710094
:101D40008D7F809371001092910046984798109271
:101D5000FC058BC021E02093FC05813020E8920730
:101D600051F48091FA059091FB059093F9058093C9
:101D7000F8050E94530C97FD05C02091F70522231A
:101D800009F43FC02091F60521113BC021E02093CA
:101D9000FD05EC01DF77209769F481E08093FE0573
:101DA00046983FE9C32E3FE0D32EE12CF12CCAEF39
:101DB000D0E014C08E0120E030E060E472E48FE0F7
:101DC00090E0A90198010E94841569017A0181E0DF
:101DD000C81AD108E108F1081092FE05E0916106E9
:101DE000F09162060995811103C081E08093FE05A0
:101DF0008091FD058823B9F18091FE05811133C0E2
:101E000003C01092FD05C5CF46992DC0479A0E9488
:101E1000530C009771F09C01DE010E94D815DC0183
:101E2000CB0129E0B595A795979587952A95D1F788
:101E300003C08FEF9FEFDC01109290002AE0209307
:101E40009100D0929900C09298008093FF059093E2
:101E50000006A0930106B093020680917100826093
:101E60008093710002C04798D2CFFF91EF91DF912C
:101E7000CF91BF91AF919F918F917F916F915F9122
:101E80004F913F912F911F910F91FF90EF90DF9015
:101E9000CF900F900FBE0F901F9018952D9A089518
:101EA000BC0180E090E00C94B50F8FB12CB193B1E0
:101EB00030E02095309520743327A90123E0559513
:101EC00047952A95E1F7292F30E02095309520712C
:101ED00033273595279535952795242B8095807F39
:101EE000822B089583B7817F83BF83B7816083BFCF
:101EF000889583B78E7F83BF08958EBD00000DB493
:101F000007FEFDCF08953FB7F89480916806909141
:101F10006906A0916A06B0916B0626B5A89B05C01C
:101F20002F3F19F00196A11DB11D3FBFBA2FA92F58
:101F3000982F8827820F911DA11DB11DBC01CD01D5
:101F400042E0660F771F881F991F4A95D1F70895C1
:101F5000615030F02091F100FC0120830196F8CF10
:101F6000289884E680938E0108958F929F92AF9275
:101F7000BF92CF92DF92EF92FF926B017C010E94A1
:101F8000830F4B015C01C114D104E104F104F1F0B1
:101F90000E94830FDC01CB0188199909AA09BB09AA
:101FA000883E9340A105B10570F321E0C21AD10823
:101FB000E108F10888EE880E83E0981EA11CB11C90
:101FC000C114D104E104F10419F7DDCFFF90EF90C3
:101FD000DF90CF90BF90AF909F908F9008951F9209
:101FE0000F920FB60F9211242F933F938F939F93CD
:101FF000AF93BF938091630690916406A0916506AC
:10200000B09166063091670623E0230F2D3720F448
:102010000196A11DB11D05C026E8230F0296A11D42
:10202000B11D209367068093630690936406A09386
:102030006506B09366068091680690916906A09146
:102040006A06B0916B060196A11DB11D80936806CA
:1020500090936906A0936A06B0936B06BF91AF9107
:102060009F918F913F912F910F900FBE0F901F90D6
:102070001895789484B5826084BD84B5816084BDF0
:1020800085B5826085BD85B5816085BD80916E0016
:10209000816080936E001092810080918100826047
:1020A0008093810080918100816080938100809184
:1020B0008000816080938000809191008260809395
:1020C00091008091910081608093910080919000B7
:1020D0008160809390008091C10084608093C100F2
:1020E0008091C10082608093C1008091C1008160B5
:1020F0008093C1008091C30081608093C300809170
:10210000C00082608093C0008091C2008160809393
:10211000C20080917A00846080937A0080917A0076
:10212000826080937A0080917A00816080937A0047
:1021300080917A00806880937A0010928F011092CB
:10214000790110927A018091D70081608093D70045
:1021500080EA8093D80089B5806189BD89B58260A5
:1021600089BD09B400FEFDCF61E070E080E090E041
:102170000E94B50F8091D8008F7C80618093D80039
:102180008091E000807F8093E0008091E1008E7E6E
:102190008093E1008DE08093E200559A209AEEEF63
:1021A000FFE7859194918B3F9C4D19F481E08093DA
:1021B000780181EC80937C0085B1806F85B924988B
:1021C00084B1866E84B95E9A5F988AB1806D8AB94F
:1021D000769A6E9881B3806F81BB899880B38D7039
:1021E00080BB80E58CBD81E08DBD85E090E00E94E4
:1021F000500F5F9A85E090E00E94500F5E985C98C7
:10220000CCE5D1E01C2F135FFE0184910E947D0F6D
:1022100021961C13F9CF5C9A81E88093640081E0D9
:1022200080936500C0E0D4E080E00E947D0F21979C
:10223000D9F70E94550F87FF1FC05C9885EA0E945E
:102240007D0F5C9A2E982F982D9880916400806263
:10225000809364000E94720FFDCF2D980E94550F4D
:102260008478843871F00E94550F8471843131F183
:1022700088EC90E00E94500F0E94550F82FDEDCF38
:102280003AC00E944E0F88EC90E00E94500F2F98A9
:1022900082E090E00E946E158F3F29F06FEF82E0A0
:1022A00090E00E94761584EF91E00E94500F2F9AE3
:1022B0000E94550F84788438D9F3D5CF0E944E0FF1
:1022C00088EC90E00E94500F2E9882E090E00E94EF
:1022D0006E15882329F060E082E090E00E94761578
:1022E00084EF91E00E94500F2E9A0E94550F847146
:1022F0008431D9F3BDCF0E944E0F82E090E00E945E
:102300006E15882331F03E9A3F9A81E080938D01CB
:1023100004C010928D013E983F982E98CEEEDFEFCC
:1023200008E010E00E94550F86FF04C02E9A2F9AF5
:102330002D9A8BC0CC3F2FEFD20719F42E9A2F98ED
:1023400005C0C831D10511F42F9A2D980E94EC0DCB
:10235000C03F4FEFD40784F40E94060E8BE190E05B
:102360000E94500FC03F5FEFD50709F059C08AEFB8
:1023700090E00E94500F54C09E01D7FF04C0222756
:1023800033272C1B3D0B27703327CE01D7FD079633
:1023900053E0959587955A95E1F7D7FF05C00197CA
:1023A000D801A21BB30B9D017C01F694FE2CEE24F8
:1023B000F794E79460E070E04801821A930AF7010D
:1023C000E058FF4F5F018F3FFFEF9F0744F40196F6
:1023D000685A7F4F7501603B710589F7BDCFD70102
:1023E000AC5DBD4F40E050E08F3FEFEF9E0709F43A
:1023F000CCC0FA01E60FF71FE455FF4FE4916D01E1
:10240000CA18DB08CE0CDF1CF0E02F01022E01C041
:10241000440C0A94EAF7F601708047284082B5C060
:102420002196C931D10509F07DCF8CEB92E00E9455
:10243000500F0E944E0FE091DB05F091DC050190FA
:10244000F081E02D8BED95E0099582E390E00E940C
:10245000500F0E94550F8111F8CF80E18093E20563
:1024600080E995E00E94C00A84ED95E090937701A1
:1024700080937601C0E0D0E0DD24D3948C0180E924
:10248000E82E85E0F82E2FB7F8948091630690919E
:102490006406A0916506B09166062FBF4091E705DE
:1024A0005091E8056091E9057091EA052091EB05EE
:1024B000222341F02091E305821B8093EC051092CA
:1024C000EB055DC084179507A607B70738F4481BCE
:1024D000423008F454C00E94720F51C0D092EB05F4
:1024E0008093E3059093E405A093E505B093E6059A
:1024F0002091E205820F911DA11DB11D8093E7057A
:102500009093E805A093E905B093EA058091DE0574
:102510009091DF0501969093DF058093DE05809111
:10252000E0058093E1050E94550F8093E0058091BE
:10253000760190917701DC01ED91FC910280F381AD
:10254000E02D09955C018091760190917701DC0185
:10255000ED91FC910480F581E02D09950E94060E15
:10256000A114B10441F0AA94AB2849F4F092770188
:10257000E092760104C010937701009376012097D2
:1025800009F481CF0E9400007ECF2115310581F032
:10259000FA01E60FF71FE455FF4FE491F0E0082C35
:1025A00002C0F595E7950A94E2F7DC90ED29EC93EB
:1025B0004F5F5F4F11964835510509F015CF07CF92
:1025C000CF92DF92EF92FF920F931F93CF93DF93FF
:1025D0001F92CDB7DEB7182F062FE42E862F880F57
:1025E0008E5F99830E94030483E00E940304F12E0E
:1025F000C12E9981D92E8C2D8F19801798F4F60150
:10260000E7FE02C0849101C080810E940304182F5C
:1026100080E00E9403048123FFEFCF1ADF0A8111BB
:10262000EACF01C081E00F90DF91CF911F910F9110
:10263000FF90EF90DF90CF9008950F931F93CF936B
:10264000DF938C0181E090E00E946E1580FF31C025
:102650008AE090E00E946E159FEF980F9E3F48F52C
:1026600022E330E0D80157963C932E93569728E307
:1026700030E059963C932E935897CBE0D0E0D801A8
:10268000ED91FC910190F081E02D682FC801099532
:10269000CE010E946E152196C131D10581F70E94AD
:1026A000060E88EE93E0DF91CF911F910F910C946D
:1026B000500FDF91CF911F910F91089504970C94C3
:1026C0001D13E3E0F6E01382128288EE93E0A0E0AF
:1026D000B0E084839583A683B78385E491E09183FA
:1026E00080838FEF9FEF95878487E7EDF5E0138276
:1026F00012821186128620E1238790878783108AB1
:10270000118A128A138A148A85E591E09183808365
:102710008FE591E095838483178A168A118E108E37
:1027200081E0828F138E848F158E8BE19CE09093D5
:1027300062068093610680E090E890936006809343
:102740005F0646983E9A47983F9A8FE691E09093AD
:10275000D5058093D40585E691E09093910580930B
:102760009005089597FB072E16F4009407D077FD87
:1027700009D00E94C61307FC05D03EF490958195C0
:102780009F4F0895709561957F4F0895AA1BBB1BBD
:1027900051E107C0AA1FBB1FA617B70710F0A61B61
:1027A000B70B881F991F5A95A9F780959095BC0182
:1027B000CD010895EE0FFF1F0590F491E02D0994CF
:1027C000CF93DF938230910510F482E090E0E091A6
:1027D0006E06F0916F0620E030E0C0E0D0E0309768
:1027E00011F14081518148175907C0F04817590726
:1027F00061F482819381209719F09B838A832BC097
:1028000090936F0680936E0626C02115310519F04E
:102810004217530718F49A01BE01DF01EF0102804D
:10282000F381E02DDCCF2115310509F1281B390B8F
:102830002430310590F412968D919C911397611577
:10284000710521F0FB019383828304C090936F068E
:1028500080936E06FD01329644C0FD01E20FF31F26
:1028600081939193225031092D933C933AC020914A
:102870006C0630916D06232B41F420910E013091AE
:102880000F0130936D0620936C0620910C0130915E
:102890000D012115310541F42DB73EB740911001CE
:1028A00050911101241B350BE0916C06F0916D06DF
:1028B000E217F307A0F42E1B3F0B2817390778F017
:1028C000AC014E5F5F4F2417350748F04E0F5F1F76
:1028D00050936D0640936C068193919302C0E0E0A3
:1028E000F0E0CF01DF91CF9108950F931F93CF9325
:1028F000DF93009709F48CC0FC0132971382128297
:1029000000916E0610916F060115110581F420816A
:102910003181820F931F20916C0630916D0628172C
:10292000390779F5F0936D06E0936C0671C0D80114
:1029300040E050E0AE17BF0750F412962D913C9145
:102940001397AD012115310509F1D901F3CF9D018F
:10295000DA013383228360817181860F971F82178A
:10296000930769F4EC0128813981260F371F2E5F08
:102970003F4F318320838A819B8193838283452BC0
:1029800029F4F0936F06E0936E0642C01396FC9311
:10299000EE931297ED01499159919E01240F351F35
:1029A000E217F30771F480819181840F951F0296DD
:1029B00011969C938E938281938113969C938E9310
:1029C0001297E0E0F0E0D80112968D919C91139758
:1029D000009719F0F8018C01F6CF8D919C91980128
:1029E0002E5F3F4F820F931F20916C0630916D0632
:1029F0002817390769F4309729F410926F0610925E
:102A00006E0602C01382128210936D0600936C064C
:102A1000DF91CF911F910F91089581E090E0F8949C
:102A20000C94E7158F929F92AF92BF92CF92DF9254
:102A3000EF92FF92CF93DF93EC01688179818A81D5
:102A40009B81611571058105910521F464E279EDA1
:102A50008BE597E02DE133EF41E050E00E948415D3
:102A600049015A019B01AC01A7EAB1E40E94A315F8
:102A70006B017C01ACEEB4EFA50194010E94B1158D
:102A8000DC01CB018C0D9D1DAE1DBF1DB7FF03C02A
:102A90000197A109B04888839983AA83BB83BC01AD
:102AA000CD019F77DF91CF91FF90EF90DF90CF9096
:102AB000BF90AF909F908F9008950E941215089537
:102AC00082E191E00E9412150895609312017093C3
:102AD000130180931401909315010895F999FECF85
:102AE00092BD81BDF89A992780B50895262FF9994E
:102AF000FECF1FBA92BD81BD20BD0FB6F894FA9AE1
:102B0000F99A0FBE01960895052E97FB1EF40094C6
:102B10000E949B1557FD07D00E94B61507FC03D0F5
:102B20004EF40C949B1550954095309521953F4F50
:102B30004F4F5F4F089590958095709561957F4FA9
:102B40008F4F9F4F08950E94D815A59F900DB49F59
:102B5000900DA49F800D911D11240895B7FF0C9432
:102B6000A3150E94A315821B930B0895A1E21A2EB0
:102B7000AA1BBB1BFD010DC0AA1FBB1FEE1FFF1F21
:102B8000A217B307E407F50720F0A21BB30BE40B71
:102B9000F50B661F771F881F991F1A9469F76095B8
:102BA0007095809590959B01AC01BD01CF01089572
:102BB000A29FB001B39FC001A39F700D811D11247E
:102BC000911DB29F700D811D1124911D0895F894DF
:022BD000FFCF35
:102BD200FFFFFFFF00E100000000000000007006A0
:102BE20080000100000000C18081000000000000A0
:102BF20000B908F10960095F095E095D090E090063
:102C0200000000B808D20991086A08500833080E7B
:102C12000900000000C8038A04E9033A051605DE2C
:102C22000300000000B20C07081D13FCFF00005E49
:102C32001300000000C00A2F0A6F090000000032D2
:062C420008B8099C09001E
:00000001FF
