:100000000C9469060C9491060C9491060C9491063C
:100010000C9491060C9491060C9491060C94910604
:100020000C9491060C9491060C94BD110C942F1213
:100030000C9491060C9491060C9491060C949106E4
:100040000C9491060C9491060C9491060C949106D4
:100050000C9491060C9491060C9491060C948B1DB3
:100060000C9491060C9491060C9491060C949106B4
:100070000C9491060C9491060C9491060C949106A4
:100080000C9435180C9491060C9491060C949106DE
:100090000C9491060C9491060C9491060C94910684
:1000A0000C9491060C9491060C949106760BBF0B60
:1000B0001C0C490CF70CF70CF70CF70CF70C760C32
:1000C000760C760C760C760C760CF70CF70CF70C9D
:1000D000F70CB80CB80CB80CB80CB80CB80C436CD6
:1000E00065617221006090A888888890606090881F
:1000F0008888A89060000000000000000000000058
:100100000000000000000000000000000000000DE2
:10011000000000000B0000000000000000000000D4
:1001200000000000000000000000000000000400CB
:1001300000000000000000000000000001000000BE
:100140000000000017170400000000000000000479
:100150000000000000150400000000000000000086
:1001600000000016160C040400000000000004004B
:1001700000000016030A0200000204040000000050
:100180000000000000040404040404040000000053
:1001900000000000000B000200000404000000004A
:1001A0000000000000040404040404000000000037
:1001B00000000000000C000002000400000000002D
:1001C0000000000000040404040404000000000017
:1001D000000000000000000000000100000000001E
:1001E000000000000000000000000000000000000F
:1001F00000000000030000000000000000000000FC
:1002000000000000000000000000000000000000EE
:1002100000000000000000000000000000000000DE
:1002200000000000000000000000000000000000CE
:1002300000000000000000000000000000000000BE
:1002400000000003030000000000000000000000A8
:100250000000000303000000000000000000000098
:1002600000000000000100040A0B0C0D0E0F10111D
:100270001213000000000000000000000000000059
:10028000000000000000000000000000000000006E
:10029000000000000000000000000000000000005E
:1002A000000000000000000000000000000000004E
:1002B000000000000000000000000000000000003E
:1002C0000000000303000000000000000000000028
:1002D0000000000303000000000000000000000018
:1002E000000000000001000000000000000002000B
:1002F00000020000020000000000000000000000FA
:1003000000000000000000000000000000000000ED
:1003100000000003000000040404040404040404B6
:1003200004040404040400000000000000000000B5
:1003300000000000000000000000000000000000BD
:10034000000000000004040404040400040004008D
:100350000400040000000000000000000000000095
:100360000000000004010000000000000000000088
:10037000000000000000000000000000000000007D
:10038000000000000000000000000000000000006D
:10039000000000000000000000000000000000005D
:1003A000000000000000000000000000000000004D
:1003B000000000000000000000000000000000003D
:1003C000000000000000000A001400000B001500EF
:1003D000000C0016000000000014000000001500D2
:1003E00000000016000100000014000000001500CD
:1003F00000000016030A00020000000400000000D4
:1004000000000000000404040404040000000000D4
:1004100000000000000B00000000020400000000CB
:1004200000000000000404040404040000000000B4
:1004300000000000000000000000000000000014A8
:100440000015000000000000000000000000001483
:100450000015000000000000000001000000001472
:100460000015000000000000000000000000001463
:100470000015000003000000000000000000000064
:100480000000000000000202020200030000000061
:10049000000000000000000000000000000000005C
:1004A000000000000000000000000000000000004C
:1004B0000000000000000000000000040000000038
:1004C000000000000000000000000000000000002C
:1004D000000000000400000000040400000400000C
:1004E00004040000040100000000000000000000FF
:1004F00000000004040000000000000000000000F4
:1005000000000000030000000000000000000000E8
:1005100000000000040000000000000000000000D7
:1005200000000004000000000000000000000000C7
:1005300000000400000000000000000000000000B7
:1005400000040000000000000000000000000000A7
:100550000400000000000000000000000000000493
:100560000000000000000000000000000100040086
:100570000000000000080B00020202010009040054
:100580000001020200000524001001052401010100
:10059000042402060524060001070581031000401B
:1005A00009040100020A00000007050202400000E1
:1005B0000705830240000004030904417264756961
:1005C0006E6F204C4C430041726475696E6F204C15
:1005D000656F6E6172646F001201000200000040DE
:1005E0004123368000010102030112010002EF02E3
:1005F0000140412336800001010203010102040889
:100600001020408000000000003E5B4F5B3E3E6BD0
:100610004F6B3E1C3E7C3E1C183C7E3C181C577D9C
:10062000571C1C5E7F5E1C00183C1800FFE7C3E7E8
:10063000FF0018241800FFE7DBE7FF30483A060EFA
:100640002629792926407F050507407F05253F5A41
:100650003CE73C5A7F3E1C1C08081C1C3E7F1422B1
:100660007F22145F5F005F5F06097F017F0066895C
:10067000956A606060606094A2FFA29408047E04A2
:100680000810207E201008082A1C08081C2A0808C8
:100690001E101010100C1E0C1E0C30383E38300688
:1006A0000E3E0E06000000000000005F0000000784
:1006B000000700147F147F14242A7F2A12231308B2
:1006C000646236495620500008070300001C22418E
:1006D000000041221C002A1C7F1C2A08083E080832
:1006E00000807030000808080808000060600020E2
:1006F000100804023E5149453E00427F40007249C5
:100700004949462141494D331814127F1027454568
:1007100045393C4A4949314121110907364949497E
:1007200036464949291E00001400000040340000EC
:100730000008142241141414141400412214080255
:10074000015909063E415D594E7C1211127C7F49C8
:100750004949363E414141227F4141413E7F49491D
:1007600049417F090909013E414151737F08080849
:100770007F00417F41002040413F017F081422411A
:100780007F404040407F021C027F7F0408107F3E74
:100790004141413E7F090909063E4151215E7F09E1
:1007A000192946264949493203017F01033F404048
:1007B000403F1F2040201F3F4038403F6314081433
:1007C0006303047804036159494D43007F4141416B
:1007D0000204081020004141417F0402010204404C
:1007E00040404040000307080020545478407F28D0
:1007F0004444383844444428384444287F385454C6
:10080000541800087E090218A4A49C787F080404E8
:100810007800447D40002040403D007F1028440087
:1008200000417F40007C047804787C080404783818
:1008300044444438FC1824241818242418FC7C0848
:10084000040408485454542404043F44243C4040C5
:10085000207C1C2040201C3C4030403C4428102878
:10086000444C9090907C4464544C440008364100C1
:100870000000770000004136080002010204023C3B
:100880002623263C1EA1A161123A4040207A38540A
:100890005455592155557941215454784121555485
:1008A000784020545579400C1E52721239555555D6
:1008B00059395454545939555454580000457C41C1
:1008C0000002457D420001457C40F0292429F0F0DA
:1008D000282528F07C545545002054547C547C0A2B
:1008E000097F4932494949323248484832324A48F8
:1008F00048303A4141217A3A42402078009DA0A0F8
:100900007D39444444393D4040403D3C24FF24244B
:10091000487E4943662B2FFC2F2BFF0929F620C068
:10092000887E090320545479410000447D413048B9
:10093000484A32384040227A007A0A0A727D0D19FC
:10094000317D2629292F28262929292630484D405E
:1009500020380808080808080808382F10C8ACBA5A
:100960002F102834FA00007B000008142A142222D9
:10097000142A14089500220095AA005500AAAA5529
:10098000AA55AA000000FF00101010FF0014141454
:10099000FF001010FF00FF1010F010F0141414FCF2
:1009A000001414F700FF0000FF00FF1414F404FC0F
:1009B000141417101F10101F101F1414141F0010F0
:1009C0001010F0000000001F101010101F10101069
:1009D00010F010000000FF10101010101010101078
:1009E000FF10000000FF140000FF00FF00001F10B8
:1009F000170000FC04F414141710171414F404F472
:100A00000000FF00F714141414141414F700F71462
:100A10001414171410101F101F141414F4141010B1
:100A2000F010F000001F101F0000001F1400000055
:100A3000FC140000F010F01010FF10FF141414FF4D
:100A4000141010101F00000000F010FFFFFFFFFF48
:100A5000F0F0F0F0F0FFFFFF0000000000FFFF0FDC
:100A60000F0F0F0F38444438447C2A2A3E147E026C
:100A7000020606027E027E02635549416338444401
:100A80003C04407E201E2006027E020299A5E7A5B6
:100A9000991C2A492A1C4C7201724C304A4D4D3027
:100AA0003048784830BC625A463D3E494949007E4C
:100AB0000101017E2A2A2A2A2A44445F44444051E3
:100AC0004A444040444A51400000FF0103E080FF97
:100AD000000008086B6B083612362436060F090F23
:100AE00006000018180000001010003040FF01013F
:100AF000001F01011E00191D1712003C3C3C3C0068
:100B000000000000F0F89C8E8783878E9CF8F00030
:100B100000FEFF0303030303070EFCF80000FEFFC3
:100B20000303030303070EFCF80000FFFF000000AF
:100B300000000000FFFF0000FEFF8383838383C764
:100B4000EE7C380000F8FC0E07030303070EFCF8E8
:100B500000003F7FE0C08080C0E07F3FFFFF0101D9
:100B60000101010101FFFF0000FFFF0C0C0C0C1C38
:100B70003E77E3C100007FFFC0C0C0C0C0E0703F4F
:100B80001F00001F3F70E0C0C0C0E0703F1F0000AA
:100B90007FFFC1C1C1C1C1E3773E1C00001F3F7090
:100BA000E0C0C0C0E0703F1F000000000001FFFF78
:100BB00001000000D5F08D14A1C881CFD9F1AF207C
:100BC000001E11131E000000001E13111E00000065
:100BD00000FC828181819182FC000018242418008D
:100BE0000000003C24243C000000002424242400B5
:100BF0000000003C00003C000000002424243C00D5
:100C00000000003C2424240000000000000000003C
:100C100000000000000000000000000000000000D4
:100C20000000000000000000001E11131E00000064
:100C3000001E13111E00000000FC82818181918240
:100C4000FC47616D65204F766572210052656164D5
:100C50007900000018242418000000003C24243CE3
:100C60000000000024242424000000003C00003C7C
:100C7000000000002424243C000000003C24242424
:100C80000000000000000000000000000000000064
:100C90000000000000000000000000000000000054
:100CA000000017049704270575052006E006B8071D
:100CB0002D082D094D0A62792040696E615F616ED1
:100CC0006900535441474500504F4954544F000068
:100CD000C82011241FBECFEFDAE0DEBFCDBF27E072
:100CE000AEE0B2E001C01D92A132B207E1F712E01E
:100CF000A0E0B1E0E6E3F6E402C005900D92AE306C
:100D0000B107D9F716E0C9E6D6E004C02197FE0185
:100D10000E946721C836D107C9F70E94561E0C945D
:100D200019230C940000FC012281349680E0821784
:100D300031F041915191452B19F08F5FF8CF8FEF32
:100D40000895AF92BF92CF92DF92EF92FF920F93EE
:100D50001F93CF93DF937C016B015A0100E010E0F9
:100D6000F7018281081728F5E701C00FD11DC00FD8
:100D7000D11D8C819D810097D1F0C816D906B9F09C
:100D8000DC01ED91FC910088F189E02DB601099517
:100D9000882369F0A114B10449F08C819D81F5018B
:100DA000E10FF11DE10FF11D918380831F5F0F5F44
:100DB000D7CF812FDF91CF911F910F91FF90EF90AF
:100DC000DF90CF90BF90AF900895FC018585968508
:100DD00021893289280F391FB90137FF04C06627DE
:100DE0007727621B730B693071051CF436872587E2
:100DF0000AC0C90123E0880F991F2A95E1F70E94D4
:100E00005321768765872281338185859685820F78
:100E1000931F93838283089508950895EF92FF921C
:100E20000F931F93CF93DF93DB0112960D911C91CB
:100E30001397EC01EA81FB8114960D90BC91A02DD3
:100E4000EB0128853985EC014C815D81E884F984CA
:100E50008E819F81EB016E817F81600F711F8E0FEC
:100E60009F1F681779070CF4CB01BF01E017F1074A
:100E70000CF4B801861B970B18161906B4F4BA01C6
:100E80006E0D7F1DCD01820F931F681779070CF43B
:100E9000CB019A014A175B070CF49D01FC01E21B90
:100EA000F30B81E01E161F060CF080E0DF91CF915E
:100EB0001F910F91FF90EF90089508950895089560
:100EC000089508950895FC011382128215821482F8
:100ED00088E090E0978386839187808708950F93B9
:100EE0001F93CF93DF93EC018B01E881F981008898
:100EF000F189E02D09958823C1F0F80182858823C6
:100F0000A1F02F853889F801848195811216130686
:100F10002CF428853985821B930B05C0F8012085A8
:100F20003185820F931F9D838C83DF91CF911F9119
:100F30000F9108950C946F070F931F93CF93DF9336
:100F4000EC018B01E881F9810088F189E02D099598
:100F50008823C1F0F80182858823A1F02D853E8584
:100F6000F80182819381121613062CF42E813F81A1
:100F7000821B930B05C0F80126813781820F931FD6
:100F80009B838A83DF91CF911F910F9108950F93D7
:100F90001F93CF93DF93EC018B010E949C07F80114
:100FA0008285882339F08D859E859195819591095B
:100FB0009E878D87DF91CF911F910F910895FC013E
:100FC0008785908923893489280F391FB90137FF14
:100FD00004C066277727621B730B613471051CF40C
:100FE000308B27870AC0C90126E0880F991F2A95F0
:100FF000E1F70E945321708B6787248135818785B3
:101000009089820F931F958384830895FC018585C1
:10101000968521893289280F391FB90137FF04C00D
:1010200066277727621B730B613271051CF43687C4
:1010300025870AC0C90125E0880F991F2A95E1F785
:101040000E94532176876587228133818585968525
:10105000820F931F938382830895089588E00E94EE
:10106000D215882341F0809124028F5F809324025F
:1010700082E090E0089585E090E008952F923F92FD
:101080004F925F926F927F928F929F92AF92BF9298
:10109000CF92DF92EF92FF920F931F93CF93DF9344
:1010A000CDB7DEB72A970FB6F894DEBF0FBECDBF1F
:1010B0008C017C0186E5E80EF11C85E090E0D7010B
:1010C0008D939C9388E00E94D215882379F0F801D3
:1010D000EC5AFF4F0190F081E02D8589811106C007
:1010E0008CED9FEF908B878781E0858B0E949C1809
:1010F00086FF10C0F801EC5AFF4F0190F081E02DFF
:101100008585968501969687858781E0868BDD2487
:10111000D39401C0D12C0E949C1885FF0DC0F8010A
:10112000EC5AFF4F0190F081E02D8585968501975F
:1011300096878587168A0AC0D11008C0F801EC5A34
:10114000FF4F0190F081E02D16861586D12CF80115
:101150008281D81690F4F801ED0DF11DED0DF11D11
:1011600084819581009739F0DC01ED91FC91008438
:10117000F185E02D0995D394EACFD12CF801838134
:10118000D816A0F4ED2DF0E0B296EE0FFF1FE00FA1
:10119000F11F80819181009739F0DC01ED91FC9184
:1011A0000084F185E02D0995D394E8CFB12CD801C6
:1011B00013968C91B81608F08CC06801CB0CD11C2A
:1011C000CB0CD11CF4E4CF0ED11CD6018D919C9197
:1011D000009709F47CC0DC01ED91FC910480F5815D
:1011E000E02D0995F60160817181AE014F5F5F4F7F
:1011F000C8010E94A106782E811117C0D6018D91D9
:101200009C91DC01ED91FC910680F781E02D099520
:10121000F60160817181AE014F5F5F4FC8010E948E
:10122000A106782E811124C045C0CE0101964C0143
:10123000A12CD6018D919C91DC01ED91FC91D40102
:101240006D917C910484F585E02D0995F4018191DF
:1012500091914F01DC01ED91FC91D6016D917C9152
:101260000484F585E02D0995A394A710E2CFC6CF9D
:10127000FE0131964F01A12CD6018D919C91DC018C
:10128000ED91FC91D4016D917C910684F785E02D60
:101290000995F401819191914F01DC01ED91FC914F
:1012A000D6016D917C910684F785E02D0995A39474
:1012B000A710E2CFF60180819181DC011B962C9171
:1012C000222329F00E941622F60111821082B39483
:1012D0006ECFD12CF8018281D81690F4F801ED0D73
:1012E000F11DED0DF11D84819581009739F0DC0130
:1012F000ED91FC910284F385E02D0995D394EACF1A
:10130000D12CF8018381D816A0F4ED2DF0E0B2962F
:10131000EE0FFF1FE00FF11F80819181009739F0E0
:10132000DC01ED91FC910284F385E02D0995D394C5
:10133000E8CFB12CC8018C5A9F4F9A8789878EE2DB
:10134000C82E86E0D82E98EC292E312C2BE0422E88
:1013500022E0522E812C30E8932ED80113968C91E6
:10136000B81608F054C038016B0C711C6B0C711C62
:1013700094E4690E711CD3018D919C91009709F43E
:1013800044C0E985FA856081718186179707E9F184
:10139000DC01ED91FC910088F189E02D099588230D
:1013A000A1F1D301ED91FC918485823071F584E047
:1013B00090E0F70191838083809171008D7F80930D
:1013C000710010922B02D0922A02C0922902D09270
:1013D0002802C0922702A0E1B3E0B0932F06A093A9
:1013E0002E063092310620923006509233064092FB
:1013F0003206E0E9F1E0F0933506E093340690928E
:101400003706809236060E948717B394A6CFF7015D
:10141000808191812A960FB6F894DEBF0FBECDBFB2
:10142000DF91CF911F910F91FF90EF90DF90CF90C0
:10143000BF90AF909F908F907F906F905F904F90F4
:101440003F902F9008952F923F924F925F926F920C
:101450007F928F929F92AF92BF92CF92DF92EF9244
:10146000FF920F931F93CF93DF93CDB7DEB72C97E7
:101470000FB6F894DEBF0FBECDBF9C878B87F12CD3
:10148000AB85BC8512968C91F816A0F40B851C8553
:101490000F0D111D0F0D111DD80114968D919C91EA
:1014A0001597009729F00E941622F80115821482E0
:1014B000F394E6CFF12CEB85FC852380F214A8F49D
:1014C0008B859C858F0D911D8F0D911D8C010C5B63
:1014D0001F4FF80180819181009729F00E94162208
:1014E000D8011D921C92F394E6CF8EE090E00E940A
:1014F00081218C01BB24B394DC011A96BC921A970B
:1015000013961C921E92129715961C921E92149777
:10151000612C58E0752E17967C926E92169760E2B9
:10152000C62ED12C1996DC92CE9218971B961C923F
:101530001B971C961C921C971D961C921D977EE172
:10154000E72E71E0F72EED92FC928B859C850E9430
:101550009306EB85FC85E80FF11DE80FF11D15835F
:1015600004838EE090E00E9481218C01FC01B28610
:1015700013821282812CA4E09A2E95828482778233
:10158000668280E890E091878087138614861586AE
:10159000F182E0828B859C850E949306EB85FC8519
:1015A000E80FF11DE80FF11D158304838EE090E034
:1015B0000E9481218C01DC011A96BC921A97139625
:1015C0001C921E92129715961C921E9214971796B3
:1015D000DC92CE92169719969C928E9218971B9633
:1015E0001C921B971C961C921C971D961C921D9773
:1015F000ED92FC928B859C850E949306EB85FC8581
:10160000E80FF11DE80FF11D158304838EE090E0D3
:101610000E9481218C01FC01B28680EE97E09383C9
:101620008283D582C482D782C68280EE93E091877E
:101630008087138614861586F182E0828B859C85CF
:101640000E949306EB85FC85E80FF11DE80FF11D64
:10165000158304838091240290E4899F90011124D2
:101660003C832B83C12CD12C00E810E04B845C849C
:10167000A4E44A0E511C2B853C852C5A3F4F3887D9
:101680002F83560184E0AA0CBB1C8A95E1F7C601A2
:1016900002969C0194E0220F331F9A95E1F73E8356
:1016A0002D838B819C818C0D9D1D9C01220F331FEE
:1016B0003A832983E12CF12C812C912C332433940F
:1016C00050E4652E712CE981FA81E80DF91DEB508B
:1016D000FF4F4491842F90E0FC013197E931F105EF
:1016E00008F085C1EA5AFF4F0C946721F201A0E08F
:1016F000A21531F081919191892B21F0AF5FF8CF44
:101700002FEF01C02A2F89E190E02A870E948121D2
:10171000FC013286C70134E0880F991F3A95E1F742
:1017200093838283B582A482778266827186608683
:101730001386148616861586108A1786128A118AD1
:1017400084E391E091838083158A368AAB85BC85DA
:10175000B08FA78BAF81B885ED93FC932A85A22F1C
:10176000B0E09296AA0FBB1F2B853C85A20FB31F3A
:10177000ED93FC9382E090E0948B838B38C187E1FA
:1017800090E00E948121DC011A963C921A97C701D1
:1017900024E0880F991F2A95E1F713969C938E9366
:1017A00012972D813E8115963C932E931497179690
:1017B0001C930E93169719967C926E9218971B960F
:1017C0001C921B9750961C921E921F9752961C9229
:1017D0001E9251978AE491E011969C938E935596B0
:1017E0001C92559756963C925697E0E1F0E01E9673
:1017F000FC93EE931D9782E01C968C931C9722E03D
:1018000030E054963C932E935397F20120E022153A
:1018100031F081919191892B19F02F5FF8CF2FEF43
:10182000E22FF0E0B296EE0FFF1F2B853C85E20F12
:10183000F31FB183A083DBC08EE090E00E94812182
:101840009C01DC011A963C921A97C701F4E0880FBC
:10185000991FFA95E1F713969C938E93129715961C
:10186000BC92AE92149717961C930E9316971996E6
:101870001C930E9318971B961C921B971D961C92F7
:101880001D97E0E6F1E01196FC93EE931C963C92D6
:101890009EC08EE090E00E9481219C01DC011A969E
:1018A0003C921A97C701E4E0880F991FEA95E1F787
:1018B00013969C938E9312971596BC92AE921497A2
:1018C00017961C930E93169719961C930E931897C0
:1018D0001B961C921B971C961C921C97ECE8F1E03F
:1018E0001196FC93EE931D961C9271C084E290E0D9
:1018F00049870E9481219C01DC011A963C921A972B
:10190000C70174E0880F991F7A95E1F713969C93AD
:101910008E9312971596BC92AE92149717961C93BD
:101920000E93169719961C930E9318971B961C925C
:101930001B971C961C921C971D961C921D97E6E700
:10194000F1E01196FC93EE931E963C921E975A96E8
:101950001C925A9793961C9293978B859C855196CF
:101960009C938E93509749854A5D1F964C9331C046
:101970008EE090E049870E9481219C01DC011A964B
:101980003C921A97C70164E0880F991F6A95E1F7A6
:1019900013969C938E9312971596BC92AE921497C1
:1019A00017961C930E93169719961C930E931897DF
:1019B0001B961C921B971C961C921C97E2EAF1E066
:1019C0001196FC93EE934985445E1D964C938B854E
:1019D0009C852A8739870E949306EB85FC85E80F52
:1019E000F11DE80FF11D2A85398535832483FFEF2A
:1019F0008F1A9F0A28E0E20EF11C30E18316910451
:101A000009F061CE88E0C80ED11C90E4C916D1045B
:101A100009F037CE2C960FB6F894DEBF0FBECDBFBF
:101A2000DF91CF911F910F91FF90EF90DF90CF90BA
:101A3000BF90AF909F908F907F906F905F904F90EE
:101A40003F902F900895EF920F93FC0125853685E6
:101A5000648175818281938144E0759567954A958B
:101A6000E1F764507109EE24E39408E037FF04C005
:101A700028E045EE50E003C028E04DEE50E034E0B1
:101A8000959587953A95E1F70E94430F0F91EF9056
:101A900008950E94C315EBE9F6E0118E108E178AA7
:101AA000168A8EED90E00C94A215FC0120853185FC
:101AB00084E0359527958A95E1F74681578194E032
:101AC000559547959A95E1F76481758134E0759550
:101AD00067953A95E1F78281938154E095958795D2
:101AE0005A95E1F70C947415FC012085318584E04A
:101AF000359527958A95E1F74681578194E055956C
:101B000047959A95E1F76481758134E075956795FD
:101B10003A95E1F78281938154E0959587955A959E
:101B2000E1F70C947415FC01EA5AFF4F83E090E052
:101B300091838083E1E7F0E080818D7F8083109244
:101B40002B02EEE2F6E0F0932A02E0932902F093F2
:101B50002802E09327028BE092E09183808388EC57
:101B600090E09383828323E932E035832483978353
:101B7000868380E193E09187808780E991E0938775
:101B800082870C948717809115020895089580919B
:101B90001C0281110DC082E08093180284E08093C2
:101BA000190210921B0210921A0281E080931C020B
:101BB00088E192E00895CF93DF931F92CDB7DEB70F
:101BC0006983DC01ED91FC910280F381E02D41E01D
:101BD00050E0BE016F5F7F4F09950F90DF91CF916D
:101BE000089583E08093E9008091F200882319F042
:101BF0008AE38093E8000895FC018485958597FD2C
:101C00000BC09FB7F89482E08093E9008091F200C6
:101C10009FBF90E0019608959FB7F89482E080936B
:101C2000E9008091F2009FBF90E008958F929F920B
:101C3000AF92BF92CF92DF92EF92FF920F931F93DA
:101C4000CF93DF935C016B018A0180910B018823A4
:101C500009F45EC080912D02882309F459C0809157
:101C6000140280FF05C08091E00082608093E00054
:101C7000E8018AEFF82E93E0E92E2FE3822E3AE373
:101C8000932E209709F43DC08FB7F894E092E900B5
:101C90009091E80095FF06C09091F200282D291B35
:101CA000922F01C090E08FBF91110AC0FA94FF20DB
:101CB00079F161E070E080E090E00E94511DE1CF99
:101CC000292F30E0C217D3070CF49C2F8FB7F8945C
:101CD000E092E9002091E80025FF11C0292F30E0B3
:101CE000C21BD30BF601915020F041914093F100BB
:101CF000FACFC20ED31E9091E80095FF13C08FBF9C
:101D0000C0CF5D9884E6809317021016110644F048
:101D100081E090E0F5019383828380E090E005C04C
:101D2000C80103C09092E800EACFDF91CF911F91E4
:101D30000F91FF90EF90DF90CF90BF90AF909F906A
:101D40008F900895CF93DF931F92CDB7DEB7FC013C
:101D50008485958597FD05C02FEF3FEF3587248754
:101D60000BC0CE0101960E945D17019719F489817D
:101D700090E002C08FEF9FEF0F90DF91CF91089519
:101D80000F931F93CF93DF931F92CDB7DEB78C01D4
:101D9000FC018485958597FF0EC0CE0101960E94B7
:101DA0005D17019719F4298130E002C02FEF3FEF52
:101DB000F80135872487F801848595850F90DF9198
:101DC000CF911F910F910895DF92EF92FF920F93A1
:101DD0001F93CF93DF93D82E8A017B01E40EF51E6B
:101DE000EB01CE15DF0571F0D7FE03C0FE01849133
:101DF00001C088810E94161D21968111F2CF8FEFBC
:101E00009FEF01C0C801DF91CF911F910F91FF900B
:101E1000EF90DF9008950F931F93CF93DF931F925E
:101E2000CDB7DEB782E0898342E450E065E775E034
:101E300080E80E94E40E0E94C70DDC0112960D910D
:101E40001C9113970115110569F0D801ED91FC91D2
:101E50000280F381E02DBE016F5F7F4FC8010995BD
:101E600097FF07C089810F90DF91CF911F910F914C
:101E70000895F80100851185E5CF8EBD00000DB4F1
:101E800007FEFDCF08952F923F924F925F926F927F
:101E90007F928F929F92AF92BF92CF92DF92EF92FA
:101EA000FF920F931F93CF93DF93CDB7DEB72D979C
:101EB0000FB6F894DEBF0FBECDBFED82E22EF12C3F
:101EC0009C012E0D3F1D37FD32C1803891050CF06D
:101ED0002EC19B01200F311D37FD29C160347105D2
:101EE0000CF025C1DB0177FF04C0AA27BB27A61B86
:101EF000B70BA770BB279B0177FF02C0295F3F4F3D
:101F000013E0359527951A95E1F777FF08C0215022
:101F1000310968E070E0FB01EA1BFB0BDF01E02FF9
:101F2000E695E695E695CE2ED12C077019F0FFEFD9
:101F3000CF1ADF0AB9017695762F662777956795D0
:101F4000680F791F625D7D4F8601020F131F19878D
:101F50000887C12CD12CF8E0AF2EB12C85010A1BCB
:101F60001B0B1F830E83088519852017310709F481
:101F7000DEC02830310509F4DAC02F3F1FEF3107EA
:101F80000CF4CAC08B0100581F4F1D870C874B01F2
:101F90003B012B011C011C830B831A8309831B86C5
:101FA0001A860A851B850E151F050CF0B5C010E8B2
:101FB0002116310409F4B0C037FC89C02F3FEFEF80
:101FC0003E0709F4B0C00A851B850C0D1D1DFD815F
:101FD000F13079F4F801E40FF51FE491F0E08F019E
:101FE0000A2E01C0000F0A94EAF7F301B0800B2912
:101FF00025C0FD81F11114C0F801E40FF51FE49133
:10200000F0E00A2E02C0EE0FFF1F0A94E2F78F01E4
:1020100000951095F401A080B12C0A211B210EC05F
:10202000F801E40FF51FE491F0E08F010A2E01C0E2
:10203000000F0A94EAF7F201B0800B250083109795
:1020400009F445C02730310509F441C00A851B85D4
:102050000C0D1D1DFD81F13089F4F801E40FF51F11
:10206000E4910E2F10E00E8002C0159507950A949A
:10207000E2F7EC85FD85B0800B2928C0FD81F111C8
:1020800015C0F801E40FF51FE4910E2F10E00E804B
:1020900002C0159507950A94E2F700951095E9811D
:1020A000FA81A080B12C0A211B2110C0F801E40F95
:1020B000F51FE4910E2F10E00E8002C015950795D4
:1020C0000A94E2F7EB81FC81B0800B2500830A853E
:1020D0001B850F5F1F4F1B870A870C851D850F5FB0
:1020E0001F4F1D870C8709811A810F5F1F4F1A83AD
:1020F00009830B811C810F5F1F4F1C830B831FEF14
:10210000211A310AEFEF4E1A5E0AFFEF6F1A7F0AAB
:102110000FEF801A900A45CF2F5F3F4F60587F4FD7
:10212000CE0CDF1C20CF109709F090CFD0CF2D968A
:102130000FB6F894DEBF0FBECDBFDF91CF911F91D8
:102140000F91FF90EF90DF90CF90BF90AF909F9056
:102150008F907F906F905F904F903F902F90089559
:1021600060387105D0F440345105B8F4ECEFF5E077
:1021700080E1849FD001A0781124A60F4770E40F5E
:10218000F11DE491A25DBD4F222319F04C91E42B87
:1021900003C0E0954C91E423EC9308952F923F9275
:1021A0004F925F926F927F928F929F92AF92BF9267
:1021B000CF92DF92EF92FF920F931F93CF93DF9313
:1021C000CDB7DEB729970FB6F894DEBF0FBECDBFEF
:1021D000FC016A3069F4248D808D918D38E0239F55
:1021E000800D911D1124918F808F178A168AAAC0A5
:1021F0006D3009F4A7C099878887F48C338C228CC2
:10220000608C718C0689178900381105C4F0A88587
:10221000B9855C962C915C97422F50E056968D9133
:102220009C915797B6E02B9F800D911D1124E88556
:10223000F985978B868B258D21116EC083C0F0E4C4
:102240006F16710424F7C80125E0F29E800D911DE0
:10225000112418161906DCF68F2D90E09C838B83D1
:10226000C301A8E0FA9E800D911D112418161906CD
:1022700074F6B5E06B9FB0011124FB01EC5FF94FE0
:10228000FA83E98330E08885998504969E838D835F
:10229000E981FA81E490353009F4E12C430188E0CA
:1022A000482EE0FC02C0532C01C0522C51100BC030
:1022B000321009C0E6944A948B819C81880E991E45
:1022C0004110EFCF1BC068018C2D801B8F1590F73C
:1022D00054018A2D88198F1568F4252DA501B601A2
:1022E0008D819E813F830E94B0109FEFA91AB90A89
:1022F0003F81EFCFAFEFCA1ADA0AE6CF3F5FEB813B
:10230000FC810E0F1F1F89819A8101969A83898310
:10231000363009F0BDCF7BCF6AEF64039001659F33
:10232000300D112420583F4F281739075CF4A88539
:10233000B985ED91FC9111970190F081E02D6AE053
:10234000CD01099581E090E029960FB6F894DEBFA3
:102350000FBECDBFDF91CF911F910F91FF90EF90F6
:10236000DF90CF90BF90AF909F908F907F906F90B5
:102370005F904F903F902F9008951F920F920FB64D
:102380000F9211248F939F938091E1009091E1002F
:10239000937F9093E10083FF0FC01092E90091E0DA
:1023A0009093EB001092EC0092E39093ED0010926A
:1023B0002D0298E09093F00082FF20C093E090936C
:1023C000E9009091F200992319F09AE39093E800C4
:1023D00090911702992339F09091170291509093A0
:1023E0001702992389F190912C02992339F0909149
:1023F0002C02915090932C02992341F184FF10C03C
:102400008091E2008E7E81608093E2008091E10005
:102410008F7E8093E100809114028E7E806111C0D6
:1024200080FF16C08091E2008E7E80618093E20082
:102430008091E1008E7E8093E100809114028E7E77
:1024400081608093140204C05D9ACDCF289AD6CFC4
:102450009F918F910F900FBE0F901F9018951F9214
:102460000F920FB60F921124CF92DF92EF92FF924C
:102470000F931F932F933F934F935F936F937F938C
:102480008F939F93AF93BF93EF93FF93CF93DF937C
:10249000CDB7DEB76C97DEBFCDBF1092E90080915B
:1024A000E80083FFFAC168E0CE0145960E94441D12
:1024B00082EF8093E8008D8987FF05C09091E80046
:1024C00090FFFCCF03C09EEF9093E800982F90768A
:1024D00009F0C6C09E892F89188D91110CC08038D3
:1024E00029F4809113028093F10002C01092F10050
:1024F0001092F10047C1422F50E0512B913051F41E
:10250000811140C14130510509F03CC18091130255
:102510008D7F0BC0933061F4811134C1413051057E
:1025200009F030C1809113028260809313022AC1A6
:10253000953041F48091E80080FFFCCF2068209323
:10254000E30020C1963009F05FC0EB8CFC8C109248
:10255000E9001092110210921002123091F51092BF
:102560000F0210920E020E940B0F99E0BE016F5FE6
:102570007F4FDB01E92F1D92EA95E9F799831A83D2
:1025800091E09E8390EA98879AEF998720911002B4
:1025900030911102275F3F4F3C832B838D83109234
:1025A000E9001092110210921002F0920F02E092D4
:1025B0000E0249E050E080E00E94E40E0E940B0F02
:1025C000E1C0F0920F02E0920E020E94C70DDC0102
:1025D0001296ED90FC901397E114F10409F4C0C039
:1025E000D701ED91FC910480F581E02DBE016B5E79
:1025F0007F4FC7010995009719F00CF0C3C0C6C002
:10260000F701E084F184E8CF973009F4BFC0983037
:1026100021F481E08093F100B5C0993009F0B2C097
:10262000837009F0B3C0E5EBF1E081E021E036E32F
:102630009081992361F08093E9002093EB009191C0
:102640009093EC003093ED008F5F873089F78EE731
:102650008093EA001092EA008F8980932D0292C045
:102660008B8D9C8D1092E900109211021092100235
:1026700090930F0280930E02898D811156C08E892E
:102680009D89913A59F4813209F080C047E050E0C9
:1026900064E071E080E00E94E40E74C0913209F0C1
:1026A00075C0833289F4888D90E0982F88272F8910
:1026B000822BA0E0B0E08093000190930101A093F1
:1026C0000201B09303015EC0803269F48091E8009A
:1026D00082FFFCCF67E084E091E00E94441D8BEF15
:1026E0008093E80006C0823209F04CC08F89809345
:1026F0000B0180911202882319F0EEEFFAE002C07C
:10270000E0E0F8E08091040190910501A0910601BC
:10271000B0910701803B9440A105B10509F088C044
:1027200080910B0180FFA0C083C00E94C70DDC0117
:1027300012960D911C9113970115110539F1D801CD
:10274000ED91FC910190F081E02DBE016B5E7F4F19
:10275000C8010995811116C0F80100851185ECCFDB
:102760001130C1F0133091F48F89882309F455C0DA
:102770008230E9F440E860E187EC95E00E94191EA0
:10278000882321F08EEF8093E80087C081E2809358
:10279000EB0083C08B8D9C8D089711F4109316026B
:1027A00080911602811136C068ED75E038C0813025
:1027B00029F440E86BE08BEB95E0E0CF833031F714
:1027C0000E94C70DDC011296ED90FC9013978E01CC
:1027D0000F5F1F4F6801E114F10479F0D701ED910B
:1027E000FC910680F781E02DB801C7010995080F1B
:1027F000111DF701E084F184EECFD8011C92F6019F
:1028000001900020E9F73197BF016C197D0940E084
:10281000C601B4CF6AEE75E002C067EB75E06115E2
:10282000710509F4B3CFFB01449150E080E833CF48
:102830000FB6F894A895809160008861809360003D
:10284000109260000FBEA895EE3F2AE0F20739F023
:102850008091FE0A9091FF0A9183808393CF10921A
:10286000FF0A1092FE0A8ECFEE3F8AE0F80731F0A1
:10287000808191819093FF0A8093FE0A87E797E712
:10288000918380839BE088E10FB6F894A8958093AC
:1028900060000FBE9093600075CF6C960FB6F894F1
:1028A000DEBF0FBECDBFDF91CF91FF91EF91BF9102
:1028B000AF919F918F917F916F915F914F913F91D8
:1028C0002F911F910F91FF90EF90DF90CF900F907D
:1028D0000FBE0F901F901895CF92DF92EF92FF924C
:1028E0000F931F93CF93DF936C017A018B01C0E0AC
:1028F000D0E0CE15DF0589F0D8016D918D01D601AC
:10290000ED91FC910190F081E02DC6010995892B94
:1029100011F47E0102C02196ECCFC701DF91CF9167
:102920001F910F91FF90EF90DF90CF9008950E943C
:10293000AE229C01240F311D1216130674F5803847
:1029400091055CF5FC0197FF02C0E0E0F0E0213862
:10295000310514F020E830E02E1BAB0147705527FD
:1029600081E001C0880F4A95EAF777FF02C0695FEE
:102970007F4F93E0759567959A95E1F77695762F59
:10298000662777956795E60FF71FE25DFD4F2150AB
:1029900020F09081982B9193FACF089580912B028B
:1029A000E0912902F0912A02882349F0CF01029692
:1029B00090932A0280932902859194910895CF01E2
:1029C000029690932A028093290280819181089532
:1029D000FF920F931F93CF93DF93EC018B01F42EA3
:1029E00042FF12C021E0AB01BC016F5F7F4F8FE956
:1029F00096E00E94B01021E0A8014F5F5F4FBE013A
:102A00008FE996E00E94B010F1FE12C021E0A8010B
:102A1000BE016F5F7F4F8FE996E00E94B01021E00A
:102A2000A80141505109BE018FE996E00E94B01003
:102A3000F3FE12C021E0A8014F5F5F4FBE018FE996
:102A400096E00E94B01021E0A801BE01615071091A
:102A50008FE996E00E94B010F0FE17C0A801415027
:102A6000510921E0BE018FE996E00E94B010BE013D
:102A70006150710921E0A8018FE996E0DF91CF91C3
:102A80001F910F91FF900C94B010DF91CF911F9187
:102A90000F91FF900895EF92FF920F931F93CF93A2
:102AA000DF937C018B01040F111DEB0177FF0EC03A
:102AB000C0E0D0E00BC0C217D3077CF421E0AE0128
:102AC000B7018FE996E00E94B01021969801013479
:102AD00011058CF320E430E0EECFDF91CF911F9110
:102AE0000F91FF90EF900895EF92FF920F931F9335
:102AF000CF93DF93EC018B01E42EF22E603471054D
:102B000010F40E949914B8016F0D711D6150710984
:102B10006034710520F44E2DCE010E9499144F2D82
:102B2000B801CE010E944B15CE018E0D911D4F2D87
:102B3000B8010197DF91CF911F910F91FF90EF9016
:102B40000C944B150F931F93CF93DF938C01C0E030
:102B5000D0E0F801EC0FFD1F6491662371F0E09165
:102B60009B06F0919C060190F081E02D8BE996E0A8
:102B70000995892B11F02196ECCFCE01DF91CF91F1
:102B80001F910F91089520E08EE292E0B22FB111D3
:102B9000BFEFFC010024B193B193B193B1930394BF
:102BA000D1F708952091A506282329F49091A40631
:102BB000982381E009F480E008955F926F927F92FC
:102BC0008F929F92AF92BF92CF92DF92EF92FF923D
:102BD0000F931F93CF93DF93EC018B017A01A9012F
:102BE000461B570B57FF03C0519541955109C7012B
:102BF0008C1B9D0B97FF03C09195819591095524DE
:102C000053948417950714F0512C0AC09E2D8F2DD4
:102C10007901292F382F9C2F8D2FE801092F182F8C
:102C2000EC16FD0654F4902F812F8901292F382F9F
:102C30009C2F8D2FE701E92EF82E37016C1A7D0AA3
:102C40005901A01AB10AB7FE03C0B194A194B1080A
:102C5000630177FE03C08FEFC81AD80AD594C794D2
:102C60000217130714F08FEF01C081E0882E880F40
:102C70009908EC16FD06B4F021E0552019F0AE01DC
:102C8000B80102C0A801BE018FE996E00E94B01011
:102C9000CA18DB08D7FE04C0080D191DC60CD71CC6
:102CA0002196E7CFDF91CF911F910F91FF90EF9089
:102CB000DF90CF90BF90AF909F908F907F906F905C
:102CC0005F9008958F929F92AF92BF92CF92DF92C2
:102CD000EF92FF920F931F93CF93DF93EC014B0181
:102CE000A42E122F0EEF040F6C018FEFC81AD80A12
:102CF0006034710520F4402FC6010E9499147401BC
:102D0000E10EF11CB701615071096034710520F4C6
:102D1000402FC6010E9499148EEFB82EB10E840187
:102D20000F5F1F4F4B2DB801CE010E944B15CA0DEE
:102D3000D11D4B2DB801CE0101970E944B1541E0EA
:102D4000B801C6010E94E814229742E0B801CE0102
:102D50000E94E81482E0E81AF10844E0B701CE01CD
:102D60000E94E81448E0B701C601DF91CF911F919E
:102D70000F91FF90EF90DF90CF90BF90AF909F901A
:102D80008F900C94E8148F929F92AF92BF920F9302
:102D90001F93CF93DF93CDB7DEB7A1970FB6F8940B
:102DA000DEBF0FBECDBF19A2423008F44AE08E014B
:102DB0000F5D1F4F842E912CA12CB12CA5019401E5
:102DC0000E94E822E62FB901CA0101501109EA3038
:102DD00014F4E05D01C0E95CD801EC93232B242BB3
:102DE000252B61F70115110571F0F8010190002004
:102DF000E9F73197AF01401B510BB8018BE996E021
:102E00000E946C1402C080E090E0A1960FB6F89486
:102E1000DEBF0FBECDBFDF91CF911F910F91BF904D
:102E2000AF909F908F900895EF92FF920F931F9312
:102E3000CF93DF937C01EB01042F122F40FF0DC0D5
:102E400041E0420F01960E944B1543E0410FBE0145
:102E500061507109C7010E944B1501FF15C041E087
:102E6000410FBE01C70101970E944B1543E0410F7E
:102E7000BE0161507109C701DF91CF911F910F9180
:102E8000FF90EF900C944B15DF91CF911F910F9114
:102E9000FF90EF90089580912E028EBDEFE2F2E058
:102EA00081910DB407FEFDCF8EBD86E0EE32F807AE
:102EB000B9F70DB407FEFDCF0895FC0180912D02F6
:102EC000811103C08FEF9FEF08959FB7F89482E0C0
:102ED0008093E9002091F20030E01216130614F4FA
:102EE00021E030E02115310559F0289884E68093DF
:102EF0002C028091F10080838091F200882319F0E8
:102F00009FBFC90108958BE68093E800F9CFCF9267
:102F1000DF92EF92FF920F931F93CF93DF930E9464
:102F2000CE14811520E8920761F4809171008D7FA5
:102F30008093710010929100469847981092BB06BA
:102F40008BC021E02093BB06813020E8920751F42A
:102F5000809127029091280290932A02809329025F
:102F60000E94CE1497FD05C02091BA06222309F4D1
:102F70003FC02091B90621113BC021E02093BC063F
:102F8000EC01DF77209769F481E08093BD064698D5
:102F90003FE9C32E3FE0D32EE12CF12CCAEFD0E065
:102FA00014C08E0120E030E060E472E48FE090E035
:102FB000A90198010E94C92269017A0181E0C81A19
:102FC000D108E108F1081092BD06E0911207F091D6
:102FD00013070995811103C081E08093BD0680919C
:102FE000BC068823B9F18091BD06811133C003C0AE
:102FF0001092BC06C5CF46992DC0479A0E94CE14A8
:10300000009771F09C01DE010E940A23DC01CB01D4
:1030100029E0B595A795979587952A95D1F703C08F
:103020008FEF9FEFDC01109290002AE02093910037
:10303000D0929900C09298008093BE069093BF06EC
:10304000A093C006B093C106809171008260809306
:10305000710002C04798D2CFDF91CF911F910F919D
:10306000FF90EF90DF90CF9008951F920F920FB6D0
:103070000F9211242F933F934F935F936F937F93FE
:103080008F939F93AF93BF93EF93FF938091BE066F
:103090009091BF06A091C006B091C106892B8A2BE2
:1030A0008B2B81F18091BD0681110BC098B180E41A
:1030B000892788B98091BC06882319F088B1805887
:1030C00088B98091BE069091BF06A091C006B091CC
:1030D000C106181619061A061B06B4F48091BE061E
:1030E0009091BF06A091C006B091C1060197A109B9
:1030F000B1098093BE069093BF06A093C006B0931B
:10310000C10602C00E948717FF91EF91BF91AF9156
:103110009F918F917F916F915F914F913F912F91EF
:103120000F900FBE0F901F9018952D9A0895BC0117
:1031300080E090E00C94511D8FB12CB193B130E040
:103140002095309520743327A90123E055954795A4
:103150002A95E1F7292F30E020953095207133270B
:103160003595279535952795242B8095807F822B43
:10317000089583B7817F83BF83B7816083BF8895BC
:1031800083B78E7F83BF089520912402FC012283A0
:103190000895FC0193A1DF01529680E0891741F068
:1031A00019962D913C911A972D933D938F5FF6CFF1
:1031B000828F13A20895DC0193968C919397FD0161
:1031C0007B9690E0981739F02191319126173707B7
:1031D00061F09F5FF7CFFD01E90FF11DE90FF11DD0
:1031E000748F638F9F5F93969C930895DC019396F1
:1031F0008C919397FD017B9690E0981739F021917F
:1032000031912617370761F09F5FF7CFFD01E90F76
:10321000F11DE90FF11D748F638F9F5F93969C934F
:103220000895FC01138212821582148288E090E0D6
:1032300097838683918780870895FC01228133815B
:103240002150310929F03383228385E090E00895ED
:1032500084E690E09383828381E090E0089524E601
:1032600030E0FC013383228308950895FC018585B5
:10327000968521893289280F391FB90137FF04C08B
:1032800066277727621B730B693071051CF436873C
:1032900025870AC0C90123E0880F991F2A95E1F705
:1032A0000E945321768765872281338185859685A3
:1032B000820F931F9383828308950895FC011382E4
:1032C00012821582148288E090E09783868391872A
:1032D0008087158608950895FC0113821282158255
:1032E000148288E090E09783868391878087089591
:1032F000FC01138212821582148288E090E0978389
:103300008683918780870895EBE9F6E0178A168A0D
:103310008EE190E0918F808F81E0828F138E81E427
:103320009CE00C94A2150F931F93CF93DF938C0115
:103330000E94C315CBE9D6E0198E188E1F8A1E8A0B
:1033400088EC9CE00E94A21520E230E03F8B2E8B9F
:10335000398F288F82EC9CE00E94A215E881F981C8
:10336000D80112966C91605D0190F081E02DCE0144
:10337000099580E390E09F8B8E8B86E390E0998F98
:10338000888F86EB9CE0DF91CF911F910F910C9479
:10339000A215CF93DF93EC0188E00E94D215882319
:1033A00031F08A818093240281E090E016C080E8A9
:1033B0000E94D215882329F08A81882311F0815038
:1033C0008A8380E10E94D215882329F08A8189307E
:1033D00010F48F5F8A8385E090E0DF91CF910895AC
:1033E00088E00E94D215811103C085E090E0089525
:1033F00080E090E00895EF92FF920F931F93CF9398
:10340000DF93DC0193965C9193975A962C91251744
:1034100028F152136AC040E070E07C01B2E1EB0E8B
:10342000F11C4517C1F0F70160E09C01240F311D2C
:10343000240F311D255E3F4F651759F0C191D19181
:10344000D9010D911C910C171D0709F071E06F5FF8
:10345000F3CF4F5FE6CF772309F447C0FC01C68561
:1034600081E0C827C687D78500891189ED2FEE0F27
:10347000FF0BEE5BF34F25913491809171008D7FAE
:103480008093710010922B028EE296E090932A02B4
:1034900080932902909328028093270230932F066D
:1034A00020932E0684E690E09093310680933006B8
:1034B00080E090E890933306809332060E9487174D
:1034C00080E0F8019281891780F4F801E80FF11D7E
:1034D000E80FF11D0480F581E02D309721F09585EE
:1034E0009D1301C0C2878F5FECCFDF91CF911F91F9
:1034F0000F91FF90EF900895EF920F93FC012689B2
:10350000648175818281938144E0759567954A95C0
:10351000E1F761507109EE24E39408E0222321F0E1
:1035200028E049E25CE003C028E041E35CE034E0ED
:10353000959587953A95E1F70E94430F0F91EF908B
:103540000895EF920F93FC016481758184E0759575
:1035500067958A95E1F782819381EE24E39408E0F0
:1035600028E041ED5BE034E0959587953A95E1F7E9
:103570000E94430F0F91EF9008953F924F925F92F8
:103580006F927F928F929F92AF92BF92CF92DF9273
:10359000EF92FF920F931F93CF93DF93EC01088577
:1035A0001985F4E015950795FA95E1F7302E4E80D0
:1035B0005F80A4E055944794AA95E1F7EC80FD80E4
:1035C000B4E0F594E794BA95E1F7CA80DB8084E033
:1035D000D594C7948A95E1F78EEF840D56019FEF3D
:1035E000A91AB90A35014501880E911C681479049D
:1035F0004CF4432DB701C3010E944B158FEF681A9D
:10360000780AF4CF1127035011099FEFE91AF90A3C
:10361000C601840D911D980141E0B70102970E94F7
:103620001417980142E0B701C5010E9414170885DC
:10363000198584E0159507958A95E1F72E813F81DC
:1036400094E0359527959A95E1F74F8588E04802F3
:10365000A00111244E52554F6C817D8134E0759547
:1036600067953A95E1F78A819B81E12CE4E0959595
:103670008795EA95E1F70E94430FDF91CF911F9163
:103680000F91FF90EF90DF90CF90BF90AF909F9001
:103690008F907F906F905F904F903F900895CF9262
:1036A000DF92EF92FF92CF93DF93EC010E94C3155C
:1036B0001092B4061092B3061092B2061092B106A0
:1036C0008CE49CE00E94A21580E290E09093B20608
:1036D0008093B1061092B4061092B306CA80DB80C4
:1036E0000D2C000CEE08FF08F7FE14C0E0919B06BD
:1036F000F0919C060190F081E02D6DE28BE996E05F
:10370000099566277727CB016C197D098E099F09DA
:103710004AE003C04AE0C701B601DF91CF91FF90B4
:10372000EF90DF90CF900C94C3160F931F93CF931D
:10373000DF93EC018B010E946F07F80182858823DB
:1037400041F08F859889181619060CF41D8A188A7D
:103750001F86F8018485813041F48F89988DDF912F
:10376000CF911F910F910C94930DDF91CF911F91E9
:103770000F9108950F931F93CF93DF93EC018B016B
:103780000E949C07F8018485813041F48F89988DCF
:10379000DF91CF911F910F910C94930DDF91CF91F9
:1037A0001F910F910895FC012085318584E03595A6
:1037B00027958A95E1F74681578194E0559547957D
:1037C0009A95E1F76481758134E0759567953A952E
:1037D000E1F78281938154E0959587955A95E1F7B9
:1037E0000C946216EF920F931F93CF93DF93EC012B
:1037F000EA85288539854E815F816C817D818A814A
:103800009B81EE23A9F1B4E035952795BA95E1F7B0
:1038100014E0559547951A95E1F704E0759567957D
:103820000A95E1F734E0959587953A95E1F70E947E
:1038300062160885198544E0159507954A95E1F7C4
:103840002E813F8154E0359527955A95E1F74D85B6
:1038500088E04802A0011124475A554F6C817D81B0
:10386000E4E075956795EA95E1F78A819B8118C038
:103870008901E4E015950795EA95E1F79A01F4E0EE
:1038800035952795FA95E1F74D85E8E04E02A001C0
:103890001124475A554FA4E075956795AA95E1F70D
:1038A000EE24E39434E0959587953A95E1F70E94EC
:1038B000430FDF91CF911F910F91EF9008950F93D8
:1038C0001F93CF938C010E94C3151092B4061092DF
:1038D000B3061092B2061092B10620E030E044E048
:1038E00050E060E070E080E090E00E94DD1524E0B0
:1038F00030E040E050E060E070E080E090E00E9466
:10390000DD1520E030E04FE750E060E070E08BE74D
:1039100090E00E94DD1524E030E04FE750E060E0E9
:1039200070E08FE790E00E94DD152FE330E04FE775
:1039300050E06BE370E08FE790E00E94DD152FE32D
:1039400030E04FE750E06FE370E08BE790E00E94DB
:10395000DD152FE330E040E050E06BE370E080E005
:1039600090E00E94DD152FE330E044E050E06FE38B
:1039700070E080E090E00E94DD15C0E0F8018281F7
:10398000C81790F4F801EC0FF11DEC0FF11D8481C4
:103990009581009739F0DC01ED91FC910280F38173
:1039A000E02D0995CF5FEACFC0E0F8018381C81709
:1039B000A0F4EC2FF0E0B296EE0FFF1FE00FF11F26
:1039C00080819181009739F0DC01ED91FC910280BA
:1039D000F381E02D0995CF5FE8CFCF911F910F9133
:1039E00008953FB7F8948091190790911A07A09114
:1039F0001B07B0911C0726B5A89B05C02F3F19F0E7
:103A00000196A11DB11D3FBFBA2FA92F982F88275E
:103A1000820F911DA11DB11DBC01CD0142E0660FB9
:103A2000771F881F991F4A95D1F70895409110027A
:103A30005091110220910E0230910F02421753074C
:103A4000B4F49091E8009570E1F39091E80092FD54
:103A500019C08093F100809110029091110201969B
:103A60008F739927892B19F48EEF8093E80080914A
:103A7000100290911102019690931102809310020E
:103A800081E0089580E00895615030F02091F100C8
:103A9000FC0120830196F8CF289884E680932C02BD
:103AA00008958F929F92AF92BF92CF92DF92EF9242
:103AB000FF926B017C010E94F11C4B015C01C1145F
:103AC000D104E104F104F1F00E94F11CDC01CB010E
:103AD00088199909AA09BB09883E9340A105B10537
:103AE00070F321E0C21AD108E108F10888EE880ECF
:103AF00083E0981EA11CB11CC114D104E104F1049F
:103B000019F7DDCFFF90EF90DF90CF90BF90AF908F
:103B10009F908F9008951F920F920FB60F921124CD
:103B20002F933F938F939F93AF93BF9380911407ED
:103B300090911507A0911607B091170730911807BB
:103B400023E0230F2D3720F40196A11DB11D05C0E0
:103B500026E8230F0296A11DB11D2093180780931C
:103B6000140790931507A0931607B0931707809139
:103B7000190790911A07A0911B07B0911C07019695
:103B8000A11DB11D8093190790931A07A0931B07DD
:103B9000B0931C07BF91AF919F918F913F912F914F
:103BA0000F900FBE0F901F9018950F931F93CF93F8
:103BB000DF938C0181E090E00E94B32280FF31C04E
:103BC0008AE090E00E94B3229FEF980F9E3F48F555
:103BD00022E330E0D80157963C932E93569728E382
:103BE00030E059963C932E935897CBE0D0E0D80123
:103BF000ED91FC910190F081E02D682FC8010995AD
:103C0000CE010E94B3222196C131D10581F70E94D5
:103C10004B1788EE93E0DF91CF911F910F910C9499
:103C20009718DF91CF911F910F91089504970C94ED
:103C3000D51DCF92DF92EF92FF920F931F93CF93F8
:103C4000DF931F92CDB7DEB7182F062FE42E862FF5
:103C5000880F8E5F99830E94161D83E00E94161DB7
:103C6000F12EC12E9981D92E8C2D8F19801798F4A1
:103C7000F601E7FE02C0849101C080810E94161DFA
:103C8000182F80E00E94161D8123FFEFCF1ADF0A54
:103C90008111EACF01C081E00F90DF91CF911F9198
:103CA0000F91FF90EF90DF90CF900895789484B5B6
:103CB000826084BD84B5816084BD85B5826085BD28
:103CC00085B5816085BD80916E00816080936E00B6
:103CD00010928100809181008260809381008091A8
:103CE0008100816080938100809180008160809359
:103CF000800080919100826080939100809191007A
:103D00008160809391008091900081608093900009
:103D10008091C10084608093C1008091C100826065
:103D20008093C1008091C10081608093C100809127
:103D3000C30081608093C3008091C0008260809343
:103D4000C0008091C20081608093C20080917A009F
:103D5000846080937A0080917A00826080937A00F8
:103D600080917A00816080937A0080917A008068E7
:103D700080937A0010922D02109213021092140276
:103D80008091D70081608093D70080EA8093D8002B
:103D900089B5806189BD89B5826089BD09B400FE9D
:103DA000FDCF61E070E080E090E00E94511D8091C5
:103DB000D8008F7C80618093D8008091E000807F64
:103DC0008093E0008091E1008E7E8093E1008DE0A1
:103DD0008093E200559A209AEEEFFFE78591949147
:103DE0008B3F9C4D19F481E08093120281EC80930B
:103DF0007C0085B1806F85B9249884B1866E84B9C2
:103E00005E9A5F988AB1806D8AB9769A6E9881B30E
:103E1000806F81BB899880B38D7080BB80E58CBD3D
:103E200081E08DBD85E090E00E9497185F9A85E063
:103E300090E00E9497185E985C98C4EBDBE01C2F22
:103E4000135FFE0184910E943D0F21961C13F9CF50
:103E50005C9A81E88093640081E080936500C0E013
:103E6000D4E080E00E943D0F2197D9F70E949C1872
:103E700087FF1FC05C9885EA0E943D0F5C9A2E98D0
:103E80002F982D98809164008062809364000E9436
:103E9000B918FDCF2D980E949C188478843871F051
:103EA0000E949C188471843131F188EC90E00E946A
:103EB00097180E949C1882FDEDCF3AC00E94951879
:103EC00088EC90E00E9497182F9882E090E00E9482
:103ED000B3228F3F29F06FEF82E090E00E94BB2277
:103EE00084EF91E00E9497182F9A0E949C18847882
:103EF0008438D9F3D5CF0E94951888EC90E00E94C1
:103F000097182E9882E090E00E94B322882329F02F
:103F100060E082E090E00E94BB2284EF91E00E948A
:103F200097182E9A0E949C1884718431D9F3BDCFC2
:103F30000E94951882E090E00E94B322882331F01D
:103F40003E9A3F9A81E08093150204C010921502B8
:103F50003E983F982E98CEEEDFEF0E949C1886FF89
:103F600004C02E9A2F9A2D9A3BC0CC3F2FEFD20738
:103F700019F42E9A2F9805C0C831D10511F42F9A43
:103F80002D980E94C315EE24E39400E128E544E057
:103F90005BE0BE0184E190E00E94430F0E944B175A
:103FA0008BE190E00E949718C03F8FEFD80721F473
:103FB0008AEF90E00E9497182196C931D10569F6E1
:103FC0008CEB92E00E9497180E949518E0919F0652
:103FD000F091A0060190F081E02D8FE996E009951F
:103FE00082E390E00E9497180E949C188111F8CFFC
:103FF00080E18093A6068091240280939A0680E453
:1040000096E00E94230A84E690E090933F06809316
:104010003E061092240288E996E09093260280934F
:104020002502C0E0D0E0992493940CE316E02EE042
:10403000E22E21E0F22E3CE0C32E31E0D32E5C01D3
:104040002FB7F8948091140790911507A091160747
:10405000B09117072FBF4091AB065091AC0660910D
:10406000AD067091AE062091AF06222341F020915B
:10407000A706821B8093B0061092AF0683C08417F8
:104080009507A607B70738F4481B423008F47AC0F2
:104090000E94B91877C09092AF068093A7069093BC
:1040A000A806A093A906B093AA062091A606820F9F
:1040B000911DA11DB11D8093AB069093AC06A093FA
:1040C000AD06B093AE068091A2069091A30601962C
:1040D0009093A3068093A2068091A4068093A506E0
:1040E0000E949C188093A40680912502909126023C
:1040F000DC01ED91FC910280F381E02D09953C01FA
:104100008091250290912602DC01ED91FC910480C2
:10411000F581E02D09950E944B17B2E06B167104F2
:10412000F9F08CF46114710401F16A94672851F577
:1041300080E496E00E94230A80E496E090932602B1
:10414000809325021FC023E062167104B9F084E059
:1041500068167104B9F4D0922602C092250212C0EA
:1041600010932602009325020DC0809124028093B3
:104170009A06B0922602A092250204C0F09226026E
:10418000E0922502209709F45BCF0E94000058CFEF
:104190001092C5061092C40688EE93E0A0E0B0E04D
:1041A0008093C6069093C706A093C806B093C9062D
:1041B00083ED91E09093C3068093C2068FEF9FEF4B
:1041C0009093CF068093CE0610929E0610929D0685
:1041D0001092A4061092A50620E12093A6069093C3
:1041E000A3068093A2061092AB061092AC06109222
:1041F000AD061092AE061092AF068DEE91E0909350
:104200009C0680939B0687EF91E09093A006809395
:104210009F061092B2061092B1061092B406109248
:10422000B30681E08093B5061092B6068093B70678
:104230001092B80683EC9DE09093130780931207C9
:1042400080E090E890933B0680933A0646983E9A29
:1042500047983F9A87E092E090939906809398065A
:1042600083EE91E0909341068093400680E2809334
:10427000420688E080934306E4E4F6E0119211924E
:1042800086E0E438F807D1F7E4E8F6E011921192FD
:1042900086E0E439F807D1F78DEF91E090933D0681
:1042A00080933C06089597FB072E16F4009407D0E0
:1042B00077FD09D00E946D2107FC05D03EF4909552
:1042C00081959F4F0895709561957F4F0895EE0FEA
:1042D000FF1F0590F491E02D0994AA1BBB1B51E12F
:1042E00007C0AA1FBB1FA617B70710F0A61BB70B66
:1042F000881F991F5A95A9F780959095BC01CD010B
:104300000895CF93DF938230910510F482E090E01E
:10431000E0911F07F091200720E030E0C0E0D0E0FE
:10432000309711F14081518148175907C0F0481763
:10433000590761F482819381209719F09B838A83C6
:104340002BC09093200780931F0726C021153105AD
:1043500019F04217530718F49A01BE01DF01EF016B
:104360000280F381E02DDCCF2115310509F1281BF6
:10437000390B2430310590F412968D919C9113974E
:104380006115710521F0FB019383828304C0909332
:10439000200780931F07FD01329644C0FD01E20F04
:1043A000F31F81939193225031092D933C933AC08E
:1043B00020911D0730911E07232B41F420911201FB
:1043C0003091130130931E0720931D072091100197
:1043D000309111012115310541F42DB73EB74091BF
:1043E000140150911501241B350BE0911D07F0912C
:1043F0001E07E217F307A0F42E1B3F0B28173907FF
:1044000078F0AC014E5F5F4F2417350748F04E0F30
:104410005F1F50931E0740931D078193919302C025
:10442000E0E0F0E0CF01DF91CF9108950F931F936B
:10443000CF93DF93009709F48CC0FC01329713826D
:10444000128200911F07109120070115110581F4B8
:1044500020813181820F931F20911D0730911E070B
:104460002817390779F5F0931E07E0931D0771C0EF
:10447000D80140E050E0AE17BF0750F412962D91DE
:104480003C911397AD012115310509F1D901F3CF05
:104490009D01DA013383228360817181860F971F2A
:1044A0008217930769F4EC0128813981260F371FA1
:1044B0002E5F3F4F318320838A819B819383828348
:1044C000452B29F4F0932007E0931F0742C0139671
:1044D000FC93EE931297ED01499159919E01240F9F
:1044E000351FE217F30771F480819181840F951FC6
:1044F000029611969C938E938281938113969C933E
:104500008E931297E0E0F0E0D80112968D919C9185
:104510001397009719F0F8018C01F6CF8D919C91BB
:1045200098012E5F3F4F820F931F20911D073091FE
:104530001E072817390769F4309729F410922007CD
:1045400010921F0702C01382128210931E0700935D
:104550001D07DF91CF911F910F91089581E090E0A9
:10456000F8940C941923F999FECF92BD81BDF89A65
:10457000992780B50895262FF999FECF1FBA92BDCD
:1045800081BD20BD0FB6F894FA9AF99A0FBE019634
:104590000895052E97FB1EF400940E94E02257FD1B
:1045A00007D00E94E82207FC03D04EF40C94E022CE
:1045B00050954095309521953F4F4F4F5F4F08954F
:1045C00090958095709561957F4F8F4F9F4F08957F
:1045D000A1E21A2EAA1BBB1BFD010DC0AA1FBB1F07
:1045E000EE1FFF1FA217B307E407F50720F0A21B79
:1045F000B30BE40BF50B661F771F881F991F1A94E6
:1046000069F760957095809590959B01AC01BD010F
:10461000CF010895A29FB001B39FC001A39F700D69
:10462000811D1124911DB29F700D811D1124911DBA
:064630000895F894FFCF8D
:10463600FFFFFFFF00E1000000000000BF01C9010D
:1046460000002107800001000000000000005E1944
:104656006B1960075F07620761075E075D070E0754
:10466600000000005D197C1A3619DF076207610732
:10467600BA1B951B0E07000000000C07230DE5066C
:10468600DF0762076107C7079A070E0700000000E9
:104696007819A11A60075F07620761075E075D0761
:1046A6000E07000000001119BD1A60075F07C91840
:1046B600FB19F618DB180E07000000005E19D31B65
:1046C60060075F07620761075E075D070E07000068
:1046D60000006C19F21B60075F07620761075E073F
:1046E6005D070E0700C18081000000000000003554
:1046F60019F0198419000000000D072E08490D0055
:10470600000000DB0D160EFC0DA20EC00EF10D0012
:10471600000000230A3E085F1C00000000CE106C5B
:1047260014D51DFCFF0000161E000000002F191DE9
:0E473600194F1B00000000C418C91993190088
:00000001FF
